:020000040800F2
:10000000000100207102000873020008611000085E
:1000100073020008730200087302000873020008EC
:1000200073020008730200087302000879020008D6
:1000300073020008730200087302000873020008CC
:1000400073020008730200087302000873020008BC
:10005000730200087302000871100008B110000854
:10006000F110000831110008711100088104000826
:1000700095040008A9040008BD040008D104000884
:10008000E5040008F9040008730200087302000880
:10009000730200087302000873020008B11100081F
:1000A000C50A000873020008730200087302000802
:1000B000730200087302000873020008730200084C
:1000C0007302000873020008730200086513000839
:1000D00095130008730200087302000873020008F9
:1000E000F11100087302000873020008730200088F
:1000F000730200087302000873020008730200080C
:1001000073020008730200087302000873020008FB
:1001100073020008730200087302000873020008EB
:1001200073020008730200087302000873020008DB
:1001300073020008730200087302000873020008CB
:1001400073020008730200087302000873020008BB
:1001500073020008730200087302000873020008AB
:10016000F50C0008891C00088D2200088D29000864
:100170002DE9F04FC1F80CD0C3689D46BDE8F08F63
:10018000002383F311882846A047002000F0D6FB07
:1001900000F0A3FA00DFFEE772B6274880F3088874
:1001A000264880F3098826484EF60851CEF2000111
:1001B0000860022080F31488BFF36F8F00F08CF882
:1001C00000F08BF84FF055301E491B4A91423CBF5E
:1001D00041F8040BFAE71C49184A91423CBF41F828
:1001E000040BFAE719491A4A1A4B9A423EBF51F8D2
:1001F000040B42F8040BF8E700201749174A914214
:100200003CBF41F8040BFAE700F06AF800F066F82A
:10021000134C144DAC4203DA54F8041B8847F9E739
:1002200002F026FB104C114DAC4203DA54F8041BCB
:100230008847F9E700F053B80001002000020020D1
:10024000000000080000002000010020002E00082F
:10025000000200200802002008020020740C002088
:1002600060010008700100087001000870010008BA
:1002700092E700F000F8FEE7EFF30983203383F301
:100280000988002383F3118870470000202310B5EC
:1002900083F311880D4B5B6813F4006312D0EFF306
:1002A00009844FF0807344F8043CA4F1200383F3E5
:1002B000098800F0DDF918B1054B44F8083C10BD81
:1002C000044BFAE783F31188F9E700BF00ED00E083
:1002D0009101000894010008704770477047FEE7DD
:1002E000F0B5082000261049D1E901341D460A68FE
:1002F000043AAC4210D8E21CD21ADD1E22F00302EE
:10030000AC4238BF00221344CA689A4209D8013867
:1003100001F11001E8D1F0BD52F8047F45F8047BEB
:10032000E7E743F8046BF0E7402B00084FF0FF319C
:1003300008B50E4B1A6919611A6900221A61186909
:10034000D868D960D968DA60DA68DA6942F0805230
:10035000DA61DA69DA6942F00062DA61DB6900F0D9
:1003600007F8BDE8084000F0D1B800BF0010024017
:1003700000231946094A10B5C2E90033084C04EBC2
:1003800083004068016002EB430004331C2B816052
:10039000F5D14FF0FF32034B5A6010BD0802002028
:1003A000C02B00080000024006282DE9F84336D88B
:1003B00001261C4C86402768374230D1DFF8688020
:1003C0004FEA001908EB0015013044F8302004EB27
:1003D000C00043603743154B2760586940F0010067
:1003E00058615B694AB16268AB681A4202D1E87B26
:1003F00000F0A8FB63683343636008EB09014B68B6
:10040000497B1A6858F8090022F00F021A600E2280
:100410008A40426000221A602846BDE8F883002521
:10042000FAE700BF08020020C02B000800100240BD
:1004300010B5202484F31188FFF7B6FF002383F35F
:10044000118810BD10B40468437B2168827B40682A
:10045000D940006801F00E0108420DD001FA03F303
:100460006360064B013253F832402CB103EBC203F8
:100470005868234610BC184710BC7047080200207B
:1004800008B50348FFF7DEFFBDE80840FFF7FEBEF2
:10049000C02B000808B50348FFF7D4FFBDE80840AB
:1004A000FFF7F4BED02B000808B50348FFF7CAFFDA
:1004B000BDE80840FFF7EABEE02B000808B5034896
:1004C000FFF7C0FFBDE80840FFF7E0BEF02B0008D3
:1004D00008B50348FFF7B6FFBDE80840FFF7D6BEF2
:1004E000002C000808B50348FFF7ACFFBDE8084042
:1004F000FFF7CCBE102C000808B50348FFF7A2FF99
:10050000BDE80840FFF7C2BE202C0008704700007D
:100510000022024BC3E900339A6070474802002072
:10052000002382680375054B1B6899689142FBD2D2
:100530005A680360426010605860704748020020AB
:1005400008B5202383F31188027D0023052A06D8ED
:10055000DFE802F00B050503120E826913604FF00D
:10056000FF338361FFF7DCFF002383F3118808BDAD
:100570008269936801339360D0E9003213605A6056
:10058000EDE70000002382680375054B1B6899683E
:100590009142FBD85A68036042601060586070470F
:1005A0004802002038B50C4C2569236828751A6864
:1005B00054602260012223611A75EFF309832A69CE
:1005C000243B9A4202D9054800F0FCF829462069EC
:1005D000BDE83840FFF7CCBD48020020302C0008B1
:1005E0004FF6FF7330B5994204460B4D87B010D0DB
:1005F0002B690A4A01A800F0C7F92046FFF7D2FF8D
:10060000049B13B101A800F003FA2B69986907B0A5
:1006100030BDFFF7C7FFF8E748020020410500089A
:1006200070B5114E8161336981689A6804469142C0
:1006300003D8BDE87040FFF773BF1846FFF7A2FF6D
:100640000123054634612375EFF309830269243BD6
:100650009A4202D9054800F0B5F829462046BDE87F
:100660007040FFF785BD00BF48020020302C000815
:10067000044B1A681B6990689B68984294BF0020DD
:10068000012070474802002038B50D4C23682069CE
:100690001A685460226001221A752361FFF772FF05
:1006A0000546EFF309830269243B9A4202D90548C3
:1006B00000F088F829462069BDE83840FFF758BDAA
:1006C00048020020302C000808B5FFF7D1FF18B110
:1006D000BDE80840FFF7D8BF08BDFFF7D5BFC0E9A8
:1006E0000000816070470000826810B4541E002C26
:1006F000846011DA21B982604FF0FF3010BC70477E
:10070000064B42681B6910BC986118605A60136000
:1007100043600520FFF764BF0020EFE74802002098
:10072000826803460132002A826007DC00680268A2
:100730001A60536000238361FFF7F2BE7047FEE743
:1007400010B5194CFFF7E4FE00F012F980222046A4
:10075000164900F087F8164B44F8140C0361012386
:100760000375144B144AD96821F4E0610904090C9B
:100770000A43DA60D3F8FC20104942F08072C3F8D3
:10078000FC200A6842F001020A601022DA77202277
:1007900083F82220002383F3118862B6BDE810405D
:1007A000074800F083B800BF6C0200203F2C00080F
:1007B0000001002000ED00E00003FA05001000E059
:1007C0004C2C000872B6014B1862FEE7480200206C
:1007D0002DE9F84F214D4FF000082F46DFF88090AB
:1007E00057F8144FD9F82400EB8B80B22289C61A2F
:1007F000B6B2B2421DD84FF0200A2389EA8BD4F852
:100800000CB01A44F31A9EB22368EA83BB425F60BD
:100810006B61C4F80C8001D100F048F988F31188AD
:100820002069D8478AF311886C692389B342E4D9D7
:10083000D8E76A69BA420ED01189E8830B441B1AC3
:1008400013812389022B2CBFC0180230BDE8F84F5A
:1008500080B200F031B9BDE8F88F00BF4802002037
:10086000004001408260022282827047D0E9012369
:1008700043F8102CA3F1440243F8142C026943F806
:10088000442C426943F8402C074A43F8242CC268A0
:10089000A3F1200043F8182C022203F80C2C0022AC
:1008A00003F80B2C704700BF810100085521D0E9E7
:1008B000013210B59A420DD8202383F31188FFF737
:1008C000D5FF00210446FFF7ABFE002383F3118818
:1008D000204610BD03F8011BECE7000070B504468C
:1008E00055264518A5421CD8202484F311882039A8
:1008F000441844F8243C049BA4F1240144F8203C0F
:10090000094B206144F8043C0223E160A3820021EA
:100910002046A260FFF784FE002383F3118820465F
:1009200070BD04F8016BDDE781010008024B1B6913
:1009300098610F20FFF736BE48020020202383F382
:100940001188FFF7F3BF08B50146202383F3118810
:100950000820FFF745FE002383F3118808BD0346F6
:10096000006820B100221A608161FFF7D9BD70478D
:10097000044B03F11402C3E905224FF6FF72DA615A
:10098000704700BF48020020F8B51F4FC0E903239D
:100990003A461E4B52F8145F02295B6A38BF0221A7
:1009A000954206469BB20BD1C7E90500FB83C0E91F
:1009B00000550181581880B2BDE8F84000F06CB8CD
:1009C000F88B2A891B1A9BB219448CB29C4203D221
:1009D000A41A2D68A4B205E0A24203D9204480B233
:1009E00000F06AF82B89A3420CD36B683560736002
:1009F0001E606E6034812B891B1B2B814FF6FF73A9
:100A0000BB83F8BDE41AE4E748020020004001403F
:100A10001A4930B40A4652F8144F0025844203683C
:100A20000BD0416893420B605960C56003D01A89AE
:100A300001890A441A8130BC704793424B615A6065
:100A4000E56002D130BC00F031B818892289C98B29
:100A5000104480B218810A4B5B6A9BB25A1A92B258
:100A60009042E8D930BCCB1A03449BB2012B9CBF07
:100A7000023290B2084480B200F01EB84802002052
:100A80000040014008B5FFF751FCBDE8084000F008
:100A900000B800F02BB800000022034B58631A6125
:100AA0000222DA60704700BF004001400022014B83
:100AB000DA60704700400140014B5863704700BF47
:100AC00000400140084B10B51A69920708D5002470
:100AD0001C61202383F31188FFF77AFE84F31188C9
:100AE000BDE81040FFF7D2BB00400140114B02218E
:100AF0009A69182042F480329A610F4A9B695368C0
:100B000043F4800353600D4B9A6842F21073B2FBBA
:100B1000F3F20B4B013A9A624FF6FF72DA6200224F
:100B20009A615A63DA605A6001225A611A6000F0D1
:100B300009B800BF00100240002004E0800400203B
:100B4000004001400122090100F1604303F56143C7
:100B5000C9B283F8001300F01F039A4043099B00B9
:100B600003F1604303F56143C3F880211A607047C5
:100B700080B501271C4E1D4C00212046B3681A4D3C
:100B800004F103082A68B5F804C0D2F808E007FAAF
:100B90000CFC1CEA0E0FA14614F8012B1AD0012AF6
:100BA0001ED0042A0CBF0322022204F8012CAA68DA
:100BB0009A4217D003B1984748460021AB68444594
:100BC00005F10C05DED103B198474FF4E170FFF752
:100BD000BAFED0E7023A012A8CBF01220422E4E7E0
:100BE0000322E2E70131EAE7580400207C040020F8
:100BF000104B984205D1104A936943F00403936166
:100C000070470E4B984204D10B4A936943F0080396
:100C1000F5E70B4B984204D1074A936943F0100360
:100C2000EDE7084B9842EBD1034A936943F0200368
:100C3000E5E700BF0008014000100240000C014041
:100C400000100140001401402DE9F3410325012764
:100C5000244C254E94F806802068A188FFF7C8FF31
:100C6000B8F1000F2CD0C36807FA01F2B8F1020FF7
:100C70000CBF93431343C3600823072922D84FF0C6
:100C80000F0C89000268C9B20CFA01FC22EA0C02BE
:100C90000260026803FA01F1114301600023013D83
:100CA00006F8013B04F10C04D4D180224FF490717A
:100CB0000E4B00950E48FFF711FE02B0BDE8F08123
:100CC0000423DAE74FF00F0C083989004268C9B2F3
:100CD0000CFA01FC22EA0C02426042688B4013438A
:100CE0004360DBE7580400207C040020710B0008FF
:100CF000380300204FF40032074B08490848C3E985
:100D00000012084A08499A60C3E90310C3E90521A3
:100D10000649C3E907127047580400200008014043
:100D20000C000200A10D0008000C01400D000200A3
:100D300007B54FF440730022CDE9002320238DF83E
:100D400000008DF8011083F31188134BD3F8AC2009
:100D5000002A18DD013AC3F8AC20D3F8942000989B
:100D600002F10801C3F8941010600198506003F17B
:100D7000900291422CBF1A46D3F894200748C3F83A
:100D80009420FFF7CDFCFFF79FFC002383F311882D
:100D900003B05DF804FB00BF40090020D809002023
:100DA00070B506460C460025E9B2A14200D370BDDD
:100DB000735C032B04D10020FFF7BAFF0135F3E782
:100DC000042BFBD10220F7E7202208B582F311881B
:100DD00003681B689847002383F3118808BD00004F
:100DE00073B5837E04468DF805301B4BD3F8AC20D9
:100DF000002A1BDD0021013AC3F8AC20D3F894206F
:100E000002F10800C3F89400117051709170D17014
:100E10000199516003F1900290422CBF1A46D3F819
:100E200094200E48C3F89420FFF77AFCE37E012B50
:100E30000FD12369268B251D13B12846FFF7E8FD46
:100E4000234631462846064A02B0BDE87040FFF707
:100E50009BBD02B070BD00BF40090020D809002032
:100E6000C90D00080368264A934206D1254B9A69AA
:100E700042F400629A619B697047B3F1804F07D1D9
:100E800003F50433DA6942F00102DA61DB69704785
:100E90001D4A934204D11B4BDA6942F00202F4E787
:100EA0001A4A934204D1174BDA6942F00402ECE784
:100EB000174A934204D1134BDA6942F01002E4E777
:100EC000144A934204D10F4BDA6942F02002DCE766
:100ED000114A934204D10B4B9A6942F48032C9E71C
:100EE0000E4A934204D1074B9A6942F40032C1E79B
:100EF0000B4A9342C0D1034B9A6942F48022B9E76E
:100F0000002C014000100240000400400008004096
:100F10000010004000140040004001400044014027
:100F20000048014010B5FFF79DFF4FF440420368B1
:100F300001465A648269DA62027D0069012A00F181
:100F4000FF300CBF0722062203280BD8DFE800F091
:100F500002323A42986940EA02129A611A6A42F0F1
:100F600001021A621A68486842F001021A602F4AA8
:100F70000B899042497D02F5843233D1946944F063
:100F8000040494619469072B44F0010494614FEACE
:100F9000810242F009023AD80F249B000168DBB2BB
:100FA0009C4021EA04010160016802FA03F30B434B
:100FB000036010BD986940EA02329A611A6A42F0F1
:100FC0001002CEE7D86940EA0212DA611A6A42F4E6
:100FD0008072C6E7D86940EA0232DA611A6A42F4DE
:100FE0008052BEE7124CA04203D1946944F0080439
:100FF000C7E7104CA04203D1946944F01004C0E745
:101000000D4CA042BED1946944F02004B9E70F24EE
:10101000083B9B004168DBB29C4021EA040141602F
:1010200041689A400A434260C3E700BF000801409C
:10103000000C01400010014000140140074B013832
:101040005A6922F080025A6110F9012F02B97047E3
:1010500019680906FCD55A60F6E700BF0038014060
:1010600008B50248FFF7EAFF01BEFEE7642C00085E
:1010700008B5202383F31188094B1B6853B19847A7
:101080000122084B5A61002383F31188BDE8084010
:10109000FFF7FCB80449054800F082FBF0E700BF09
:1010A0008C04002000040140702C0008792C0008FA
:1010B00008B5202383F31188094B5B6853B1984727
:1010C0000222084B5A61002383F31188BDE80840CF
:1010D000FFF7DCB80449054800F062FBF0E700BF09
:1010E0008C04002000040140872C0008792C0008A3
:1010F00008B5202383F31188094B9B6853B19847A7
:101100000422084B5A61002383F31188BDE808408C
:10111000FFF7BCB80449054800F042FBF0E700BF08
:101120008C04002000040140902C0008792C000859
:1011300008B5202383F31188094BDB6853B1984726
:101140000822084B5A61002383F31188BDE8084048
:10115000FFF79CB80449054800F022FBF0E700BF08
:101160008C04002000040140992C0008792C000810
:1011700008B5202383F31188094B1B6953B19847A5
:101180001022084B5A61002383F31188BDE8084000
:10119000FFF77CB80449054800F002FBF0E700BF08
:1011A0008C04002000040140A22C0008792C0008C7
:1011B00008B5202383F31188094B1B685BB198475E
:1011C0004FF47872074B5A61002383F31188BDE80E
:1011D0000840FFF75BB80449044800F0E1FAEFE784
:1011E000A404002000040140AB2C0008792C000866
:1011F00008B5202383F31188094B1B685BB198471E
:101200004FF47C42074B5A61002383F31188BDE8F9
:101210000840FFF73BB80449044800F0C1FAEFE783
:10122000A004002000040140B42C0008792C000820
:101230007047000045F25552084B1A6006225A606A
:1012400028225043B0F5801F28BF40F6FF704AF6B1
:10125000AA2238BF000A98601A6070470030004028
:1012600008B5074B5A6A42F001025A625A6A92075D
:10127000FCD5FFF7DFFF4CF6CC42024B1A6008BDED
:101280000010024000300040264BF0B504461F46D7
:1012900087B002AD03F110062A4618685968083372
:1012A00003C2B3421546F7D16B46386971681E4ACE
:1012B00003C35368C3F38103012B2FD0022B2FD11B
:1012C00053685168C3F38343C80303F102031FD477
:1012D00016494B435168C1F303111831694411F8A1
:1012E000101CCB40236051685268C1F30221C2F345
:1012F000C2221831183269446A4411F8181C12F8D5
:10130000182C23FA01F1D3406160A36007B0F0BD4F
:10131000516889034CBF06490649DAE7054BD9E70E
:10132000054BD7E7282B00080010024000093D00BC
:10133000808D5B00001BB70000127A000648074949
:10134000836805C8B3FBF1F3B2FBF1F2B0FBF1F136
:10135000034800F00DBA00BF8004002040420F0097
:10136000BD2C000808B5202383F31188074B9B6828
:10137000DB0703D5064B1B6803B19847002383F3B3
:101380001188BDE80840FEF781BF00BF0030014072
:10139000A804002008B5202383F31188074B9B681D
:1013A000DB0703D5064B1B6803B19847002383F383
:1013B0001188BDE80840FEF769BF00BF0038004053
:1013C000AC040020884230B515D0421E12F8015FEF
:1013D00011F8014BA5F1410019286BB260B2A4F1DC
:1013E000410498BF2033192C98BF2030181A01D11E
:1013F000002DEBD130BD0020FCE770B508B91068B6
:1014000050B103460E46184613F9014B16F9015B1D
:101410001DB944B92046146070BDAC42F6D1F1E765
:1014200023460CE015B90E4613F9014B16F9015B82
:10143000AC42F7D1002CF3D0002103F8011C13605B
:10144000EAE703461A4692F9001001330029F9D160
:10145000101A7047202804D00D28CCBF002001208E
:1014600070470120704720F020004138C0B2192891
:101470008CBF0020012070472DE9F74F81460446BC
:10148000264614F9013B1846FFF7E4FF05460028FD
:10149000F6D12D2B35D1012594F90030B41C002A4A
:1014A0005CD0102A0BD1302B09D194F9003023F0F5
:1014B0002003582B49D1102294F90130023400271F
:1014C00005F1004808F1FF38B8FBF2FB3E4602FB8D
:1014D0001B8001905FFA83FAAAF13000092816D820
:1014E000303B9A4223DD781C08D05E451CD802D1DF
:1014F0000198834218DC012706FB023614F9013BF0
:10150000E8E72B2B04BF94F90030B41CC7E718465A
:10151000FFF7A9FF58B1AAF1410ABAF1190F94BF18
:10152000372057201B1ADCE74FF0FF37E6E77B1C1C
:1015300010D005B1764221B10FB104F1FF39C1F8E5
:101540000090304603B0BDE8F08F3023002AB6D1BA
:101550000822B4E746460029EFD1F2E7302BA4D0A9
:101560000A22ACE72DE9F04385B0984601AB064668
:10157000002508461F469DF93090B0FBF2F48446E2
:1015800002FB140120460929CCB294BF3034373411
:1015900064B2944505F1010503F8014BEDD22C46E8
:1015A000336844451B6809D33368013D30461B68E6
:1015B0007957984730B9002DF6D104E049463046B6
:1015C000984718B10C2005B0BDE8F0830134E7E777
:1015D0002DE9F04F0B46054614464FF00A0B85B037
:1015E0001E4616F9011B31B928462B685B6805B009
:1015F000BDE8F04F1847252902D02B681B6866E02C
:1016000093F901704FF00008302F14BF20279E1C63
:1016100016F9011BA1F13002D2B2092A03D852B245
:101620000BFB0828F4E72A2902D114F9042BF7E769
:101630002E290AD116F9011BA1F13003DBB2092BC7
:10164000F8D92A2901D10434F4E763293BD015DC09
:10165000412966D003DC2529CFD03346C0E7532982
:1016600038D05829F9D1434610220097284654F81B
:10167000041BFFF777FF0028EFD0B5E7732929D0C7
:101680001BDC642901D06929E7D1A14659F8044B34
:10169000002C07DA2B682D2128461B689847002864
:1016A000A2D1644243460A22214628460097FFF70A
:1016B00059FF002898D14C46CFE77529CDD1434634
:1016C0000A220097D2E72B6814F9041B1B682846EE
:1016D0009847D0E7D4F800904846FFF7B2FE82461C
:1016E00009F1FF39B9F1FF3F02D019F9011F11B912
:1016F000A8EB0A0810E02B6828461B6898470028CA
:10170000F0D071E72B68394628461B68984708F1E6
:10171000FF3800287FF468AFB8F1000FF2DC043422
:101720009BE70027D4E90093D4F8088003934FFA8D
:1017300088FA039B9F4201DB0C348EE76FB930239C
:1017400019F807101022009328460223FFF70AFF1A
:1017500000287FF449AF0137EBE7B8F1000FEED076
:101760002B68514628461B6898470028E7D03BE77E
:101770000FB407B504AB53F8041B0193202383F384
:1017800011880648019AFFF723FF002383F311888D
:1017900003B05DF804EB04B0704700BF140B0020E9
:1017A0000FB407B504AA52F8041B04480192FFF7CE
:1017B0000FFF03B05DF804EB04B07047140B00207A
:1017C00070470120704701207047012070470120B9
:1017D0007047000008B5064C40F2DE30FFF7B3F862
:1017E00020680028F8D003685B689847F4E700BFDA
:1017F000D00500200EB403B503AA52F8041B00F56F
:1018000080700192FFF7E4FE02B05DF804EB03B0D4
:101810007047A0F58270EDE7104B984205D1104A51
:10182000936943F00403936170470E4B984204D1CF
:101830000B4A936943F00803F5E70B4B984204D138
:10184000074A936943F01003EDE7084B9842EBD148
:10185000034A936943F02003E5E700BF0008014015
:1018600000100240000C0140001001400014014033
:10187000034653F8902FD0F89C109B1A8B4228BF38
:101880000B46C0F8A0307BB1002380F89830436845
:101890005B68DA60D0F8A0205A60C268126A1A60E9
:1018A0001A6842F001021A607047436810B4596820
:1018B0000A6822F00F020A60597B1A680E238B40D7
:1018C0000146536051F8902FD0E9273422448A42D0
:1018D000A3EB040328BF00F11002C0F89C30C0F84D
:1018E000902033B9012380F89830036810BC1B683E
:1018F000184710BCFFF7BCBFFFF7D7BFD0F89C302C
:101900007F2B16D8D0F894305A1CC0F89420197048
:10191000D0F8942000F190039A4224BF00F1100304
:10192000C0F89430D0F89C300133C0F89C300020CF
:1019300070470C207047C9B2FFF7E0BFA0F5807078
:10194000F9E790F898300BB1FFF792BF7047FFF7B7
:10195000F8BFA0F58070FAE7826803465268D0F8B5
:10196000A4005268C2F15402121A48BF543272B134
:10197000421CC3F8A420184490F8A82000200A7044
:10198000D3F8A420532A03DDC3F8A40070470B202A
:10199000704700007FB590F8FC300446002B4ED015
:1019A00000253A4E20460DF10701FFF7D5FF00282C
:1019B00045D194F850319DF9072043B9B4F852113C
:1019C000736A5B1A40F2DE319BB28B4203D984F812
:1019D0005051C4F84C51736A082AA4F85231D4F813
:1019E0004C3105D1002BDDD0013BC4F84C31D9E797
:1019F0000D2A01D00A2A24D1002BD3D0002523445C
:101A000083F80851224904F5A47204F58470FFF7A5
:101A1000F4FC0123C4F8540184F850318DF80D30E2
:101A200084F8FC50202383F311881A4BD3F8AC20A0
:101A3000AA420FDCFEF748FE002383F3118804B0AE
:101A400070BD3E2BAED8591C2344C4F84C1183F80A
:101A50000821A7E7013AC3F8AC20D3F894200398F3
:101A600002F1080104F58274C3F894101460506008
:101A700003F1900291422CBF1A46D3F894200648F5
:101A8000C3F89420FEF74CFED4E700BF00400140AD
:101A9000F82C000840090020D8090020C268D2E9CB
:101AA0000013054A9342054A0CBF92685268B2FB84
:101AB000F1F29A60704700BF0038014080040020B6
:101AC00073B5C5680446A868A989FFF7A5FE544BFD
:101AD00007299A6942F001029A6173D80F2689009A
:101AE0000268C9B28E4022EA060202600922066834
:101AF0008A40324302606E684A4A964271D19A69BE
:101B000042F480429A619B692046FFF7C7FF002399
:101B100009213361444A2346A869FEF789FCE56838
:101B200042686B686060191D9160296A0126116026
:101B30000C2284F89860DA60C0222869A98A5A6168
:101B4000FFF76AFEC3688E401E430729C66058D857
:101B50000F2289000368C9B28A4023EA02030360A6
:101B6000082302688B4013430360002309211A46AF
:101B7000E869FEF75DFCE16843684A68A060101DF3
:101B8000986004F1A800D8605420496A5860196030
:101B9000196841F001011960D36843F40053D36020
:101BA000224B1A6802B91C60214C236843B9009388
:101BB00080224FF490711F4B1F48FEF78FFE20606C
:101BC00002B070BD0F26083989004268C9B28E4044
:101BD00022EA06024260092246688A403243426095
:101BE00089E7164A964205D1DA6942F40032DA6191
:101BF000DB6989E7124A964286D1DA6942F480228B
:101C0000F5E70F22083989004368C9B28A4023EA00
:101C100002034360082342688B4013434360A4E7F8
:101C20000010024000380140F9180008D0050020DB
:101C3000D4050020D5170008B0040020004400405F
:101C400000480040202383F31188012380F8FC30F2
:101C5000002383F311887047FFF7F4BFA0F582706B
:101C6000FAE7816A10B5044619B188470023A362D8
:101C700010BD2430BDE81040FEF771BE0148FFF7EB
:101C8000F0BF00BFD80500200E4B0F4A0F491A6065
:101C90000F4A10485A60A2F52052C3E902220E4AA8
:101CA000C3E904120D4A0E499A6102229A83002266
:101CB000C3E909229A7783F820200A4B88601A70BA
:101CC000704700BFD8050020542D0008050006000D
:101CD000003001407D1C000807000400000C01409A
:101CE0008C0400200406002043F23903084A30B572
:101CF0001468084D013105FB0433091A136023F001
:101D00000043B3FBF1F201FB1233184430BD00BFB6
:101D1000000200206D4EC64170B56FF04044056B67
:101D20006619056A05EB86056963C16C6518C16BA8
:101D300001EB85014A63826E1444826D02EB8402DA
:101D4000536370BD70B505460C4606468B6845F872
:101D5000043B0FCC0FC594E8030085E80300304630
:101D600070BD000003222DE9F04F7E4B93B0CDE90A
:101D7000023204214FF0804202200025FF264FF05E
:101D8000010840F2011B784C784FDFF8E491DFF84E
:101D9000E4A1CDE90E20099104F1200069460893E1
:101DA000CDF83090CDE90567C4E900B5C4E9025526
:101DB000C4E90455C4E906A50097ADF80450ADF890
:101DC0001050ADF81C80ADF828500B96ADF834805B
:101DD000ADF840501196FFF7B5FF0DF1180C6146B4
:101DE00004F13C00FFF7AEFF0DF1300C614604F149
:101DF0005800FFF7A7FF4FF0804204214FF00A0080
:101E00004FF0080E4FF00B0CCDE902210E92032289
:101E1000594B6946ADF8340004F19800ADF81CE068
:101E2000CDE90838ADF804C00F92CDE90569CDE9D8
:101E30000B67C4E91D5BC4E91F55C4E92155C4E91A
:101E4000235A0097ADF81050ADF82850ADF8405027
:101E50001196C4F89450FFF775FF06A904F1B40079
:101E6000FFF770FF0CA904F1D000FFF76BFF4FF0F4
:101E70000A000421ADF80400022003224FF00B0CED
:101E8000CDE90569CDE90B69CDF800904FF009095E
:101E9000394B09910F90694604F58870CDE90232FB
:101EA000ADF81CC008930E93C4E93B5BC4E93D55F3
:101EB000C4E93F55C4E9415AADF81050ADF8285077
:101EC000ADF83490ADF840501196C4F80C51FFF7BE
:101ED00039FF06A904F59670FFF734FF0CA904F545
:101EE000A470FFF72FFF254B0220CDE9023803F540
:101EF0008063CDE9083805234FF0080EADF8343083
:101F0000184B6946CDE90E3004F5C470ADF804E015
:101F1000CDE90567CDE90B67C4E9595BC4E95B55B9
:101F2000C4E95D55C4E95F5A0097ADF81050ADF8AB
:101F30001C90ADF82850ADF840501196C4F884516B
:101F4000FFF700FF06A904F5D270FFF7FBFE0CA90E
:101F500004F5E070FFF7F6FEC4F8DC5113B0BDE8FD
:101F6000F08F00BF0004004018060020000C014064
:101F70000008014000006464002C0140004401405E
:101F800013B542F210737824C178827800884A43EE
:101F9000C2EB0222B2FBF3F2B0FBF4F304FB130337
:101FA0006424C1EB0121B1FBF4F13C249BB23C3B26
:101FB000002BB8BF5B42C3F13C035343B3FBF4F3C4
:101FC0008A1AD2B213443B28C9B2DBB20FD97728A0
:101FD0000AD9B32816D9EF2818D9B0F5967F19D2A7
:101FE00008461946134613E00846194603460020E2
:101FF00061F3070063F30F2062F3174020F07F4086
:1020000002B010BD084611461A46EFE708461146D1
:102010000246ECE71846E5E7F8B504460F4603C864
:1020200016461D46FFF760FE3860D4E90201FFF74F
:102030005BFE3060D4E90401FFF756FE43F239033A
:10204000094A28601168094800FB01331360DB0767
:1020500059BF618B208BE18BA08BFFF745FE069B60
:1020600080B21880F8BD00BF000200206D4EC6414E
:1020700013B5044600F11803009300F1080200F1C3
:102080000C03011D08480068FFF7C6FFA3696367DA
:10209000002384F87730636F6361E3689B08013342
:1020A000236102B010BD00BF0402002083B50327E6
:1020B0000A20FEF748FC04254FF020084FF00209E3
:1020C000374CA4F1780688F3118854F8683C002B4B
:1020D00007DC14F8783C032B08D8DFE803F0253040
:1020E0004C57013B44F8683C002BF2D054F8042CC8
:1020F00054F8643C9A420BD0201FFFF741FF019037
:10210000C0F30743C0F30722C1B23046FFF704FE15
:1021100054F8043C44F8643C002383F31188013DE7
:1021200004F17804CDD1C3E714F8773C002BDDD05F
:102130000123304604F8783CFFF79AFFD6E754F8BD
:10214000042C54F8603C9A4206D154F8703C04F8D0
:10215000789C44F8683CC9E714F8013C0133DBB2D1
:1021600054F86C2C04F8013C0433B2FBF3F2013256
:1021700044F8682CBAE714F8012C54F86C3C04328B
:10218000B3FBF2F304F8787C0133E2E714F8013C86
:1021900023B904F8783C54F8743CDAE7013BDEE7F5
:1021A0009006002037B50425114C04F12000FEF7FD
:1021B000B9FE04F13C00FEF7B5FE04F15800FEF74D
:1021C000B1FE002320461A461946FFF7A5FDFFF78A
:1021D0004FFF013D04F17804E7D1FF224FF49071E5
:1021E000044B00950448FEF779FB03B030BD00BFF7
:1021F00018060020AD200008F80700200122044B3B
:102200005A7083F8792083F8F12083F869217047A8
:10221000180600200022044B5A7083F8792083F8B6
:10222000F12083F869217047180600202DE9F34159
:10223000054604274FF020080026134C2B786A78B7
:1022400043EA0223ADF80030AB788DF80230EB782A
:102250008DF8033088F31188684666702670266111
:10226000FFF78EFE0190C0F30743C0F30722C1B20F
:102270002046FFF751FD86F31188013F04F17804F1
:10228000DCD102B0BDE8F08118060020FFF76ABD7E
:102290001F4B07B51B6A59680A6822F00F020A60D3
:1022A000597B1A680E238B4053601A4A936823F0B7
:1022B00001039360202383F3118805238DF80530F3
:1022C000154BD3F8AC20002A1BDD0021013AC3F8DE
:1022D000AC20D3F8942002F10800C3F894001170E8
:1022E00051709170D1700199516003F19002904248
:1022F0002CBF1A46D3F894200848C3F89420FEF760
:102300000FFA002383F3118803B05DF804FB00BFCC
:10231000180900200024014040090020D8090020AD
:102320001022036A5B68D8605A6040F282521A60D9
:102330001A6842F001021A60044B9A6842F00102E6
:102340009A609A6842F480029A60704700240140C3
:10235000CA0010B502F10803541CA34234BF012384
:102360000823134400EB011100EB4300002331F874
:10237000022B81421344FAD1D80810BD054B013914
:10238000DA6A22F47002DA62DA6A42EA0152DA6246
:10239000704700BF00240140092901EB410010B53E
:1023A0004FF007010B4B09D81C69814024EA010159
:1023B0001961196982400A431A6110BDDC681E3830
:1023C000814024EA0101D960D96882400A43DA6079
:1023D000F3E700BF00240140062910B50FD81F24E1
:1023E000184B0139586B01EB81018C4020EA040045
:1023F0005863586B02FA01F10143596310BD0C296F
:102400000FD81F240F4B0739186B01EB81018C404B
:1024100020EA04001863186B02FA01F10143196302
:10242000ECE71029EAD81F24064B0D39D86A01EBD6
:1024300081018C4020EA0400D862D86A8A400243B5
:10244000DA62DBE7002401400F4B82B09A6842F069
:1024500001029A6000220192019A072A10D99A6813
:1024600042F008029A60084B9A681107FCD49A68F7
:1024700042F004029A609A685207FCD402B0704796
:10248000019A0132E7E700BF0024014038B5274B2D
:1024900010215A68054622F440425A609A69012484
:1024A00042F400729A619B69214B9A6842F00102E2
:1024B0009A609A6842F41E0242F480729A605A68E6
:1024C00042F480725A60FFF759FF05220321FFF79B
:1024D00063FF2146013403222846E4B2FFF77CFF64
:1024E000092CF6D1052211212846FFF755FF214678
:1024F000013411222846E4B2FFF76EFF112CF6D109
:102500002846FFF7A1FF00230A4A18460F21FDF7CE
:102510008FFF094A436828629A6040F282521A602B
:10252000034A936823F00103936038BD0010024012
:1025300000240140912200084C24014008B5FEF718
:1025400041FFB0FA80F0400908BD0000036801496E
:102550005B681847582D0008036801495B681847F5
:102560005D2D000813B500213F48FFF7F1FE012162
:1025700004463D48FFF7ECFE4FF496635C43B4FB22
:10258000F0F461008BB2B3F5875F59D241F20D02CE
:10259000934257D840F6E162934255D840F6B5527F
:1025A000934253D840F6A742934251D840F6E522D1
:1025B00093424FD905232D4A02EB83039C78224690
:1025C0002B48FFF7D5F8142C46D92A4B2A4A4F2C12
:1025D00098BF1346ADF8043046F2644301A8274C77
:1025E000ADF80630FFF722FE43F6C430FEF7ABF934
:1025F0006368DB0732D52248FFF7BAF84FF4E17081
:10260000FEF7A1F9202383F3118863681D4A43F480
:1026100080736360236843F008032360136943F009
:102620000403136102232360236843F0040323603F
:1026300000BF00BF30BF002383F3118802B010BD7C
:102640000023B8E70123B6E70223B4E70323B2E788
:102650000423B0E70024B2E70B4BBBE702B0BDE8B0
:102660001040FFF7CBBD00BF18090020E82D00087F
:10267000682D0008780064641E00646400700040E7
:10268000812D000800ED00E00000646437B50446C9
:102690002949006DFFF752FF18B12046FFF756FF9A
:1026A00030E02649206DFFF749FF054650B1236809
:1026B00020465D68224AAC46224B234903B0BDE860
:1026C000304060472149206DFFF738FFE0B12846D0
:1026D0001F4904F14402FEF790FE80B12A4601A989
:1026E000FEF7CAFE019B93F9003043B9C0B2072838
:1026F00005D8184B184A03EB40131360CDE720466A
:10270000FFF72AFF03B030BD1449206DFFF716FF15
:1027100010B1FFF773FDC0E71149206DFFF70EFF01
:1027200010B1FFF777FDB8E7204623680D495B68D5
:1027300003B0BDE830401847912D0008962D0008E1
:10274000A92D00089E2D0008E12D0008BF2D0008CE
:10275000F82C00086C0B002004020020C12D00089A
:10276000C42D0008C82D0008002483B5374D05F19D
:1027700098062023CDE9004483F311884FF6FF71BA
:102780003046FDF7B1FF90B9D5F890203048134698
:1027900053F8081B834228BF2B460091526814301F
:1027A0000192C5F89030FDF7BBFFFDF78DFF84F374
:1027B00011889DF80530013B062BDAD801A252F8AA
:1027C00023F000BFE127000831280008F3270008A4
:1027D000732700083B280008732700080F2800080B
:1027E000009F3846FFF752FF3B6838461B68984702
:1027F000BFE79DF801709DF8002039461548FEF7A7
:10280000B7FF002FB5D11448FFF78AFDB1E70722C3
:10281000124B1C70124B1A70FFF7F0FC9DF803204E
:10282000062AA6D80F4B03EB42130F4A1360A0E70A
:102830004AF6AA220D4B1A609BE7FFF793FE072288
:10284000064B1C70064B1A7093E700BF400900202E
:10285000D0090020D52D000818090020F00900201B
:10286000100A00206C0B0020040200200030004001
:1028700007B541F29410FEF7F3FCFEF7D9FC33489C
:10288000FEF702FDFEF7FEF8FDF75AFF0122304C7D
:10289000304B04F1A40012211A70C4E92444FDF75E
:1028A0001EFF002104F19800FDF719FF2A48FFF7E9
:1028B00007F92A4B2A4A2B4C5A60E3692A4943F00C
:1028C00080532A4AE3612A48E369FEF751FF1F4813
:1028D000FEF734FDFFF766FC264B01A80193FFF7D6
:1028E000A5FCFEF7B1F9A369234843F00403A361F3
:1028F000224B1A6822F470421A60A26942F0040264
:10290000A2611A6822F470621A601A6842F4807236
:102910001A6004221A61FFF7B9FD202383F311889E
:1029200017480369048B13B10430FEF771F8144B98
:102930002146181D134AFEF727F8002383F3118858
:102940000722114B1A70FFF70FFF00BF8004002011
:1029500040090020F1090020140A00200000014075
:10296000040A000200100240A92D00089E2D000854
:10297000E02D0008B400646418090020000801403C
:10298000F4090020C90D0008100A002000200021D1
:10299000524B2DE9F041C3E900014FF4E131504AB7
:1029A000C3E924334F4B0720C2E900130621A3F5E6
:1029B0003053C2E90313936003230424C2E90503DF
:1029C0009223C2E907434FF485535362464B0021DB
:1029D000DA6003F11002C3E92422012283F898206F
:1029E00083F8FC20414AC3E901111A60C3E92711A9
:1029F000C3E95211C3E95411C3F8A41002F128012C
:102A000038326C244FF4B475C3F80011C3F80421B4
:102A1000374B384A4FF470281A60374A374E9A615C
:102A20000922374BDFF8DCC0C3E90556C3E914457A
:102A3000354D364EC3E91685354FDFF8D880364D13
:102A40002D213620C3E90762C3E91E8540F27626B0
:102A50004FF4877E40F22A38C3E90EC740F2951C36
:102A60006325C3E90021C3E90304C3E90912C3E9EB
:102A70001021C3E91220C3E91821C3E91A209A6082
:102A8000C3E90CE6C3E91CC6D862C3E92021C3F838
:102A900094804FF4E028C3E92B54C3F890401F4CB6
:102AA000C3F89880C3F8B840DFF8748004F5702448
:102AB0001934C3E92782C3E92F42C3E93112194A05
:102AC000C3E92255C3E93627C3E92915C3E9330E03
:102AD000C3F8B460C3F8D4C0BDE8F0814009002059
:102AE0004C0C002000380140140A0020042D00087E
:102AF000F4090020F42C0008062702014A016801AD
:102B00006C0B0020A100C300FA000E01D700E60004
:102B100032004D005000A00004012201E100FA0043
:082B20006101680178000E015B
:102B28000000000000000000010203040607080975
:102B38000000000001020304082E0008740C0020A5
:102B4800740C0020740C0020082E000800000000FF
:102B58000000000000000000082E0008000000002F
:102B68000000000000000000082E0008000000001F
:102B78000000000000000000082E0008000000000F
:102B88000000000000000000082E000800000000FF
:102B98000000000000000000082E000800000000EF
:102BA8000000000000000000082E000800000000DF
:102BB8000000000000000000000002400800024081
:102BC800010000000000000B000002401C00024051
:102BD800020000000004010C000002403000024026
:102BE800040000000008020D0000024044000240FA
:102BF80008000000000C030E0000024058000240CC
:102C0800100000000010040F000002406C00024099
:102C1800200000000014051000000240800002405F
:102C28004000000000180611737461636B206F7612
:102C38006572666C6F77006D61696E0069646C65BA
:102C480000000000442C00088802002038030020FF
:102C5800010000003F070008000000000D486172F5
:102C6800644661756C740D00566563746F7235380F
:102C780000556E68616E646C65642025530D0056BE
:102C88006563746F72354300566563746F723630CE
:102C980000566563746F72363400566563746F72DC
:102CA800363800566563746F72394300566563742D
:102CB8006F72453000414842467265713D25754D39
:102CC800487A3B2041504231467265713D25754D29
:102CD800487A3B2041504232467265713D25754D18
:102CE800487A0D000000000000000000E10D000817
:102CF800202C00000000000000000000C1170008A0
:102D080095190008371900084F190008F517000829
:102D1800C3170008CB170008591C000800FFFFFF65
:102D2800000000003D19000853190008FCFEFFFFD1
:102D3800000000005D1C000813180008C7170008F1
:102D4800CF1700080000000000000000631C000806
:102D58004F6B0D0A00426164506172616D0D0A008B
:102D6800564261743A2025756D563B205065726352
:102D7800656E743A2025750D00456E746572696E2E
:102D88006720736C6565700D0050696E6700566545
:102D98007273696F6E004255494C445F54494D4502
:102DA800004372797374616C466C69636B65724237
:102DB80079466C757465004E004F6E004F6666006C
:102DC800436D64556E6B6E6F776E0D0A0042746EBC
:102DD8002025752025750D000D25532025530D0040
:102DE800E01064000E105000E20E3C00B60D280002
:082DF800A80C1400E60A0A0011
:082E0000010000006C0B002032
:04000005080002717C
:00000001FF
