:020000040800F2
:1000000000010020790200087B020008890E000828
:100010007B0200087B0200087B0200087B020008CC
:100020007B0200087B0200087B020008C102000876
:100030007B0200087B0200087B0200087B020008AC
:100040007B0200087B0200087B0200087B0200089C
:100050007B0200087B020008990E0008D90E0008F8
:10006000190F0008590F0008990F0008D50400085F
:10007000E9040008FD040008110500082505000832
:10008000390500084D0500087B0200087B020008C6
:100090007B0200087B0200087B020008D90F0008E1
:1000A000450B00087B0200087B0200087B02000869
:1000B0007B0200087B0200087B0200087B0200082C
:1000C0007B0200087B0200087B0200084512000842
:1000D000751200087B0200087B0200087B02000802
:1000E000191000087B0200087B0200087B02000850
:1000F0007B0200087B0200087B0200087B020008EC
:100100007B0200087B0200087B0200087B020008DB
:100110007B0200087B0200087B0200087B020008CB
:100120007B0200087B0200087B0200087B020008BB
:100130007B0200087B0200087B0200087B020008AB
:100140007B0200087B0200087B0200087B0200089B
:100150007B0200087B0200087B0200087B0200088B
:10016000952F0008A502000859230008252900083A
:08017000052D000881020008C2
:100178002DE9F04FC1F80CD0C3689D46BDE8F08F5B
:10018800002383F311882846A047002000F002FCD2
:1001980000F0C9FA00DFFEE772B6274880F3088846
:1001A800264880F3098826484EF60851CEF2000109
:1001B8000860022080F31488BFF36F8F00F0ACF85A
:1001C80000F0ABF84FF055301E491B4A91423CBF36
:1001D80041F8040BFAE71C49184A91423CBF41F820
:1001E800040BFAE719491A4A1A4B9A423EBF51F8CA
:1001F800040B42F8040BF8E700201749174A91420C
:100208003CBF41F8040BFAE700F08AF800F086F8E2
:10021800134C144DAC4203DA54F8041B8847F9E731
:1002280002F0F2FC104C114DAC4203DA54F8041BF6
:100238008847F9E700F073B80001002000020020A9
:10024800000000080000002000010020C83200085B
:10025800000200201002002010020020900D002053
:1002680060010008740100087401000878010008A2
:1002780092E700F000F8FEE710B5054C237833B993
:10028800044B13B10448AFF300800123237010BD61
:100298001002002000000000C832000808B5034B17
:1002A8001BB103490348AFF3008008BD00000000FC
:1002B80014020020C8320008EFF30983203383F3C7
:1002C8000988002383F3118870470000202310B5A4
:1002D80083F311880D4B5B6813F4006312D0EFF3BE
:1002E80009844FF0807344F8043CA4F1200383F39D
:1002F800098800F0E3F918B1054B44F8083C10BD33
:10030800044BFAE783F31188F9E700BF00ED00E03A
:10031800990100089C010008704770477047FEE784
:1003280070B50825134CD4E9010201462368043B43
:100338008A4219D8D31C1B1AC11E23F003038A4210
:1003480038BF00231844E368C11EDA1C121A22F0D1
:100358000302994288BF0022002102F069FD013D95
:1003680004F11004DFD170BD53F8046F41F8046B39
:10037800DEE700BFC82F00084FF0FF3108B50E4B6D
:100388001A6919611A6900221A611869D868D9604E
:10039800D968DA60DA68DA6942F08052DA61DA69D3
:1003A800DA6942F00062DA61DB6900F007F8BDE85B
:1003B800084000F0D1B800BF0010024000231946E1
:1003C800094A10B5C2E90033084C04EB83004068C1
:1003D800016002EB430004331C2B8160F5D14FF020
:1003E800FF32034B5A6010BD2C0200204830000831
:1003F8000000024006282DE9F84336D801261C4C97
:1004080086402768374230D1DFF868804FEA001904
:1004180008EB0015013044F8302004EBC0004360BD
:100428003743154B2760586940F0010058615B69F4
:100438004AB16268AB681A4202D1E87B00F0BEFBA1
:1004480063683343636008EB09014B68497B1A68AA
:1004580058F8090022F00F021A600E228A40426002
:1004680000221A602846BDE8F8830025FAE700BF95
:100478002C020020483000080010024010B520244B
:1004880084F31188FFF7B6FF002383F3118810BDAA
:1004980010B40468437B2168827B4068D9400068B7
:1004A80001F00E0108420DD001FA03F36360064B18
:1004B800013253F832402CB103EBC203586823468B
:1004C80010BC184710BC70472C02002008B5034820
:1004D800FFF7DEFFBDE80840FFF7F8BE4830000828
:1004E80008B50348FFF7D4FFBDE80840FFF7EEBEA4
:1004F8005830000808B50348FFF7CAFFBDE80840B0
:10050800FFF7E4BE6830000808B50348FFF7C0FFEE
:10051800BDE80840FFF7DABE7830000808B50348A0
:10052800FFF7B6FFBDE80840FFF7D0BE88300008E7
:1005380008B50348FFF7ACFFBDE80840FFF7C6BEA3
:100548009830000808B50348FFF7A2FFBDE8084047
:10055800FFF7BCBEA8300008704700000022024B1D
:10056800C3E900339A6070476C0200200023826858
:100578000375054B1B6899689142FBD25A68036062
:1005880042601060586070476C02002008B5202354
:1005980083F31188027D0023052A06D8DFE802F0DC
:1005A8000B050503120E826913604FF0FF33836158
:1005B800FFF7DCFF002383F3118808BD8269936885
:1005C80001339360D0E9003213605A60EDE7000010
:1005D800002382680375054B1B6899689142FBD814
:1005E8005A68036042601060586070476C020020CF
:1005F80038B50C4C2569236828751A685460226040
:10060800012223611A75EFF309832A69243B9A4270
:1006180002D9054800F0FCF829462069BDE83840B1
:10062800FFF7A6BD6C020020B83000084FF6FF7334
:1006380030B5994204460B4D87B010D02B690A4A51
:1006480001A800F0DDF92046FFF7D2FF049B13B1A3
:1006580001A800F019FA2B69986907B030BDFFF7B7
:10066800C7FFF8E76C0200209505000870B5114E29
:100678008161336981689A680446914203D8BDE86C
:100688007040FFF773BF1846FFF7A2FF0123054626
:1006980034612375EFF309830269243B9A4202D936
:1006A800054800F0B5F829462046BDE87040FFF738
:1006B8005FBD00BF6C020020B8300008044B1A6808
:1006C8001B6990689B68984294BF0020012070477E
:1006D8006C02002038B50D4C236820691A685460F4
:1006E800226001221A752361FFF772FF0546EFF3B6
:1006F80009830269243B9A4202D9054800F088F828
:1007080029462069BDE83840FFF732BD6C02002059
:10071800B830000808B5FFF7D1FF18B1BDE80840A8
:10072800FFF7D8BF08BDFFF7D5BFC0E9000081605B
:1007380070470000826810B4541E002C846011DADF
:1007480021B982604FF0FF3010BC7047064B4268F9
:100758001B6910BC986118605A60136043600520DB
:10076800FFF764BF0020EFE76C02002082680346B1
:100778000132002A826007DC006802681A60536050
:1007880000238361FFF7F2BE7047FEE710B5194CEE
:10079800FFF7E4FE00F028F980222046164900F011
:1007A80087F8164B44F8140C036101230375144BA6
:1007B800144AD96821F4E0610904090C0A43DA6093
:1007C800D3F8FC20104942F08072C3F8FC200A6874
:1007D80042F001020A601022DA77202283F82220F0
:1007E800002383F3118862B6BDE81040074800F083
:1007F80083B800BF90020020C73000080001002025
:1008080000ED00E00003FA05001000E0D430000815
:1008180072B6014B1862FEE76C0200202DE9F84F12
:10082800214D4FF000082F46DFF8809057F8144FFD
:10083800D9F82400EB8B80B22289C61AB6B2B2422C
:100848001DD84FF0200A2389EA8BD4F80CB01A443B
:10085800F31A9EB22368EA83BB425F606B61C4F8F7
:100868000C8001D100F05EF988F311882069D8471F
:100878008AF311886C692389B342E4D9D8E76A6995
:10088800BA420ED01189E8830B441B1A13812389BD
:10089800022B2CBFC0180230BDE8F84F80B200F020
:1008A80047B9BDE8F88F00BF6C0200200040014046
:1008B8008260022282827047D0E9012343F8102C1B
:1008C800A3F1440243F8142C026943F8442C42690A
:1008D80043F8402C074A43F8242CC268A3F12000AF
:1008E80043F8182C022203F80C2C002203F80B2CD6
:1008F800704700BF8901000810B50446D4E9010318
:100908001A1A984288BF0022552102F091FA202332
:1009180083F311882046FFF7CFFF00210446FFF735
:10092800A5FE002383F31188204610BDC842F8B500
:1009380016460C4634BF0A46002255211F46054676
:1009480002F076FA202383F31188203C2C44A4F18A
:100958002403E360069B002144F8203C084B204612
:1009680044F8043C02232561A38244F8247CA66051
:10097800FFF77CFE002383F311882046F8BD00BFF3
:1009880089010008024B1B6998610F20FFF730BEF0
:100998006C020020202383F31188FFF7F3BF08B50A
:1009A8000146202383F311880820FFF73FFE002328
:1009B80083F3118808BD0000054B1B6921B1036052
:1009C80098610320FFF732BE4FF0FF30704700BF39
:1009D8006C0200200346006820B100221A60816181
:1009E800FFF7C4BD70470000044B03F11402C3E9CC
:1009F80005224FF6FF72DA61704700BF6C020020D3
:100A0800F8B51F4FC0E903233A461E4B52F8145F4E
:100A180002295B6A38BF0221954206469BB20BD178
:100A2800C7E90500FB83C0E900550181581880B269
:100A3800BDE8F84000F06CB8F88B2A891B1A9BB205
:100A480019448CB29C4203D2A41A2D68A4B205E0C2
:100A5800A24203D9204480B200F06AF82B89A3424D
:100A68000CD36B68356073601E606E6034812B89AF
:100A78001B1B2B814FF6FF73BB83F8BDE41AE4E719
:100A88006C020020004001401A4930B40A4652F86E
:100A9800144F0025844203680BD0416893420B60D1
:100AA8005960C56003D01A8901890A441A8130BC8B
:100AB800704793424B615A60E56002D130BC00F048
:100AC80031B818892289C98B104480B218810A4B21
:100AD8005B6A9BB25A1A92B29042E8D930BCCB1AE0
:100AE80003449BB2012B9CBF023290B2084480B2EF
:100AF80000F01EB86C0200200040014008B5FFF766
:100B08003BFCBDE8084000F000B800F02BB800003E
:100B18000022034B58631A610222DA60704700BF53
:100B2800004001400022014BDA607047004001405C
:100B3800014B5863704700BF00400140084B10B597
:100B48001A69920708D500241C61202383F31188B1
:100B5800FFF764FE84F31188BDE81040FFF7B6BBC9
:100B680000400140114B02219A69182042F480325A
:100B78009A610F4A9B69536843F4800353600D4B95
:100B88009A6842F21073B2FBF3F20B4B013A9A6285
:100B98004FF6FF72DA6200229A615A63DA605A608D
:100BA80001225A611A6000F009B800BF0010024023
:100BB800002004E0600300200040014001220901F8
:100BC80000F1604303F56143C9B283F8001300F0F4
:100BD8001F039A4043099B0003F1604303F56143F7
:100BE800C3F880211A607047202208B582F3118863
:100BF80003681B689847002383F3118808BD000029
:100C080073B5837E04468DF805301B4BD3F8AC20B2
:100C1800002A1BDD0021013AC3F8AC20D3F8942048
:100C280002F10800C3F89400117051709170D170EE
:100C38000199516003F1900290422CBF1A46D3F8F3
:100C480094200E48C3F89420FFF790FDE37E012B13
:100C58000FD12369268B251D13B12846FFF714FFF2
:100C6800234631462846064A02B0BDE87040FFF7E1
:100C7800C7BE02B070BD00BFA8090020400A00200E
:100C8800F10B00080368264A934206D1254B9A695E
:100C980042F400629A619B697047B3F1804F07D1B3
:100CA80003F50433DA6942F00102DA61DB6970475F
:100CB8001D4A934204D11B4BDA6942F00202F4E761
:100CC8001A4A934204D1174BDA6942F00402ECE75E
:100CD800174A934204D1134BDA6942F01002E4E751
:100CE800144A934204D10F4BDA6942F02002DCE740
:100CF800114A934204D10B4B9A6942F48032C9E7F6
:100D08000E4A934204D1074B9A6942F40032C1E774
:100D18000B4A9342C0D1034B9A6942F48022B9E747
:100D2800002C014000100240000400400008004070
:100D38000010004000140040004001400044014001
:100D48000048014010B5FFF79DFF4FF4404203688B
:100D580001465A648269DA62027D0069012A00F15B
:100D6800FF300CBF0722062203280BD8DFE800F06B
:100D780002323A42986940EA02129A611A6A42F0CB
:100D880001021A621A68486842F001021A602F4A82
:100D98000B899042497D02F5843233D1946944F03D
:100DA800040494619469072B44F0010494614FEAA8
:100DB800810242F009023AD80F249B000168DBB295
:100DC8009C4021EA04010160016802FA03F30B4325
:100DD800036010BD986940EA02329A611A6A42F0CB
:100DE8001002CEE7D86940EA0212DA611A6A42F4C0
:100DF8008072C6E7D86940EA0232DA611A6A42F4B8
:100E08008052BEE7124CA04203D1946944F0080412
:100E1800C7E7104CA04203D1946944F01004C0E71E
:100E28000D4CA042BED1946944F02004B9E70F24C8
:100E3800083B9B004168DBB29C4021EA0401416009
:100E480041689A400A434260C3E700BF0008014076
:100E5800000C01400010014000140140074B01380C
:100E68005A6922F080025A6110F9012F02B97047BD
:100E780019680906FCD55A60F6E700BF003801403A
:100E880008B50248FFF7EAFF01BEFEE7EC300008AC
:100E980008B5202383F31188094B1B6853B1984781
:100EA8000122084B5A61002383F31188BDE80840EA
:100EB800FFF70CBA0449054800F0DEFBF0E700BF75
:100EC8006C03002000040140F830000801310008DC
:100ED80008B5202383F31188094B5B6853B1984701
:100EE8000222084B5A61002383F31188BDE80840A9
:100EF800FFF7ECB90449054800F0BEFBF0E700BF76
:100F08006C030020000401400F3100080131000883
:100F180008B5202383F31188094B9B6853B1984780
:100F28000422084B5A61002383F31188BDE8084066
:100F3800FFF7CCB90449054800F09EFBF0E700BF75
:100F48006C0300200004014018310008013100083A
:100F580008B5202383F31188094BDB6853B1984700
:100F68000822084B5A61002383F31188BDE8084022
:100F7800FFF7ACB90449054800F07EFBF0E700BF75
:100F88006C030020000401402131000801310008F1
:100F980008B5202383F31188094B1B6953B198477F
:100FA8001022084B5A61002383F31188BDE80840DA
:100FB800FFF78CB90449054800F05EFBF0E700BF75
:100FC8006C030020000401402A31000801310008A8
:100FD80008B5202383F31188094B1B685BB1984738
:100FE8004FF47872074B5A61002383F31188BDE8E8
:100FF8000840FFF76BB90449044800F03DFBEFE7F0
:101008008403002000040140333100080131000846
:1010180008B5202383F31188094B1B685BB19847F7
:101028004FF47C42074B5A61002383F31188BDE8D3
:101038000840FFF74BB90449044800F01DFBEFE7EF
:1010480080030020000401403C3100080131000801
:1010580045F25552084B1A6006225A60282250431E
:10106800B0F5801F28BF40F6FF704AF6AA2238BFA5
:10107800000A98601A6070470030004008B5074BB6
:101088005A6A42F001025A625A6A9207FCD5FFF77F
:10109800DFFF4CF6CC42024B1A6008BD001002403C
:1010A80000300040264BF0B504461F4687B002AD1D
:1010B80003F110062A4618685968083303C2B34278
:1010C8001546F7D16B46386971681E4A03C35368E1
:1010D800C3F38103012B2FD0022B2FD15368516802
:1010E800C3F38343C80303F102031FD416494B43D8
:1010F8005168C1F303111831694411F8101CCB4031
:10110800236051685268C1F30221C2F3C222183128
:10111800183269446A4411F8181C12F8182C23FA7A
:1011280001F1D3406160A36007B0F0BD5168890345
:101138004CBF06490649DAE7054BD9E7054BD7E71F
:10114800B02F00080010024000093D00808D5B00B0
:10115800001BB70000127A0006480749836805C8D3
:10116800B3FBF1F3B2FBF1F2B0FBF1F1034800F08D
:101178006BBA00BF6003002040420F0045310008F1
:1011880070B500682A4D1C46A842049B38D105F565
:101198006045AE6946F48056AE61AD694FF441755D
:1011A8000129056002BF016841F080010160012A40
:1011B80002BF026842F002020260012C02BF02680C
:1011C80042F0010202601A4A90421A4A0CBF926821
:1011D8005268B2FBF3F3802B1DDC402B1DDC202B67
:1011E8001DDC102B1DDC082B1DDC042B1DDC022B49
:1011F800D4BF00230123026842EAC303036070BD21
:101208000D4DA842CAD105F5EC35EE6946F4804685
:10121800EE61ED69C2E70723EDE70623EBE7052357
:10122800E9E70423E7E70323E5E70223E3E700BF51
:1012380000300140600300200038004008B520233A
:1012480083F31188074B9B68DB0703D5064B1B68A4
:1012580003B19847002383F31188BDE80840FFF7DE
:1012680035B800BF003001408803002008B52023AE
:1012780083F31188074B9B68DB0703D5064B1B6874
:1012880003B19847002383F31188BDE80840FFF7AE
:101298001DB800BF003800408C030020884230B5DC
:1012A80015D0421E12F8015F11F8014BA5F141005B
:1012B80019286BB260B2A4F1410498BF2033192CED
:1012C80098BF2030181A01D1002DEBD130BD002075
:1012D800FCE770B508B9106850B103460E461846C9
:1012E80013F9014B16F9015B1DB944B92046146086
:1012F80070BDAC42F6D1F1E723460CE015B90E46B5
:1013080013F9014B16F9015BAC42F7D1002CF3D06D
:10131800002103F8011C1360EAE703461A4692F914
:10132800001001330029F9D1101A7047202804D081
:101338000D28CCBF0020012070470120704720F005
:1013480020004138C0B219288CBF00200120704706
:101358002DE9F74F81460446264614F9013B184605
:10136800FFF7E4FF05460028F6D12D2B35D10125DE
:1013780094F90030B41C002A5CD0102A0BD1302B11
:1013880009D194F9003023F02003582B49D11022B9
:1013980094F901300234002705F1004808F1FF38BC
:1013A800B8FBF2FB3E4602FB1B8001905FFA83FA12
:1013B800AAF13000092816D8303B9A4223DD781C60
:1013C80008D05E451CD802D10198834218DC012759
:1013D80006FB023614F9013BE8E72B2B04BF94F90E
:1013E8000030B41CC7E71846FFF7A9FF58B1AAF1A7
:1013F800410ABAF1190F94BF372057201B1ADCE7AE
:101408004FF0FF37E6E77B1C10D005B1764221B1DB
:101418000FB104F1FF39C1F80090304603B0BDE8C0
:10142800F08F3023002AB6D10822B4E746460029B7
:10143800EFD1F2E7302BA4D00A22ACE72DE9F04334
:1014480085B0984601AB0646002508461F469DF91B
:101458003090B0FBF2F4844602FB140120460929BF
:10146800CCB294BF3034373464B2944505F10105E9
:1014780003F8014BEDD22C46336844451B6809D369
:101488003368013D30461B687957984730B9002DBD
:10149800F6D104E049463046984718B10C2005B00B
:1014A800BDE8F0830134E7E72DE9F04F0B46054628
:1014B80014464FF00A0B85B01E4616F9011B31B9C8
:1014C80028462B685B6805B0BDE8F04F184725290A
:1014D80002D02B681B6866E093F901704FF0000892
:1014E800302F14BF20279E1C16F9011BA1F13002D2
:1014F800D2B2092A03D852B20BFB0828F4E72A29EA
:1015080002D114F9042BF7E72E290AD116F9011B89
:10151800A1F13003DBB2092BF8D92A2901D104340F
:10152800F4E763293BD015DC412966D003DC252983
:10153800CFD03346C0E7532938D05829F9D143468C
:1015480010220097284654F8041BFFF777FF00285D
:10155800EFD0B5E7732929D01BDC642901D06929AC
:10156800E7D1A14659F8044B002C07DA2B682D2146
:1015780028461B6898470028A2D1644243460A229D
:10158800214628460097FFF759FF002898D14C4676
:10159800CFE77529CDD143460A220097D2E72B68B9
:1015A80014F9041B1B6828469847D0E7D4F8009024
:1015B8004846FFF7B2FE824609F1FF39B9F1FF3F0D
:1015C80002D019F9011F11B9A8EB0A0810E02B681D
:1015D80028461B6898470028F0D071E72B683946E1
:1015E80028461B68984708F1FF3800287FF468AF41
:1015F800B8F1000FF2DC04349BE70027D4E900932C
:10160800D4F8088003934FFA88FA039B9F4201DBC2
:101618000C348EE76FB9302319F8071010220093A5
:1016280028460223FFF70AFF00287FF449AF013755
:10163800EBE7B8F1000FEED02B68514628461B683F
:1016480098470028E7D03BE70FB407B504AB53F839
:10165800041B0193202383F311880648019AFFF79E
:1016680023FF002383F3118803B05DF804EB04B073
:10167800704700BF780B00200FB407B504AA52F8D2
:10168800041B04480192FFF70FFF03B05DF804EB59
:1016980004B07047780B0020704701207047012084
:1016A80070470120704701207047000008B5064CBC
:1016B80040F2DE30FFF773F920680028F8D003689D
:1016C8005B689847F4E700BFB00400200EB403B588
:1016D80003AA52F8041B00F580700192FFF7E4FE9C
:1016E80002B05DF804EB03B07047A0F58270EDE737
:1016F800104B984205D1104A936943F00403936153
:1017080070470E4B984204D10B4A936943F0080383
:10171800F5E70B4B984204D1074A936943F010034D
:10172800EDE7084B9842EBD1034A936943F0200355
:10173800E5E700BF0008014000100240000C01402E
:101748000010014000140140034653F8902FD0F8D0
:101758009C109B1A8B4228BF0B46C0F8A0307BB167
:10176800002380F8983043685B68DA60D0F8A020DE
:101778005A60C268126A1A601A6842F001021A6056
:101788007047436810B459680A6822F00F020A606B
:10179800597B1A680E238B400146536051F8902FED
:1017A800D0E9273422448A42A3EB040328BF00F17E
:1017B8001002C0F89C30C0F8902033B9012380F89B
:1017C8009830036810BC1B68184710BCFFF7BCBFF3
:1017D800FFF7D7BFD0F89C307F2B16D8D0F89430BD
:1017E8005A1CC0F894201970D0F8942000F1900386
:1017F8009A4224BF00F11003C0F89430D0F89C300E
:101808000133C0F89C30002070470C207047C9B2E3
:10181800FFF7E0BFA0F58070F9E790F898300BB1BA
:10182800FFF792BF7047FFF7F8BFA0F58070FAE79F
:10183800826803465268D0F8A4005268C2F1540284
:10184800121A48BF543272B1421CC3F8A42018447B
:1018580090F8A82000200A70D3F8A420532A03DDAA
:10186800C3F8A40070470B20704700007FB590F8BC
:10187800FC300446002B4ED000253A4E20460DF190
:101888000701FFF7D5FF002845D194F850319DF99D
:10189800072043B9B4F85211736A5B1A40F2DE317B
:1018A8009BB28B4203D984F85051C4F84C51736AE7
:1018B800082AA4F85231D4F84C3105D1002BDDD0D8
:1018C800013BC4F84C31D9E70D2A01D00A2A24D1AA
:1018D800002BD3D00025234483F80851224904F56E
:1018E800A47204F58470FFF7F4FC0123C4F85401D2
:1018F80084F850318DF80D3084F8FC50202383F3A0
:1019080011881A4BD3F8AC20AA420FDCFEF702FF6D
:10191800002383F3118804B070BD3E2BAED8591C48
:101928002344C4F84C1183F80821A7E7013AC3F807
:10193800AC20D3F89420039802F1080104F58274CE
:10194800C3F894101460506003F1900291422CBFC8
:101958001A46D3F894200648C3F89420FEF706FFE9
:10196800D4E700BF0040014080310008A8090020EA
:10197800400A0020C268D2E90013054A9342054A8A
:101988000CBF92685268B2FBF1F29A60704700BFD0
:10199800003801406003002073B5C5680446A86894
:1019A800A989FFF7A5FE544B07299A6942F001025D
:1019B8009A6173D80F2689000268C9B28E4022EA5C
:1019C80006020260092206688A40324302606E6895
:1019D8004A4A964271D19A6942F480429A619B6957
:1019E8002046FFF7C7FF002309213361444A2346F5
:1019F800A869FEF743FDE56842686B686060191DD9
:101A08009160296A012611600C2284F89860DA60D6
:101A1800C0222869A98A5A61FFF76AFEC3688E4006
:101A28001E430729C66058D80F2289000368C9B227
:101A38008A4023EA02030360082302688B401343A9
:101A48000360002309211A46E869FEF717FDE168DB
:101A580043684A68A060101D986004F1A800D86027
:101A68005420496A58601960196841F001011960E9
:101A7800D36843F40053D360224B1A6802B91C6040
:101A8800214C236843B9009380224FF490711F4B77
:101A98001F48FEF74BFF206002B070BD0F260839C3
:101AA80089004268C9B28E4022EA060242600922D1
:101AB80046688A403243426089E7164A964205D111
:101AC800DA6942F40032DA61DB6989E7124A964240
:101AD80086D1DA6942F48022F5E70F2208398900B5
:101AE8004368C9B28A4023EA020343600823426874
:101AF8008B4013434360A4E70010024000380140C4
:101B0800D9170008B0040020B4040020B516000856
:101B1800900300200044004000480040202383F345
:101B28001188012380F8FC30002383F31188704763
:101B3800FFF7F4BFA0F58270FAE7816A10B5044692
:101B480019B188470023A36210BD2430BDE81040B6
:101B5800FEF740BF104B984205D1104A936943F0F5
:101B68000403936170470E4B984204D10B4A936962
:101B780043F00803F5E70B4B984204D1074A9369F1
:101B880043F01003EDE7084B9842EBD1034A936901
:101B980043F02003E5E700BF0008014000100240C1
:101BA800000C0140001001400014014010B5FFF77F
:101BB800D1FF124A0729936943F0010393610DD8B5
:101BC8000F2289000368C9B28A4023EA020303602E
:101BD800092302688B401343036010BD0F220839A4
:101BE80089004368C9B28A4023EA02034360092393
:101BF80042688B4013434360EFE700BF0010024088
:101C08000368197303689A68D207FCD5187B704774
:101C18000123428A81689340034A8868184002D0A9
:101C2800013AFAD101207047B88201000123C18A24
:101C3800C2688B40136170470148FFF77EBF00BF41
:101C4800B80400207F2908B2C4BFA1F5807108B28A
:101C580000EBD07040104A3840B270472DE9F0418F
:101C68004FF00108C38A1646C26808FA03F35361A5
:101C780004460F46FFF7CCFF054630B12046FFF774
:101C8800D5FF45462846BDE8F08104F1040847F031
:101C980080014046FFF7B4FF294684F820004046FB
:101CA800FFF7AEFF30702046FFF7C0FFEAE72DE9E7
:101CB800F0414FF00108C38A1646C26808FA03F3D8
:101CC800536104460F46FFF7A3FF054630B120468F
:101CD800FFF7ACFF45462846BDE8F08104F104084B
:101CE80039464046FFF78CFF31464046FFF788FFEC
:101CF8002046FFF79BFFEEE7F8B50127C38AC268C5
:101D080007FA03F3536104460D46FFF781FF0646C1
:101D180028B12046FFF78AFF3E463046F8BD2946DF
:101D2800201DFFF76DFF054684F8200005F07005BB
:101D38002046FFF77BFF84F82050EEE73621FFF7B7
:101D4800DBBF10B5044694F820302BB92046BDE817
:101D580010403921FFF7D0BF2046FFF7EFFFF2E729
:101D6800F8B505460E4695F820405CB9771C17F87B
:101D7800142016F8141028460134FFF798FF142C85
:101D8800F5D1F8BD2846FFF7D9FFECE738B504468A
:101D98000D4694F8203033B92A462046BDE838402D
:101DA8000A21FFF784BF2046FFF7C8FFF1E73A2171
:101DB800FFF7A2BFF0B50446E18AC06885B0FFF717
:101DC800C9FE072900F282800F2289000368C9B280
:101DD8008A4023EA02030360012302688B4013430D
:101DE8000360A068218AFFF7E1FE618AFFF7DEFE43
:101DF800A18AFFF7DBFEA67FA069A18B257FFFF7ED
:101E0800A9FE002E71D00123C2688B40022E0CBFA0
:101E180022EA03031343C3600823072967D80F275F
:101E2800AA000668D2B2974026EA07060660066846
:101E380003FA02F23243026005F003027E4DC1F359
:101E48008703A8424FEA820260D101209B0003F178
:101E5800804303F580339D6800FA02F22A439A60B2
:101E68000127764B07FA01F11A6820460A431A60DF
:101E78005A6822EA01025A609A6822EA01029A60C4
:101E8800DA680A43DA605961FFF7D0FE00236C4A2A
:101E98001946CDE90023201D1A46FFF771F962683B
:101EA80030211368204643F040031360FFF724FFF6
:101EB80000284CD062686348136823F0400313601D
:101EC800FFF7C2FB3D46284605B0F0BD0F22083992
:101ED80089004368C9B28A4023EA020343600123A8
:101EE80042688B40134343607BE7042395E70F2741
:101EF800A1F1080292004668D2B2974026EA070686
:101F08004660466893403343436095E74E4DA84288
:101F180007D19B0003F1804303F5803302209D68BD
:101F28009AE74A4DA84207D19B0003F1804303F585
:101F3800803303209D688FE7454DA84290D19B00D0
:101F480003F1804303F5803304209D6884E707226A
:101F580006212046FFF7ABFE08B13E48B0E78DF8F2
:101F68000F00062120460DF10F02FFF777FE054608
:101F780040B99DF80F60072E06D031463648FFF766
:101F880063FB9FE735489BE72046FFF710FF2022B9
:101F98000D212046FFF78BFE25220E212046FFF754
:101FA80086FEED220F212046FFF781FEA322132192
:101FB8002046FFF77CFEFF2214212046FFF777FE1C
:101FC800082218212046FFF772FE324603212046D8
:101FD800FFF76DFE3F2229462046FFF768FE0622DE
:101FE80002212046FFF763FE0C2231462046FFF708
:101FF8005EFE442208212046FFF759FE50223E216A
:102008002046FFF754FE324616212046FFF74FFEC2
:10201800302217212046FFF74AFEA08B092807D84F
:10202800042807D8063080B20721FEF7C7FD4AE723
:102038002820F9E71720F7E7000C014000040140C9
:10204800A02E6300D43100080010014000140140A4
:1020580000180140E1310008EC31000801320008A5
:102068003421FFF749BE2DE9F7430E469046782103
:102078000DF1070204461F46FFF7F0FD90B99DF9E0
:102088000730002B0EDA4FF00109E38AE26809FAFB
:1020980003F320465361FFF7BBFD054620B12046F8
:1020A800FFF7C4FD01251EE004F10409FF2148469D
:1020B800FFF7A6FD3744BE424FF00001484616D14F
:1020C800FFF79EFD002106464846FFF799FD20468A
:1020D800FFF7ACFDB8F1000F05D031462046FFF7F9
:1020E800B1FD88F80000284603B0BDE8F083FFF78B
:1020F80087FD8DF8070006F8010BDCE72DE9F041B4
:10210800DDF818801E4604460F461546FFF74FFEB9
:10211800202383F311882046FFF7A2FF394604F1F4
:102128002400FEF749FC002383F31188013007D00F
:102138003346424629462046BDE8F041FFF793BFA3
:102148002046FFF7FBFD0220BDE8F08110B442F203
:10215800107461434FF47A7401F2E731B1FBF4F182
:1021680010BC89B2FFF7CABF10B5044694F82030F6
:102178006BB933212046FFF7BFFD70B93D212046DA
:10218800FFF7BAFD94F82030002BF7D105E036218F
:102198002046FFF7B1FD0028E8D010BD04468FB5F2
:1021A8002B4D2C4E41F29410FEF7F9FB2846FFF711
:1021B800DBFF294BDFF8A4805F6ABFB208236321E5
:1021C8002846CDF80080621CFFF7C0FFB0BBD4F8EA
:1021D8000530B34232D1B4F80130B4F803008DF8B9
:1021E8000C3007238DF80D30202383F311881C4B06
:1021F800D3F8AC20002A17DD013AC3F8AC20D3F895
:10220800942002F10801C3F89410106003985060FC
:1022180003F1900291422CBF1A46D3F8942011483A
:10222800C3F89420FEF7A2FAFEF774FA002383F3AA
:10223800118839212846FFF75FFDB3E740F2DD3208
:10224800054B5B6ADB1B9BB29342B7D9F1E700BF32
:10225800B8040020EA0F11CA00400140F50400202C
:10226800A8090020400A002008B50148FFF796FF9A
:10227800E404002038B503780546FBB91148FFF798
:1022880099FD0446E0B9082206210E48FFF70FFD24
:10229800302217210B48FFF70AFD07210948FFF7ED
:1022A80075FD50223E210748FFF701FD0649054804
:1022B800FFF756FD01232B70204638BD0024FBE7AD
:1022C8000124F9E7B80400202432000813B5FFF709
:1022D800D1FF044668B90848FFF7B6F9FF224FF462
:1022E8009071064B06480094FEF720FB204602B08A
:1022F80010BD0124FAE700BF183200087122000857
:10230800F804002037B50446FFF7B4FF10B10120E8
:1023180003B030BD0B48FFF727FF0B4B2421009378
:1023280008480823621CFFF711FF05460548FFF718
:1023380008FD002DEBD1D4F80500044BC01A18BFD6
:102348000120E5E7B8040020F5040020EA0F11CACF
:10235800124A134B13491360134B14485360A3F5E7
:102368002053C2E90233124BC2E90413114B12493C
:102378009361022393830023C2E90933937782F898
:1023880020300E4A8860137053709370D3701371A5
:1023980053729372D3721373704700BFB80400204E
:1023A800143200080500060000300140411C0008F6
:1023B80007000400000C01406C030020E404002026
:1023C80043F23903084A30B51468084D013105FB5A
:1023D8000433091A136023F00043B3FBF1F201FB45
:1023E8001233184430BD00BF000200206D4EC641B4
:1023F80070B56FF04044056B6619056A05EB8605F4
:102408006963C16C6518C16B01EB85014A63826E13
:102418001444826D02EB8402536370BD70B50546A7
:102428000C4606468B6845F8043B0FCC0FC594E86C
:10243800030085E80300304670BD000003222DE943
:10244800F04F7E4B93B0CDE9023204214FF0804229
:1024580002200025FF264FF0010840F2011B784CAE
:10246800784FDFF8E491DFF8E4A1CDE90E20099177
:1024780004F1200069460893CDF83090CDE905674E
:10248800C4E900B5C4E90255C4E90455C4E906A580
:102498000097ADF80450ADF81050ADF81C80ADF8B9
:1024A80028500B96ADF83480ADF840501196FFF7E0
:1024B800B5FF0DF1180C614604F13C00FFF7AEFFC3
:1024C8000DF1300C614604F15800FFF7A7FF4FF0FB
:1024D800804204214FF00A004FF0080E4FF00B0C19
:1024E800CDE902210E920322594B6946ADF834001A
:1024F80004F19800ADF81CE0CDE90838ADF804C047
:102508000F92CDE90569CDE90B67C4E91D5BC4E904
:102518001F55C4E92155C4E9235A0097ADF8105056
:10252800ADF82850ADF840501196C4F89450FFF714
:1025380075FF06A904F1B400FFF770FF0CA904F1B8
:10254800D000FFF76BFF4FF00A000421ADF804003C
:10255800022003224FF00B0CCDE90569CDE90B6988
:10256800CDF800904FF00909394B09910F90694651
:1025780004F58870CDE90232ADF81CC008930E93BB
:10258800C4E93B5BC4E93D55C4E93F55C4E9415A38
:10259800ADF81050ADF82850ADF83490ADF8405073
:1025A8001196C4F80C51FFF739FF06A904F5967087
:1025B800FFF734FF0CA904F5A470FFF72FFF254B94
:1025C8000220CDE9023803F58063CDE908380523F8
:1025D8004FF0080EADF83430184B6946CDE90E308F
:1025E80004F5C470ADF804E0CDE90567CDE90B67E3
:1025F800C4E9595BC4E95B55C4E95D55C4E95F5A50
:102608000097ADF81050ADF81C90ADF82850ADF813
:1026180040501196C4F88451FFF700FF06A904F54D
:10262800D270FFF7FBFE0CA904F5E070FFF7F6FE89
:10263800C4F8DC5113B0BDE8F08F00BF00040040BF
:1026480018060020000C01400008014000006464E6
:10265800002C01400044014013B542F21073782465
:10266800C178827800884A43C2EB0222B2FBF3F2B7
:10267800B0FBF4F304FB13036424C1EB0121B1FBA9
:10268800F4F13C249BB23C3B002BB8BF5B42C3F146
:102698003C035343B3FBF4F38A1AD2B213443B28E6
:1026A800C9B2DBB20FD977280AD9B32816D9EF28CF
:1026B80018D9B0F5967F19D208461946134613E083
:1026C800084619460346002061F3070063F30F200C
:1026D80062F3174020F07F4002B010BD0846114653
:1026E8001A46EFE7084611460246ECE71846E5E7C2
:1026F800F8B504460F4603C81D461646FFF760FEA8
:102708003860D4E90201FFF75BFE3060D4E90401C8
:10271800FFF756FE618B2860208BFFF751FE069B62
:102728001880F8BD37B504460F4B00F108021D6844
:1027380000F118030093011D00F10C032846FFF770
:10274800D7FF2B6AA376A3696367EB6984F87730B0
:10275800626FDBB26261E2680433B2FBF3F201320A
:10276800226103B030BD00BF0402002083B5DFF84A
:10277800FC800A20FEF713F904254FF020090026F3
:102788003B4CA4F1780789F3118854F8683C002B76
:1027980007DC14F8783C032B08D8DFE803F0242F73
:1027A8004C58013B44F8683C002BF2D054F8042CF8
:1027B80054F8643C9A420BD0201FFFF74DFF01905C
:1027C800C0F30743C0F30722C1B23846FFF710FE33
:1027D80054F8043C44F8643C86F31188013D04F144
:1027E8007804CED1C5E714F8773C002BDED001235E
:1027F800384604F8783CFFF795FFD7E754F8042CDF
:1028080054F8603C9A4207D1022304F8783C54F803
:10281800703C44F8683CC9E714F8013C0133DBB26A
:1028280054F86C2C04F8013C0433B2FBF3F2013287
:1028380044F8682CBAE7032314F8012C04F8783C10
:1028480054F86C3C0432B3FBF2F30133E1E7D8F8F7
:10285800002014F8013CD269934204D854F8743C1F
:1028680004F8786CD5E7013BD9E700BF04020020E3
:102878009006002037B50425114C04F12000FEF71E
:1028880061FA04F13C00FEF75DFA04F15800FEF726
:1028980059FA002320461A461946FFF7A9FDFFF703
:1028A80041FF013D04F17804E7D1FF224FF4907114
:1028B800044B00950448FEF739F803B030BD00BF5B
:1028C8001806002075270008F80700200122044B8D
:1028D8005A7083F8792083F8F12083F869217047CA
:1028E800180600200022044B5A7083F8792083F8D8
:1028F800F12083F869217047180600200422064B4E
:10290800187838B9597831B9013A03F17803F7D111
:10291800012070470020704718060020FFF78EBD81
:102928000B4B0C495A6842F480725A601A6842F09C
:1029380008021A600A6942F004020A6102221A6057
:102948001A6842F004021A6000BF00BF30BF704727
:102958000070004000ED00E008B5FEF79FFCB0FAFB
:1029680080F0400908BD0000036801495B6818470A
:102978004C320008036801495B6818475132000867
:1029880013B500F140020C4600200A49FEF7A1FCED
:1029980068B1002201A9FEF7DBFC019A034692F90F
:1029A800000010B9236002B010BD0D20FBE7012024
:1029B800F9E700BF8031000830B54349044687B0C5
:1029C800006DFFF7C9FF18B12046FFF7CDFF61E0A2
:1029D8003E49206DFFF7C0FF054650B123682046E9
:1029E8005D683B4AAC463B4B3B4907B0BDE83040CD
:1029F80060473A49206DFFF7AFFFE0B128463849F4
:102A080004F14402FEF765FC002840D02A4605A9D7
:102A1800FEF79EFC059B93F90030002B37D1C0B21E
:102A2800304B0728586032D824222F4B02FB003342
:102A38002E4A1360C8E72E49206DFFF78DFF58B363
:102A4800251D284601A9FFF79BFF00BB284602A9C0
:102A5800FFF796FFD8B9284603A9FFF791FFB0B949
:102A6800284604A9FFF78CFF88B9284605A9FFF76F
:102A780087FF60B91D4B019A1B685A83029A1A6234
:102A8800039ADA61049A1A61059A5A619CE720460A
:102A9800FFF770FF07B030BD1649206DFFF75CFFE8
:102AA80010B1FFF713FF8FE71349206DFFF754FFAD
:102AB80010B1FFF717FF87E7204623680F495B68C7
:102AC80007B0BDE8304018475C32000861320008A2
:102AD8007732000869320008BE32000885320008E3
:102AE80080310008006C0040180900200402002012
:102AF800873200088B3200088E32000892320008B4
:102B08000026394D83B505F1980720238DF8056017
:102B180083F311884FF6FF713846FDF70BFE28BB8B
:102B2800D5F890203148134653F8084B5268834231
:102B380028BF2B4614300192C5F89030FDF716FED9
:102B4800FDF7E8FD86F311889DF805309DF80480AF
:102B5800022B2CD0072B0BD0012BD6D12046FFF708
:102B68002BFF236820461B689847CEE70024E9E737
:102B7800224641461E48FEF767FDB8F1010F05D110
:102B8800FFF7B0FE04221B4B1A60BEE7B8F1020F34
:102B9800BBD1032CB9DC2422174B02FB0433174AA0
:102BA80011688B42B1D01360FFF790FEADE74AF68B
:102BB800AA22134B1A60FFF7A1FE0028A5D00D4BDF
:102BC8001C6814B1013C1C609FE70E48FEF73CFDF1
:102BD8004FF4E170FDF7E3FE202383F31188FFF73C
:102BE8009FFE84F3118890E7A8090020380A002086
:102BF8009F32000808020020180900200402002063
:102C080000300040AB32000808B541F29410FEF7DE
:102C180035FA2C48FEF746FAFDF770FFFDF7B6FDCA
:102C28000122294C294B122104F1A4001A70C4E98D
:102C38002444FDF77AFD002104F19800FDF775FDA5
:102C48002348FEF7A9FE234B234A5A6003F588332D
:102C5800DA6942F08052DA61DB69204B5B689B07D6
:102C68000ED51F48FEF7F0FC1E48FFF74BFB38B1A6
:102C7800202383F31188FFF753FE002383F3118881
:102C8800194A1A491A48FEF7DFFC0E48FEF764FA9B
:102C9800FFF7F0FD1348FFF719FB202383F3118892
:102CA80014480369048B13B10430FDF7EDFE114B92
:102CB8002146181D104AFDF7A3FE002383F311884F
:102CC800FFF71EFF60030020A8090020580A002013
:102CD800780A002000000140040A00020070004049
:102CE800BB320008E404002069320008773200088B
:102CF800BD3200085C0A0020F10B0008002000210A
:102D08004FF4E1323D4BF0B5C3E90001C3E9243388
:102D18003B493C4B0720C1E900230622A3F5305369
:102D2800C1E903238B6003230424C1E9050392232B
:102D3800C1E907434FF485534B62334B0022D960F6
:102D480003F11001C3E92411012183F8981083F8D5
:102D5800FC102E49C3E90122196001F1280038311D
:102D6800C3F80001C3F80411C3E92722C3E95222BA
:102D7800C3E954222649C3F8A420264B2D20196004
:102D88002549362599614FF4E1746C21234B4FF4A2
:102D98003476C3E90001C3E90201C3E90C5419619F
:102DA8004FF480344FF4B471C3E90E64C3E90512DB
:102DB800642409214FF4877740F27626C3E9091085
:102DC800C3E91141C3E91301C3E91A41C3E91C016D
:102DD800D96240F29511C3E91676114FC3E907226B
:102DE800C3E918721A645D659D67C3E91F164FF041
:102DF800F011C3E92112C3F88C40F0BDA8090020E6
:102E0800D00B002000380140780A00208C310008DF
:102E18007C3100085C0A00200627020118090020FE
:102E28002D004800002301461A46184600F06AB8EB
:102E3800830730B548D0541E002A3FD00346CAB293
:102E480001E0013C3AD303F8012B9D07F9D1032C8B
:102E58002DD9CDB245EA05250F2C45EA054536D9C9
:102E6800A4F1100222F00F0C03F1200EE6444FEA01
:102E7800121C03F1100242E9045542E902551032CE
:102E88007245F8D10CF1010214F00C0F03EB021299
:102E980004F00F0C13D0ACF1040323F00303043344
:102EA800134442F8045B9342FBD10CF003042CB1A9
:102EB800C9B21C4403F8011B9C42FBD130BD6446D7
:102EC8001346002CF4D1F9E703461446BFE71A4627
:102ED800A446E0E738B5074D074C2C1BA41005D0D5
:102EE800013C55F8043D9847002CF9D1BDE838401D
:102EF80000F058B87801000874010008704700BF56
:102F0800704700BF2DE9F047DFF874A00646DAF8ED
:102F1800000098460F469146FFF7F0FF194B1C68D2
:102F280024B365681F2D24DC5EB96B1C0235DAF802
:102F38000000636044F82570FFF7E2FF0020BDE859
:102F4800F087012304EB8501C1F88890D4F8882123
:102F5800AB401A43022EC4F88821C1F80881E4D195
:102F6800D4F88C211A43C4F88C21DEE7064C1C6087
:102F7800D7E7DAF80000FFF7C3FF4FF0FF30DEE7CE
:102F88000C0200208C0D0020FC0B0020024B13B11A
:102F98000248FFF747BF704700000000DD2E000819
:042FA800F8B500BFB9
:042FAC00F8B500BFB5
:102FB00000000000000000000102030406070809E9
:102FC0000000000001020304D8320008900D002028
:102FD000900D0020900D0020D83200080000000065
:102FE0000000000000000000D832000800000000CF
:102FF0000000000000000000D832000800000000BF
:103000000000000000000000D832000800000000AE
:103010000000000000000000D8320008000000009E
:103020000000000000000000D8320008000000008E
:103030000000000000000000D8320008000000007E
:1030400000000000000000000000024008000240F4
:10305000010000000000000B000002401C000240C4
:10306000020000000004010C000002403000024099
:10307000040000000008020D00000240440002406D
:1030800008000000000C030E00000240580002403F
:10309000100000000010040F000002406C0002400D
:1030A00020000000001405100000024080000240D3
:1030B0004000000000180611737461636B206F7686
:1030C0006572666C6F77006D61696E0069646C652E
:1030D00000000000CC300008B00200206003002097
:1030E0000100000093070008000000000D48617215
:1030F000644661756C740D00566563746F72353883
:1031000000556E68616E646C65642025530D005631
:103110006563746F72354300566563746F72363041
:1031200000566563746F72363400566563746F724F
:10313000363800566563746F7239430056656374A0
:103140006F72453000414842467265713D25754DAC
:10315000487A3B2041504231467265713D25754D9C
:10316000487A3B2041504232467265713D25754D8B
:10317000487A0D000000000000000000090C000863
:10318000202C00000000000000000000A116000834
:1031900075180008171800082F180008D516000821
:1031A000A3160008AB160008391B000800FFFFFF3C
:1031B000000000001D18000833180008FCFEFFFF87
:1031C000000000003D1B0008F3160008A7160008C9
:1031D000AF160008434320527374204661696C0D9A
:1031E0000043432057204661696C0D004343205241
:1031F0002F57204661696C3B2072706C3D25750D20
:103200000043432052204661696C0D00000000001D
:1032100000000000431B0008434320696E697420CE
:103220006F6B0D000B080C00105B11E512131546B7
:1032300021B62210191D1A1C1BC71C001DB223EA3F
:10324000242A2500261F2C812D312E094F6B0D0AB3
:1032500000426164506172616D0D0A0050696E67D1
:103260000056657273696F6E003230323330393117
:10327000365F31383039004C616E7465726E466F5E
:10328000724C616F004E0048534D004F6E004F6608
:103290006600436D64556E6B6E6F776E0D0A00525B
:1032A000436D642025642025640D00456E746572AD
:1032B000696E6720736C6565700D002E000D2553D7
:0832C0002025530D0000000061
:1032C800010000001809002004000000F80B00208D
:040000050800027974
:00000001FF
