:020000040800F2
:100000000001002065020008670200085D1C00086E
:10001000670200086702000867020008670200081C
:100020006702000867020008670200080D1900084F
:1000300067020008670200086702000867020008FC
:1000400067020008670200086702000867020008EC
:100050006702000867020008851C0008C51C00082C
:10006000051D0008451D0008851D000875190008BC
:10007000891900089D190008B1190008C519000860
:10008000D9190008ED190008670200086702000886
:10009000670200086702000867020008C51D000823
:1000A000BD1B00086702000867020008670200081D
:1000B000670200086702000867020008670200087C
:1000C000670200086702000867020008451E000872
:1000D0005D1E00086702000867020008670200084A
:1000E000051E000867020008670200086702000892
:1000F000670200086702000867020008670200083C
:10010000670200086702000867020008670200082B
:10011000670200086702000867020008670200081B
:10012000670200086702000867020008670200080B
:1001300067020008670200086702000867020008FB
:1001400067020008670200086702000867020008EB
:1001500067020008670200086702000867020008DB
:040160006926000804
:100164002DE9F04FC1F80CD0C3689D46BDE8F08F6F
:10017400002383F311882846A047002001F010FDD6
:1001840001F03CFC00DFFEE772B6274880F30888E4
:10019400264880F3098826484EF60851CEF200011D
:1001A4000860022080F31488BFF36F8F01F0B5FB61
:1001B40001F0B4FB4FF055301E491B4A91423CBF3D
:1001C40041F8040BFAE71C49184A91423CBF41F834
:1001D400040BFAE719491A4A1A4B9A423EBF51F8DE
:1001E400040B42F8040BF8E700201749174A914220
:1001F4003CBF41F8040BFAE701F094FB01F08FFBDC
:10020400134C144DAC4203DA54F8041B8847F9E745
:1002140001F02EFE104C114DAC4203DA54F8041BCD
:100224008847F9E701F07CBB0001002000020020B0
:10023400000000080000002000010020482B0008F6
:10024400000200200802002008020020200C0020E8
:1002540060010008640100086401000864010008EA
:1002640092E700F000F8FEE7202383F311880F4B98
:100274005B6813F4006315D0EFF309834FF08072C9
:1002840043F8042CA3F1200282F30988084A116878
:1002940012698968926891428CBF064A064A43F8FB
:1002A400082C704783F31188704700BF00ED00E00D
:1002B400E00B0020850100088801000810B40468E0
:1002C400437B2168827B4068D940006801F00E01BD
:1002D40008420DD001FA03F36360064B013253F870
:1002E40032402CB103EBC2035868234610BC1847B4
:1002F40010BC7047A00B0020FEE70000F0B51F4CB7
:100304001F4D2646C0E9032356F8143F02296A6AA2
:1003140038BF0221B34292B20DD1C4E90500E28391
:10032400C0E9003300230181114489B269632B6160
:100334000223EB60F0BDE68B1F89921B92B211443D
:1003440089B2914203D2C91B1B6889B204E0B94245
:1003540002D20E44B6B26E631A898A420CD35A682A
:10036400036042601060586001811A89521A1A8130
:100374004FF6FF73A383DDE7891AE5E7E00B00205E
:1003840000400140194930B50A4652F8144F00257F
:10039400844203680AD0416893420B605960C56087
:1003A40003D01A8901890A441A8130BD93424B61F2
:1003B4000F485A60E56001D1C560F6E71A892489BF
:1003C400C98B224492B21A81436A9BB2581A80B2F2
:1003D4008242EAD9CB1A13449BB2012B9CBF023050
:1003E40082B2034B114489B25963DEE7E00B00206B
:1003F40000400140202208B582F3118803681B687D
:100404009847002383F3118808BD0000036970B581
:100414000446068B051D13B12846FFF7B3FF234698
:1004240031462846BDE87040014AFFF767BF00BF68
:10043400F9030008604B026830B59A4203F564433F
:1004440005D1996941F400619961996907E0B2F1B4
:10045400804F16D1D96941F00101D961D9694FF4AE
:100464004041516481690469D162017D013C0129E3
:1004740014BF06210721032C3CD8DFE804F03361C4
:1004840069714E498A4203D1D96941F00201E4E716
:100494004B498A4203D1D96941F00401DDE7494956
:1004A4008A4203D1D96941F01001D6E746498A420C
:1004B40003D1D96941F02001CFE744498A4203D1ED
:1004C400996941F48031BFE741498A4203D199696E
:1004D40041F40031B8E73F498A42C0D1996941F4F7
:1004E4008021B1E7946944EA01119161116A41F0F4
:1004F400010111621168384C41F001011160416839
:100504000289A142407D33D19C6944F004049C617A
:100514009C69072A44F001049C614FEA800343F07C
:1005240009033AD80F2492000868D2B2944020EA12
:1005340004000860086803FA02F202430A6030BD4E
:10054400946944EA01319161116A41F01001D0E7E4
:10055400D46944EA0111D161116A41F48071C8E798
:10056400D46944EA0131D161116A41F48051C0E790
:100574001A4CA14203D19C6944F00804C7E7184C03
:10058400A14203D19C6944F01004C0E7154CA14278
:10059400BED19C6944F02004B9E70F24083A9200C4
:1005A4004868D2B2944020EA040048604868934006
:1005B40003434B60C3E700BF002C0140000400402C
:1005C40000080040001000400014004000400140BA
:1005D400004401400048014000080140000C014073
:1005E4000010014000140140D0F89C307F2B16D835
:1005F400D0F894305A1CC0F894201970D0F8942084
:1006040000F190039A4224BF00F11003C0F8943023
:10061400D0F89C300133C0F89C30002070470C2087
:100624007047A0F58070FFF7DFBF70472DE9F043F6
:1006340085B0994601AB0646002508461F469DF93C
:100644003080B0FBF2F4844602FB140120460929F1
:10065400CCB294BF3034373464B2944505F101050B
:1006640003F8014BEDD22C464C4509D33368013DC8
:1006740030461B687957984740B9002DF6D106E0FB
:100684003368414630461B68984718B10C2005B0C2
:10069400BDE8F0830134E7E72DE9F74F0B46054643
:1006A40014461E4616F9011B31B928462B685B68AF
:1006B40003B0BDE8F04F1847252902D02B681B680A
:1006C40065E093F901804FF00009B8F1300F0CBFD9
:1006D4009E1C4FF020080A2316F9011BA1F13002D9
:1006E400D2B2092A03D852B203FB0929F4E72A2912
:1006F40002D114F9042BF7E72E290AD116F9011BAC
:10070400A1F13003DBB2092BF8D92A2901D1043431
:10071400F4E7632937D016DC412964D003DC2529AA
:10072400CCD03346BDE7532934D05829F9D14B46B0
:100734001022CDF8008054F8041B2846FFF776FFFA
:100744000028EED0B1E7732924D015DC642901D048
:100754006929E6D154F8047B002F07DA2B682D2190
:1007640028461B68984700289FD17F424B460A229F
:100774003946CDF80080E0E77529D2D14B460A22EC
:10078400CDF80080D7E72B6814F9041B1B682846B2
:100794009847D5E7D4F800A053461F4613F9012B18
:1007A400002AFAD10AF1FF3BBBF1FF3F02D01BF94B
:1007B400011F21B9A7EB0A07A9EB07070FE02B6874
:1007C40028461B6898470028EED06EE72B68414600
:1007D40028461B689847013F00287FF466AF002F26
:1007E400F4DC04349DE7D4E900A8B8F1000FD4F890
:1007F400089011DD00274FF0300B1AF80710022380
:1008040010222846CDF800B0FFF710FF00287FF42F
:100814004CAF0137B84501DC0C3482E7B9F1000F65
:10082400EBD02B6828461B684FFA89F198470028BB
:10083400E3D03AE7104B984205D1104A936943F04C
:100844000403936170470E4B984204D10B4A936999
:1008540043F00803F5E70B4B984204D1074A936928
:1008640043F01003EDE7084B9842EBD1034A936938
:1008740043F02003E5E700BF0008014000100240F8
:10088400000C014000100140001401400120704799
:100894000120704701207047202383F3118801232E
:1008A40080F8FC30002383F311887047A0F5827030
:1008B400FFF7F2BF034653F8902FD0F89C109B1A11
:1008C4008B4228BF0B46C0F8A0307BB1002380F8D0
:1008D400983043685B68DA60D0F8A0205A60C26838
:1008E400126A1A601A6842F001021A60704790F89E
:1008F40098300BB1FFF7DEBF7047A0F58070FFF7AB
:10090400F6BF436810B459680A6822F00F020A60FF
:10091400597B1A680E238B400146536051F8903F6F
:10092400D0E9272423448B42A2EB040228BF00F120
:100934001003C0F89C20C0F8903032B9012380F82D
:100944009830036810BC1B68184710BCFFF7B2BF8F
:1009540043F23903084A30B51468084D013105FBE8
:100964000433091A136023F00043B3FBF1F201FBD3
:100974001233184430BD00BF040200206D4EC6413E
:1009840013B542F210737824C178827800884A4300
:10099400C2EB0222B2FBF3F2B0FBF4F304FB130349
:1009A4006424C1EB0121B1FBF4F13C249BB23C3B38
:1009B400002BB8BF5B42C3F13C035343B3FBF4F3D6
:1009C4008A1AD2B213443B28C9B2DBB20CD97728B5
:1009D4000DD9B32816D9EF2818D9B0F5967F19D3B5
:1009E40018460B4611460FE018460B4601460020F8
:1009F40063F3070061F30F2062F3174020F07F4098
:100A040002B010BD184613460246F0E718461346D6
:100A14000A46EBE70846E5E738B5184B04461D6877
:100A2400D5E90001FFF794FF6060D5E90201FFF703
:100A34008FFFA060D5E90401FFF78AFF43F2390371
:100A44000F4AE06011680F4800FB01331360DB07B5
:100A540059BF698B288BE98BA88BFFF779FF80B28C
:100A64002083A3696367002384F87730636F63612D
:100A7400E3689B080133236138BD00BF00020020F6
:100A8400040200206D4EC641036801495B681847A3
:100A9400782800080B4B0C495A6842F480725A605B
:100AA4001A6842F008021A600A6942F004020A61F4
:100AB40002221A601A6842F004021A6000BF00BFE2
:100AC40030BF70470070004000ED00E0034BD98A4E
:100AD400DA6801238B401361704700BF4809002086
:100AE400064B5A8A996801239340054A886818403E
:100AF40002D0013AFAD10120704700BF4809002012
:100B0400B8820100034B5B6818739A68D207FCD55E
:100B1400187B704748090020F8B501270D4D06469B
:100B2400EB8AEA6807FA03F35361FFF7D9FF044637
:100B340020B1FFF7CBFF3C462046F8BD3046FFF717
:100B4400E1FF85F82000FFF7C1FF00F0700385F88E
:100B54002030F1E7480900203620FFF7DDBF000010
:100B640010B5064C94F8203023B9BDE81040392064
:100B7400FFF7D2BFFFF7F0FFF4E700BF48090020FA
:100B8400F8B501270C4B0646DA68DB8A0D4607FAEE
:100B940003F35361FFF7A4FF044620B1FFF796FF68
:100BA4003C462046F8BD3046FFF7ACFF2846FFF729
:100BB400A9FFFFF78BFFF4E7480900202DE9F04176
:100BC4004FF001080F4E0746F38AF26808FA03F360
:100BD40053610D46FFF784FF044628B1FFF776FF03
:100BE40044462046BDE8F08147F08000FFF78AFFC5
:100BF40086F820002046FFF785FF2870FFF766FF80
:100C0400EFE700BF4809002010B5FFF713FE124AB2
:100C14000729936943F0010393610DD80F228900DA
:100C24000368C9B28A4023EA020303600923026805
:100C34008B401343036010BD0F22083989004368B9
:100C4400C9B28A4023EA02034360092342688B4005
:100C540013434360EFE700BF0010024038B5154668
:100C64000446FFF7E7FDCDB10123C2688B40022D96
:100C74000CBF22EA03031343C360082307290FD8D8
:100C84000F2089002268C9B2884022EA000222604B
:100C9400226803FA01F11143216038BD0423EDE712
:100CA4000F20083989006268C9B2884022EA00022C
:100CB400626062688B4013436360EEE7034630B5BD
:100CC40008B90B6843B118460E4D13F9012B15F9F9
:100CD400014B1CB942B90A60002030BDA242F6D1D2
:100CE400F1E713460CE014B913F9012B054D15F97E
:100CF400014BA242F7D1002AF3D0002203F8012CC1
:100D04000B60EAE77D280008F0B5034696462022EA
:100D140082F31188062848D84FF0010C244C0CFAB1
:100D240000F52268154240D1634444F8331004EBC3
:100D3400C3032A43C3F804E01E4B22605A691E4EC3
:100D440042EA0C025A6107015B6906EB0010D9B153
:100D540061688368194215D14FF0900EC37B03F18B
:100D6400604202F5614282F800E303F01F025B096E
:100D74009B0003F160430CFA02F203F56143C3F8EC
:100D840080211A600D436560F1194B68497B1A682C
:100D9400F45922F00F021A600E228A406260002287
:100DA4001A60002383F31188F0BD0020F9E700BF27
:100DB400A00B002000100240582A000810B50A4C6D
:100DC40094F820305BB93320FFF7A6FE58B93D20D4
:100DD400FFF7A2FE94F82030002BF8D103E0FFF7D0
:100DE400BBFE0028ECD010BD4809002084B0F0B54B
:100DF40006AD85E80E0040F2011300270446038087
:100E0400164B00F12406C0E90637089BC0E90177B8
:100E1400C0E90377476103620FCD0FC695E803006D
:100E240086E803000E9B04F140050CAEE3630FCE8D
:100E34000FC596E80300149B85E8030012AE04F185
:100E44005C05A3650FCE0FC596E8030085E8030093
:100E54006767BDE8F04004B0704700BF00006464F9
:100E64002DE9F04F4FF0030B7B4BD9B00024FF2545
:100E74000127CDE9543B02224FF0804B4FF0040A86
:100E8400DFF8D881CDE94A45CDE94687CDE948B2B6
:100E9400734E0DF1240C0DF58C7ECDE94FA4CDE9F4
:100EA4005264CDE94D73BEE80F00569457955195A1
:100EB4004C96ACE80F009EE803008CE803000DF5A7
:100EC400987E0DF10C0CBEE80F00ACE80F009EE814
:100ED40003008CE8030058A911E907008DE8070016
:100EE400DFF8809152AB48460ECBFFF77FFF0B2112
:100EF4004FF00A0CCDE9411BCDE935CB4FF0030B84
:100F04000820CDE937B4CDE943A4DFF85CA13496D9
:100F14000DF1240C0DF1D00ECDE93B0ABEE80F0013
:100F24003995CDE93D744595CDF8E8803F954096D7
:100F3400ACE80F009EE803008CE803000DF1E80E16
:100F44000DF10C0CBEE80F00ACE80F009EE80300A6
:100F54008CE8030043AB93E807008DE8070040AB3F
:100F64000ECB09F17800FFF741FFCDF88880CDF86A
:100F7400B880CDF8A0804FF00A0C4FF009080B217F
:100F8400CDE92FCACDE9291ACDE9238A4FF0020A07
:100F94000422CDE925A40DF1240C0DF1880ECDE930
:100FA4002B24BEE80F002795CDE931B433952D9558
:100FB400ACE80F009EE803008CE803000DF1A00EDE
:100FC4000DF10C0CBEE80F00ACE80F009EE8030026
:100FD4008CE8030031AB93E807008DE807002EABE3
:100FE4000ECB09F1F000FFF701FF082005221F4B8B
:100FF400CDE913A4CDE91D0303F58063CDE91837CA
:10100400154BCDE91A45CDE911231595CDE91F748A
:101014002195109609AD10AC0FCCCDE916681C963D
:101024000FC594E8030085E8030016AC03AD0FCCAC
:101034000FC594E8030085E803001FAB93E807009D
:101044008DE807001CAB09F5B4700ECBFFF7CEFE9C
:1010540059B0BDE8F08F00BF000400400008014013
:10106400000C014054070020002C014000440140C2
:10107400814230B51CD0013810F8014FA4F141036E
:10108400192B11F8013B98BF04F12002A3F141058B
:1010940094BFD2B262B2192D9ABF2033DBB25BB2D5
:1010A400D21A01D1002CE7D1B2FA82F0400930BD46
:1010B4000022F9E770B56FF04044056B6619056AC4
:1010C40005EB86056963C16C6518C16B01EB85018D
:1010D4004A63826E1444826D02EB8402536370BDD2
:1010E400002382680375054B1B6899689142FBD203
:1010F4005A6803604260106058607047E00B00203B
:1011040008B5202383F31188027D0023052A06D81D
:10111400DFE802F00B050503120E826913604FF03D
:10112400FF338361FFF7DCFF002383F3118808BDDD
:101134008269936801339360D0E9003213605A6086
:10114400EDE7836A10B504461BB198470023A362F8
:1011540010BD406A0028FBD063628361BDE8104083
:10116400FFF7BEBF0148FFF7ECBF00BF48090020EE
:10117400184B10B5D3F8AC20002A29DD013AC3F886
:10118400AC20D3F89420046802F10801C3F8941049
:1011940014604068506003F1900291422CBF1A46DB
:1011A400D3F89420C3F89420D3F8A0200132002A65
:1011B400C3F8A0200ADCD3F898000268C3F898208A
:1011C400054B536000238361FFF78AFF002010BDA5
:1011D4000220FCE7F00A0020880B002013B500224F
:1011E4000446837E68468DF805300092FFF7C0FF01
:1011F400E37E012B05D1204602B0BDE81040FFF785
:1012040005B902B010BD00000B4B10B41969087584
:101214001868026853601A60012218610275EFF3BE
:1012240009820C69243A944203D972B6034A1A62B9
:10123400FEE710BCFEF794BFE00B002080280008F6
:101244004FF6FF7330B5994204460B4D87B010D06A
:101254002B690A4A01A8FFF751F82046FFF7D4FF8B
:10126400049B13B101A8FFF78DF82B69986907B0A7
:1012740030BDFFF7C9FFF8E7E00B002005110008B7
:1012840008B50146202383F311880820FFF7D8FF0F
:10129400002383F3118808BD08B5064C40F2DE3004
:1012A400FFF7EEFF20680028F8D003685B689847D2
:1012B400F4E700BF7409002083B520270A20FFF754
:1012C400DFFF05254FF00008374C013DA4F17806F7
:1012D400F4D087F3118854F8683C002B07DC14F829
:1012E400783C032B08D8DFE803F0212C4955013B57
:1012F40044F8683C002BF2D054F8042C54F8643CB5
:101304009A420BD0201FFFF73BFB0190C0F3074329
:10131400C0F30722C1B23046FFF7CCFE54F8043CB8
:1013240044F8643C88F311887834CEE714F8773CA9
:10133400002BE1D00123304604F8783CFFF76CFB26
:10134400DAE754F8042C54F8603C9A4207D102239B
:1013540004F8783C54F8703C44F8683CCCE714F842
:10136400013C0133DBB254F86C2C04F8013C043327
:10137400B2FBF3F2013244F8682CBDE7032314F8FE
:10138400012C04F8783C54F86C3C0432B3FBF2F3BF
:101394000133E1E714F8013C23B904F8783C54F82C
:1013A400743CD9E7013BDDE7CC07002037B50446A0
:1013B4003A20FFF7B1FB202383F311883420FFF791
:1013C400ABFB2A4B1A693CB984F31188FFF7C4FBC1
:1013D4000224204603B030BD254D21462B4643F858
:1013E400242F93610320FFF72BFF002383F311883D
:1013F4000130EBD078200DF10701FFF7DFFB68B96E
:101404009DF90730002B09DA0123E98AEA688B4049
:101414005361FFF765FB18B1FFF758FB0124D8E7C8
:10142400FF20FFF76FFB082412490020FFF76AFB37
:10143400013C14F0FF048DF8070001F8010FF4D10A
:101444002046FFF75FFB05462046FFF75BFBFFF7EF
:101454003DFB2BB27F2BC4BFA5F580752BB203EBEC
:10146400D373054A5B104A3B1370B2E7E00B0020CC
:10147400480900203509002034090020002270B4F6
:10148400134C8668216903468D688261AE4202D896
:1014940070BCFFF725BE0A75224612689068854223
:1014A400FBD350680A6048600160516001222361E7
:1014B4001A75EFF309820869243A904203D972B687
:1014C400044B2362FEE7184670BCFEF749BE00BF1A
:1014D400E00B00208028000838B50346552500F5A8
:1014E400907484421ED1202080F31188C3F8DC203C
:1014F4000E4A0025C3F8FC20022203F1DC0003F5A8
:101504008074C3F80C01C3F810312046C3F8E050CE
:10151400C3F80811A3F81421FFF7B0FF85F311886D
:10152400204638BD00F8015BDBE700BF7501000809
:101534000FB407B504AB53F8041B0193202383F3C2
:1015440011880648019AFFF7A7F8002383F311884E
:1015540003B05DF804EB04B0704700BF780A0020C4
:1015640008B50848FFF7E4FF4FF4E170FFF788FE81
:10157400202383F31188FFF78DFA002383F3118866
:1015840008BD00BF8F280008F7B5B64D2B78002B97
:1015940040F06581B44CE18AE068FFF74BF9072914
:1015A4007FD80F2289000368C9B28A4023EA020364
:1015B4000360012302688B4013430360A068218AFF
:1015C400FFF722FB618AFFF71FFBA18AFFF71CFBD1
:1015D400A68BA7693146A27F3846FFF73FFBA34994
:1015E40006F003028F42C6F387034FEA820267D1F3
:1015F40001219B0003F1804303F58033986801FACD
:1016040002F202439A600122994BB2401968994E42
:1016140011431960596821EA02015960996821EA65
:1016240002019960D9681143D9605A61FFF74EFAF3
:10163400914B62689A42914B63D19149886940F415
:101644008050886189694FF441711160B168B1FBC0
:10165400F3F3802B64DC402B64DC202B64DC102B44
:1016640064DC082B64DC042B64DC022BD4BF002371
:1016740001231168302041EAC3031360136843F067
:1016840040031360FFF748FA002855D062687D488C
:10169400136823F040031360FFF74AFF012003B0EF
:1016A400F0BD0F22083989004368C9B28A4023EA91
:1016B40002034360012342688B40134343607DE788
:1016C40071498F4207D19B0003F1804303F58033B6
:1016D4000221986893E76D498F4207D19B0003F17B
:1016E400804303F580330321986888E768498F4273
:1016F40089D19B0003F1804303F58033042198686A
:101704007DE764498A4201BF5D49C86940F480406D
:10171400C86108BFC9694FF441711160716896E7E7
:101724000723A6E70623A4E70523A2E70423A0E7EB
:1017340003239EE702239CE707210620FFF720FAF4
:1017440008B15548A8E78DF807000DF107010620F8
:10175400FFF734FA074640B99DF80760072E06D014
:1017640031464E48FFF7E4FE98E74D4894E73A20A7
:10177400FFF7D2F920210D20FFF702FA25210E20D0
:10178400FFF7FEF9ED210F20FFF7FAF9A32113204B
:10179400FFF7F6F9FF211420FFF7F2F908211820CA
:1017A400FFF7EEF931460320FFF7EAF93F21384607
:1017B400FFF7E6F906210220FFF7E2F90C21304693
:1017C400FFF7DEF944210820FFF7DAF950213E2023
:1017D400FFF7D6F931461620FFF7D2F9302117204A
:1017E400FFF7CEF9A38B092B5ED8042B5ED8063302
:1017F4009BB2702103F1604202F5614282F800134A
:10180400012203F01F015B099B0003F160438A403E
:1018140003F561430821C3F8802106201A60FFF70D
:10182400AFF930211720FFF7ABF994F82010002905
:101834003ED10A20FFF7A4F950213E20FFF7A0F97A
:1018440094F82030BBBB1C46164E7178013416F850
:10185400020BFFF795F9142CF7D101232B7000200C
:101864001DE700BF3509002048090020000C014095
:10187400000401404807002000300140A02E63000E
:10188400001002409F28000800100140001401408D
:101894000018014000380040AC280008B7280008B0
:1018A400CC280008302A00082823A2E71723A0E741
:1018B400FFF752F9B9E7FFF74FF9C1E70EB403B5E3
:1018C40003AA52F8041B00F580700192FEF7E4FEAF
:1018D40002B05DF804EB03B07047A0F58270FFF727
:1018E400EDBF00000FB407B5054905AA05480192EC
:1018F400FEF7D2FE03B05DF804EB04B0704700BFFE
:10190400D7280008780A0020EFF30983203383F3F3
:101914000988002383F31188704770477047704724
:10192400FEE70000F0B5082000261049D1E9013493
:101934001D460A68043AAC4210D8E21CD21ADD1ED5
:1019440022F00302AC4238BF00221344CA689A4210
:1019540009D8013801F11001E8D1F0BD52F8047F33
:1019640045F8047BE7E743F8046BF0E7C82A00086E
:1019740008B50348FEF7A2FCBDE80840FEF774BCB6
:10198400582A000808B50348FEF798FCBDE808404B
:10199400FEF76ABC682A000808B50348FEF78EFC07
:1019A400BDE80840FEF760BC782A000808B5034883
:1019B400FEF784FCBDE80840FEF756BC882A000800
:1019C40008B50348FEF77AFCBDE80840FEF74CBCB6
:1019D400982A000808B50348FEF770FCBDE80840E3
:1019E400FEF742BCA82A000808B50348FEF766FCC7
:1019F400BDE80840FEF738BCB82A0008114B30B4E3
:101A04001868196902681C4653601A60012202753D
:101A140000220A758A6818611B689D689542FBD884
:101A24005A680B604A6011605960EFF309830A69D0
:101A3400243B9A4203D972B6034B2362FEE730BCBF
:101A4400FEF78EBBE00B002080280008044B1A68C8
:101A54001B6992689B689A4201D9FFF7CFBF704710
:101A6400E00B002008B5202383F31188FFF780FBE7
:101A7400FFF7ECFF002383F3118808BD90F8FC30D6
:101A8400F7B50446002B55D0002140F2DE368568B8
:101A94002E486B68D4F8A4205B68C3F154039B1AE6
:101AA40048BF5433002B45D0531C542BC4F8A430E6
:101AB400A8BF0B46224492F8A820C4F8A43094F896
:101AC400503152B233B9436AB4F85271DB1B9BB242
:101AD400B34203D984F85011C4F84C11436A082A5C
:101AE400A4F85231D4F84C3105D1002BD1D0013BAC
:101AF400C4F84C31CDE70D2A01D00A2A1CD1002BA1
:101B0400C7D00025234483F8085104F5A47104F5D3
:101B14008470FFF7D3F80123C4F8540184F85031DA
:101B240084F8FC50684604F5827400948DF80530FE
:101B3400FFF798FF03B0F0BD3E2B9FBF5F1C1B193E
:101B4400C4F84C7183F80821A3E700BF00400140AA
:101B540007B5104C104D114EFFF730F94FF4B47027
:101B6400FFF724FC70B9D4F80130AB420AD1D4F8A1
:101B74000530B34206D14FF4E06300906846019308
:101B8400FFF770FFFEF7ECFF4FF46160FFF778FB9F
:101B9400E2E700BF35090020A15E11CA117CE10B08
:101BA400202383F31188034B1B6998610F20FFF7EF
:101BB4002BBB00BFE00B00202DE9F843244E336912
:101BC4009B0741D500233361202383F31188214CE3
:101BD400274657F8142F736AE18B9BB210895D1A5C
:101BE400ADB2A8421ED84FF00008C1461389E18B5C
:101BF4001944EB1A9DB21368E183BB425F60D1685C
:101C04006361C2F80C8008BFC6F80C8089F31188A0
:101C140010698847202383F3118862691389AB42D2
:101C2400E4D9D8E76069B8420BD0E383048921443E
:101C3400C91A01811289022A2CBF9B1802339BB254
:101C44007363002383F31188BDE8F843FEF70CBBEC
:101C540000400140E00B0020074B08495A6922F07C
:101C640080025A6111F9012B0AB901BEFEE7186816
:101C74000006FCD55A60F5E700380140E528000865
:101C840008B5202383F31188094B1B6853B1984787
:101C94000122084B5A61002383F31188BDE80840F0
:101CA400FEF7E2BA04490548FFF71CFEF0E700BF5F
:101CB400D80A002000040140F1280008D7280008B1
:101CC40008B5202383F31188094B5B6853B1984707
:101CD4000222084B5A61002383F31188BDE80840AF
:101CE400FEF7C2BA04490548FFF7FCFDF0E700BF60
:101CF400D80A002000040140FA280008D728000868
:101D040008B5202383F31188094B9B6853B1984786
:101D14000422084B5A61002383F31188BDE808406C
:101D2400FEF7A2BA04490548FFF7DCFDF0E700BF5F
:101D3400D80A00200004014003290008D72800081D
:101D440008B5202383F31188094BDB6853B1984706
:101D54000822084B5A61002383F31188BDE8084028
:101D6400FEF782BA04490548FFF7BCFDF0E700BF5F
:101D7400D80A0020000401400C290008D7280008D4
:101D840008B5202383F31188094B1B6953B1984785
:101D94001022084B5A61002383F31188BDE80840E0
:101DA400FEF762BA04490548FFF79CFDF0E700BF5F
:101DB400D80A00200004014015290008D72800088B
:101DC40008B5202383F31188094B1B685BB198473E
:101DD4004FF47872074B5A61002383F31188BDE8EE
:101DE4000840FEF741BA04490448FFF77BFDEFE7DA
:101DF400D40A0020000401401E290008D728000846
:101E040008B5202383F31188094B1B685BB19847FD
:101E14004FF47C42074B5A61002383F31188BDE8D9
:101E24000840FEF721BA04490448FFF75BFDEFE7D9
:101E3400D00A00200004014027290008D728000800
:101E4400202383F31188034B9B68002383F31188B9
:101E5400FEF70ABA00300140202383F31188034BB4
:101E64009B68002383F31188FEF7FEB90038004015
:101E74002DE98048B84D8BB06B6A43F001036B6267
:101E84006B6A9807FCD545F25552B44B06AC1A6000
:101E940006225A6040F2BF229A604AF6AA221A60C9
:101EA4004CF6CC421A60AE4B1F4603F11006224694
:101EB40018685968083303C2B3421446F7D1386925
:101EC400716804AB03C36B68C3F38103012B00F097
:101ED400FD81022B40F0FC816B686A68C3F3834385
:101EE400D10303F1020300F1EB819E4A53436A6874
:101EF4009D4FC2F3031228326A4412F8102C9B4EF1
:101F0400D3403B6069686A68C1F30221283169449F
:101F140011F8181CC2F3C22223FA01F179604FF0C0
:101F2400FF3128326A4412F8182CD340BB602A6966
:101F340029612A6900222A612869E868E960E96858
:101F4400EA60E968E9698A4841F08051E961E96930
:101F5400E96941F00061E961E9691146C0E90022DB
:101F6400083056F82240216040F8121004321C2A2E
:101F7400F7D14FF0FF307F4A20245060AA697E4891
:101F840042F48032AA61AA6942684FF0807642F432
:101F94008002426042F21072B3FBF2F3774A013BD3
:101FA40093624FF6FF700123D06291615163D16057
:101FB400516053611360724A82F81843C2F8806119
:101FC4001660704E06F11402C6E90522802233879A
:101FD4006D4BF262B160F06106F12402D86832619F
:101FE4006A4A20F4E06072630004694A000C024308
:101FF400C6E90066DA60D3F8FC20664842F08072D5
:10200400C3F8FC20026842F0010202601022DA7771
:1020140083F8224081F3118862B65F4A4FF0B10819
:1020240013465521B8F1010840F05481202282F36F
:1020340011885A4A5A48C3E91B285A4AC3F89C00D3
:10204400C3F88C200122C3F8982002222430C3F85C
:10205400A030A3F8A420FFF711FA88F31188524C9A
:1020640004F1A403C4E929331223C4F8A080DFF8DF
:102074003C8104F1980BD8F80C90C4F8AC30B9F852
:102084000C10D9F80800C4E92444C4E926BBFEF7BF
:10209400BBFDD9F80430464A934240F01E81AA6938
:1020A40042F48042AA61AA69BA68D9F800104FF0D4
:1020B400000AB2FBF1F29A603E493C4AD9F8180092
:1020C400C3F810A0FEF720FED8F80C904268D9F8A7
:1020D4000430C8F80400191D9160D9F82010D9F80B
:1020E4001000116001220C2188F89820D960C021C9
:1020F4005961B9F81410FEF7B1FD52465146D9F8AA
:102104001C00FEF701FED8F80C1043684A68C8F8B2
:102114000800101D98602848496AD8605420586007
:102124001960196841F001011960D36843F4005340
:10213400D360224B1A680AB9C3F80080DFF88080A4
:10214400D8F80030002B41D180211E4A1E48FFF7E9
:10215400C3F9C8F8000039E0001002400030004024
:102164006028000800093D00480700205C2A000898
:10217400A00B002000000240002004E000400140C9
:1021840000E100E0E00B002000ED00E00001002091
:102194000003FA05001000E008020020FD02000818
:1021A4007402002075010008F00A0020780900205C
:1021B4000038014007090008200A002074090020A3
:1021C400000400209D120008E0020020B74BB84A2A
:1021D4005A60EB6943F08053EB61EB69B54B5B6884
:1021E4009B070FD5FFF7D0F9002800F08780202344
:1021F40083F31188FEF74EFC002383F31188042235
:10220400AD4B1A60AD4AAE49AE48FFF791F9D7E934
:102214000002BB68AC490527B3FBF1F3B2FBF1F252
:10222400B0FBF1F1A948FFF783F9A94D013F7FD134
:10223400FF21A84AA848FFF74FF9FFF7A5F938B9D5
:10224400A648FFF775F9FF21A54AA648FFF744F908
:10225400202383F31188A448FEF7D8F8002787F3D6
:10226400118820238DF81D7083F31188D4F8A030D1
:10227400013B002BC4F8A03070DBD4F89020134647
:10228400526853F8085B0792984A02F190018B4216
:1022940028BF1346C4F89030D4F8AC300133002B77
:1022A400C4F8AC3009DCD4F8A400914A0368C4F83B
:1022B400A4305A608761FEF713FFFFF7C7FB61E0A4
:1022C4006A6892034CBF8B4A8B4A0FE68A4B0EE630
:1022D4008A4B0CE602F8011BA4E6894A934206D114
:1022E400EA6942F40032EA61EA697A68DDE6854A1D
:1022F4009342FAD1EA6942F48022F4E7FEF75EFDE4
:102304004FF48770FFF752F80546FEF729FC002DBD
:102314007FF46DAF7C4B7D4AD3F8011091427FF47A
:1023240066AFD3F805207A4B9A427FF460AF66E734
:1023340005F12000FEF77EF805F13C00FEF77AF87F
:1023440005F15800FEF776F8002328461A46194688
:10235400FEF7B0FE7835FEF75FFB67E73369D4F824
:102364009C20C3F818B0C3F800B05A60052013606D
:10237400C4F89C30FEF748FF33699B69002B3FF497
:102384007CAF0025002383F311889DF81D30013BA9
:10239400062B3FF666AF01A252F823F0BD230008D6
:1023A4000726000867220008672200083F26000865
:1023B40067220008E5250008D5F8508055494046B5
:1023C400FEF756FE18B12846FEF75EFB0DE04046C8
:1023D4005149FEF74DFE814660B12B682846D3F87B
:1023E4000480374A354B4D49C0472B6828461B6843
:1023F400984736E740464A49FEF73AFE002800F07F
:10240400CC80484605F14401FEF758FC01900028B1
:1024140000F0BD800246114612F9013B202BFAD090
:102424000D2BF8DD2D2B38D14FF0010A91F9013035
:102434008A1C302B76D192F9001021F02001582902
:1024440073D14FF0100E92F9013002320AF10048B4
:1024540008F1FF38B8FBFEF103910EFB11810291E4
:1024640000218C465FFA83F9A9F1300009285FD86E
:10247400A3F13009CE456FDDBCF1FF3F0AD0039BC9
:102484008B4266D302D1029B4B4562DB4FF0010CB9
:1024940001FB0E9112F9013BE4E72B2B4FF0000AEC
:1024A40004BF91F901308A1CC3E700BF000001405A
:1024B400040A00020070004044070020302900088C
:1024C4003E2900084F29000840420F005729000800
:1024D40054070020BD1200080804002086290008C3
:1024E400551B00082805002028070020F00A0020BA
:1024F400940B0020808D5B00001BB70000127A0053
:10250400004400400048004035090020A15E11CA83
:10251400117CE10B92290008972900085029000832
:102524009F2900084FF00A0E90E74FF0080E8DE740
:10253400A9F16100192809D9A9F14109B9F1190FC3
:102544000AD84FF03709A3EB090993E74FF057096D
:10255400F9E74FF0FF3C9DE7BCF1FF3F15D0BAF11E
:10256400000F00D04942BCF1000F01D0531E01936B
:10257400019B93F9003053B9C9B2072907D82F4BEF
:102584002F4A03EB411313601DE74146EEE72B6826
:102594002C495B682846984727E740462A49FEF7B6
:1025A40067FD814648B10122284B5A7083F879208F
:1025B40083F8F12083F8692105E740462449FEF7B2
:1025C40057FD48B1214B83F8019083F8799083F843
:1025D400F19083F86991F6E62B681E495B68D9E7A8
:1025E4001D48FEF7A5FF1D4B1B68002B3FF739AEB6
:1025F400164B5F7083F8797083F8F17083F8697112
:102604002FE64AF6AA22164B1A60144A1368002BC6
:10261400C4BF03F1FF33136005220C4B013A02D10E
:10262400FEF79EFF1DE6197800297FF41AAE59784B
:1026340000297FF416AE7833F0E7FFDE4806002069
:1026440000020020A1290008AC290008540700203A
:10265400AF290008B3290008C02900084407002056
:102664000030004000200021624B2DE9F047C3E90F
:1026740000014FF4E131604AC3E924335F4B604EFB
:10268400C2E9001306230720C2E9026303230424DA
:10269400C2E905039223C2E907434FF48553536209
:1026A400584B1661DA6003F11002C3E924220122B7
:1026B400002436204FF4E17583F8982083F8FC2039
:1026C400514AC3E901441A6002F128013832C3F8BF
:1026D4000011C3F80421C3E92744C3E95244C3E900
:1026E40054444A4AC3F8A440494B4FF434771A601F
:1026F400484ADFF824E19A61484B0922C3E90305FB
:102704004FF0B475C3E90575C3E90752444D4FF062
:102714006C0CC3E90E5E4FF4B4754FF47028C3E932
:1027240014C5404DDFF800A1C3E916853F4D2D21A6
:10273400C3E91EA540F276274FF4877940F2951835
:1027440040F22A3A6325C3E90021C3E90912C3E927
:102754001021C3E91821C3E91220C3E91A209A60A1
:10276400C3E90C97C3E91C87D862C3E92021C3F8E5
:1027740094A04FF4E02AC3E92915C3E92255C3E91B
:102784002B5C2B4DC3F898A0C3F8B850DFF8A4A075
:1027940005F570251935C3E93112C3E927A2C3E948
:1027A4002F52254AC3E93309C3E9362EC3F890C032
:1027B400C3F8B470C3F8D480FEF752FB1F4B204A11
:1027C40020491A60204AC3E909445A60A2F52052FC
:1027D400C3E902221D4A9E61C3E9041202221C4974
:1027E4009A839C771B4A83F820401B4B91601C7092
:1027F400BDE8F087F00A0020B8020020003801404C
:10280400000C014078090020D0290008202A000883
:10281400280700200627020132004D004806002048
:10282400A100C300FA000E015000A000040122011F
:10283400E100FA006101680178000E0148090020F6
:102844002C2A00080500060000300140070004009F
:0C28540069110008D80A00203509002096
:102860000000000000000000010203040607080940
:1028700000000000010203044F6B0D0A00202C0031
:10288000737461636B206F766572666C6F77004559
:102890006E746572696E6720736C6565700D0043B8
:1028A0004320527374204661696C0D0043432057E6
:1028B000204661696C0D00434320522F572046612A
:1028C000696C3B2072706C3D25750D0043432052AE
:1028D000204661696C0D00556E68616E646C6564BC
:1028E0002025530D000D486172644661756C740DAE
:1028F00000566563746F72353800566563746F7285
:10290000354300566563746F7236300056656374E4
:102910006F72363400566563746F723638005665D0
:1029200063746F72394300566563746F724530008B
:1029300032303234303532345F3134333600466C25
:102940006F7765724F66664279526164696F000DF8
:1029500025532025530D00414842467265713D259F
:10296000754D487A3B2041504231467265713D2594
:10297000754D487A3B2041504232467265713D2583
:10298000754D487A0D00434320696E6974206F6B62
:102990000D0050696E670056657273696F6E004E68
:1029A00000426164506172616D0D0A004F6E004F0C
:1029B000666600436D64556E6B6E6F776E0D0A0030
:1029C00052436D640D000000000000000000000094
:1029D0002F060008811A0008ED050008F30800081A
:1029E000C118000891080008910800089D08000817
:1029F00000FFFFFF0000000027060008FF08000896
:102A0000FCFEFFFF00000000B1080008DF1800080E
:102A10009508000899080008000000000000000068
:102A2000E11100080000000000000000471100084C
:102A30000B080C00105B11E51213154621B622108D
:102A4000191D1A1C1BC71C001DB223EA242A2500CD
:102A5000261F2C812D312E09000002400800024063
:102A6000010000000000000B000002401C000240BA
:102A7000020000000004010C00000240300002408F
:102A8000040000000008020D000002404400024063
:102A900008000000000C030E000002405800024035
:102AA000100000000010040F000002406C00024003
:102AB00020000000001405100000024080000240C9
:102AC0004000000000180611502B0008200C0020C8
:102AD000200C0020200C0020502B000800000000DB
:102AE0000000000000000000502B00080000000063
:102AF0000000000000000000502B00080000000053
:102B00000000000000000000502B00080000000042
:102B10000000000000000000502B00080000000032
:102B20000000000000000000502B00080000000022
:102B30000000000000000000502B00080000000012
:082B400000000000000000008D
:082B4800480600200100000016
:040000050800026588
:00000001FF
