:020000040800F2
:10000000000100206502000867020008011A0008CC
:10001000670200086702000867020008670200081C
:10002000670200086702000867020008ED14000874
:1000300067020008670200086702000867020008FC
:1000400067020008670200086702000867020008EC
:100050006702000867020008291A0008691A0008E8
:10006000A91A0008E91A0008291B000855150008FC
:10007000691500087D15000891150008A5150008F0
:10008000B9150008CD1500086702000867020008CE
:10009000670200086702000867020008691B000881
:1000A000611900086702000867020008670200087B
:1000B000670200086702000867020008670200087C
:1000C000670200086702000867020008E91B0008D1
:1000D000011C0008670200086702000867020008A8
:1000E000A91B0008670200086702000867020008F1
:1000F000670200086702000867020008670200083C
:10010000670200086702000867020008670200082B
:10011000670200086702000867020008670200081B
:10012000670200086702000867020008670200080B
:1001300067020008670200086702000867020008FB
:1001400067020008670200086702000867020008EB
:1001500067020008670200086702000867020008DB
:04016000B1280008BA
:100164002DE9F04FC1F80CD0C3689D46BDE8F08F6F
:10017400002383F311882846A047002001F0E2FB06
:1001840001F02CFA00DFFEE772B6274880F30888F6
:10019400264880F3098826484EF60851CEF200011D
:1001A4000860022080F31488BFF36F8F01F0A5F973
:1001B40001F0A4F94FF055301E491B4A91423CBF4F
:1001C40041F8040BFAE71C49184A91423CBF41F834
:1001D400040BFAE719491A4A1A4B9A423EBF51F8DE
:1001E400040B42F8040BF8E700201749174A914220
:1001F4003CBF41F8040BFAE701F084F901F07FF900
:10020400134C144DAC4203DA54F8041B8847F9E745
:1002140001F000FD104C114DAC4203DA54F8041BFC
:100224008847F9E701F06CB90001002000020020C2
:10023400000000080000002000010020442D0008F8
:10024400000200200802002008020020F00C002018
:1002540060010008640100086401000864010008EA
:1002640092E700F000F8FEE7202383F311880F4B98
:100274005B6813F4006315D0EFF309834FF08072C9
:1002840043F8042CA3F1200282F30988084A116878
:1002940012698968926891428CBF064A064A43F8FB
:1002A400082C704783F31188704700BF00ED00E00D
:1002B400C00B002085010008880100082DE9F041E9
:1002C40098460446202383F3118806284CD84FF01F
:1002D400010E264D0EFA00F62B681E4244D133431C
:1002E4002B607444224B45F8342005EBC404C4F855
:1002F40004805C691F4F44EA0E045C614FEA001CF1
:100304005B6907EB0010DAB16C6883681C4215D195
:10031400C37B090103F1604202F56142C9B282F86C
:10032400001303F01F025B099B0003F160430EFA04
:1003340002F203F56143C3F880211A6026436E601C
:1003440007EB0C014B68497B1A6857F80C4022F004
:100354000F021A600E228A40626000221A60002393
:1003640083F31188BDE8F0810020F8E7B00C002089
:1003740000100240542C000810B40468437B216828
:10038400827B4068D940006801F00E0108420DD01C
:1003940001FA03F36360064B013253F832402CB187
:1003A40003EBC2035868234610BC184710BC7047BF
:1003B400B00C0020FEE70000F0B51F4C1F4D264690
:1003C400C0E9032356F8143F02296A6A38BF0221A0
:1003D400B34292B20DD1E283C4E90500C0E900330F
:1003E40000230A4492B201816A632B610223EB6009
:1003F400F0BDE68B1F89921B92B2114489B29142DF
:1004040003D2C91B1B6889B204E08F4202D90E448F
:10041400B6B26E631A898A420CD35A68036042608A
:100424001060586001811A89521A1A814FF6FF73BD
:10043400A383DDE7891AE5E7C00B002000400140F3
:10044400194930B50A4652F8144F0025844203680E
:100454000AD0416893420B605960C56003D01A8981
:1004640001890A441A8130BD93424B610F485A6096
:10047400E56001D1C560F6E71A892489C98B224455
:1004840092B21A81436A9BB2581A80B28242EAD964
:10049400CB1A13449BB2012B9CBF023082B2034B94
:1004A400114489B25963DEE7C00B002000400140CB
:1004B400104B984205D1104A936943F004039361A9
:1004C40070470E4B984204D10B4A936943F00803DA
:1004D400F5E70B4B984204D1074A936943F01003A4
:1004E400EDE7084B9842EBD1034A936943F02003AC
:1004F400E5E700BF0008014000100240000C014085
:100504000010014000140140202208B582F3118834
:1005140003681B689847002383F3118808BD000013
:10052400036970B50446068B051D13B12846FFF711
:1005340087FF234631462846BDE87040014AFFF74D
:100544003BBF00BF0D050008604B026830B59A42FE
:1005540003F5644305D1996941F40061996199698E
:1005640007E0B2F1804F16D1D96941F00101D96198
:10057400D9694FF44041516481690469D162017DB4
:10058400013C01290CBF07210621032C3CD8DFE8DC
:1005940004F0336169714E498A4203D1D96941F04B
:1005A4000201E4E74B498A4203D1D96941F00401CD
:1005B400DDE749498A4203D1D96941F01001D6E700
:1005C40046498A4203D1D96941F02001CFE7444921
:1005D4008A4203D1996941F48031BFE741498A4293
:1005E40003D1996941F40031B8E73F498A42C0D147
:1005F400996941F48021B1E7946944EA0111916158
:10060400116A41F0010111621168384C41F0010195
:10061400116041680289A142407D33D19C6944F054
:1006240004049C619C69072A44F001049C614FEA1C
:10063400800343F009033AD80F2492000868D2B229
:10064400944020EA04000860086803FA02F20243B6
:100654000A6030BD946944EA01319161116A41F044
:100664001001D0E7D46944EA0111D161116A41F45F
:100674008071C8E7D46944EA0131D161116A41F457
:100684008051C0E71A4CA14203D19C6944F008048C
:10069400C7E7184CA14203D19C6944F01004C0E799
:1006A400154CA142BED19C6944F02004B9E70F2443
:1006B400083A92004868D2B2944020EA04004860A4
:1006C4004868934003434B60C3E700BF002C0140DC
:1006D40000040040000800400010004000140040E6
:1006E400004001400044014000480140000801402E
:1006F400000C0140001001400014014030B5441EBC
:1007040014F8015F11F8010BA5F14102192A6BB22B
:1007140042B2A0F1410098BF2033192898BF20327B
:10072400981A01D1002DEBD130BDD0F89C307F2B2D
:1007340016D8D0F894305A1CC0F894201970D0F808
:10074400942000F190039A4224BF00F11003C0F8F2
:100754009430D0F89C300133C0F89C3000207047AE
:100764000C207047A0F58070FFF7DFBF70472DE9BC
:10077400F04385B0984601AB0646002508461F465F
:100784009DF93090B0FBF2F4844602FB140120463C
:100794000929CCB294BF3034373464B2944505F19E
:1007A400010503F8014BEDD22C46336844451B6820
:1007B40009D33368013D30461B687957984730B9EF
:1007C400002DF6D104E049463046984718B10C2074
:1007D40005B0BDE8F0830134E7E72DE9F04F0B469F
:1007E4000546144685B01E4616F9011B31B9284644
:1007F4002B685B6805B0BDE8F04F1847252902D087
:100804002B681B6865E093F901804FF00009B8F18B
:10081400300F14BF4FF020089E1C16F9011BA1F1E4
:100824003002D2B2092A04D852B20A2303FB09299E
:10083400F3E72A2902D114F9042BF6E72E290AD169
:1008440016F9011BA1F13003DBB2092BF8D92A29CF
:1008540001D10434F4E7632937D016DC412964D08C
:1008640003DC2529CCD03346BDE7532934D058299D
:10087400F9D14B461022CDF8008054F8041B2846C9
:10088400FFF775FF0028EED0B1E7732924D015DCFB
:10089400642901D06929E6D154F8047B002F07DAD2
:1008A4002B682D2128461B68984700289FD17F423A
:1008B4004B460A223946CDF80080E0E77529D2D1AB
:1008C4004B460A22CDF80080D7E72B6814F9041BA5
:1008D4001B6828469847D5E7D4F800A053461F461E
:1008E40013F9012B002AFAD10AF1FF3BBBF1FF3FB8
:1008F40002D01BF9011F21B9A7EB0A07A9EB0707CF
:100904000FE02B6828461B6898470028EED06EE756
:100914002B68414628461B689847013F00287FF40E
:1009240066AF002FF4DC04349DE70027D4E900937C
:100934004FF0300BD4F8088003934FFA88FA039BE6
:100944009F4201DB0C348EE76FB919F807100223BC
:1009540010222846CDF800B0FFF709FF00287FF4E5
:1009640046AF0137EBE7B8F1000FEED02B685146E4
:1009740028461B6898470028E7D038E701207047CD
:100984000120704701207047202383F3118801233D
:1009940080F8FC30002383F311887047A0F582703F
:1009A400FFF7F2BF034653F8902FD0F89C109B1A20
:1009B4008B4228BF0B46C0F8A0307BB1002380F8DF
:1009C400983043685B68DA60D0F8A0205A60C26847
:1009D400126A1A601A6842F001021A60704790F8AD
:1009E40098300BB1FFF7DEBF7047A0F58070FFF7BA
:1009F400F6BF436810B459680A6822F00F020A600F
:100A0400597B1A680E238B400146536051F8902F8E
:100A1400D0E9273422448A42A3EB040328BF00F11F
:100A24001002C0F89C30C0F8902033B9012380F83C
:100A34009830036810BC1B68184710BCFFF7B2BF9E
:100A440043F23903084A30B51468084D013105FBF7
:100A54000433091A136023F00043B3FBF1F201FBE2
:100A64001233184430BD00BF000200206D4EC64151
:100A740013B542F210737824C178827800884A430F
:100A8400C2EB0222B2FBF3F2B0FBF4F304FB130358
:100A94006424C1EB0121B1FBF4F13C249BB23C3B47
:100AA400002BB8BF5B42C3F13C035343B3FBF4F3E5
:100AB4008A1AD2B213443B28C9B2DBB20FD97728C1
:100AC4000AD9B32816D9EF2818D9B0F5967F19D2C8
:100AD40008461946134613E0084619460346002003
:100AE40061F3070063F30F2062F3174020F07F40A7
:100AF40002B010BD084611461A46EFE708461146F3
:100B04000246ECE71846E5E738B5194B04461D687C
:100B1400D5E90001FFF794FF6060D5E90201FFF712
:100B24008FFFA060D5E90401FFF78AFF43F2390380
:100B3400104AE0601168104800FB01331360DB07C2
:100B440059BF698B288BE98BA88BFFF779FF80B29B
:100B54002083A36906226367022384F87730636FD6
:100B64006361E368B3FBF2F30133236138BD00BF73
:100B740004020020000200206D4EC6410122044BF5
:100B84005A7083F8792083F8F12083F8692170473B
:100B940034030020034BD98ADA6801238B401361A4
:100BA400704700BF2C020020064B5A8A9968012323
:100BB4009340054A8868184002D0013AFAD10120CE
:100BC400704700BF2C020020B8820100034B5B6811
:100BD40018739A68D207FCD5187B70472C02002042
:100BE400F8B501270D4D0646EB8AEA6807FA03F3C8
:100BF4005361FFF7D9FF044620B1FFF7CBFF3C4612
:100C04002046F8BD3046FFF7E1FF85F82000FFF7E6
:100C1400C1FF00F0700385F82030F1E72C020020BA
:100C24003620FFF7DDBF0000F8B501270C4B064660
:100C3400DA68DB8A0D4607FA03F35361FFF7B4FF62
:100C4400044620B1FFF7A6FF3C462046F8BD3046D7
:100C5400FFF7BCFF2846FFF7B9FFFFF79BFFF4E758
:100C64002C0200202DE9F0414FF001080F4E0746F9
:100C7400F38AF26808FA03F353610D46FFF794FF11
:100C8400044628B1FFF786FF44462046BDE8F081BC
:100C940047F08000FFF79AFF86F820002046FFF710
:100CA40095FF2870FFF776FFEFE700BF2C020020C6
:100CB40010B5FFF7FDFB124A0729936943F00103BE
:100CC40093610DD80F2289000368C9B28A4023EAD0
:100CD40002030360092302688B401343036010BDC1
:100CE4000F22083989004368C9B28A4023EA020303
:100CF4004360092342688B4013434360EFE700BF1E
:100D04000010024038B515460446FFF7D1FBCDB1BB
:100D14000123C2688B40022D0CBF22EA0303134354
:100D2400C360082307290FD80F2089002268C9B29D
:100D3400884022EA00022260226803FA01F111438A
:100D4400216038BD0423EDE70F200839890062686B
:100D5400C9B2884022EA0002626062688B40134391
:100D64006360EEE784B0F0B506AD85E80E0040F2AE
:100D74000113002704460380164B00F12406C0E942
:100D84000637089BC0E90177C0E90377476103622E
:100D94000FCD0FC695E8030086E803000E9B04F10F
:100DA40040050CAEE3630FCE0FC596E80300149B19
:100DB40085E8030012AE04F15C05A3650FCE0FC5F0
:100DC40096E8030085E803006767BDE8F04004B0D7
:100DD400704700BF000064642DE9F04F4FF080407D
:100DE4000024FF2501274FF0020C03220421DFF821
:100DF400E881A3B0CDE91445CDE91087CDE9120C03
:100E0400764E774B0DF1240C0DF1400ECDE91914FB
:100E1400CDE91C64CDE91E32CDE91773BEE80F009D
:100E2400209421951B951696ACE80F009EE80300CC
:100E34008CE803000DF1580E0DF10C0CBEE80F0008
:100E4400ACE80F009EE803008CE803000DF17C0A77
:100E54009AE807008DE80700DFF888910DF1700B20
:100E64009BE80E004846FFF77DFF08225E4B4FF0DB
:100E74008040CDE917234FF00A0C03224FF00B0EEC
:100E84000421CDE911C0CDE913241595CDE91DE068
:100E940010960DF1240C0DF1400ECDE91F14BEE89F
:100EA4000F00CDE919742195CDF858801B951C9637
:100EB400ACE80F009EE803008CE803000DF1580E27
:100EC4000DF10C0CBEE80F00ACE80F009EE8030027
:100ED4008CE803009AE807008DE8070009F1780020
:100EE4009BE80E00FFF73EFFCDF84080CDF8708000
:100EF400CDF858804FF0020C4FF009084FF00B0E5C
:100F04000A2003220421384BCDE913C4CDE911830F
:100F14001595CDE917E30DF1240C0DF1400ECDE943
:100F24001F24CDE91914CDE91D03BEE80F00219556
:100F34001B95ACE80F009EE803008CE803000DF15C
:100F4400580E0DF10C0CBEE80F00ACE80F009EE843
:100F540003008CE803009AE807008DE8070009F114
:100F6400F0009BE80E00FFF7FDFE08221F4B4FF038
:100F7400020CCDE91D23052203F58063CDE9183762
:100F8400174BCDE913C4CDE911231595CDE91A45C5
:100F9400CDE91F742195109609AC10AD0FCDCDE9A4
:100FA40016681C960FC495E8030084E8030016AD88
:100FB40003AC0FCD0FC495E8030084E803009AE85E
:100FC40007008DE8070009F5B4709BE80E00FFF7F1
:100FD400C9FE23B0BDE8F08F00080140000C0140B9
:100FE4000004004034030020002C01400044014070
:100FF40070B56FF04044056B6619056A05EB86050C
:101004006963C16C6518C16B01EB85014A63826E2B
:101014001444826D02EB8402536370BD0023826822
:101024000375054B1B6899689142FBD25A680360AB
:101034004260106058607047C00B002008B5202340
:1010440083F31188027D0023052A06D8DFE802F025
:101054000B050503120E826913604FF0FF338361A1
:10106400FFF7DCFF002383F3118808BD82699368CE
:1010740001339360D0E9003213605A60EDE7836A6C
:1010840010B504461BB198470023A36210BD406A03
:101094000028FBD063628361BDE81040FFF7BEBF48
:1010A4000148FFF7ECBF00BF2C020020184B10B51D
:1010B400D3F8AC20002A29DD013AC3F8AC20D3F8D8
:1010C4009420046802F10801C3F894101460406885
:1010D400506003F1900291422CBF1A46D3F8942039
:1010E400C3F89420D3F8A0200132002AC3F8A0202A
:1010F4000ADC0024D3F898000268C3F89820054B52
:1011040053608461FFF78AFF002000E0022010BDD5
:10111400680200200003002013B500220446837EE9
:1011240068468DF805300092FFF7C0FFE37E012B7F
:1011340005D1204602B0BDE81040FFF7F1B902B076
:1011440010BD0000104B13B51B6A59680A6822F0E1
:101154000F020A60597B1A680E238B4053600B4AB6
:10116400936823F001039360202383F311884FF4E1
:10117400A06300246846CDE90043FFF797FF84F39A
:10118400118802B010BD00BF0802002000240140F5
:101194000B4B10B4196908751868026853601A601B
:1011A400012218610275EFF309820C69243A944212
:1011B40003D972B6034A1A62FEE710BCFEF7D0BF29
:1011C400C00B00204C2A00084FF6FF7330B599423B
:1011D40004460B4D87B010D02B690A4A01A8FFF7CB
:1011E400EBF82046FFF7D4FF049B13B101A8FFF7E7
:1011F40027F92B69986907B030BDFFF7C9FFF8E7F5
:10120400C00B00204110000808B50146202383F3D9
:1012140011880820FFF7D8FF002383F3118808BD45
:1012240080B501271C4E1D4C00212046B3681A4D81
:1012340004F103082A68B5F804C0D2F808E007FAF4
:101244000CFC1CEA0E0FA14614F8012B1AD0012A3B
:101254001ED0042A0CBF0322022204F8012CAA681F
:101264009A4217D003B1984748460021AB684445D9
:1012740005F10C05DED103B198474FF4E170FFF797
:10128400C3FFD0E7023A012A8CBF01220422E4E71B
:101294000322E2E70131EAE7940B0020B80B0020B7
:1012A40008B5064C40F2DE30FFF7AEFF2068002898
:1012B400F8D003685B689847F4E700BF900B002000
:1012C40083B503270A20FFF79FFF04254FF020086A
:1012D4004FF00209374CA4F1780688F3118854F8CA
:1012E400683C002B07DC14F8783C032B08D8DFE8B3
:1012F40003F025304C57013B44F8683C002BF2D0F6
:1013040054F8042C54F8643C9A420BD0201FFFF785
:10131400AFFB0190C0F30743C0F30722C1B23046CC
:10132400FFF766FE54F8043C44F8643C002383F35E
:101334001188013D04F17804CDD1C3E714F8773C5A
:10134400002BDDD00123304604F8783CFFF7DCFBAA
:10135400D6E754F8042C54F8603C9A4206D154F869
:10136400703C04F8789C44F8683CC9E714F8013CE4
:101374000133DBB254F86C2C04F8013C0433B2FBA7
:10138400F3F2013244F8682CBAE714F8012C54F84B
:101394006C3C0432B3FBF2F304F8787C0133E2E7EB
:1013A40014F8013C23B904F8783C54F8743CDAE7A7
:1013B400013BDEE7AC030020002270B4134C8668C6
:1013C400216903468D688261AE4202D870BCFFF782
:1013D40025BE0A752246126890688542FBD3506880
:1013E4000A60486001605160012223611A75EFF3BD
:1013F40009820869243A904203D972B6044B2362E5
:10140400FEE7184670BCFEF7ABBE00BFC00B002061
:101414004C2A000838B50346552500F590748442DB
:101424001ED1202080F31188C3F8DC200E4A002549
:10143400C3F8FC20022203F1DC0003F58074C3F836
:101444000C01C3F810312046C3F8E050C3F808116A
:10145400A3F81421FFF7B0FF85F31188204638BDA7
:1014640000F8015BDBE700BF750100080FB407B5A6
:1014740004AB53F8041B0193202383F3118806481B
:10148400019AFFF7AAF9002383F3118803B05DF8EA
:1014940004EB04B0704700BF440600200EB403B54B
:1014A40003AA52F8041B00F580700192FFF795F926
:1014B40002B05DF804EB03B07047A0F58270FFF74B
:1014C400EDBF00000FB407B5054905AA0548019210
:1014D400FFF783F903B05DF804EB04B0704700BF75
:1014E4005B2A000844060020EFF30983203383F3CA
:1014F4000988002383F31188704770477047704749
:10150400FEE70000F0B5082000261049D1E90134B7
:101514001D460A68043AAC4210D8E21CD21ADD1EF9
:1015240022F00302AC4238BF00221344CA689A4234
:1015340009D8013801F11001E8D1F0BD52F8047F57
:1015440045F8047BE7E743F8046BF0E7C42C000894
:1015540008B50348FEF710FFBDE80840FEF784BE57
:10156400542C000808B50348FEF706FFBDE8084000
:10157400FEF77ABE642C000808B50348FEF7FCFEAB
:10158400BDE80840FEF770BE742C000808B5034897
:10159400FEF7F2FEBDE80840FEF766BE842C0008A4
:1015A40008B50348FEF7E8FEBDE80840FEF75CBE58
:1015B400942C000808B50348FEF7DEFEBDE8084099
:1015C400FEF752BEA42C000808B50348FEF7D4FE6B
:1015D400BDE80840FEF748BEB42C0008114B30B4F7
:1015E4001868196902681C4653601A600122027562
:1015F40000220A758A6818611B689D689542FBD8A9
:101604005A680B604A6011605960EFF309830A69F4
:10161400243B9A4203D972B6034B2362FEE730BCE3
:10162400FEF79EBDC00B00204C2A0008044B1A682C
:101634001B6992689B689A4201D9FFF7CFBF704734
:10164400C00B002008B5202383F31188FFF72EFD7B
:10165400FFF7ECFF002383F3118808BD07B54FF4AF
:1016640040730022CDE900238DF8000068468DF810
:101674000110FFF7E7FF03B05DF804FB2DE9F84321
:1016840080460E4600271B4DDFF86C901B4CF9B2C8
:10169400B14201D3BDE8F88318F80130032B08D117
:1016A400002009F80100FFF7D9FF636A2B80013796
:1016B400EDE7022BFBD119F801302A887BB9636A64
:1016C4009B1A41F293129BB29342F0D9636A2B8026
:1016D400012309F801300320FFF7C0FFE7E7636A3D
:1016E4009B1A40F291429BB29342E0D9636A2B80E9
:1016F400F1E700BFA00600209C0600200040014046
:1017040090F8FC30F7B5002B67D0002140F2DE36AC
:1017140085683D4C6B68D0F8A4205B68C3F1540322
:101724009B1A48BF5433002B57D0531C542BC0F87A
:10173400A430A8BF0B46024492F8A820C0F8A430F5
:1017440090F8503152B233B9636AB0F85271DB1B6E
:101754009BB2B34203D980F85011C0F84C11636AAC
:10176400082AA0F85231D0F84C3105D1002BD1D041
:10177400013BC0F84C31CDE70D2A01D00A2A39D1FA
:10178400002BC7D00021034400F5847283F80811AC
:1017940011461E4D12F9013B15F9014BFCB933B347
:1017A40012F9013B194D15F9014BA3421CD1CBB1E0
:1017B400002302F8013CC0F8482101230022C0F8AC
:1017C400541180F8503180F8FC2000F582700090AC
:1017D40068468DF80530FFF735FF03B0F0BDA3422E
:1017E400DAD1D5E71A46E6E7002CDCD1D8E71A4669
:1017F4001946E0E73E2B9FBF5F1C1B18C0F84C71D5
:1018040083F8082186E700BF00400140692A0008E8
:1018140083B5454C454E94F820305BB93320FFF72F
:10182400DFF958B93D20FFF7DBF994F82030002B9D
:10183400F8D103E0FFF7F4F90028ECD03A20FFF7E1
:10184400CFF9202383F311883420FFF7C9F9384BEB
:10185400384A1B694FF4B471636203209A61FFF73D
:10186400B3FC002383F31188013002D1FFF7D8F9C8
:1018740013E069467820FFF7F5F970B99DF9003057
:10188400002B0ADA0123E18AE2688B405361FFF7F7
:101894008BF9014668B1FFF77DF994F82030002BED
:1018A400E4D13920FFF79CF94FF46160FFF7ACFCF9
:1018B400B1E7214FFF20FFF789F93D460020FFF7EC
:1018C40085F90131C9B208298DF8000007F8010F24
:1018D400F4D10020FFF77AF907460020FFF776F9E4
:1018E400FFF758F93BB27F2BC4BFA7F580773BB213
:1018F40003EBD373114F5B104A3B3B70D5F80130B7
:10190400B34208D1D5F805306846009307238DF813
:101914000530FFF797FE97F90020D5F80510084821
:10192400FFF7A4FDB9E700BF2C020020EA0F11CA9B
:10193400C00B0020500200201405002025050020C3
:101944006C2A0008202383F31188034B1B699861D8
:101954000F20FFF71DBC00BFC00B00202DE9F8438A
:10196400244E33699B0741D500233361202383F33D
:101974001188214C274657F8142F736AE18B9BB2C8
:1019840010895D1AADB2A8421ED84FF00008C146B6
:101994001389E18B1944EB1A9DB21368E183BB42AE
:1019A4005F60D1686361C2F80C8008BFC6F80C8020
:1019B40089F3118810698847202383F311886269A9
:1019C4001389AB42E4D9D8E76069B8420BD0E3830A
:1019D40004892144C91A01811289022A2CBF9B1847
:1019E40002339BB27363002383F31188BDE8F84389
:1019F400FEF73ABC00400140C00B0020074B0849E9
:101A04005A6922F080025A6111F9012B0AB901BE08
:101A1400FEE718680006FCD55A60F5E70038014077
:101A24007D2A000808B5202383F31188094B1B681D
:101A340053B198470122084B5A61002383F311885C
:101A4400BDE80840FEF710BC04490548FFF73AFD1D
:101A5400F0E700BF1803002000040140892A0008B1
:101A64005B2A000808B5202383F31188094B5B68BF
:101A740053B198470222084B5A61002383F311881B
:101A8400BDE80840FEF7F0BB04490548FFF71AFD1E
:101A9400F0E700BF1803002000040140922A000868
:101AA4005B2A000808B5202383F31188094B9B683F
:101AB40053B198470422084B5A61002383F31188D9
:101AC400BDE80840FEF7D0BB04490548FFF7FAFC1F
:101AD400F0E700BF18030020000401409B2A00081F
:101AE4005B2A000808B5202383F31188094BDB68BF
:101AF40053B198470822084B5A61002383F3118895
:101B0400BDE80840FEF7B0BB04490548FFF7DAFC1E
:101B1400F0E700BF1803002000040140A42A0008D5
:101B24005B2A000808B5202383F31188094B1B693D
:101B340053B198471022084B5A61002383F311884C
:101B4400BDE80840FEF790BB04490548FFF7BAFC1E
:101B5400F0E700BF1803002000040140AD2A00088C
:101B64005B2A000808B5202383F31188094B1B68FE
:101B74005BB198474FF47872074B5A61002383F3A3
:101B84001188BDE80840FEF76FBB04490448FFF71D
:101B940099FCEFE73003002000040140B62A000856
:101BA4005B2A000808B5202383F31188094B1B68BE
:101BB4005BB198474FF47C42074B5A61002383F38F
:101BC4001188BDE80840FEF74FBB04490448FFF7FD
:101BD40079FCEFE72C03002000040140BF2A000831
:101BE4005B2A0008202383F31188034B9B6800239E
:101BF40083F31188FEF738BB00300140202383F3C0
:101C04001188034B9B68002383F31188FEF72CBBD8
:101C1400003800402DE98048B84F89B07B6A43F012
:101C240001037B627B6A9807FCD545F25552B44B9D
:101C340004AC1A6006225A6040F2BF229A604AF647
:101C4400AA221A604CF6CC421A60AE4B1E4603F12F
:101C54001005224618685968083303C2AB4214467B
:101C6400F7D13069696802AB03C37B68C3F38103AE
:101C7400012B00F04683022B40F045837B687A6891
:101C8400C3F38343D10303F1020300F134839E4A77
:101C940053437A689D4EC2F3031220326A4412F809
:101CA400102C9B4DD340336079687A68C1F30221CC
:101CB4002031694411F8181CC2F3C22223FA01F13D
:101CC40071604FF0FF3120326A4412F8182CD3406F
:101CD400B3603A6939613A6900223A613869F8684F
:101CE400F960F968FA60F968F9698A4841F0805145
:101CF400F961F969F96941F00061F961F96911461D
:101D0400C0E9002205EB82046468216000EB420410
:101D140004321C2AA160F5D14FF0FF307E4A202402
:101D24005060BA697D4842F48032BA61BA69426847
:101D34004FF0807542F48002426042F21072B3FBAD
:101D4400F2F3774A013B93624FF6FF700123D062AE
:101D540091615163D160516053611360714A82F89B
:101D64001843C2F8805115606F4D05F11402C5E99E
:101D7400052280222B876D4BEA62A960E86105F198
:101D84002402D8682A616A4A20F4E0606A63000485
:101D9400684A000C0243C5E90055DA60D3F8FC2018
:101DA400654842F08072C3F8FC20026842F00102E8
:101DB40002601022DA7783F8224081F3118862B638
:101DC4005E4A4FF0B00813465521B8F1010802F8F5
:101DD400011BFAD1202282F31188594A5948C3E9D8
:101DE4001B28594AC3F89C00C3F88C200122C3F86D
:101DF40098200222C3F8A030A3F8A4202430FFF7CF
:101E0400DBFA88F31188514C04F1A403C4E92933A3
:101E14001223C4F8A080DFF83881C4F8AC30D8F8B5
:101E24000C9004F19803C4E92633B9F80C10D9F8DE
:101E34000800C4E92444FEF73BFFD9F80430454ABE
:101E4400934240F06282BA6942F48042BA61BA694C
:101E5400B268D9F800104FF0000AB2FBF1F29A60B0
:101E640009213D4AD9F81800C3F810A0384BFEF7F1
:101E740025FAD8F80C904268D9F80430C8F8040060
:101E8400191D9160D9F82010D9F8100011600122B1
:101E94000C2188F89820D960C0215961B9F8141030
:101EA400FEF730FF534652460921D9F81C00FEF7CD
:101EB40005FAD8F80C1043684A68C8F80800101DE1
:101EC40098602648496AD860542058601960196897
:101ED40041F001011960D36843F40053D360204BEF
:101EE4001A680AB9C3F80080DFF87880D8F800309F
:101EF400002B40D180211C4A38E000BF0010024072
:101F040000300040342A000800093D005802002037
:101F1400542C0008B00C002000000240002004E013
:101F24000040014000E100E0C00B002000ED00E0B3
:101F3400000100200003FA05001000E0000C00205E
:101F4400B90300086C0C0020750100086802002029
:101F54004405002000380140F7090008EC05002082
:101F6400900B0020BC0B0020A5120008BA48FFF714
:101F740051FAC8F80000B94BB94ABA495A60BA488C
:101F8400BA4AFFF773FAD6E90002B949B368B2FB5B
:101F9400F1F2B3FBF1F3B0FBF1F1B648FFF766FAE7
:101FA4004FF00408DFF8D09209F12000FEF7CCFAD4
:101FB40009F13C00FEF7C8FA09F15800FEF7C4FA2B
:101FC400002348461A461946FFF712F8FEF79CFD0F
:101FD400B8F1010809F17809E6D1A84AFF21A84817
:101FE400FFF718FAC346FEF7C9FDDFF89892DFF849
:101FF40098A299F80620B9F8041008F1010859F8D4
:102004000C0BFEF77FFEB8F1030F0AF801BBF0D109
:102014009E4A80219E48FFF7FDF99E48FEF748FA44
:1020240003684FF0070823F470430360FEF740FA97
:1020340003684FF0050923F47063036003684FF0ED
:102044001F0C43F4807303600423036101207B6845
:10205400DFF844E223F440437B60BB6943F400733C
:10206400BB61BB698D4B9A6842F001029A609A6821
:1020740042F41E0242F480729A605A6842F48072FA
:102084005A60DA6A22F47002DA62DA6A42F470029E
:10209400DA621EF8017B7A00092F3A4400F2468185
:1020A400196908FA02FA21EA0A011961196909FA97
:1020B40002F20A431A6102460830C0B2062A00F24C
:1020C4004281511ED3F834A001EB81010CFA01FBCB
:1020D4002AEA0B0AC3F834A0D3F834A007FA01F1B2
:1020E40041EA0A0159630132D2B29042E6D1112881
:1020F400CFD16A4B9A6842F001029A6000220092A2
:10210400009A072A40F24B819A68644F42F0080211
:102114009A60BB681B07FCD4BB6843F00403BB6034
:10212400BB6813F00403FBD118465D4A0F21FEF788
:10213400C5F8DFF8708143685B4AC8F820009A60EC
:1021440040F282521A60BB68DFF8609123F0010309
:10215400BB6099F80030002B40F03D82544FF98A5F
:10216400F868FEF7A5F9072900F21C810F238900FE
:102174000268C9B28B4022EA0303036001230268A8
:102184008B4013430360B868398AFEF791FD798A5E
:10219400FEF78EFDB98AFEF78BFDB7F81CB0D7F8B1
:1021A40018A05946BA7F5046FEF7ACFD41490BF0E2
:1021B40003028A45CBF387034FEA820240F003818E
:1021C40001219B0003F1804303F58033986801FAF1
:1021D40002F202439A600122374B02FA0BF21968A9
:1021E400364811431960596821EA02015960996817
:1021F40021EA02019960D9681143D9605A61FEF756
:10220400C9FC7A68824240F000812D4B996941F4FF
:10221400805199619B694FF4417382420CBFB1684C
:1022240071681360274BB1FBF3F3802B00F3F98043
:10223400402B00F3F880202B00F3F780102B00F3E1
:10224400F680082B00F3F580042B00F3F480022BB6
:10225400D4BF0023012337E0700A002000000140AE
:10226400040A0002D62A0008E02A0008C82A000846
:1022740040420F00E82A000834030020C512000879
:10228400A8060020940B0020B80B0020251200089B
:102294005009002000080140A82B00080024014038
:1022A40049110008080200204C24014014050020B4
:1022B4002C020020000C01400004014000300140C9
:1022C40000100240A02E63001168302041EAC303CD
:1022D4001360136843F040031360FEF781FC002889
:1022E40000F0AB807A68C148136823F040031360A0
:1022F400FFF7BCF8B9E07A6892034CBFBC4ABD4A08
:10230400C6E4BC4BC5E4BC4BC3E4BC4A934206D10F
:10231400FA6942F40032FA61FA69726899E5B84AD6
:102324009342FAD1FA6942F48022F4E7D9681E3A5A
:1023340008FA02FA21EA0A01D960D96809FA02F214
:102344000A43DA60B7E60C2A12D8D11FD3F830A0BA
:1023540001EB81010CFA01FB2AEA0B0AC3F830A055
:10236400D3F830A007FA01F141EA0A011963BAE689
:10237400102A3FF6B8AEA2F10D01D3F82CA001EB60
:1023840081010CFA01FB2AEA0B0AC3F82CA0D3F84A
:102394002CA007FA01F141EA0A01D962A3E6009AE6
:1023A4000132ACE6A1F108030F219B004268DBB2C5
:1023B400994022EA010242600122416802FA03F3D1
:1023C4000B434360DFE68F498A4507D19B0003F145
:1023D400804303F5803302219868F8E68A498A45E8
:1023E40007D19B0003F1804303F5803303219868F0
:1023F400EDE686498A457FF4EEAE9B0003F1804307
:1024040003F5803304219868E1E6814B9A427FF416
:1024140002AF03F5EC33D96941F48041D961DB693A
:10242400F9E6072350E706234EE705234CE7042388
:102434004AE7032348E7022346E707210620FEF77D
:10244400F3FB08B1734853E78DF8100004A9062084
:10245400FEF708FC8246002842D19DF81060072E42
:1024640040D031466C48FFF701F8202383F31188EC
:102474006A48FEF755F8002686F31188B3462023F0
:10248400CDE9046683F31188D4F8A030013B002B16
:10249400C4F8A030C0F2DA80D4F89020134653F880
:1024A400081B0491526805925D4AA2F1900193427F
:1024B40028BF0B46C4F89030D4F8AC300133002B5D
:1024C400C4F8AC3009DCD4F8A400564A0368C4F854
:1024D400A4305A608661FEF7A1FDFFF7A7F8C7E0B4
:1024E400514805E73A20FEF77BFB20210D20FEF73B
:1024F4009BFB25210E20FEF797FBED210F20FEF715
:1025040093FBA3211320FEF78FFBFF211420FEF77A
:102514008BFB08211820FEF787FB31460320FEF7CA
:1025240083FB3F215046FEF77FFB06210220FEF786
:102534007BFB0C213046FEF777FB44210820FEF795
:1025440073FB50213E20FEF76FFB31461620FEF749
:102554006BFB30211720FEF767FBBB8B092B43D89D
:10256400042B6BD806339BB2702103F1604202F551
:10257400614282F80013012203F01F015B099B00F2
:1025840003F160438A4003F561430821C3F88021C5
:1025940006201A60FEF748FB30211720FEF744FBA3
:1025A40097F8201000294BD10A20FEF73DFB50215B
:1025B4003E20FEF739FB97F82060002E43D11B4FD5
:1025C4007978013617F8020BFEF72EFB142EF7D19B
:1025D400012389F800301648FEF748FFFF21154A09
:1025E4001548FEF717FF40E72823BDE7172B00081F
:1025F400808D5B00001BB70000127A00004400408D
:10260400004800400010014000140140001801403F
:1026140000380040242B00082F2B00082805002038
:10262400F80200200C030020442B0008AA2B000809
:102634004F2B00081518000830080020172393E7D3
:10264400FEF7EEFAACE7FEF7EBFAB4E72B69814A42
:1026540005209A611A60D4F89C205A601360C4F86B
:102664009C30FEF795FD2B699B69002B3FF414AF5A
:102674008BF311889DF81530013B062B3FF6FFAE16
:1026840001A252F823F000BFA92600085D27000824
:10269400FB2600088324000865270008832400081B
:1026A40041270008049F6C49D7F85090D7F800A040
:1026B400894503D04846FEF721F828B9DAF80430F2
:1026C4006649384698470DE06549894503D0484630
:1026D400FEF714F858B93846DAF80490614B624AA8
:1026E4006249C8473B6838461B689847C7E6DAF82A
:1026F40004305F49E5E79DF811709DF810203946D4
:102704005C48FEF7B3FE002F7FF4B9AE1022D8F870
:1027140020305B68C3F80C805A6040F282521A6021
:102724001A6842F001021A60534B9A6842F001029F
:102734009A609A6842F480029A60A0E6049F4F4827
:102744003946FEF793FEFEF719FA4D4B17B94D4A79
:102754001A6094E64C4AFBE74AF6AA224B4BF7E789
:1027640000231A464A4931F8020B0132082A03446D
:10277400F9D1D908002338F812000132102A034491
:10278400F9D14FF496625143DB08B1FBF3F14900F0
:102794008AB2B2F5875F4ED241F20D039A424CD809
:1027A40040F6E1639A424AD840F6B5539A4248D873
:1027B40040F6A7439A4246D840F6E5239A4244D9C4
:1027C4000522344B03EB82039F783A463248FEF7E6
:1027D4004DFE142F3BD9314B314A4F2F98BF13462E
:1027E4004FF0040A2F4F1FFA83F946F26443ADF801
:1027F4000490ADF80630202383F311887E703E7078
:102804003E6101A8FEF734F90290C0F30743C0F318
:102814000722C1B23846FEF7EBFB8BF31188BAF1FD
:10282400010A07F17807E0D143F6C430FEF7ECFC67
:10283400FEF7A4F923E60022C3E70122C1E702223E
:10284400BFE70322BDE70422BBE70027BDE7164B21
:10285400C6E700BF000300205B2B0008602B0008C4
:10286400652B0008C82A0008D62A0008E12A0008B7
:102874006D2B00087A2B000800240140852B0008EA
:1028840004020020C8070020E807002000300040B0
:1028940008020020D22B00088F2B00087800646403
:1028A4001E006464340300200000646400200021DE
:1028B400474B70B5C3E900014FF4E131454AC3E920
:1028C4002433454B454DC2E9001306230721C2E9D1
:1028D400025303230420C2E905139223C2E9070328
:1028E4004FF4855353623E4B1561DA6003F11002D5
:1028F400C3E92422012283F8982083F8FC20394A72
:10290400002402F10800186002F130004032C3F8DC
:10291400042109262D22C3F80001C3E90144C3E9B7
:102924002744C3E95244C3E95444C3F8A4402E4B9A
:102934006320C3E90062196212214FF0B40EC3E9A7
:1029440009124FF4347240F2E731C3E902004FF048
:102954006C0C40F22A304FF40036C3E90BE2234AF0
:10296400C3E904C0C3E90D122148224AC3E9066041
:10297400DA63214B214A1A60214A9A61FEF72CFA44
:10298400204B21482149224AC3E9040102211A604B
:10299400204A99835A60A2F52052C3E902229D611C
:1029A4009C7783F82040C3E909441B4B1B491C70E6
:1029B4001B481C4B8860C3E900261B491B4A9D61C8
:1029C400C3E904120131C3E90712C3E9022570BD4A
:1029D400680200200808002000380140000C014073
:1029E40044050020042C0008C80700205000A00063
:1029F40067016801C800040128050020F42B0008C1
:102A0400062702012C02002005000600070004002E
:102A1400002C000800300140140500201803002099
:102A2400A5100008940B00200C0002008116000879
:102A3400000000000000000001020304060708096A
:102A44000000000001020304737461636B206F765D
:102A54006572666C6F7700556E68616E646C656450
:102A64002025530D00202C00483A2025753B205288
:102A74007373693A2025640D000D486172644661E0
:102A8400756C740D00566563746F72353800566545
:102A940063746F72354300566563746F7236300029
:102AA400566563746F72363400566563746F72369C
:102AB4003800566563746F72394300566563746FEA
:102AC4007245300032303234303732395F3131328E
:102AD400390052656426477265656E000D255320E2
:102AE40025530D00414842467265713D25754D4898
:102AF4007A3B2041504231467265713D25754D48FF
:102B04007A3B2041504232467265713D25754D48ED
:102B14007A0D00434320527374204661696C0D00A2
:102B240043432057204661696C0D00434320522FD4
:102B340057204661696C3B2072706C3D25750D0011
:102B440043432052204661696C0D00434320696E63
:102B54006974206F6B0D0050696E67004F6B0D0A2E
:102B64000056657273696F6E00436D64556E6B6ECB
:102B74006F776E0D0A0042746E2025752025750D41
:102B84000052436D643A2025750D00564261743A33
:102B94002025756D563B2050657263656E743A202E
:102BA40025750D0003110B080C00105B11E51213C1
:102BB400154621B62210191D1A1C1BC71C001DB274
:102BC40023EA242A2500261F2C812D312E09E0100A
:102BD40064000E105000E20E3C00B60D2800A80C54
:102BE4001400E60A0A0000000000000000000000D3
:102BF4001D11000800000000000000008310000800
:102C0400000000000000000071070008051700081C
:102C14002F070008E3090008A1140008810900082F
:102C2400810900088D09000800FFFFFF0000000073
:102C340069070008EF090008FCFEFFFF0000000020
:102C4400A1090008BF1400088509000889090008C3
:102C54000000024008000240010000000000000BD8
:102C6400000002401C000240020000000004010CAD
:102C74000000024030000240040000000008020D81
:102C8400000002404400024008000000000C030E53
:102C94000000024058000240100000000010040F21
:102CA400000002406C0002402000000000140510E7
:102CB400000002408000024040000000001806119D
:102CC4004C2D0008F00C0020F00C0020F00C00202B
:102CD4004C2D00080000000000000000000000006F
:102CE4004C2D00080000000000000000000000005F
:102CF4004C2D00080000000000000000000000004F
:102D04004C2D00080000000000000000000000003E
:102D14004C2D00080000000000000000000000002E
:102D24004C2D00080000000000000000000000001E
:102D34004C2D00080000000000000000000000000E
:082D440001000000E807002077
:040000050800026588
:00000001FF
