:020000040800F2
:10000000000100207101000873010008B11F000801
:1000100073010008730100087301000873010008F0
:10002000730100087301000873010008D132000851
:1000300073010008730100087301000873010008D0
:1000400073010008730100087301000873010008C0
:100050007301000873010008C11F00080120000897
:100060004120000881200008C1200008D534000884
:10007000E9340008FD340008113500082535000872
:10008000393500084D350008730100087301000878
:1000900073010008730100087301000801210008C2
:1000A0008D2C00087301000873010008730100081B
:1000B0007301000873010008730100087301000850
:1000C0007301000873010008730100085D23000834
:1000D0008D230008730100087301000873010008F4
:1000E0004121000873010008730100087301000832
:1000F0007301000873010008730100087301000810
:1001000073010008730100087301000873010008FF
:1001100073010008730100087301000873010008EF
:1001200073010008730100087301000873010008DF
:1001300073010008730100087301000873010008CF
:1001400073010008730100087301000873010008BF
:1001500073010008730100087301000873010008AF
:10016000D908000835100008411A00083D1C000895
:1001700016E000F000F8FEE72DE9F04FC1F80CD0D2
:10018000C3689D46BDE8F08F002383F3118828469D
:10019000A047002002F0E4FF02F0B3FE00DFFEE71C
:1001A00072B6274880F30888264880F309882648D5
:1001B0004EF60851CEF200010860022080F3148848
:1001C000BFF36F8F03F0B4F803F0B3F84FF055307E
:1001D0001E491B4A91423CBF41F8040BFAE71C49F7
:1001E000184A91423CBF41F8040BFAE719491A4AF0
:1001F0001A4B9A423EBF51F8040B42F8040BF8E741
:1002000000201749174A91423CBF41F8040BFAE716
:1002100003F092F803F08EF8134C144DAC4203DA5D
:1002200054F8041B8847F9E700F052FE104C114DBA
:10023000AC4203DA54F8041B8847F9E703F07BB8B3
:100240000001002000020020000000080000002043
:1002500000010020A0380008000200200802002051
:1002600008020020980D00206001000870010008BD
:10027000700100087001000830B543F23904084AE3
:10028000084D1368013105FB0343091A136023F07D
:100290000043B3FBF1F201FB1233184430BD00BF41
:1002A000000200206D4EC6410269036803EB820321
:1002B0001963704713B542F210737824C2788178BD
:1002C00000885143C1EB0121B1FBF3F1B0FBF4F322
:1002D00004FB13036424C2EB0222B2FBF4F23C24BD
:1002E0009BB23C3B002BB8BF5B42C3F13C034B438A
:1002F000B3FBF4F3521AD2B2114413443B28C9B2EF
:10030000DBB20DD977280FD9B32810D9EF2819D926
:10031000B0F5967F104617D21A460B46014606E006
:1003200010460A46194601E010461A4603460020C8
:1003300062F3070061F30F2063F3174020F07F4062
:1003400002B010BD0846EDE70A46E7E784B0F0B515
:1003500006AD85E80E0040F2011300260446038036
:100360001A4B00F12407C0E90636089BC0E9016674
:10037000C0E90366466103620FCD0FC795E803002D
:1003800087E803000E9B04F140050CAFE3630FCF39
:100390000FC597E80300149B85E8030012AF04F132
:1003A0005C05A3650FCF0FC597E8030085E8030040
:1003B000204684F8746084F8756084F8766084F868
:1003C0007760BDE8F04004B0704700BF000064648F
:1003D00003222DE9F04F8D4BA3B0CDE91E3204224C
:1003E000189319924FF0804302220024FF25012721
:1003F000DFF82882CDE91232854EADF850401595D0
:10040000CDF84080ADF844700DF1240C0DF1400E94
:10041000ADF87440ADF880402195ADF868401B956B
:10042000BEE80F001C961696ADF85C70ACE80F00A5
:100430009EE803008CE803000DF1580E0DF10C0C42
:10044000BEE80F00ACE80F009EE803008CE8030054
:100450000DF17C0A9AE807008DE80700DFF8C091EB
:100460000DF1700B9BE80E004846FFF76FFF4FF051
:1004700080414FF0804C1E910421CDF848C04FF0D0
:100480000A004FF0030C1F914FF00B024FF00801D0
:10049000604BADF850401595CDF84CC01096ADF8B6
:1004A00044000DF1240C0DF1400ECDE91837ADF8E4
:1004B0007420ADF880402195CDF85880ADF85C10DF
:1004C000ADF868401B95BEE80F001C96ACE80F0025
:1004D0009EE803008CE803000DF1580E0DF10C0CA2
:1004E000BEE80F00ACE80F009EE803008CE80300B4
:1004F0009AE807008DE8070009F178009BE80E00F4
:10050000FFF724FF4FF00B02ADF85C2004224FF000
:100510000A00CDF84080CDF87080CDF8588019924F
:100520004FF009080222ADF874000320394BADF8F2
:1005300050401595ADF84480129313920DF1240CA0
:100540000DF1400E1E931F90ADF880402195189339
:10055000ADF868401B95BEE80F00ACE80F009EE8C0
:1005600003008CE803000DF1580E0DF10C0CBEE8F1
:100570000F00ACE80F009EE803008CE803009AE847
:1005800007008DE8070009F1F0009BE80E00FFF777
:10059000DDFE214B4FF00801CDE91E3703F58063E6
:1005A000CDE918370523ADF844300223174AADF8DA
:1005B0005040CDE912231595ADF880402195ADF856
:1005C00068401B95109609AC10ADADF874101C96E0
:1005D0000FCD1696ADF85C800FC495E8030084E853
:1005E000030016AD03AC0FCD0FC495E8030084E8FB
:1005F00003009AE807008DE8070009F5B4709BE84E
:100600000E00FFF7A3FE23B0BDE8F08F000400400A
:10061000000C0140002C0140004401400008014052
:10062000080200202DE9F04104460F4603C8164693
:100630001D46DDF81880FFF71FFE3860D4E902017F
:10064000FFF71AFE3060D4E90401FFF715FE43F20C
:100650003901094A28601368084800FB0313136036
:10066000DB0759BF618B208BE18BA08BFFF704FE6A
:10067000A8F80000BDE8F081000200206D4EC641E0
:1006800013B5044600F11803009300F1080200F1CD
:100690000C03011D08480068FFF7C4FFA3696367E6
:1006A000002384F87730636F6361E3689B0801334C
:1006B000236102B010BD00BF04020020032683B5F1
:1006C0000A2002F052FD042520274FF00208324C88
:1006D00087F311882369002B06DC2378032B07D8C6
:1006E000DFE803F02C354952013B2361002BF4D0A5
:1006F000626F63699A4217D004F17400FFF7DAFD64
:10070000C1B20190C0F3072AC0F3074904F12000E9
:10071000FFF7CAFD514604F13C00FFF7C5FD49460D
:1007200004F15800FFF7C0FD636F6361002383F39A
:100730001188013D04F17804CAD1C1E76378002B28
:10074000D6D0012320462370FFF79AFFD0E7626FCF
:10075000A3699A4204D1A36884F800802361C7E7A3
:1007600094F877300133DBB2E26884F877300433F1
:10077000B2FBF3F306E094F8773026701A1DE368B5
:10078000B3FBF2F30133E9E794F8773013B9237040
:100790006368E3E7013BE6E7080200202DE9F34147
:1007A0000425174C04F1200804F13C07404601F0F1
:1007B00061FB04F15806384601F05CFB304601F05D
:1007C00059FB00214046FFF76FFD00213846FFF737
:1007D0006BFD00213046FFF767FD2046FFF750FF15
:1007E000013D04F17804DDD1FF224FF49071054BF7
:1007F0000095054802F084FC02B0BDE8F08100BF1E
:1008000008020020BD060008E80300200122044B76
:100810005A7083F8792083F8F12083F869217047B2
:10082000080200200022044B5A7083F8792083F8D4
:10083000F12083F869217047080200200422064B4A
:10084000187838B9597831B9013A03F17803F7D1FA
:100850000120704700207047080200202DE9F3476F
:10086000054604274FF0200900261A4C2B786A7899
:1008700043EA0223ADF80030AB788DF80230EB7814
:100880008DF8033089F31188684604F81F6C04F86A
:10089000206C44F8106CFFF70DFD0190C0F3072A9F
:1008A000C0F30748C1B22046FFF7FEFC514604F1F1
:1008B0001C00FFF7F9FC414604F13800FFF7F4FC97
:1008C00086F31188013F04F17804CFD102B0BDE86E
:1008D000F08700BF28020020FFF77ABD1D4B07B547
:1008E0001B6A59680A6822F00F020A60597B1A686D
:1008F0000E238B405360184A936823F001039360E2
:10090000202383F3118805238DF80530134BD3F88A
:10091000AC20002A18DD0021013AC3F8AC20D3F83E
:10092000942002F10800C3F8940011705170917086
:10093000D1700199516003F190029042084828BF9C
:10094000C3F8943002F000FB002383F3118803B056
:100950005DF804FB0805002000240140300500205C
:10096000C80500201022036A5B68D8605A6040F214
:1009700082521A601A6842F001021A60044B9A68A7
:1009800042F001029A609A6842F480029A607047CD
:1009900000240140CA0010B502F10803541CA34210
:1009A00034BF01230823134400EB011100EB430083
:1009B000002331F8022B81421344FAD1D80810BD2C
:1009C000054B0139DA6A22F47002DA62DA6A42EA25
:1009D0000152DA62704700BF00240140092901EB8F
:1009E000410010B54FF007010B4B09D81C6981403D
:1009F00024EA01011961196982400A431A6110BD94
:100A0000DC681E38814024EA0101D960D96882403F
:100A10000A43DA60F3E700BF00240140062910B55D
:100A20000FD81F24194B0139586B01EB81018C4001
:100A300020EA04005863586B02FA01F1014359633C
:100A400010BD0C290FD81F24104B0739186B01EB70
:100A500081018C4020EA04001863186B02FA01F14E
:100A600001431963ECE71029EAD81F24074B0D391D
:100A7000D86A01EB81018C4020EA0400D862D86A70
:100A800002FA01F10143D962DAE700BF0024014014
:100A90000F4B82B09A6842F001029A6000220192E4
:100AA000019A072A02D8019A0132F8E79A6842F0BF
:100AB00008029A60064B19469A681207FCD49A6895
:100AC00042F004029A608B685B07FCD402B0704766
:100AD0000024014038B5274B10215A68054622F4FE
:100AE00040425A609A69012442F400729A619B69FB
:100AF000214B9A6842F001029A609A6842F41E0201
:100B000042F480729A605A6842F480725A60FFF729
:100B100057FF05220321FFF761FF2146013403221D
:100B20002846E4B2FFF77AFF092CF6D105221121FD
:100B30002846FFF753FF2146013411222846E4B22C
:100B4000FFF76CFF112CF6D12846FFF7A1FF002319
:100B50000A4A18460F2102F095FC094A43682862A8
:100B60009A6040F282521A60034A936823F00103AC
:100B7000936038BD0010024000240140DD080008E9
:100B80004C2401400B4B0C495A6842F480725A6065
:100B90001A6842F008021A600A6942F004020A6107
:100BA00002221A601A6842F004021A6000BF00BFF5
:100BB00030BF70470070004000ED00E008B5084805
:100BC00001F0C8FD4FF4E17002F0CFFA202383F367
:100BD0001188FFF7D7FF002383F3118808BD00BFFA
:100BE0007C350008036801495B6818478C350008AC
:100BF000036801495B6818479135000813B5002167
:100C00002B48FFF7C7FE012104462948FFF7C2FE23
:100C10004FF496616143B1FBF0F149008BB2B3F53B
:100C2000875F31D241F20D0293422FD840F6E16244
:100C300093422DD840F6B55293422BD840F6A742A6
:100C4000934229D840F6E522934227D90523194A31
:100C500002EB83039C782246174801F07BFD142C9D
:100C60001ED8164B0093009B01A80193FFF7F6FDD9
:100C700043F6C43002F079FA114B5B68DB0714D5F8
:100C8000FFF79CFF02B010BD0023E0E70123DEE781
:100C90000223DCE70323DAE70423D8E70024DAE7BA
:100CA0004F2C94BF074B084BDCE7FFF7AFFDE9E79C
:100CB00008050020063600089C3500080000646422
:100CC000007000401E0064647800646437B5044618
:100CD0002649006D01F072FB18B92046FFF782FF2C
:100CE0000BE02349206D01F069FB40B923682046E1
:100CF0005D68204A204B2149A84703B030BD2049F8
:100D0000206D01F05BFB0546C8B91E4904F14402A1
:100D100001F06FFB78B12A4601A901F0A7FB019B06
:100D20001B7843B9C0B2072805D8174B03EB401016
:100D3000164B1860D1E72046FFF75AFFDDE714494C
:100D4000206D01F03BFB10B9FFF760FDC5E71149CD
:100D5000206D01F033FB10B9FFF764FDBDE7236898
:100D600020465B680C499847C7E700BFB5350008C7
:100D7000BA350008D0350008C2350008FF35000834
:100D8000D8350008DA3500085C070020040200208E
:100D9000DD350008E0350008E4350008002483B59F
:100DA000424D05F1980620238DF80540009483F309
:100DB00011884FF6FF71304602F0AAF8A0B9D5F8B5
:100DC00090203B4802F10803C5F89030834228BFC9
:100DD0002B461168143000915268C5F8903001928A
:100DE00002F0B2F802F084F884F311889DF805301F
:100DF000013B062BD7D801A252F823F0190E0008A8
:100E0000690E00082B0E0008A70D00089B0E0008B5
:100E1000A70D0008470E0008009F3846FFF756FF51
:100E20003B6838461B689847BDE79DF801709DF800
:100E3000002039461F4801F08DFC002FB3D11E4819
:100E4000FFF790FDAFE707221C4B1C701C4B1A707C
:100E5000FFF7DCFC9DF80320062AA4D8194B03EB0E
:100E60004213194A13609EE74AF6AA22174B134F02
:100E70001A60134A13786BB901233B70FFF7D2FC59
:100E80003B78002B8FD0FFF7D9FC00288BD0FFF7E1
:100E900095FE88E7013B1370F2E7FFF7AFFE0722EC
:100EA000064B1C70064B1A707DE700BF3005002012
:100EB000C0050020F135000808050020E0050020ED
:100EC000000600205C0700200402002000300040E3
:100ED00008B541F2941001F06BF901F051F9414865
:100EE00001F072F901F0B3FE02F03EF801223E4C2F
:100EF0003E4B04F1A40012211A70C4E9244402F00C
:100F000002F804F19800002101F0FDFF384801F0DB
:100F1000C5FD384B384A394C5A60E36943F0805379
:100F2000E361E369364B5A6892070FD55D6815F0A7
:100F300001050BD1334E304600F058FD002846D154
:100F4000327A314B03EB4213304A13603049314A55
:100F5000314801F0FFFB234801F090F9FFF71EFC38
:100F600000F014FEA3692D4843F00403A3612C4B49
:100F70001A6822F470421A60A26942F00402A26167
:100F80001A6822F470621A601A6842F480721A6059
:100F900004221A61FFF79EFD1A4800F00BFD202382
:100FA00083F311881F480369048B13B1043002F0E6
:100FB00053F91C4B2146181D1B4A02F007F9002368
:100FC00083F311880722194B1A70FFF7E7FE1848C0
:100FD00001F0C0FB202383F31188FFF7D3FD85F3D5
:100FE0001188B3E7100B002030050020E105002038
:100FF0000406002000000140040A00020010024024
:1010000000700040900800205C07002004020020CF
:10101000D0350008C2350008FE350008080500205C
:1010200000080140E4050020091D0008000600201A
:10103000FC35000800200021554B2DE9F041C3E9A3
:1010400000014FF4E131534AC3E92433524B0320EA
:10105000C2E90013A3F53053936013610723938211
:1010600004239224C2E906034FF485530621C2E902
:1010700008434A4B9181DA6003F11002C3E924224C
:101080000122002183F8982083F8FC20444AC3E918
:101090000111C3E92711C3F8A410C3F84811A3F83C
:1010A0005211C3F84C1183F85011C3F854111A604F
:1010B00002F128013832C3F80011C3F80421394B7A
:1010C000394A4FF4B4751A60384A6C249A6109227F
:1010D000374B384E4FF47028C3E90556DFF8F0C09F
:1010E000354E364F2D213620C3E907624FF4877EF7
:1010F00040F27626C3E90EC740F2951CC3E91445B9
:101100002F4DC3E90021C3E91685DFF8C8802D4DB6
:10111000C3E90304C3E90912C3E91021C3E912209A
:10112000C3E91821C3E91A209A60C3E90CE6C3E9B0
:101130001CC6D862C3E91E8540F22A386325C3F86D
:1011400094804FF4E028C3E92B54C3F890401E4C20
:10115000C3F89880C3F8B840DFF87C8004F57024A9
:101160001934C3E92021C3E92782C3E92F42C3E927
:101170003112164AC3E92255C3E92915C3E9330ED2
:10118000C3E93627C3F8B460C3F8D4C0BDE8F08122
:10119000300500203C0800200038014004060020F3
:1011A00034370008E405002028370008062702012C
:1011B0005C0700204A016801D700E60032004D00BC
:1011C000FA000E0104012201E100FA0078000E018C
:1011D000A100C3005000A00061016801816A10B540
:1011E000044619B188470023A36210BD2430BDE82E
:1011F000104001F0D5BF0000104B984205D1104AB5
:10120000936943F00403936170470E4B984204D1F5
:101210000B4A936943F00803F5E70B4B984204D15E
:10122000074A936943F01003EDE7084B9842EBD16E
:10123000034A936943F02003E5E700BF000801403B
:1012400000100240000C0140001001400014014059
:101250000368197303689A68D207FCD5187B704736
:1012600010B5FFF7C9FF134A0729936943F001033B
:1012700093610ED80F2289000368C9B28A4023EA1D
:10128000020303600923026803FA01F111430160BC
:1012900010BD0F22083989004368C9B28A4023EA89
:1012A000020343600923426803FA01F111434160DC
:1012B000EEE700BF0010024001238288012903FAF3
:1012C00002F30BD0022911D039B90A4A91681943A7
:1012D0009160D16821EA0303D3607047054A9168A1
:1012E00021EA03019160D1680B43F5E7014A916857
:1012F0001943F7E70004014070B50446A679006879
:10130000A588FFF779FF002E3DD00123C268AB40CE
:10131000022E0CBF22EA030313430822C360072DE9
:1013200033D8AB000F250668DBB29D4026EA0505E1
:101330000560056802FA03F32B430360A088256863
:101340002A4E00F00302B542C0F387034FEA82023F
:101350002AD101259B0003F1804303F580339E6869
:1013600005FA02F232439A600126214D86402B682D
:10137000204633432B606B6823EA06036B60FFF75C
:101380009BFF6E6170BD0422C9E70F26083DAD00CA
:101390004368EDB2AE4023EA06034360436802FAB5
:1013A00005F51D434560C9E7124EB54207D19B00C4
:1013B00003F1804303F5803302259E68D0E70E4E8B
:1013C000B54207D19B0003F1804303F58033032529
:1013D0009E68C5E7094EB542C6D19B0003F1804324
:1013E00003F5803304259E68BAE700BF000C014076
:1013F00000040140001001400014014000180140A9
:101400000123428A81689340034A8868184002D0C9
:10141000013AFAD101207047B88201000123C18A44
:10142000C2688B40136170470148FFF7D7BE00BF09
:10143000640800207F2908B2C4BFA1F5807108B2FA
:1014400000EBD07040104A3840B270472DE9F041AF
:101450004FF00108C38A1646C26808FA03F35361C5
:1014600004460F46FFF7CCFF054630B12046FFF794
:10147000D5FF45462846BDE8F08104F1040847F051
:1014800080014046FFF7E4FE294684F820004046EC
:10149000FFF7DEFE30702046FFF7C0FFEAE72DE9D8
:1014A000F0414FF00108C38A1646C26808FA03F3F8
:1014B000536104460F46FFF7A3FF054630B12046AF
:1014C000FFF7ACFF45462846BDE8F08104F104086B
:1014D00039464046FFF7BCFE31464046FFF7B8FEAE
:1014E0002046FFF79BFFEEE7F8B50127C38AC268E5
:1014F00007FA03F3536104460E46FFF781FF0546E2
:1015000028B12046FFF78AFF3D462846F8BD314600
:10151000201DFFF79DFE84F820002046FFF77EFF88
:1015200094F8203003F0700384F82030EDE73A217E
:10153000FFF7DABF7FB50446C068E18AFFF75CFEBB
:10154000072940D80F2289000368C9B28A4023EADC
:10155000020303600123026803FA01F111430160F1
:10156000218AA068FFF77CFE618AA068FFF778FEF9
:10157000A18AA068FFF774FE012104F11800FFF7AB
:10158000BBFE2046FFF74AFF0023514A1946CDE92A
:101590000023201D1A4600F085FE62683021136882
:1015A000204643F040031360FFF79EFFD8B1626806
:1015B0004848136823F04003136001F0CBF801257D
:1015C000284604B070BD0F22083989004368C9B2AB
:1015D0008A4023EA020343600123426803FA01F1CF
:1015E00011434160BCE7072206212046FFF757FF61
:1015F00008B13948E1E78DF80F00062120460DF1CA
:101600000F02FFF723FF054640B99DF80F60072E34
:1016100006D03146314801F09DF8D0E73048CCE79C
:101620002046FFF784FF20220D212046FFF737FFD9
:1016300025220E212046FFF732FFED220F21204602
:10164000FFF72DFFA32213212046FFF728FFFF22DB
:1016500014212046FFF723FF082218212046FFF718
:101660001EFF324603212046FFF719FF3F2229467D
:101670002046FFF714FF062202212046FFF70FFF46
:101680000C2231462046FFF70AFF4422082120465B
:10169000FFF705FF50223E212046FFF700FF3246AC
:1016A00016212046FFF7FBFE302217212046FFF7C8
:1016B000F6FEA08B092806D8042806D80630072194
:1016C00001F024FB7CE72820F9E71720F7E700BFAB
:1016D000A02E63001E3600082B36000836360008A0
:1016E0004B3600083621FFF7FFBE38B504460D46DD
:1016F00094F820301BB12046FFF7F4FFF8E72A46A4
:101700002046BDE838400A21FFF7C9BEF8B50546B6
:101710000E4695F820401CB12846FFF7E3FFF8E796
:10172000771C17F8142016F8141028460134FFF718
:10173000B6FE142CF5D1F8BD10B5044694F820304F
:101740001BB12046FFF7CEFFF8E72046BDE810406A
:101750003921FFF7C9BE3421FFF7C6BE2DE9F74393
:101760000E46904678210DF1070204461F46FFF70A
:101770006DFE90B99DF90730002B0EDA4FF001098C
:10178000E38AE26809FA03F320465361FFF738FE63
:10179000054620B12046FFF741FE012527E004F170
:1017A0000409FF214846FFF753FD3744BE424FF07E
:1017B0000001484606D0FFF74BFD8DF8070006F8FC
:1017C000010BF3E7FFF744FD00218DF807004846C1
:1017D000FFF73EFD2046FFF721FEB8F1000F06D0CF
:1017E00020469DF80710FFF725FE88F800002846E0
:1017F00003B0BDE8F0832DE9F041DDF818801E4606
:1018000004460F461546FFF792FE202383F3118806
:101810002046FFF7A0FF394604F1240001F0B2FC96
:10182000002383F31188013007D03346424629460E
:101830002046BDE8F041FFF791BF2046FFF752FF79
:101840000220BDE8F08110B442F2107461434FF4FD
:101850007A7401F2E731B1FBF4F110BC89B2FFF701
:10186000CABF10B5044694F820303BB1362120465B
:10187000FFF73AFE0028F6D001200DE03321204684
:10188000FFF732FE0028F7D13D212046FFF72CFE5E
:1018900094F820000028F7D110BD000004468FB551
:1018A000264D274E274F2846FFF7DBFF08231B2135
:1018B00028460096621CFFF7C6FFB0BBD4F8013083
:1018C000BB4232D14FF4E063ADF80C3063798DF850
:1018D0000830A3798DF80930E3798DF80A30237A3E
:1018E0008DF80B30202383F31188174BD3F8AC20ED
:1018F000002A15DD013AC3F8AC20D3F894200298F1
:1019000002F10801C3F8941010600398506003F1CD
:10191000900291420D4828BFC3F8943001F014FBA7
:1019200001F0E6FA002383F311882846FFF704FF4D
:101930004FF4616001F019FCB5E700BF64080020B6
:10194000A1080020A15E11CA30050020C8050020B2
:1019500008B50148FFF7A2FF9008002038B50378CA
:101960000546FBB91148FFF7E5FD0446E0B908223A
:1019700006210E48FFF793FD302217210B48FFF791
:101980008EFD07210948FFF7B0FE50223E2107488F
:10199000FFF785FD06490548FFF7B8FE01232B70C8
:1019A000204638BD0024FBE70124F9E76408002045
:1019B0007036000813B5FFF7D1FF044668B9084830
:1019C00000F0C8FEFF224FF49071064B06480094C9
:1019D00001F096FB204602B010BD0124FAE700BFDB
:1019E0006436000851190008A808002037B50446DD
:1019F000FFF7B4FF10B1012003B030BD0D48FFF771
:101A000030FF0D4B1B2100930A480823621CFFF78F
:101A10001AFF05460748FFF78FFE002DEBD1D4F8DB
:101A20000120064B9A42E6D1207A062894BF002076
:101A30000120E1E764080020A1080020A15E11CA8E
:101A40000E4B0F4A0F491A600F4A10485A60A2F510
:101A50002052C3E902220E4AC3E904120D4A0E497C
:101A60009A6102229A830022C3E909229A7783F8B5
:101A700020200A4B88601A70704700BF640800205D
:101A800060360008050006000030014029140008F7
:101A900007000400000C01401C0B002090080020EF
:101AA0004FF004092DE98848DFF8848000261F4C98
:101AB0003146204601274FF0030AD8F808301C4D64
:101AC0002A68B5F804C0D2F808E007FA0CFC1CEA52
:101AD0000E0FA346227804F101041DD0012A01D083
:101AE000042A15D104F801ACAA689A421CD003B1AB
:101AF000984758460021AB680136032E05F10C05C6
:101B0000DED103B198474FF4E17001F02EFBCDE731
:101B1000022204F8012CE7E7023A012A94BF04F8F4
:101B2000019C04F8017CDFE70131E5E70C0B0020A4
:101B3000E80A0020104B984205D1104A936943F0FF
:101B40000403936170470E4B984204D10B4A93698A
:101B500043F00803F5E70B4B984204D1074A936919
:101B600043F01003EDE7084B9842EBD1034A936929
:101B700043F02003E5E700BF0008014000100240E9
:101B8000000C014000100140001401402DE9F34118
:101B900000250127254C264E94F806802068A18850
:101BA000FFF7C8FFB8F1000F2CD0C36807FA01F2A5
:101BB000B8F1020F0CBF934313430822C3600729F7
:101BC00022D88B000F21D0F800C0DBB299402CEA5C
:101BD00001010160016802FA03F30B430360002373
:101BE0000135032D06F8013B04F10C04D4D1009318
:101BF00080224FF490710F4B0F4801F081FA02B030
:101C0000BDE8F0810422DAE74FF00F0C08398900B3
:101C10004368C9B20CFA01FC23EA0C034360436831
:101C200002FA01F119434160D9E700BFE80A002038
:101C30000C0B0020A11A0008C80900200A4B0B4A0F
:101C400010B51A6000220A489A800A4A02210C2420
:101C5000C3E90520D8600D2099719A601C8299749F
:101C6000988399771A6210BDE80A002000080140A5
:101C7000000C0140E11C0008002307B5009303237A
:101C80008DF800008DF805308DF80110202383F3C6
:101C90001188114BD3F8AC20002A15DD013AC3F8A6
:101CA000AC20D3F89420009802F10801C3F89410F6
:101CB00010600198506003F190029142074828BFDC
:101CC000C3F8943001F040F901F012F9002383F3D6
:101CD000118803B05DF804FB30050020C805002022
:101CE00070B505460E460024E1B28E420BD96B5CFE
:101CF000032B04D10020FFF7BFFF0134F4E7042BCE
:101D0000FBD10220F7E770BD202208B582F31188CD
:101D100003681B689847002383F3118808BD0000FF
:101D2000044B5A6A42F001025A625A6A9207FCD581
:101D3000704700BF0010024073B5837E04468DF8E3
:101D40000530194BD3F8AC20002A18DD0021013AE8
:101D5000C3F8AC20D3F8942002F10800C3F8940033
:101D6000117051709170D1700199516003F190021E
:101D700090420E4828BFC3F8943001F0E5F8E37EA6
:101D8000012B0FD12369268B251D13B1284601F0A5
:101D900063FA234631462846054A02B0BDE8704042
:101DA00001F014BA02B070BD30050020C805002053
:101DB000091D00080368264A934206D1254B9A69FB
:101DC00042F400629A619B697047B3F1804F07D17A
:101DD00003F50433DA6942F00102DA61DB69704726
:101DE0001D4A934204D11B4BDA6942F00202F4E728
:101DF0001A4A934204D1174BDA6942F00402ECE725
:101E0000174A934204D1134BDA6942F01002E4E717
:101E1000144A934204D10F4BDA6942F02002DCE706
:101E2000114A934204D10B4B9A6942F48032C9E7BC
:101E30000E4A934204D1074B9A6942F40032C1E73B
:101E40000B4A9342C0D1034B9A6942F48022B9E70E
:101E5000002C014000100240000400400008004037
:101E600000100040001400400040014000440140C8
:101E70000048014010B50146FFF79CFF4FF4404277
:101E800003685A648269DA62027D0069012A00F1FE
:101E9000FF300CBF0722062203280BD8DFE800F032
:101EA00002323A42986940EA02129A611A6A42F092
:101EB00001021A621A68486842F001021A602F4A49
:101EC0000B899042497D02F5843233D1946944F004
:101ED000040494619469072B44F0010494614FEA6F
:101EE000810242F009023AD80F249B000168DBB25C
:101EF0009C4021EA04010160016802FA03F30B43EC
:101F0000036010BD986940EA02329A611A6A42F091
:101F10001002CEE7D86940EA0212DA611A6A42F486
:101F20008072C6E7D86940EA0232DA611A6A42F47E
:101F30008052BEE7124CA04203D1946944F00804D9
:101F4000C7E7104CA04203D1946944F01004C0E7E5
:101F50000D4CA042BED1946944F02004B9E70F248F
:101F6000083B9B004168DBB29C4021EA04014160D0
:101F7000416802FA03F30B434360C2E700080140E3
:101F8000000C01400010014000140140074B0138D3
:101F90005A6922F080025A6110F8012F22B11968A3
:101FA0000906FCD55A60F7E7704700BF00380140CA
:101FB00008B50248FFF7EAFF01BEFEE798360008C1
:101FC00008B5202383F31188094B1B6853B1984748
:101FD0000122084B5A61002383F31188BDE80840B1
:101FE00001F080B90449054800F0CCFBF0E700BFE0
:101FF0001C0B002000040140A4360008AD36000888
:1020000008B5202383F31188094B5B6853B19847C7
:102010000222084B5A61002383F31188BDE808406F
:1020200001F060B90449054800F0ACFBF0E700BFDF
:102030001C0B002000040140BB360008AD36000830
:1020400008B5202383F31188094B9B6853B1984747
:102050000422084B5A61002383F31188BDE808402D
:1020600001F040B90449054800F08CFBF0E700BFDF
:102070001C0B002000040140C4360008AD360008E7
:1020800008B5202383F31188094BDB6853B19847C7
:102090000822084B5A61002383F31188BDE80840E9
:1020A00001F020B90449054800F06CFBF0E700BFDF
:1020B0001C0B002000040140CD360008AD3600089E
:1020C00008B5202383F31188094B1B6953B1984746
:1020D0001022084B5A61002383F31188BDE80840A1
:1020E00001F000B90449054800F04CFBF0E700BFDF
:1020F0001C0B002000040140D6360008AD36000855
:1021000008B5202383F31188094B1B685BB19847FE
:102110004FF47872074B5A61002383F31188BDE8AE
:10212000084001F0DFB80449044800F02BFBEFE75A
:10213000340B002000040140DF360008AD360008F3
:1021400008B5202383F31188094B1B685BB19847BE
:102150004FF47C42074B5A61002383F31188BDE89A
:10216000084001F0BFB80449044800F00BFBEFE75A
:10217000300B002000040140E8360008AD360008AE
:102180007047000045F25553084A13600623536018
:1021900028235843B0F5801F28BF40F6FF704AF649
:1021A000AA2338BF000A90601360704700300040D7
:1021B00008B5FFF7B5FDFFF7E5FF4CF6CC42014B44
:1021C0001A6008BD00300040264BF0B503F110073F
:1021D00004463E4687B002AD2A461868596808335F
:1021E00003C2BB421546F7D16B46306871681E4A80
:1021F00003C35368C3F38103012B2ED0022B2ED1CE
:1022000053685168C3F38343C80303F102031DD429
:1022100016494B43516806A8C1F30311014411F854
:10222000101CCB40236051685268C1F30221C2F3F5
:10223000C2220144024411F8181C12F8182C23FA87
:1022400001F1D3406160A36007B0F0BD516889031C
:1022500001D50749DDE70749DBE7064BDAE7064B1F
:10226000D8E700BF643500080010024000093D00B7
:10227000808D5B00001BB70000127A0006480749FA
:10228000836805C8B3FBF1F3B2FBF1F2B0FBF1F1E7
:10229000034800F05FBA00BF100B002040420F005F
:1022A000F136000870B50068294D049CA84238D169
:1022B00005F56045AE6946F48056AE61AD694FF4F0
:1022C00041750129056002BF016841F0800101608C
:1022D000012A02BF026842F002020260012B02BF23
:1022E000036843F001030360194B9842194B0CBF7C
:1022F0009B685B68B3FBF4F3802B1DDC402B1DDC7B
:10230000202B1DDC102B1DDC082B1DDC042B1DDC01
:10231000022BD4BF00230123026842EAC3030360F7
:1023200070BD0D4DA842CAD105F5EC35EE6946F4F5
:102330008046EE61ED69C2E70723EDE70623EBE790
:102340000523E9E70423E7E70323E5E70223E3E7BF
:1023500000300140100B00200038004008B5202359
:1023600083F31188074B9B68DB0703D5064B1B687B
:1023700003B19847002383F31188BDE8084000F0BB
:10238000B1BF00BF00300140380B002008B520234A
:1023900083F31188074B9B68DB0703D5064B1B684B
:1023A00003B19847002383F31188BDE8084000F08B
:1023B00099BF00BF003800403C0B0020884230B578
:1023C00015D0431E13F8014F2046A4F14102192AEB
:1023D00011F8012B98BF04F12000A2F14105192D3D
:1023E00098BF2032801A01D1002CEBD130BD0020E3
:1023F000FCE770B508B9106868B103460E46184688
:1024000013F8014B16F8015B15B1AC42FAD1F5E7B0
:102410002CB92046146070BD23460CE015B90E4659
:1024200013F8014B16F8015BAC42F7D1002CF3D046
:10243000002103F8011C1360EDE703461A461178EA
:1024400001330029FAD1101A7047202804D00D2832
:102450008CBF0020012070470120704700F0DF0092
:10246000413819288CBF0020012070472DE9F74F13
:1024700081460446264614F8013B1846FFF7E5FF5F
:1024800005460028F6D12D2B32D101252378B41C26
:10249000002A59D0102A09D1302B07D1237803F014
:1024A000DF03582B4BD1102263780234002705F14B
:1024B000004808F1FF38B8FBF2FB3E4602FB1B80E8
:1024C0000190A3F1300009285FFA83FA15D803467A
:1024D0009A4222DD781C08D05E451BD802D10198B3
:1024E000834217DC012706FB023614F8013BE8E7BC
:1024F0002B2B04BF2378B41CCAE75046FFF7AEFF6E
:1025000058B1AAF1410ABAF1190F94BF37205720E8
:102510001B1ADDE74FF0FF37E7E77B1C0BD005B157
:10252000764221B10FB104F1FF39C1F80090304675
:1025300003B0BDE8F08F46460029F4D1F7E7302319
:10254000002AB3D10822B1E7302BA7D00A22ADE789
:102550002DE9F04385B0984601AB064600250846B4
:102560001F469DF83090B0FBF2F4844602FB140144
:1025700020460929CCB294BF30343734E4B29445B4
:1025800005F1010503F8014BEDD22C4633684445B3
:102590001B680BD249463046984718B10C2005B04D
:1025A000BDE8F0830134F1E7002DF8D03368013D38
:1025B00030461B68795D98470028F5D0EEE72DE995
:1025C000F04F0B46054614464FF00A0B85B01E46E9
:1025D00016F8011B31B928462B685B6805B0BDE8C9
:1025E000F04F1847252902D02B681B6864E05F78FC
:1025F0004FF00008302F14BF20279E1C16F8011B37
:10260000A1F13000C0B2092804D92A2905D154F813
:10261000040BC0B20BFB0808F0E72E2909D116F80D
:10262000011BA1F13003092BF9D92A2901D1043466
:10263000F5E763293BD015D8412966D003D8252971
:10264000D2D03346C3E7532939D05829F9D143466C
:1026500010220097284654F8041BFFF779FF002842
:10266000EFD0B8E773292AD01BD8642901D0692993
:10267000E7D1A14659F8044B002C07DA2B682D212D
:1026800028461B6898470028A5D1644243460A2281
:10269000214628460097FFF75BFF00289BD14C4658
:1026A000CFE77529CDD143460A220097D2E72B68A0
:1026B00054F8041B1B68C9B228469847CFE7D4F8E2
:1026C00000904846FFF7B9FE824609F1FF39B9F19B
:1026D000FF3F09D019F8011F31B12B6828461B684C
:1026E00098470028F3D076E7A8EB0A08B8F1000F66
:1026F00001DC0434A5E72B68394628461B68984757
:1027000008F1FF380028F1D065E70027D4E90198E7
:1027100023685FFA88FA03934F4501DB0C3490E796
:102720006FB9039B1022D95D302328460093022302
:10273000FFF70EFF00287FF44EAF0137ECE7B8F14A
:10274000000FEED02B68514628461B68984700289A
:10275000E7D040E70FB407B504AB53F8041B01936F
:10276000202383F311880648019AFFF728FF0023EE
:1027700083F3118803B05DF804EB04B0704700BF29
:10278000040700200FB407B504AA52F8041B04483C
:102790000192FFF714FF03B05DF804EB04B070473B
:1027A0000407002070470120704701207047012076
:1027B000704701207047000008B5064C40F2DE303B
:1027C00000F0D3FC20680028F8D003685B689847C5
:1027D000F4E700BF600C00200EB403B503AA52F862
:1027E000041B00F580700192FFF7E9FE02B05DF86E
:1027F00004EB03B07047A0F58270EDE7104B9842F0
:1028000005D1104A936943F00403936170470E4B5E
:10281000984204D10B4A936943F00803F5E70B4B48
:10282000984204D1074A936943F01003EDE7084B3F
:102830009842EBD1034A936943F02003E5E700BFD8
:102840000008014000100240000C0140001001404F
:1028500000140140034653F8902FD0F89C109B1AA7
:102860008B4228BF0B46C0F8A0307BB1002380F814
:10287000983043685B68DA60D0F8A0205A60C2687C
:10288000126A1A601A6842F001021A6070474368BF
:1028900010B459680A6822F00F020A60597B1A685E
:1028A0000E238B400146536051F8902FD0E9273416
:1028B00022448A42A3EB040328BF00F11002C0F8AF
:1028C0009C30C0F8902033B9012380F89830036819
:1028D00010BC1B68184710BCFFF7BCBFFFF7D7BF81
:1028E000D0F89C307F2B16D8D0F894305A1CC0F802
:1028F00094201970D0F8942000F190039A4224BFDC
:1029000000F11003C0F89430D0F89C300133C0F8C7
:102910009C30002070470C207047FFF7E1BFA0F506
:102920008070FAE790F898300BB1FFF793BF7047CB
:10293000FFF7F8BFA0F58070FAE78368D0F8A4200D
:102940005B685B68C3F154039B1A48BF543383B17F
:10295000531CC0F8A430024492F8A8300B70D0F891
:10296000A430532B4FF0000301DDC0F8A43018460B
:1029700070470B20704700007FB590F8FC3004468C
:10298000002B4ED00025384E20460DF10701FFF7F1
:10299000D4FF002845D194F850319DF8072043B961
:1029A000B4F85211736A5B1A40F2DE319BB28B426B
:1029B00003D984F85051C4F84C51736A082AA4F81A
:1029C0005231D4F84C3105D1002BDDD0013BC4F895
:1029D0004C31D9E70D2A01D00A2A24D1002BD3D0BB
:1029E0000025234483F80851204904F5A47204F516
:1029F0008470FFF7FEFC0123C4F8540184F85031C1
:102A00008DF80D3084F8FC50202383F31188184B87
:102A1000D3F8AC20AA420FDC00F06AFA002383F35B
:102A2000118804B070BD3E2BAED8591C2344C4F8A5
:102A30004C1183F80821A7E7013AC3F8AC20D3F87A
:102A40009420039802F1080104F58274C3F89410ED
:102A50001460506003F190029142064828BFC3F809
:102A6000943000F071FAD7E700400140DA350008F1
:102A700030050020C8050020C268D2E90013054ACD
:102A80009342054A0CBF92685268B2FBF1F29A6019
:102A9000704700BF00380140100B0020C36837B5F5
:102AA000044698689989FFF7A9FE584B07299A6947
:102AB00042F001029A6179D80F2589000268C9B2F3
:102AC0008D4022EA050202600922056802FA01F13E
:102AD00029430160E2684E4952688A4276D19A6978
:102AE00042F480429A619B692046FFF7C5FF0022AD
:102AF000E0680921436880691A612346454A00F06D
:102B0000C1FCE36841685A686060101D8860186AFB
:102B1000012508600C2184F89850D160C021186903
:102B20005161998AFFF76AFEC3688D401D430729EA
:102B3000C5605BD80F2289000368C9B28A4023EAC6
:102B4000020303600823026803FA01F111430160E4
:102B50000023E0681A460921C06900F093FCE1688F
:102B600043684A68A060101D986004F1A800D8600E
:102B70005420496A58601960196841F001011960D0
:102B8000D36843F40053D360234B1A6802B91C6026
:102B9000224C236843B9009380224FF49071204B5C
:102BA000204800F0ADFA206003B030BD0F25083991
:102BB00089004268C9B28D4022EA050242600922BA
:102BC000456802FA01F12943416083E716498A42C8
:102BD00005D1DA6942F40032DA61DB6984E713492E
:102BE0008A4281D1DA6942F48022F5E70F2208395E
:102BF00089004368C9B28A4023EA0203436008237C
:102C0000426803FA01F111434160A1E7001002405C
:102C100000380140DD280008600C0020640C002012
:102C2000B9270008400B0020004400400048004045
:102C3000202383F31188012380F8FC30002383F3E1
:102C400011887047FFF7F4BFA0F58270FAE708B566
:102C500000F098FBBDE8084000F000B800F02AB88A
:102C60000022034B58631A610222DA60704700BFEA
:102C7000004001400022014BDA60704700400140F3
:102C8000014B5863704700BF00400140084B10B52E
:102C90001A69920708D500241C61202383F3118848
:102CA00000F0AAF984F31188BDE8104000F01ABBC7
:102CB00000400140114B02219A69182042F48032F1
:102CC0009A610F4A9B69536843F4800353600D4B2C
:102CD0009A6842F21073B2FBF3F20B4B013A9A621C
:102CE0004FF6FF72DA6200229A615A63DA605A6024
:102CF00001225A611A6000F009B800BF00100240BA
:102D0000002004E0100B00200040014001220901D6
:102D100000F1604303F56143C9B283F8001300F08A
:102D20001F039A4043099B0003F1604303F561438D
:102D3000C3F880211A6070470022024BC3E90033B8
:102D40009A607047A80C0020002382680375054B29
:102D50001B6899689142FBD25A6803604260106018
:102D600058607047A80C002008B5202383F3118811
:102D7000027D0023052A06D8DFE802F00B050503D3
:102D8000120E826913604FF0FF338361FFF7DCFF9F
:102D9000002383F3118808BD82699368013393602F
:102DA000D0E9003213605A60EDE70000002382682A
:102DB0000375054B1B6899689142FBD85A680360FC
:102DC0004260106058607047A80C002038B50C4C69
:102DD00025692268287511684C60216001212261F3
:102DE0001175EFF309822969243A914202D9054805
:102DF00000F0FCF829462069BDE83840FDF7BCB971
:102E0000A80C00207C3700084FF6FF7330B59942BC
:102E100004460B4D87B010D02B690A4A01A800F078
:102E2000D5F92046FFF7D2FF049B13B101A800F0AB
:102E300013FA2B69986907B030BDFFF7C7FFF8E7B1
:102E4000A80C0020692D000870B5114E816133690E
:102E500081689A680446914203D8BDE87040FFF744
:102E600073BF1846FFF7A2FF01230546346123759F
:102E7000EFF309830269243B9A4202D9054800F026
:102E8000B5F829462046BDE87040FDF775B900BF8A
:102E9000A80C00207C370008044B1A681B69906856
:102EA0009B68984294BF002001207047A80C002026
:102EB00038B50D4C236820691A68546022600122DD
:102EC0001A752361FFF772FF0546EFF30983026964
:102ED000243B9A4202D9054800F088F82946206927
:102EE000BDE83840FDF748B9A80C00207C37000841
:102EF00008B5FFF7D1FF18B1BDE80840FFF7D8BF0C
:102F000008BDFFF7D5BFC0E9000081607047000031
:102F1000826810B4541E002C846011DA21B98260DA
:102F20004FF0FF3010BC7047064B42681B6910BC65
:102F3000986118605A60136043600520FFF764BF12
:102F40000020EFE7A80C0020826803460132002A27
:102F5000826007DC006802681A60536000238361A6
:102F6000FFF7F2BE7047FEE710B5184CFFF7E4FE1E
:102F700000F020F980222046154900F085F8154B15
:102F800044F8140C036101230375134B134AD968E9
:102F900021F4E0610904090C0A431149DA60CA68A6
:102FA00042F08072CA600F490A6842F001020A606A
:102FB0001022DA77202283F82220002383F311885D
:102FC00062B6BDE81040084800F082B8CC0C002082
:102FD0008B3700080001002000ED00E00003FA0537
:102FE000F0ED00E0001000E09837000872B6014BE9
:102FF0001862FEE7A80C00202DE9F84F0027204CAE
:10300000DFF88080656904F1140AD8F82400E38BA6
:1030100080B22A89C61AB6B2B2421DD84FF0200932
:103020002B89E28BF61A1A442B68E2835345C3F8C6
:1030300004A0D5F80CB06361B6B2EF6001D1FFF720
:1030400019FE87F311882869D84789F311886569C3
:103050002B89B342E4D9D8E7626952450ED0118971
:10306000E0830B441B1A13812B89022B2CBFC01841
:103070000230BDE8F84F80B2FFF702BEBDE8F88F1E
:10308000A80C00200040014082600222828270472A
:10309000D0E9012343F8102CA3F1440243F8142C87
:1030A000026943F8442C426943F8402C074A43F82C
:1030B000242CC268A3F1200043F8182C022203F844
:1030C0000C2C002203F80B2C704700BF890100086C
:1030D0005521D0E9013210B59A420DD8202383F34F
:1030E0001188FFF7D5FF00210446FFF7ADFE00234E
:1030F00083F31188204610BD03F8011BECE70000A4
:1031000070B5044655264518A5421CD8202484F3E2
:1031100011882039441844F8243C049BA4F124016C
:1031200044F8203C094B206144F8043C0223E16050
:10313000A38200212046A260FFF786FE002383F3CE
:103140001188204670BD04F8016BDDE78901000895
:10315000024B1B6998610F20FFF738BEA80C0020B6
:10316000202383F31188FFF7F3BF08B5014620231E
:1031700083F311880820FFF747FE002383F31188AB
:1031800008BD0000054B1B6921B103609861032055
:10319000FFF73ABE4FF0FF30704700BFA80C002089
:1031A0000346006820B100221A608161FFF7CCBDA0
:1031B00070470000044B03F11402C3E905224FF6E7
:1031C000FF72DA61704700BFA80C0020F8B5C0E9B3
:1031D00003231F4B0646586A1E4B02291A4652F813
:1031E000145F38BF022195421F4680B20BD1D883AD
:1031F0000844C3E9056680B2C6E900553181BDE8DF
:10320000F840FFF72DBDDB8B2A89C01A80B201443C
:103210008CB2844203D2A41A2D68A4B205E0A24263
:1032200003D9181980B2FFF72BFD2B89A3420CD3C9
:103230006B68356073601E606E6034812B891C1B67
:103240004FF6FF732C81BB83F8BDE41AE4E700BF9F
:1032500000400140A80C00201B4910B40A4652F857
:10326000144F036884420DD041680B6003685960B5
:1032700000219342C16003D01A8901890A441A814E
:1032800010BC7047002093424B615A60E06002D14D
:1032900010BCFFF7EFBC18892289C98B104480B29B
:1032A00018810A4B5B6A9BB25A1A92B29042E7D9D4
:1032B000CB1A03449BB2012B9CBF023290B208444C
:1032C00010BC80B2FFF7DCBCA80C0020004001401D
:1032D000EFF30983203383F30988002383F31188F4
:1032E00070470000202310B583F311880D4B5B68F5
:1032F00013F4006312D0EFF309844FF0807344F8A5
:10330000043CA4F1200383F30988FFF7C5FD18B13D
:10331000054B44F8083C10BD044BFAE783F31188D1
:10332000F9E700BF00ED00E0990100089C010008EA
:10333000704770477047FEE7F0B508200026104937
:10334000D1E901341D460A68043AAC4210D8E21CA7
:10335000D21ADD1E22F00302AC4238BF0022134411
:10336000CA689A4209D8013801F11001E8D1F0BDCC
:1033700052F8047F45F8047BE7E743F8046BF0E775
:10338000B03700084FF0FF3108B50E4B1A691961CC
:103390001A6900221A611869D868D960D968DA6098
:1033A000DA68DA6942F08052DA61DA69DA6942F0A1
:1033B0000062DA61DB6900F007F8BDE8084000F060
:1033C000CFB800BF0010024000230121084A10B509
:1033D000C2E90033074844681030236042F83130B6
:1033E00001310829F7D14FF0FF32034B5A6010BD6D
:1033F000680C0020303800080000024006289C4677
:103400002DE9F04136D801271B4C874023681F4225
:1034100030D11A4E3B4323604FEA0018184B06EB9D
:103420000015013044F8302004EBC000C0F804C09F
:10343000586940F0010058615B694AB16268AB6845
:103440001A4202D1E87BFFF761FC63681F436760A3
:1034500006EB08014B68497B1A6856F8080022F011
:103460000F021A600E228A40426000221A6028462B
:10347000BDE8F0810025FAE7680C0020303800082C
:103480000010024010B5202484F31188FFF7B6FF26
:10349000002383F3118810BD10B40468437B2168B6
:1034A0004268D940126801F00E010A420ED0827BB8
:1034B00001FA03F36360064B013253F832402CB13A
:1034C00003EBC2035868234610BC184710BC704772
:1034D000680C002008B50348FFF7DEFFBDE8084090
:1034E000FFF700BF3038000808B50348FFF7D4FFE6
:1034F000BDE80840FFF7F6BE4038000808B50348AD
:10350000FFF7CAFFBDE80840FFF7ECBE50380008DF
:1035100008B50348FFF7C0FFBDE80840FFF7E2BE6B
:103520006038000808B50348FFF7B6FFBDE808405B
:10353000FFF7D8BE7038000808B50348FFF7ACFFA6
:10354000BDE80840FFF7CEBE8038000808B5034844
:10355000FFF7A2FFBDE80840FFF7C4BE903800089F
:023560007047B2
:10356400000000000000000001020304060708092F
:103574000000000001020304456E746572696E6701
:1035840020736C6565700D004F6B0D0A0042616419
:10359400506172616D0D0A00564261743A202575BE
:1035A4006D563B2050657263656E743A2025750D27
:1035B4000050696E670056657273696F6E00323031
:1035C4003232303530345F313334370043727973FB
:1035D40074616C004E00202C004F6E004F66660034
:1035E400436D64556E6B6E6F776E0D0A0042746E98
:1035F4002025752025750D002E000D2553202553FB
:103604000D00E01064000E105000E20E3C00B60DF8
:103614002800A80C1400E60A0A00434320527374DD
:10362400204661696C0D0043432057204661696C54
:103634000D00434320522F57204661696C3B207292
:10364400706C3D25750D0043432052204661696C22
:103654000D0000000000000000000000DD11000863
:10366400434320696E6974206F6B0D000B080C00D6
:10367400105B11E51213154621B62210191D1A1CF0
:103684001BC71C001DB223EA242A2500261F2C81F7
:103694002D312E090D486172644661756C740D00FC
:1036A400566563746F72353800556E68616E646C6C
:1036B40065642025530D00566563746F72354300AD
:1036C400566563746F72363000566563746F723674
:1036D4003400566563746F72363800566563746FD0
:1036E40072394300566563746F7245300041484235
:1036F400467265713D25754D487A3B2041504231F3
:10370400467265713D25754D487A3B2041504232E1
:10371400467265713D25754D487A0D000000000024
:1037240000000000391D0008000000000000000037
:10373400A5270008792900081B2900083129000859
:10374400D9270008A7270008AF270008452C000840
:1037540000FFFFFF000000001F29000835290008B2
:10376400FCFEFFFF00000000492C0008F7270008BA
:10377400AB270008B3270008737461636B206F766E
:103784006572666C6F77006D61696E0069646C6563
:103794000000000090370008E80C0020980D00207D
:1037A40001000000672F000800000000A83800088E
:1037B400980D0020980D0020980D0020A8380008CE
:1037C400000000000000000000000000A83800080D
:1037D400000000000000000000000000A8380008FD
:1037E400000000000000000000000000A8380008ED
:1037F400000000000000000000000000A8380008DD
:10380400000000000000000000000000A8380008CC
:10381400000000000000000000000000A8380008BC
:103824000000000000000000000000000000024052
:1038340008000240010000000000000B00000240EC
:103844001C000240020000000004010C00000240C1
:1038540030000240040000000008020D0000024095
:103864004400024008000000000C030E0000024067
:1038740058000240100000000010040F0000024035
:103884006C000240200000000014051000000240FB
:0C389400800002404000000000180611F7
:0838A000010000005C0700209C
:04000005080001717D
:00000001FF
