:020000040800F2
:10000000000200206D0100086F010008D5190008EA
:100010006F0100086F0100086F0100086F01000800
:100020006F0100086F0100086F010008F52A000841
:100030006F0100086F0100086F0100086F010008E0
:100040006F0100086F0100086F0100086F010008D0
:100050006F0100086F010008E5190008251A000863
:10006000651A0008A51A0008E51A0008F92C00080E
:100070000D2D0008212D0008352D0008492D000800
:100080005D2D0008712D00086F0100086F01000848
:100090006F0100086F0100086F010008251B0008B0
:1000A000D12400086F0100086F0100086F010008EB
:1000B0006F0100086F0100086F0100086F01000860
:1000C0006F0100086F0100086F010008391D00086A
:1000D000691D00086F0100086F0100086F0100082A
:1000E000651B00086F0100086F0100086F01000820
:1000F0006F0100086F0100086F0100086F01000820
:100100006F0100086F0100086F0100086F0100080F
:100110006F0100086F0100086F0100086F010008FF
:100120006F0100086F0100086F0100086F010008EF
:100130006F0100086F0100086F0100086F010008DF
:100140006F0100086F0100086F0100086F010008CF
:100150006F0100086F0100086F0100086F010008BF
:0C0160009D0700081D120008D9150008BA
:10016C0016E000F000F8FEE72DE9F04FC1F80CD0D6
:10017C00C3689D46BDE8F08F002383F311882846A1
:10018C00A047002002F008FC02F0D7FA00DFFEE7DF
:10019C0072B6274880F30888264880F309882648D9
:1001AC004EF60851CEF200010860022080F314884C
:1001BC00BFF36F8F02F0C8FC02F0C7FC4FF0553054
:1001CC001E491B4A91423CBF41F8040BFAE71C49FB
:1001DC00184A91423CBF41F8040BFAE719491A4AF4
:1001EC001A4B9A423EBF51F8040B42F8040BF8E745
:1001FC0000201749174A91423CBF41F8040BFAE71B
:10020C0002F0A6FC02F0A2FC134C144DAC4203DA33
:10021C0054F8041B8847F9E700F06AFF104C114DA5
:10022C00AC4203DA54F8041B8847F9E702F08FBCA0
:10023C000002002000060020000000080000002042
:10024C000002002088300008000600200406002070
:10025C0008060020100E0020600100086C01000848
:10026C006C0100086C010008034613F8012B002AEE
:10027C00FBD1181A01387047816A10B5044619B1C0
:10028C0088470023A36210BD2430BDE8104002F063
:10029C0094BB0000104B984205D1104A936943F06F
:1002AC000403936170470E4B984204D10B4A936937
:1002BC0043F00803F5E70B4B984204D1074A9369C6
:1002CC0043F01003EDE7084B9842EBD1034A9369D6
:1002DC0043F02003E5E700BF000801400010024096
:1002EC00000C014000100140001401400368197318
:1002FC0003689A68D207FCD5187B704710B5FFF7D6
:10030C00C9FF134A0729936943F0010393610ED87F
:10031C000F2289000368C9B28A4023EA02030360F2
:10032C000923026803FA01F11143016010BD0F2289
:10033C00083989004368C9B28A4023EA0203436042
:10034C000923426803FA01F111434160EEE700BF53
:10035C000010024001238288012903FA02F30BD01A
:10036C00022911D039B90A4A916819439160D168B0
:10037C0021EA0303D3607047054A916821EA03011F
:10038C009160D1680B43F5E7014A91681943F7E78F
:10039C000004014070B50446A6790068A588FFF7F3
:1003AC0079FF002E3DD00123C268AB40022E0CBF5A
:1003BC0022EA030313430822C360072D33D8AB0092
:1003CC000F250668DBB29D4026EA05050560056829
:1003DC0002FA03F32B430360A08825682A4E00F031
:1003EC000302B542C0F387034FEA82022AD10125EA
:1003FC009B0003F1804303F580339E6805FA02F2FB
:10040C0032439A600126214D86402B6820463343A7
:10041C002B606B6823EA06036B60FFF79BFF6E6132
:10042C0070BD0422C9E70F26083DAD004368EDB24C
:10043C00AE4023EA06034360436802FA05F51D4308
:10044C004560C9E7124EB54207D19B0003F18043CA
:10045C0003F5803302259E68D0E70E4EB54207D1D6
:10046C009B0003F1804303F5803303259E68C5E7A9
:10047C00094EB542C6D19B0003F1804303F580338E
:10048C0004259E68BAE700BF000C0140000401403F
:10049C000010014000140140001801400123428A61
:1004AC0081689340034A8868184002D0013AFAD117
:1004BC0001207047B88201000123C18AC2688B40B9
:1004CC00136170470148FFF7D7BE00BF0806002034
:1004DC002DE9F0414FF00108C38A1646C26808FAAC
:1004EC0003F3536104460F46FFF7D8FF054630B1BE
:1004FC002046FFF7E1FF45462846BDE8F08104F1B0
:10050C00040847F080014046FFF7F0FE294684F8C6
:10051C0020004046FFF7EAFE30702046FFF7CCFF84
:10052C00EAE72DE9F0414FF00108C38A1646C2688C
:10053C0008FA03F3536104460F46FFF7AFFF054675
:10054C0030B12046FFF7B8FF45462846BDE8F0819C
:10055C0004F1040839464046FFF7C8FE31464046D0
:10056C00FFF7C4FE2046FFF7A7FFEEE7F8B501271B
:10057C00C38AC26807FA03F3536104460E46FFF7B9
:10058C008DFF054628B12046FFF796FF3D462846CD
:10059C00F8BD3146201DFFF7A9FE84F82000204647
:1005AC00FFF78AFF94F8203003F0700384F82030B2
:1005BC00EDE73A21FFF7DABF7FB50446C068E18A60
:1005CC00FFF768FE072940D80F2289000368C9B2DB
:1005DC008A4023EA020303600123026803FA01F153
:1005EC0011430160218AA068FFF788FE618AA06828
:1005FC00FFF784FEA18AA068FFF780FE012104F1B9
:10060C001800FFF7C7FE2046FFF756FF0023524A9B
:10061C001946CDE90023201D1A4601F02BFB626818
:10062C0030211368204643F040031360FFF79EFF10
:10063C00D8B162684948136823F04003136001F095
:10064C00A5FC0125284604B070BD0F22083989008D
:10065C004368C9B28A4023EA02034360012342681B
:10066C0003FA01F111434160BCE707220621204641
:10067C00FFF757FF08B13A48E1E78DF80F00062164
:10068C0020460DF10F02FFF723FF054640B99DF8F8
:10069C000F60072E06D03146324801F077FCD0E7C8
:1006AC003148CCE72046FFF784FF20220D2120465D
:1006BC00FFF737FF25220E212046FFF732FFED22F0
:1006CC000F212046FFF72DFFA32213212046FFF711
:1006DC0028FFFF2214212046FFF723FF08221821B0
:1006EC002046FFF71EFF324603212046FFF719FF75
:1006FC003F2229462046FFF714FF062202212046FE
:10070C00FFF70FFF0C2231462046FFF70AFF442269
:10071C0008212046FFF705FF50223E212046FFF717
:10072C0000FF324616212046FFF7FBFE3022172130
:10073C002046FFF7F6FEA08B092809D8042809D813
:10074C000630072101F0FEFE084801F01FFC79E796
:10075C002820F6E71720F4E7A02E6300A02D000850
:10076C00AD2D0008B82D0008CD2D0008D82D00089F
:10077C0010B50648FFF720FF044628B93921034875
:10078C00FFF7F4FE204610BD0124FBE7080600200D
:10079C000D4B0E4A0E491A600E4A0F485A60A2F5CC
:1007AC002052C3E902220D4AC3E904120C4A0D4936
:1007BC009A6102229A8300228860C3E909229A77FF
:1007CC0083F82020704700BF08060020EC2D00089D
:1007DC000500060000300140D104000807000400A9
:1007EC00000C0140900B00201D4B07B51B6A59688B
:1007FC000A6822F00F020A60597B1A680E238B409C
:10080C005360184A936823F001039360202383F309
:10081C00118805238DF80530134BD3F8AC20002A32
:10082C0018DD0021013AC3F8AC20D3F8942002F172
:10083C000800C3F89400117051709170D170019937
:10084C00516003F190029042084828BFC3F89430DD
:10085C0001F096FF002383F3118803B05DF804FBCD
:10086C0044060020002401406806002000070020F8
:10087C001022036A5B68D8605A6040F282521A6098
:10088C001A6842F001021A60044B9A6842F00102A5
:10089C009A609A6842F480029A6070470024014082
:1008AC00CA0010B502F10803541CA34234BF012343
:1008BC000823134400EB011100EB4300002331F833
:1008CC00022B81421344FAD1D80810BD054B0139D3
:1008DC00DA6A22F47002DA62DA6A42EA0152DA6205
:1008EC00704700BF00240140092901EB410010B5FD
:1008FC004FF007010B4B09D81C69814024EA010118
:10090C001961196982400A431A6110BDDC681E38EE
:10091C00814024EA0101D960D96882400A43DA6037
:10092C00F3E700BF00240140062910B50FD81F249F
:10093C00194B0139586B01EB81018C4020EA040002
:10094C005863586B02FA01F10143596310BD0C292D
:10095C000FD81F24104B0739186B01EB81018C4009
:10096C0020EA04001863186B02FA01F101431963C1
:10097C00ECE71029EAD81F24074B0D39D86A01EB94
:10098C0081018C4020EA0400D862D86A02FA01F195
:10099C000143D962DAE700BF002401400F4B82B05B
:1009AC009A6842F001029A6000220192019A072A89
:1009BC0002D8019A0132F8E79A6842F008029A606C
:1009CC00064B19469A681207FCD49A6842F0040246
:1009DC009A608B685B07FCD402B07047002401401E
:1009EC0038B5274B10215A68054622F440425A600C
:1009FC009A69012442F400729A619B69214B9A68AE
:100A0C0042F001029A609A6842F41E0242F480722B
:100A1C009A605A6842F480725A60FFF757FF0522B9
:100A2C000321FFF761FF2146013403222846E4B27B
:100A3C00FFF77AFF092CF6D1052211212846FFF782
:100A4C0053FF2146013411222846E4B2FFF76CFF14
:100A5C00112CF6D12846FFF7A1FF00230A4A1846AD
:100A6C000F2102F01BF9094A436828629A6040F290
:100A7C0082521A60034A936823F00103936038BDD5
:100A8C000010024000240140F50700084C240140EE
:100A9C00C3680BB101F0ECBF7047F0B56FF0404785
:100AAC0000F12C0400F1B80C1C34644508D054F847
:100ABC000C5C7E1954F81C5C05EB86056963F3E746
:100ACC006FF0404600F19C0100F594771C31B9425F
:100ADC0008D051F80C4C351951F81C4C04EB85041A
:100AEC006263F3E76FF0404500F5867200F5CC7059
:100AFC001C32824208D052F80C1C6C1852F81C1C88
:100B0C0001EB84014B63F3E7F0BD002313B51A46E8
:100B1C0019460446FFF7C1FF0023C4F87C3102B02C
:100B2C0010BD000043F23902044B0549186801FB63
:100B3C0000201860C0F30E40704700BF0006002074
:100B4C006D4EC64170B513490446006D00F0FFFDB3
:100B5C0030B9236810495B682046BDE870401847DF
:100B6C000E49206D00F0F3FD48B9236820465D68FE
:100B7C000B4AAC46BDE870400A4B0B4960470B4929
:100B8C00206D00F0E4FD18B1236809495B68E3E7C8
:100B9C0070BD00BFF02D0008F52D0008FA2D0008DF
:100BAC00102E0008022E0008532E0008192E0008E3
:100BBC001D2E000870B5061D044630460D46FFF785
:100BCC0067FF42F210724FF47A7302FB05F101F2E7
:100BDC00E731B1FBF3F130462346BDE87040024AE1
:100BEC0089B201F0FFBE00BF4517000870B5C5699A
:100BFC00D0F87C31D5F8052004469A4200F0878065
:100C0C00D5F801606979AA79EB7956B9FFF745FFF8
:100C1C00E369D3F805200933C4F87C21E361002093
:100C2C0074E090F87C0181422BD9013084F87C016E
:100C3C0094F87D11914227D2013184F87D1194F8FA
:100C4C007E219A4223D2013284F87E2194F87F319E
:100C5C002A7A93421ED2013384F87F31204694F8CD
:100C6C007E3194F87D2194F87C11FFF716FFE06932
:100C7C00D4F87C21D0F805309A420ED10930E061CD
:100C8C00CDE7D5D20138D1E7D9D90139D5E7DDD9AE
:100C9C00013AD9E7E2D9013BDEE794F87C114379BC
:100CAC00D0F801208B421CBF0431B2FBF1F194F857
:100CBC007D3118BF4D1C817908BF002599421BBF9F
:100CCC000433B2FBF3F30021591CA94294F87E3192
:100CDC0038BF2946C579007A9D421BBF0433B2FB4D
:100CEC00F3F300230133994238BF194694F87F314E
:100CFC0098421BBF0433B2FBF3F200220132914243
:100D0C00204638BF1146FFF755FF012070BD09354D
:100D1C00C56184E7836910B5044663B1202383F36E
:100D2C001188036913B10430FFF7B2FE0023C4E944
:100D3C00063383F3118823682046BDE810405B68B6
:100D4C00184708B5D0F8AC30002B19DD013BC0F8C2
:100D5C00AC30D0F8943003F10802C0F894200A6843
:100D6C001A604A685A60D0F8942000F190039A42B5
:100D7C0028BFC0F89400983001F002FD002008BD97
:100D8C000220FCE738B50369044613B10430FFF7C1
:100D9C007FFE4FF0FF35E3691A78042AFDD8DFE8AF
:100DAC0002F0030A14253100236820469B689847FB
:100DBC000128F0D138BDD3F801100933E3610029C3
:100DCC00E9D02046FFF7F6FEF4E7D3F80130A2692C
:100DDC0003EBC3031344E36194F8293023B11248A5
:100DEC0004F12401FFF7ADFF0121EAE794F8293063
:100DFC0023B10D4804F12401FFF7A3FF0023C4E93C
:100E0C000633D7E7226A013204BFD3F801202262ED
:100E1C00226A1AB909332562E361BCE7A369013A76
:100E2C00E3612262B7E700BF6806002010B5FFF748
:100E3C0079FE00F00F0303F259142146134801F018
:100E4C00A5F87821B4FBF1F301FB1343FF21104A01
:100E5C009BB251713C213C3B002BB8BF5B42C3F1B0
:100E6C003C03C3EB0323B3FBF1F30024D371947164
:100E7C00202383F311884FF0FF330648C0E9062284
:100E8C000362FFF77FFF84F3118810BD2A2E000840
:100E9C001C0A00201807002037B500215A48FFF71C
:100EAC00FFFC012104465848FFF7FAFC4FF4966109
:100EBC006143B1FBF0F149008BB2B3F5875F5FD2B0
:100ECC0041F20D0293425DD840F6E16293425BD849
:100EDC0040F6B552934259D840F6A742934257D8A0
:100EEC0040F6E522934255D90523484A02EB830389
:100EFC009C782246464801F049F84648FFF70AFF1D
:100F0C004FF4876001F04DFD142C45D8424B0093F3
:100F1C00782442F210739DF803109DF80220BDF85E
:100F2C0000004A43C2EB0222B2FBF3F2B0FBF4F333
:100F3C0004FB13036424C1EB0121B1FBF4F13C2449
:100F4C009BB23C3B002BB8BF5B42C3F13C03534309
:100F5C00B3FBF4F3891AC9B20A440B443B28D2B24E
:100F6C00DBB21ED9772820D9B32821D9EF2846D94E
:100F7C00B0F5967F084644D219461346024617E050
:100F8C000023B2E70123B0E70223AEE70323ACE76B
:100F9C000423AAE70024ACE74F2C94BF1F4B204B33
:100FAC00B5E7084611461A4601E0084619460346BD
:100FBC000025184C8DF8041020468DF805208DF86E
:100FCC0006308DF80750FFF768FD019B43F6C430DF
:100FDC00C4F87C3101F0E5FC2046FFF79BFE202392
:100FEC0083F311884FF0FF3323620E4B2046C4E984
:100FFC000633FFF7C7FE85F3118803B030BD1046EA
:10100C00D1E71146BAE700BF44060020702E000855
:10101C002E2E000818070020000064641E00646473
:10102C00780064641C0A002000252D4C83B504F163
:10103C00980720238DF80550009583F311884FF6FF
:10104C00FF71384601F080FBA0B9D4F890202548F8
:10105C0002F10803C4F89030834228BF234611687C
:10106C00143000915268C4F89030019201F088FB62
:10107C0001F05AFB85F311889DF80530013B062BD6
:10108C00D7D801A252F823F0B11000083F10000885
:10109C00C31000083F100008DF1000083F100008C4
:1010AC00E5100008009E3046FFF74CFD33683046D3
:1010BC001B689847BDE79DF800609DF8011032460B
:1010CC00094800F063FF022EB3D10848FFF7D0FBAC
:1010DC00AFE7FFF7E1FEACE7FFF7A8FEA9E700BF1B
:1010EC0068060020F8060020472E00084406002061
:1010FC0083B5394800F050FD01F0C5F901F050FB03
:10110C000122364C364B04F1A40012211A70C4E9AA
:10111C00244401F014FB002104F1980001F00FFBB2
:10112C00304801F0D7F8304B304A31495A603148D9
:10113C00314A324C00F02AFF274800F087FD002589
:10114C00264604F12C0778191C3500F09FFB702DF6
:10115C00F9D1002504F19C0778191C3500F096FB99
:10116C00702DF9D1002504F5867460191C3500F03A
:10117C008DFB702DF9D1002320481A461946FFF734
:10118C008CFC07238DF8053000237362019BB3623E
:10119C00FFF74CFE00F0C2F9194A1A48936943F064
:1011AC0004039361184B196821F47041196091691B
:1011BC0041F0040191611A6822F470621A601A6895
:1011CC0042F480721A6004221A61FFF709FC0F487E
:1011DC00FFF7CEFAFFF728FF840B002068060020EB
:1011EC00980800209C08002000000140040A00021E
:1011FC00102E0008522E0008022E0008180700209E
:10120C000010024044060020000801403406002073
:10121C00002000214FF4E132784B2DE9F04FC3E967
:10122C000001C3E924337649764B9224C1E90023AB
:10123C0006238B8107238B824FF485534FF0030ECB
:10124C004FF004097048C1E90843704BC1E906E945
:10125C0088600861D96003F11001C3E924116C495D
:10126C0000220125196001F128043831C3F804115A
:10127C006FF02F01C3F80041C3E90122C3E9272213
:10128C0083F89850C3F8A42083F8FC50C3F8482185
:10129C00A3F85221C3F84C2183F85021C3F85421F0
:1012AC005C4B4FF002081A705970FF214FF0FF345D
:1012BC0083F80280DA701A715A719971DA711A72A4
:1012CC00C3F80A2083F809E09A73DA731A745A7413
:1012DC00514B4FF08047C3E90842504C504E1C60B4
:1012EC004FF00B04DFF840C1A3F850404D4CC3E95C
:1012FC000B60C3E90E6E06F5A0364FF0080AC3E981
:10130C001270C3E9157983F829209A86A3F8402036
:10131C005964A3F85C201966C3E9194CC3E9206031
:10132C00C3E92365A6F5A036C3E92760C3E92A699A
:10133C004FF00A0B4FF00B06A3F888A0A3F8C0A03F
:10134C00DFF8E8A0C3E93849C3E91C4EC3E92D1402
:10135C00C3E93145C3E93414A3F86CB0A3F8782081
:10136C00D967A3F89420C3F89810A3F8A450A3F855
:10137C00B020C3F8BCC0A3F8CC20C3F8D8C0A3F8E5
:10138C00DC60A3F8E820C3E95014C3E95448A4F581
:10139C0094344FF00909C3E93CA0C3E95840C3F8A1
:1013AC002C010520C3E93FA5C3E94217C3E94678E0
:1013BC00C3E94917C3E94D7EC3F8EC10A3F8F890C4
:1013CC00A3F80421C3F810C1A3F81451A3F82021E9
:1013DC00A3F830B1A3F83C21C3F848C1A3F84C9151
:1013EC00A3F85821C3F85C11A3F86801C3E95B4862
:1013FC00A3F87421C3E95E12BDE8F08F68060020E3
:10140C00F409002000380140000C01409C08002029
:10141C001C2F00081C0A002018070020642E00084E
:10142C0000040040002C014000080140004801402D
:10143C004FF004092DE98848DFF8848000261F4C02
:10144C003146204601274FF0030AD8F808301C4DCE
:10145C002A68B5F804C0D2F808E007FA0CFC1CEABC
:10146C000E0FA346227804F101041DD0012A01D0ED
:10147C00042A15D104F801ACAA689A421CD003B115
:10148C00984758460021AB680136032E05F10C0530
:10149C00DED103B198474FF4E17001F082FACDE749
:1014AC00022204F8012CE7E7023A012A94BF04F85F
:1014BC00019C04F8017CDFE70131E5E7740B0020A7
:1014CC00500B0020104B984205D1104A936943F001
:1014DC000403936170470E4B984204D10B4A9369F5
:1014EC0043F00803F5E70B4B984204D1074A936984
:1014FC0043F01003EDE7084B9842EBD1034A936994
:10150C0043F02003E5E700BF000801400010024053
:10151C00000C014000100140001401402DE9F34182
:10152C0000250127254C264E94F806802068A188BA
:10153C00FFF7C8FFB8F1000F2CD0C36807FA01F20F
:10154C00B8F1020F0CBF934313430822C360072961
:10155C0022D88B000F21D0F800C0DBB299402CEAC6
:10156C0001010160016802FA03F30B4303600023DD
:10157C000135032D06F8013B04F10C04D4D1009382
:10158C0080224FF490710F4B0F4801F0D5F902B047
:10159C00BDE8F0810422DAE74FF00F0C083989001E
:1015AC004368C9B20CFA01FC23EA0C03436043689C
:1015BC0002FA01F119434160D9E700BF500B00203A
:1015CC00740B00203D140008300A00200A4B0B4A13
:1015DC0010B51A6000220A489A800A4A02210C248B
:1015EC00C3E90520D8600D2099719A601C8299740A
:1015FC00988399771A6210BD500B002000080140A7
:10160C00000C01407D160008002307B5009303234E
:10161C008DF800008DF805308DF80110202383F330
:10162C001188114BD3F8AC20002A15DD013AC3F810
:10163C00AC20D3F89420009802F10801C3F8941060
:10164C0010600198506003F190029142074828BF46
:10165C00C3F8943001F094F801F066F8002383F39A
:10166C00118803B05DF804FB680600200007002019
:10167C002DE9F0478046894600272A4D2A4EDFF88F
:10168C00B4A0FCB2A1454AD918F80430032B0BD1F5
:10169C0000232B550AF80430244B254A596A5B6AFF
:1016AC00118033800137ECE7042B07D12B5D002B25
:1016BC00F8D121460220FFF7A7FFF3E7022BF1D167
:1016CC002B5D73B9194B1A4A5B6A12889B1A42F24A
:1016DC0005729BB2934204D9012021462855FFF78D
:1016EC0093FF1AF804303188104A73B9536A5B1AA5
:1016FC0041F293119BB28B42D4D9536A33800123AC
:10170C000AF8043021460320D5E7536A5B1A40F2ED
:10171C0091419BB28B42C5D9536A3380F2E7BDE845
:10172C00F08700BF770B00207E0B002000400140AB
:10173C00800B00207A0B0020202208B582F3118840
:10174C0003681B689847002383F3118808BD8842FF
:10175C0030B515D0431E13F8014F2046A4F14102B9
:10176C00192A11F8012B98BF04F12000A2F14105B0
:10177C00192D98BF2032801A01D1002CEBD130BD2D
:10178C000020FCE770B508B9106868B103460E4636
:10179C00184613F8014B16F8015B15B1AC42FAD19F
:1017AC00F5E72CB92046146070BD23460CE015B942
:1017BC000E4613F8014B16F8015BAC42F7D1002C26
:1017CC00F3D0002103F8011C1360EDE70368264AEF
:1017DC00934206D1254B9A6942F400629A619B6947
:1017EC007047B3F1804F07D103F50433DA6942F047
:1017FC000102DA61DB6970471D4A934204D11B4B2D
:10180C00DA6942F00202F4E71A4A934204D1174B08
:10181C00DA6942F00402ECE7174A934204D1134B05
:10182C00DA6942F01002E4E7144A934204D10F4BF8
:10183C00DA6942F02002DCE7114A934204D10B4BE7
:10184C009A6942F48032C9E70E4A934204D1074B9D
:10185C009A6942F40032C1E70B4A9342C0D1034B60
:10186C009A6942F48022B9E7002C01400010024032
:10187C00000400400008004000100040001400402C
:10188C0000400140004401400048014010B50146B1
:10189C00FFF79CFF4FF4404203685A648269DA6296
:1018AC00027D0069012A00F1FF300CBF07220622DD
:1018BC0003280BD8DFE800F002323A42986940EA7C
:1018CC0002129A611A6A42F001021A621A68486896
:1018DC0042F001021A602F4A0B899042497D02F5B1
:1018EC00843233D1946944F0040494619469072BD5
:1018FC0044F0010494614FEA810242F009023AD8A3
:10190C000F249B000168DBB29C4021EA04010160BA
:10191C00016802FA03F30B43036010BD986940EAB7
:10192C0002329A611A6A42F01002CEE7D86940EA94
:10193C000212DA611A6A42F48072C6E7D86940EA88
:10194C000232DA611A6A42F48052BEE7124CA042AB
:10195C0003D1946944F00804C7E7104CA04203D1AA
:10196C00946944F01004C0E70D4CA042BED19469B8
:10197C0044F02004B9E70F24083B9B004168DBB21C
:10198C009C4021EA04014160416802FA03F30B43D5
:10199C004360C2E700080140000C01400010014008
:1019AC0000140140074B01385A6922F080025A6139
:1019BC0010F8012F22B119680906FCD55A60F7E717
:1019CC00704700BF0038014008B50248FFF7EAFF36
:1019DC0001BEFEE7882E000808B5202383F311888A
:1019EC00094B1B6853B198470122084B5A610023DD
:1019FC0083F31188BDE8084001F080B8044905481C
:101A0C0000F0DCFAF0E700BF900B0020000401406E
:101A1C00942E00089D2E000808B5202383F311880E
:101A2C00094B5B6853B198470222084B5A6100235B
:101A3C0083F31188BDE8084001F060B804490548FB
:101A4C0000F0BCFAF0E700BF900B0020000401404E
:101A5C00AB2E00089D2E000808B5202383F31188B7
:101A6C00094B9B6853B198470422084B5A610023D9
:101A7C0083F31188BDE8084001F040B804490548DB
:101A8C0000F09CFAF0E700BF900B0020000401402E
:101A9C00B42E00089D2E000808B5202383F311886E
:101AAC00094BDB6853B198470822084B5A61002355
:101ABC0083F31188BDE8084001F020B804490548BB
:101ACC0000F07CFAF0E700BF900B0020000401400E
:101ADC00BD2E00089D2E000808B5202383F3118825
:101AEC00094B1B6953B198471022084B5A610023CC
:101AFC0083F31188BDE8084001F000B8044905489B
:101B0C0000F05CFAF0E700BF900B002000040140ED
:101B1C00C62E00089D2E000808B5202383F31188DB
:101B2C00094B1B685BB198474FF47872074B5A61AD
:101B3C00002383F31188BDE8084000F0DFBF04499F
:101B4C00044800F03BFAEFE7A80B0020000401402A
:101B5C00CF2E00089D2E000808B5202383F3118892
:101B6C00094B1B685BB198474FF47C42074B5A6199
:101B7C00002383F31188BDE8084000F0BFBF04497F
:101B8C00044800F01BFAEFE7A40B0020000401400E
:101B9C00D82E00089D2E0008264BF0B503F1100737
:101BAC0004463E4687B002AD2A4618685968083389
:101BBC0003C2BB421546F7D16B46306871681E4AAA
:101BCC0003C35368C3F38103012B2ED0022B2ED1F8
:101BDC0053685168C3F38343C80303F102031DD454
:101BEC0016494B43516806A8C1F30311014411F87F
:101BFC00101CCB40236051685268C1F30221C2F320
:101C0C00C2220144024411F8181C12F8182C23FAB1
:101C1C0001F1D3406160A36007B0F0BD5168890346
:101C2C0001D50749DDE70749DBE7064BDAE7064B49
:101C3C00D8E700BF882D00080010024000093D00C5
:101C4C00808D5B00001BB70000127A000648074924
:101C5C00836805C8B3FBF1F3B2FBF1F2B0FBF1F111
:101C6C00034800F093B900BF840B002040420F00E2
:101C7C00E12E000870B50068294D049CA84238D1AB
:101C8C0005F56045AE6946F48056AE61AD694FF41A
:101C9C0041750129056002BF016841F080010160B6
:101CAC00012A02BF026842F002020260012B02BF4D
:101CBC00036843F001030360194B9842194B0CBFA6
:101CCC009B685B68B3FBF4F3802B1DDC402B1DDCA5
:101CDC00202B1DDC102B1DDC082B1DDC042B1DDC2C
:101CEC00022BD4BF00230123026842EAC303036022
:101CFC0070BD0D4DA842CAD105F5EC35EE6946F420
:101D0C008046EE61ED69C2E70723EDE70623EBE7BA
:101D1C000523E9E70423E7E70323E5E70223E3E7E9
:101D2C0000300140840B00200038004008B520230F
:101D3C0083F31188074B9B68DB0703D5064B1B68A5
:101D4C0003B19847002383F31188BDE8084000F0E5
:101D5C00D5BE00BF00300140AC0B002008B52023DD
:101D6C0083F31188074B9B68DB0703D5064B1B6875
:101D7C0003B19847002383F31188BDE8084000F0B5
:101D8C00BDBE00BF00380040B00B00202DE9F04371
:101D9C0085B0984601AB0646002508461F469DF8BF
:101DAC003090B0FBF2F4844602FB14012046092962
:101DBC00CCB294BF30343734E4B2944505F101050C
:101DCC0003F8014BEDD22C46336844451B680BD20B
:101DDC0049463046984718B10C2005B0BDE8F08351
:101DEC000134F1E7002DF8D03368013D30461B6813
:101DFC00795D98470028F5D0EEE72DE9F04F0B46BA
:101E0C00054614464FF00A0B85B01E4616F8011B0A
:101E1C0031B928462B685B6805B0BDE8F04F184710
:101E2C00252902D02B681B6864E05F784FF000090D
:101E3C00302F14BF20279E1C16F8011BA1F1300077
:101E4C00C0B2092804D92A2905D154F8040BC0B210
:101E5C000BFB0909F0E72E2909D116F8011BA1F19A
:101E6C003003092BF9D92A2901D10434F5E7632968
:101E7C003BD015D8412963D003D82529D2D033467D
:101E8C00C3E7532939D05829F9D14B461022009772
:101E9C00284654F8041BFFF779FF0028EFD0B8E769
:101EAC0073292AD01BD8642901D06929E7D1A0460F
:101EBC0058F8044B002C07DA2B682D2128461B6898
:101ECC0098470028A5D164424B460A222146284651
:101EDC000097FFF75BFF00289BD14446CFE775299D
:101EEC00CDD14B460A220097D2E72B6854F8041B3D
:101EFC001B68C9B228469847CFE7D4F800A05046D3
:101F0C00FEF7B2F980460AF1FF3A1AF8011F31B117
:101F1C002B6828461B6898470028F6D079E7A9EB70
:101F2C000808B8F1000F01DC0434A8E72B68394627
:101F3C0028461B68984708F1FF380028F1D068E75D
:101F4C000027D4E9019823685FFA88FA03934F4578
:101F5C0001DB0C3493E76FB9039B1022D95D30235E
:101F6C00284600930223FFF711FF00287FF451AF9E
:101F7C000137ECE7B8F1000FEED02B68514628463C
:101F8C001B6898470028E7D043E700000FB407B55B
:101F9C0004AB53F8041B0193202383F311880648E8
:101FAC00019AFFF72AFF002383F3118803B05DF831
:101FBC0004EB04B0704700BF9C0900200FB407B5B8
:101FCC0004AA52F8041B04480192FFF716FF03B051
:101FDC005DF804EB04B070479C09002070470120A9
:101FEC0070470120704701207047012070470000A6
:101FFC0008B5064C40F2DE3000F0D3FC2068002817
:10200C00F8D003685B689847F4E700BFD80C002051
:10201C000EB403B503AA52F8041B00F580700192AC
:10202C00FFF7EBFE02B05DF804EB03B07047A0F5D0
:10203C008270EDE7104B984205D1104A936943F03A
:10204C000403936170470E4B984204D10B4A936979
:10205C0043F00803F5E70B4B984204D1074A936908
:10206C0043F01003EDE7084B9842EBD1034A936918
:10207C0043F02003E5E700BF0008014000100240D8
:10208C00000C01400010014000140140034653F8BD
:10209C00902FD0F89C109B1A8B4228BF0B46C0F88F
:1020AC00A0307BB1002380F8983043685B68DA601D
:1020BC00D0F8A0205A60C268126A1A601A6842F0FE
:1020CC0001021A607047436810B459680A6822F01C
:1020DC000F020A60597B1A680E238B40014653602D
:1020EC0051F8902FD0E9273422448A42A3EB040301
:1020FC0028BF00F11002C0F89C30C0F8902033B912
:10210C00012380F89830036810BC1B68184710BC7A
:10211C00FFF7BCBFFFF7D7BFD0F89C307F2B16D88A
:10212C00D0F894305A1CC0F894201970D0F8942030
:10213C0000F190039A4224BF00F11003C0F89430D0
:10214C00D0F89C300133C0F89C30002070470C2034
:10215C007047FFF7E1BFA0F58070FAE790F8983070
:10216C000BB1FFF793BF7047FFF7F8BFA0F5807076
:10217C00FAE78368D0F8A4205B685B68C3F154036A
:10218C009B1A48BF543383B1531CC0F8A43002448B
:10219C0092F8A8300B70D0F8A430532B4FF00003FA
:1021AC0001DDC0F8A430184670470B2070470000C2
:1021BC007FB590F8FC300446002B4ED00025384EED
:1021CC0020460DF10701FFF7D4FF002845D194F804
:1021DC0050319DF8072043B9B4F85211736A5B1A59
:1021EC0040F2DE319BB28B4203D984F85051C4F8D3
:1021FC004C51736A082AA4F85231D4F84C3105D1E9
:10220C00002BDDD0013BC4F84C31D9E70D2A01D0AD
:10221C000A2A24D1002BD3D00025234483F808515B
:10222C00204904F5A47204F58470FFF7ABFA01237E
:10223C00C4F8540184F850318DF80D3084F8FC50FA
:10224C00202383F31188184BD3F8AC20AA420FDC5F
:10225C0000F06AFA002383F3118804B070BD3E2BA2
:10226C00AED8591C2344C4F84C1183F80821A7E7B5
:10227C00013AC3F8AC20D3F89420039802F108017A
:10228C0004F58274C3F894101460506003F190024A
:10229C009142064828BFC3F8943000F071FAD7E792
:1022AC0000400140102F00086806002000070020A5
:1022BC00C268D2E90013054A9342054A0CBF9268E2
:1022CC005268B2FBF1F29A60704700BF00380140CF
:1022DC00840B0020C36837B5044698689989FFF7CA
:1022EC00A9FE584B07299A6942F001029A6179D8E4
:1022FC000F2589000268C9B28D4022EA05020260EE
:10230C000922056802FA01F129430160E2684E498D
:10231C0052688A4276D19A6942F480429A619B69EA
:10232C002046FFF7C5FF0022E06809214368806959
:10233C001A612346454A00F0B1FCE36841685A68CB
:10234C006060101D8860186A012508600C2184F8F3
:10235C009850D160C02118695161998AFFF76AFEC3
:10236C00C3688D401D430729C5605BD80F228900C7
:10237C000368C9B28A4023EA020303600823026897
:10238C0003FA01F1114301600023E0681A460921A8
:10239C00C06900F083FCE16843684A68A060101DC6
:1023AC00986004F1A800D8605420496A58601960FC
:1023BC00196841F001011960D36843F40053D360EC
:1023CC00234B1A6802B91C60224C236843B9009352
:1023DC0080224FF49071204B204800F0ADFA206021
:1023EC0003B030BD0F25083989004268C9B28D4051
:1023FC0022EA050242600922456802FA01F12943EA
:10240C00416083E716498A4205D1DA6942F4003209
:10241C00DA61DB6984E713498A4281D1DA6942F4D3
:10242C008022F5E70F22083989004368C9B28A4037
:10243C0023EA020343600823426803FA01F11143C3
:10244C004160A1E700100240003801402121000842
:10245C00D80C0020DC0C0020FD1F0008B80B00205D
:10246C000044004000480040202383F311880123DE
:10247C0080F8FC30002383F311887047FFF7F4BF1A
:10248C00A0F58270FAE708B500F088FBBDE80840BB
:10249C0000F000B800F02AB80022034B58631A6110
:1024AC000222DA60704700BF004001400022014B5D
:1024BC00DA60704700400140014B5863704700BF21
:1024CC0000400140084B10B51A69920708D500244A
:1024DC001C61202383F3118800F0AAF984F311887E
:1024EC00BDE8104000F00ABB00400140114B022136
:1024FC009A69182042F480329A610F4A9B6953689A
:10250C0043F4800353600D4B9A6842F21073B2FB94
:10251C00F3F20B4B013A9A624FF6FF72DA62002229
:10252C009A615A63DA605A6001225A611A6000F0AB
:10253C0009B800BF00100240002004E0840B00200A
:10254C00004001400122090100F1604303F56143A1
:10255C00C9B283F8001300F01F039A4043099B0093
:10256C0003F1604303F56143C3F880211A6070479F
:10257C000022024BC3E900339A607047200D002003
:10258C00002382680375054B1B6899689142FBD246
:10259C005A6803604260106058607047200D00203C
:1025AC0008B5202383F31188027D0023052A06D861
:1025BC00DFE802F00B050503120E826913604FF081
:1025CC00FF338361FFF7DCFF002383F3118808BD21
:1025DC008269936801339360D0E9003213605A60CA
:1025EC00EDE70000002382680375054B1B689968B2
:1025FC009142FBD85A680360426010605860704783
:10260C00200D002038B50C4C2569226828751168FE
:10261C004C602160012122611175EFF30982296957
:10262C00243A914202D9054800F0FCF82946206969
:10263C00BDE83840FDF798BD200D0020642F000840
:10264C004FF6FF7330B5994204460B4D87B010D04E
:10265C002B690A4A01A800F0C5F92046FFF7D2FF02
:10266C00049B13B101A800F003FA2B69986907B019
:10267C0030BDFFF7C7FFF8E7200D0020AD2500089F
:10268C0070B5114E8161336981689A680446914234
:10269C0003D8BDE87040FFF773BF1846FFF7A2FFE1
:1026AC000123054634612375EFF309830269243B4A
:1026BC009A4202D9054800F0B5F829462046BDE8F3
:1026CC007040FDF751BD00BF200D0020642F0008A5
:1026DC00044B1A681B6990689B68984294BF002051
:1026EC0001207047200D002038B50D4C236820695F
:1026FC001A685460226001221A752361FFF772FF79
:10270C000546EFF309830269243B9A4202D9054836
:10271C0000F088F829462069BDE83840FDF724BD53
:10272C00200D0020642F000808B5FFF7D1FF18B169
:10273C00BDE80840FFF7D8BF08BDFFF7D5BFC0E91B
:10274C000000816070470000826810B4541E002C99
:10275C00846011DA21B982604FF0FF3010BC7047F1
:10276C00064B42681B6910BC986118605A60136074
:10277C0043600520FFF764BF0020EFE7200D002029
:10278C00826803460132002A826007DC0068026816
:10279C001A60536000238361FFF7F2BE7047FEE7B7
:1027AC0010B5184CFFF7E4FE00F010F9802220461B
:1027BC00154900F085F8154B44F8140C03610123FE
:1027CC000375134B134AD96821F4E0610904090C11
:1027DC000A431149DA60CA6842F08072CA600F4934
:1027EC000A6842F001020A601022DA77202283F88C
:1027FC002220002383F3118862B6BDE810400848FC
:10280C0000F082B8440D0020732F00080002002055
:10281C0000ED00E00003FA05F0ED00E0001000E030
:10282C00802F000872B6014B1862FEE7200D0020C5
:10283C002DE9F84F0027204CDFF88080656904F102
:10284C00140AD8F82400E38B80B22A89C61AB6B2CF
:10285C00B2421DD84FF020092B89E28BF61A1A448C
:10286C002B68E2835345C3F804A0D5F80CB0636120
:10287C00B6B2EF6001D1FFF719FE87F31188286912
:10288C00D84789F3118865692B89B342E4D9D8E715
:10289C00626952450ED01189E0830B441B1A1381D7
:1028AC002B89022B2CBFC0180230BDE8F84F80B228
:1028BC00FFF702BEBDE8F88F200D0020004001405C
:1028CC008260022282827047D0E9012343F8102CE7
:1028DC00A3F1440243F8142C026943F8442C4269D6
:1028EC0043F8402C074A43F8242CC268A3F120007B
:1028FC0043F8182C022203F80C2C002203F80B2CA2
:10290C00704700BF850100085521D0E9013210B590
:10291C009A420DD8202383F31188FFF7D5FF0021AD
:10292C000446FFF7ADFE002383F31188204610BD4B
:10293C0003F8011BECE7000070B50446552645185A
:10294C00A5421CD8202484F311882039441844F85B
:10295C00243C049BA4F1240144F8203C094B206145
:10296C0044F8043C0223E160A38200212046A260CB
:10297C00FFF786FE002383F31188204670BD04F810
:10298C00016BDDE785010008024B1B6998610F2084
:10299C00FFF738BE200D0020202383F31188FFF7AA
:1029AC00F3BF08B50146202383F311880820FFF7F5
:1029BC0047FE002383F3118808BD0346006820B14D
:1029CC0000221A608161FFF7DBBD7047044B03F1F5
:1029DC001402C3E905224FF6FF72DA61704700BF9B
:1029EC00200D0020F8B5C0E903231F4B0646586A9A
:1029FC001E4B02291A4652F8145F38BF0221954229
:102A0C001F4680B20BD1D8830844C3E9056680B257
:102A1C00C6E900553181BDE8F840FFF73DBDDB8BC1
:102A2C002A89C01A80B201448CB2844203D2A41AFF
:102A3C002D68A4B205E0A24203D9181980B2FFF7A1
:102A4C003BFD2B89A3420CD36B68356073601E6011
:102A5C006E6034812B891C1B4FF6FF732C81BB835A
:102A6C00F8BDE41AE4E700BF00400140200D00204F
:102A7C001B4910B40A4652F8144F036884420DD017
:102A8C0041680B600368596000219342C16003D018
:102A9C001A8901890A441A8110BC7047002093429C
:102AAC004B615A60E06002D110BCFFF7FFBC188983
:102ABC002289C98B104480B218810A4B5B6A9BB285
:102ACC005A1A92B29042E7D9CB1A03449BB2012B0B
:102ADC009CBF023290B2084410BC80B2FFF7ECBC31
:102AEC00200D002000400140EFF30983203383F3D5
:102AFC000988002383F3118870470000202310B548
:102B0C0083F311880D4B5B6813F4006312D0EFF361
:102B1C0009844FF0807344F8043CA4F1200383F340
:102B2C000988FFF7D5FD18B1054B44F8083C10BDDA
:102B3C00044BFAE783F31188F9E700BF00ED00E0DE
:102B4C009501000898010008704770477047FEE730
:102B5C00F0B5082000261049D1E901341D460A6859
:102B6C00043AAC4210D8E21CD21ADD1E22F0030249
:102B7C00AC4238BF00221344CA689A4209D80138C3
:102B8C0001F11001E8D1F0BD52F8047F45F8047B47
:102B9C00E7E743F8046BF0E7982F00084FF0FF319C
:102BAC0008B50E4B1A6919611A6900221A61186965
:102BBC00D868D960D968DA60DA68DA6942F080528C
:102BCC00DA61DA69DA6942F00062DA61DB6900F035
:102BDC0007F8BDE8084000F0CFB800BF0010024075
:102BEC0000230121084A10B5C2E9003307484468A4
:102BFC001030236042F8313001310829F7D14FF001
:102C0C00FF32034B5A6010BDE00C00201830000856
:102C1C000000024006289C462DE9F04136D80127D9
:102C2C001B4C874023681F4230D11A4E3B43236014
:102C3C004FEA0018184B06EB0015013044F8302011
:102C4C0004EBC000C0F804C0586940F001005861A2
:102C5C005B694AB16268AB681A4202D1E87BFFF744
:102C6C0071FC63681F43676006EB08014B68497B86
:102C7C001A6856F8080022F00F021A600E228A40D9
:102C8C00426000221A602846BDE8F0810025FAE770
:102C9C00E00C0020183000080010024010B5202471
:102CAC0084F31188FFF7B6FF002383F3118810BD5E
:102CBC0010B40468437B21684268D940126801F063
:102CCC000E010A420ED0827B01FA03F36360064BBD
:102CDC00013253F832402CB103EBC203586823463F
:102CEC0010BC184710BC7047E00C002008B5034816
:102CFC00FFF7DEFFBDE80840FFF700BF1830000803
:102D0C0008B50348FFF7D4FFBDE80840FFF7F6BE4F
:102D1C002830000808B50348FFF7CAFFBDE8084093
:102D2C00FFF7ECBE3830000808B50348FFF7C0FFCA
:102D3C00BDE80840FFF7E2BE4830000808B503487C
:102D4C00FFF7B6FFBDE80840FFF7D8BE58300008C3
:102D5C0008B50348FFF7ACFFBDE80840FFF7CEBE4F
:102D6C006830000808B50348FFF7A2FFBDE808402B
:0A2D7C00FFF7C4BE7830000870476E
:102D88000000000000000000010203040607080913
:102D980000000000010203044343205273742046DC
:102DA80061696C0D0043432057204661696C0D0032
:102DB800434320522F57204661696C3B2072706C48
:102DC8003D25750D0043432052204661696C0D0076
:102DD800434320696E6974206F6B0D00000000008A
:102DE800000000008502000850696E67004F6B0DF7
:102DF8000A0056657273696F6E00323032323032B3
:102E080031305F3130333100416C776179734F6E07
:102E180000436C7200436D64556E6B6E6F776E0D78
:102E28000A0025640D00564261743A2025756D56D6
:102E38003B2050657263656E743A2025750D00421B
:102E4800746E2025752025750D000D2553202553FA
:102E58000D0000000000000000000000910D0008B7
:102E6800170B0008F90B0008E01064000E10500062
:102E7800E20E3C00B60D2800A80C1400E60A0A0071
:102E88000D486172644661756C740D005665637413
:102E98006F72353800556E68616E646C6564202504
:102EA800530D00566563746F72354300566563743D
:102EB8006F72363000566563746F7236340056652B
:102EC80063746F72363800566563746F72394300E5
:102ED800566563746F7245300041484246726571A9
:102EE8003D25754D487A3B20415042314672657107
:102EF8003D25754D487A3B204150423246726571F6
:102F08003D25754D487A0D00202C0000000000007A
:102F180000000000E91F0008BD2100085F2100082B
:102F2800752100081D200008EB1F0008F31F00088A
:102F38008924000800FFFFFF00000000632100084B
:102F480079210008FCFEFFFF000000008D24000826
:102F58003B200008EF1F0008F71F00087374616327
:102F68006B206F766572666C6F77006D61696E00B5
:102F780069646C6500000000782F0008600D00206F
:102F8800100E002001000000AB2700080000000020
:102F98008C300008100E0020100E0020100E0020AB
:102FA8008C30000800000000000000000000000055
:102FB8008C30000800000000000000000000000045
:102FC8008C30000800000000000000000000000035
:102FD8008C30000800000000000000000000000025
:102FE8008C30000800000000000000000000000015
:102FF8008C30000800000000000000000000000005
:103008008C300008000000000000000000000000F4
:103018000000024008000240010000000000000B10
:10302800000002401C000240020000000004010CE5
:103038000000024030000240040000000008020DB9
:10304800000002404400024008000000000C030E8B
:103058000000024058000240100000000010040F59
:10306800000002406C00024020000000001405101F
:1030780000000240800002404000000000180611D5
:043088000100000043
:040000050800016D81
:00000001FF
