:020000040800F2
:10000000000100207101000873010008151A0008A2
:1000100073010008730100087301000873010008F0
:10002000730100087301000873010008592D0008CE
:1000300073010008730100087301000873010008D0
:1000400073010008730100087301000873010008C0
:100050007301000873010008251A0008651A0008DA
:10006000A51A0008E51A0008251B00086D2F0008D6
:10007000812F0008952F0008A92F0008BD2F000828
:10008000D12F0008E52F0008730100087301000854
:10009000730100087301000873010008651B000864
:1000A0000D270008730100087301000873010008A0
:1000B0007301000873010008730100087301000850
:1000C000730100087301000873010008D51D0008C2
:1000D000051E000873010008730100087301000881
:1000E000A51B0008730100087301000873010008D4
:1000F0007301000873010008730100087301000810
:1001000073010008730100087301000873010008FF
:1001100073010008730100087301000873010008EF
:1001200073010008730100087301000873010008DF
:1001300073010008730100087301000873010008CF
:1001400073010008730100087301000873010008BF
:1001500073010008730100087301000873010008AF
:100160003D080008990C000859160008B916000847
:1001700016E000F000F8FEE72DE9F04FC1F80CD0D2
:10018000C3689D46BDE8F08F002383F3118828469D
:10019000A047002002F02CFD02F0F3FB00DFFEE799
:1001A00072B6274880F30888264880F309882648D5
:1001B0004EF60851CEF200010860022080F3148848
:1001C000BFF36F8F02F0F8FD02F0F7FD4FF05530EE
:1001D0001E491B4A91423CBF41F8040BFAE71C49F7
:1001E000184A91423CBF41F8040BFAE719491A4AF0
:1001F0001A4B9A423EBF51F8040B42F8040BF8E741
:1002000000201749174A91423CBF41F8040BFAE716
:1002100002F0D6FD02F0D2FD134C144DAC4203DACD
:1002200054F8041B8847F9E700F0BAFC104C114D54
:10023000AC4203DA54F8041B8847F9E702F0BFBD6B
:100240000001002000020020000000080000002043
:1002500000010020483300080002002008020020AE
:1002600008020020700C00206001000870010008E6
:10027000700100087001000843F23903084A30B5E4
:100280001468084D013105FB0433091A136023F08B
:100290000043B3FBF1F201FB1233184430BD00BF41
:1002A000000200206D4EC64170B56FF04044056BF2
:1002B0006619056A05EB86056963C16C6518C16B33
:1002C00001EB85014A63826E1444826D02EB840463
:1002D000636370BD70B505460C4606468B6845F8ED
:1002E000043B0FCC0FC594E8030085E803003046BB
:1002F00070BD000003222DE9F04F7E4B93B0CDE995
:10030000023204214FF0804202200025FF264FF0E8
:10031000010840F2011B784C784FDFF8E491DFF8D8
:10032000E4A1CDE90E20099104F12000694608936B
:10033000CDF83090CDE90567C4E900B5C4E90255B0
:10034000C4E90455C4E906A50097ADF80450ADF81A
:100350001050ADF81C80ADF828500B96ADF83480E5
:10036000ADF840501196FFF7B5FF0DF1180C61463E
:1003700004F13C00FFF7AEFF0DF1300C614604F1D3
:100380005800FFF7A7FF4FF0804204214FF00A000A
:100390004FF0080E4FF00B0CCDE902210E92032214
:1003A000594B6946ADF8340004F19800ADF81CE0F3
:1003B000CDE90838ADF804C00F92CDE90569CDE963
:1003C0000B67C4E91D5BC4E91F55C4E92155C4E9A5
:1003D000235A0097ADF81050ADF82850ADF84050B2
:1003E0001196C4F89450FFF775FF06A904F1B40004
:1003F000FFF770FF0CA904F1D000FFF76BFF4FF07F
:100400000A000421ADF80400022003224FF00B0C77
:10041000CDE90569CDE90B69CDF800904FF00909E8
:10042000394B09910F90694604F58870CDE9023285
:10043000ADF81CC008930E93C4E93B5BC4E93D557D
:10044000C4E93F55C4E9415AADF81050ADF8285001
:10045000ADF83490ADF840501196C4F80C51FFF748
:1004600039FF06A904F59670FFF734FF0CA904F5CF
:10047000A470FFF72FFF254B0220CDE9023803F5CA
:100480008063CDE9083805234FF0080EADF834300D
:10049000184B6946CDE90E3004F5C470ADF804E0A0
:1004A000CDE90567CDE90B67C4E9595BC4E95B5544
:1004B000C4E95D55C4E95F5A0097ADF81050ADF836
:1004C0001C90ADF82850ADF840501196C4F88451F6
:1004D000FFF700FF06A904F5D270FFF7FBFE0CA999
:1004E00004F5E070FFF7F6FEC4F8DC5113B0BDE888
:1004F000F08F00BF0004004008020020000C014003
:100500000008014000006464002C014000440140E8
:1005100013B542F210737824C27881780088514371
:10052000C1EB0121B1FBF3F1B0FBF4F304FB1303C6
:100530006424C2EB0222B2FBF4F23C249BB23C3BAB
:10054000002BB8BF5B42C3F13C034B43B3FBF4F356
:10055000521AD2B2114413443B28C9B2DBB20DD9AE
:1005600077280FD9B32810D9EF2819D9B0F5967F7D
:10057000104617D21A460B46014606E010460A46B8
:10058000194601E010461A460346002062F30700B0
:1005900061F30F2063F3174020F07F4002B010BDDD
:1005A0000846EDE70A46E7E72DE9F04104460F4625
:1005B00003C816461D46DDF81880FFF75DFE38605B
:1005C000D4E90201FFF758FE3060D4E90401FFF7D7
:1005D00053FE43F23903094A28601168084800FBBA
:1005E00001331360DB0759BF618B208BE18BA08B3C
:1005F000FFF742FEA8F80000BDE8F08100020020ED
:100600006D4EC64113B5044600F11803009300F186
:10061000080200F10C03011D08480068FFF7C4FF41
:10062000A3696367002384F87730636F6361E368CD
:100630009B080133236102B010BD00BF04020020FB
:1006400083B503270A2002F0D8FA04254FF02008CA
:100650004FF00209364CA4F1780688F3118854F85B
:10066000683C002B07DC14F8783C032B08D8DFE843
:1006700003F025304954013B44F8683C002BF2D08C
:1006800054F8042C54F8643C9A420BD0201FFFF716
:100690003FFF0190C0F30743C0F30722C1B23046C9
:1006A000FFF702FE54F8043C44F8643C002383F353
:1006B0001188013D04F17804CDD1C3E714F8773CEB
:1006C000002BDDD00123304604F8783CFFF79AFF79
:1006D000D6E754F8042C54F8603C9A4206D154F8FA
:1006E000703C04F8789C44F8683CC9E714F8013C75
:1006F0000133DBB254F86C2C04F8013C0433B2FB38
:10070000F3F308E014F8013C04F8787C1A1D54F85F
:100710006C3CB3FBF2F30133E5E714F8013C23B979
:1007200004F8783C54F8743CDDE7013BE1E700BF96
:100730008002002037B50425114C04F1200001F09F
:10074000CBF804F13C0001F0C7F804F1580001F0C7
:10075000C3F8002320461A461946FFF7A5FDFFF708
:1007600051FF013D04F17804E7D1FF224FF490716D
:10077000044B0095044802F007FA03B030BD00BFF7
:100780000802002041060008E80300200122044B73
:100790005A7083F8792083F8F12083F86921704733
:1007A000080200200022044B5A7083F8792083F855
:1007B000F12083F869217047080200200422064BCB
:1007C000187838B9597831B9013A03F17803F7D17B
:1007D0000120704700207047080200202DE9F341F6
:1007E000054604274FF020080026134C2B786A7822
:1007F00043EA0223ADF80030AB788DF80230EB7895
:100800008DF8033088F3118868466670267026617B
:10081000FFF77EFE0190C0F30743C0F30722C1B289
:100820002046FFF741FD86F31188013F04F178046B
:10083000DCD102B0BDE8F08108020020FFF75ABD0C
:10084000CA0010B502F10803541CA34234BF0123AF
:100850000823134400EB011100EB4300002331F89F
:10086000022B81421344FAD1D80810BD0B4B0C491E
:100870005A6842F480725A601A6842F008021A609C
:100880000A6942F004020A6102221A601A6842F000
:1008900004021A6000BF00BF30BF70470070004004
:1008A00000ED00E008B5084801F094FC4FF4E17059
:1008B00002F0A3F9202383F31188FFF7D7FF002369
:1008C00083F3118808BD00BF2430000808B501F08B
:1008D000B1FAB0FA80F0400908BD00000368014990
:1008E0005B68184734300008036801495B681847A3
:1008F0003930000813B500213048FFF7A1FF01216E
:1009000004462E48FFF79CFF4FF496614C43B4FB1E
:10091000F0F461008BB2B3F5875F39D241F20D027A
:10092000934237D840F6E162934235D840F6B5524B
:10093000934233D840F6A742934231D840F6E5229D
:1009400093422FD905231E4A02EB83039C7822464B
:100950001C4801F03FFC142C26D81B4B0093BDF81B
:10096000003001A8ADF8043064238DF806308DF80E
:100970000730FFF733FF43F6C43002F03EF9134B64
:100980005B68DB0715D502B0BDE81040FFF78ABFF2
:100990000023D8E70123D6E70223D4E70323D2E7D5
:1009A0000423D0E70024D2E74F2C94BF084B094B17
:1009B000D4E702B0BDE81040FFF7E8BE080500200C
:1009C000B03000084430000800006464007000404B
:1009D0001E0064647800646437B504462949006DDC
:1009E000FFF774FF18B12046FFF778FF2FE0264984
:1009F000206DFFF76BFF054650B1236820465D6808
:100A0000224AAC46224B234903B0BDE83040604740
:100A10002149206DFFF75AFFD8B128461F4904F13C
:100A2000440201F025FA78B12A4601A901F05DFAE5
:100A3000019B1B7843B9C0B2072805D8184B03EBBC
:100A40004010184B1860CEE72046FFF74DFF03B06B
:100A500030BD1549206DFFF739FF10B1FFF796FE45
:100A6000C1E71249206DFFF731FF10B1FFF79AFE81
:100A7000B9E7204623680E495B6803B0BDE8304003
:100A8000184700BF5D300008623000087830000869
:100A90006A300008A9300008893000088B3000084F
:100AA00058070020040200208E3000089130000812
:100AB000953000080026344C83B504F198072023B4
:100AC0008DF8056083F311884FF6FF71384601F009
:100AD0005FFF68BBD4F890202C4802F10803C4F8EB
:100AE0009030156852680192834234BF1A462246FC
:100AF0001430C4F8902001F067FF01F039FF86F34D
:100B000011889DF80530013B062BD8D801A252F878
:100B100023F000BF350B0008590B0008BF0A00087E
:100B2000BF0A00087D0B0008BF0A0008450B00083B
:100B30000025E4E72846FFF74FFF2B6828461B688F
:100B40009847BCE7124801F045FB124B1B68002B8D
:100B5000B5DCFFF727FEB2E74AF6AA220E4B1A6071
:100B60000C4A1368002BC4BF03F1FF331360FFF777
:100B700025FE0028A3D0FFF795FEA0E7FFF7BAFEF9
:100B8000064B1E709BE700BF30050020C00500200B
:100B9000A23000082C05002000300040E0050020B5
:100BA00008B541F2941001F035F801F01BF82C481B
:100BB00001F044F801F08BFD01F016FF0122294CF1
:100BC000294B122104F1A4001A70C4E9244401F055
:100BD000DAFE002104F1980001F0D5FE234801F06F
:100BE0009DFC234B234A5A6003F58833DA6942F0AF
:100BF0008052DA61DB69204B5B689B070ED51F488A
:100C000000F0FCFC38B1202383F31188FFF72EFE9F
:100C1000002383F311880422194B1A60194A1A49D8
:100C20001A4801F0D7FA0E4801F064F8FFF782FD88
:100C3000124800F0C7FC202383F31188144803698D
:100C4000048B13B1043002F04DF8114B2146181DEE
:100C5000104A02F003F8002383F31188FFF72AFFFC
:100C6000E409002030050020E105002000060020F6
:100C700000000140040A0002007000408C080020BF
:100C80002C0500206A30000878300008A8300008E1
:100C9000E40500208517000800200021544B2DE9B1
:100CA000F041C3E900014FF4E131524AC3E9243372
:100CB000514B0720C2E900130621A3F53053C2E9C6
:100CC0000313936003230424C2E905039223C2E9BA
:100CD00007434FF485535362484B0021DA6003F118
:100CE0001002C3E92422012236204FF4E17483F874
:100CF000982083F8FC20424AC3E901111A60C3E935
:100D00002711C3E95211C3E95411C3F8A41002F129
:100D100028013832C3F80011C3F80421394B3A4A8C
:100D20004FF434751A60394A394F9A61394B0922A8
:100D3000C3E903044FF0B474C3E90554C3E907429F
:100D4000354C6C26C3E90E474FF4B4744FF4702C45
:100D5000C3E91464314CDFF8C880C3E916C4314CD0
:100D60002D2140F27625C3E91E844FF4877E40F2A0
:100D7000951C40F22A386324C3E90021C3E9091213
:100D8000C3E91021C3E91220C3E91821C3E91A20DD
:100D90009A60C3E90CE5C3E91CC5D862C3E9202108
:100DA000C3F894804FF4E028C3E92244C3E929142E
:100DB000C3E92B461C4CC3F89880C3F8B840DFF851
:100DC0006C8004F570241934C3E92782C3E92F42EB
:100DD000C3E93112164AC3E9330EC3E93627C3F813
:100DE0009060C3F8B450C3F8D4C0BDE8F08100BF30
:100DF000300500203808002000380140000600209F
:100E0000DC310008E4050020D0310008062702018B
:100E100032004D0058070020A100C300FA000E0167
:100E20005000A00004012201E100FA006101680104
:100E300078000E01816A10B5044619B18847002375
:100E4000A36210BD2430BDE8104001F0F1BE0000E7
:100E5000104B984205D1104A936943F00403936103
:100E600070470E4B984204D10B4A936943F0080334
:100E7000F5E70B4B984204D1074A936943F01003FE
:100E8000EDE7084B9842EBD1034A936943F0200306
:100E9000E5E700BF0008014000100240000C0140DF
:100EA000001001400014014010B5FFF7D1FF134AB4
:100EB0000729936943F0010393610ED80F2289003B
:100EC0000368C9B28A4023EA020303600923026867
:100ED00003FA01F11143016010BD0F2208398900A6
:100EE0004368C9B28A4023EA020343600923426887
:100EF00003FA01F111434160EEE700BF0010024028
:100F00000368197303689A68D207FCD5187B704789
:100F10000123428A81689340034A8868184002D0BE
:100F2000013AFAD101207047B88201000123C18A39
:100F3000C2688B40136170470148FFF77BBF00BF59
:100F4000600800207F2908B2C4BFA1F5807108B2F3
:100F500000EBD07040104A3840B270472DE9F041A4
:100F60004FF00108C38A1646C26808FA03F35361BA
:100F700004460F46FFF7CCFF054630B12046FFF789
:100F8000D5FF45462846BDE8F08104F1040847F046
:100F900080014046FFF7B4FF294684F82000404610
:100FA000FFF7AEFF30702046FFF7C0FFEAE72DE9FC
:100FB000F0414FF00108C38A1646C26808FA03F3ED
:100FC000536104460F46FFF7A3FF054630B12046A4
:100FD000FFF7ACFF45462846BDE8F08104F1040860
:100FE00039464046FFF78CFF31464046FFF788FF01
:100FF0002046FFF79BFFEEE7F8B50127C38AC268DA
:1010000007FA03F3536104460E46FFF781FF0546D6
:1010100028B12046FFF78AFF3D462846F8BD3146F5
:10102000201DFFF76DFF84F820002046FFF77EFFAC
:1010300094F8203003F0700384F82030EDE7362177
:10104000FFF7DABF10B5044694F820301BB12046F4
:10105000FFF7F5FFF8E72046BDE810403921FFF71C
:10106000CBBFF8B505460E4695F820401CB1284682
:10107000FFF7E5FFF8E7771C17F8142016F81410AF
:1010800028460134FFF793FF142CF5D1F8BD38B58D
:1010900004460D4694F820301BB12046FFF7CFFFE1
:1010A000F8E72A462046BDE838400A21FFF77FBF0F
:1010B0003A21FFF7A1BF0000F0B50446E18AC068FD
:1010C00085B0FFF7C5FE072900F286800F22890050
:1010D0000368C9B28A4023EA02030360012302685D
:1010E00003FA01F111430160218AA068FFF7DCFED9
:1010F000618AA068FFF7D8FEA18AA068FFF7D4FE36
:10110000A57FA069A18BFFF7A3FE002D74D001235A
:10111000C2688B40022D0CBF22EA0303134308224E
:10112000C36007296AD88B000F210568DBB299409C
:1011300025EA01010160016802FA03F30B43036031
:10114000A28BA069804D02F00301A842C2F387037D
:101150004FEA810161D101209B0003F1804303F537
:1011600080339D6800FA01F1294399600127774B8C
:1011700007FA02F21968204611431960596821EAFA
:1011800002015960996821EA02019960D968114306
:10119000D9605A61FFF7CAFE00236D4A1946CDE9AE
:1011A0000023201D1A4600F0B9FD62683021136843
:1011B000204643F040031360FFF71EFF00284DD088
:1011C00062686448136823F04003136001F002F87A
:1011D0003D46284605B0F0BD0F2208398900436816
:1011E000C9B28A4023EA020343600123426803FA3A
:1011F00001F11143416077E7042292E70F25083996
:1012000089004368C9B28D4023EA050343604368FF
:1012100002FA01F11943416092E74F4DA84207D10C
:101220009B0003F1804303F5803302209D6899E71A
:101230004A4DA84207D19B0003F1804303F5803358
:1012400003209D688EE7464DA8428FD19B0003F195
:10125000804303F5803304209D6883E7072206213D
:101260002046FFF7A4FE08B13E48AFE78DF80F0017
:10127000062120460DF10F02FFF770FE054640B92A
:101280009DF80F60072E06D03146374800F0A2FFC8
:101290009EE736489AE72046FFF70AFF20220D21F5
:1012A0002046FFF784FE25220E212046FFF77FFE11
:1012B000ED220F212046FFF77AFEA32213212046BC
:1012C000FFF775FEFF2214212046FFF770FE08226B
:1012D00018212046FFF76BFE324603212046FFF718
:1012E00066FE3F2229462046FFF761FE06220221C4
:1012F0002046FFF75CFE0C2231462046FFF757FEE2
:10130000442208212046FFF752FE50223E2120466B
:10131000FFF74DFE324616212046FFF748FE3022E9
:1013200017212046FFF743FEA08B092807D8042881
:1013300007D8063080B2072101F028FA49E72820B3
:10134000F9E71720F7E700BF000C01400004014057
:10135000A02E6300C83000080010014000140140B6
:1013600000180140D5300008E0300008F5300008D2
:101370003421FFF741BE2DE9F7430E469046782110
:101380000DF1070204461F46FFF7E8FD90B99DF9ED
:101390000730002B0EDA4FF00109E38AE26809FA00
:1013A00003F320465361FFF7B3FD054620B1204605
:1013B000FFF7BCFD012527E004F10409FF214846A1
:1013C000FFF79EFD3744BE424FF00001484606D06D
:1013D000FFF796FD8DF8070006F8010BF3E7FFF71E
:1013E0008FFD00218DF807004846FFF789FD204654
:1013F000FFF79CFDB8F1000F06D020469DF80710BE
:10140000FFF7A0FD88F80000284603B0BDE8F08390
:101410002DE9F041DDF818801E4604460F461546BA
:10142000FFF746FE202383F311882046FFF7A0FF35
:10143000394604F1240001F0EDFB002383F3118809
:10144000013007D03346424629462046BDE8F041E8
:10145000FFF791BF2046FFF7F2FD0220BDE8F081C3
:1014600010B442F2107461434FF47A7401F2E73120
:10147000B1FBF4F110BC89B2FFF7CABF10B5044646
:1014800094F8203033B136212046FFF7B5FD00280F
:10149000F6D010BD33212046FFF7AEFD0028F8D16D
:1014A0003D212046FFF7A8FD94F82030002BF7D10E
:1014B000EFE7000004468FB5234D244E244F284605
:1014C000FFF7DCFF234B2421009328460823621CEE
:1014D000FFF7C6FF78BBD4F80130B3422BD1D4F864
:1014E0000530BB4227D107238DF80D30202383F32D
:1014F0001188194BD3F8AC20002A17DD013AC3F844
:10150000AC20D3F8942002F10801C3F894101070B5
:1015100050709070D0700398506003F19002914227
:101520000E4828BFC3F8943001F04EFA01F020FABB
:10153000002383F311882846FFF784FD4FF4616090
:1015400001F05BFBBBE700BF60080020A15E11CA91
:10155000117CE10B9D08002030050020C80500200B
:1015600008B50148FFF7A6FF8C08002038B50378BE
:101570000546FBB91148FFF79FFD0446E0B9082274
:1015800006210E48FFF713FD302217210B48FFF705
:101590000EFD21460948FFF77AFD50223E210748FB
:1015A000FFF705FD06490548FFF75BFD01232B709A
:1015B000204638BD0024FBE70124F9E7600800203D
:1015C0001831000813B5FFF7D1FF044668B9084881
:1015D00000F000FEFF224FF49071064B0648009485
:1015E00001F0D2FA204602B010BD0124FAE700BF94
:1015F0000C31000861150008A008002037B504462A
:10160000FFF7B4FF10B1012003B030BD0E48FFF763
:1016100035FF0E4B1B2100930B480823621CFFF77C
:101620001FFF05460848FFF70DFD002DEBD1D4F84C
:101630000120074B9A42E6D1D4F80500054BC01AA9
:1016400018BF0120E0E700BF600800209D080020CF
:10165000A15E11CA117CE10B0E4B0F4A0F491A60B3
:101660000F4A10485A60A2F52052C3E902220E4ADE
:10167000C3E904120D4A0E499A6102229A8300229C
:10168000C3E909229A7783F820200A4B88601A70F0
:10169000704700BF60080020083100080500060000
:1016A00000300140390F000807000400000C014021
:1016B000F00900208C0800204FF40032074B084945
:1016C0000848C3E90012084A08499A60C3E90310B0
:1016D000C3E905210649C3E907127047C009002084
:1016E000000801400C0002005D170008000C0140DA
:1016F0000D000200002307B5009303238DF80000BE
:101700008DF805308DF80110202383F31188114BDB
:10171000D3F8AC20002A15DD013AC3F8AC20D3F889
:101720009420009802F10801C3F894101060019809
:10173000506003F190029142074828BFC3F89430EB
:1017400001F042F901F014F9002383F3118803B08A
:101750005DF804FB30050020C805002070B5054683
:101760000E460024E1B28E420BD96B5C032B04D1F0
:101770000020FFF7BFFF0134F4E7042BFBD1022068
:10178000F7E770BD202208B582F3118803681B6853
:101790009847002383F3118808BD000073B5837E4A
:1017A00004468DF80530194BD3F8AC20002A18DD1B
:1017B0000021013AC3F8AC20D3F8942002F10800CC
:1017C000C3F89400117051709170D17001995160FB
:1017D00003F1900290420E4828BFC3F8943001F004
:1017E000F3F8E37E012B0FD12369268B251D13B15E
:1017F000284601F077FA234631462846054A02B0CA
:10180000BDE8704001F02ABA02B070BD300500207A
:10181000C8050020851700080368264A934206D1B0
:10182000254B9A6942F400629A619B697047B3F153
:10183000804F07D103F50433DA6942F00102DA611F
:10184000DB6970471D4A934204D11B4BDA6942F0B1
:101850000202F4E71A4A934204D1174BDA6942F0C4
:101860000402ECE7174A934204D1134BDA6942F0C1
:101870001002E4E7144A934204D10F4BDA6942F0B4
:101880002002DCE7114A934204D10B4B9A6942F4DF
:101890008032C9E70E4A934204D1074B9A6942F459
:1018A0000032C1E70B4A9342C0D1034B9A6942F41C
:1018B0008022B9E7002C01400010024000040040E3
:1018C00000080040001000400014004000400140AB
:1018D000004401400048014010B5FFF79DFF4FF460
:1018E0004042036801465A648269DA62027D0069F7
:1018F000012A00F1FF300CBF0722062203280BD873
:10190000DFE800F002323A42986940EA02129A6136
:101910001A6A42F001021A621A68486842F001022B
:101920001A602F4A0B899042497D02F5843233D1E7
:10193000946944F0040494619469072B44F0010411
:1019400094614FEA810242F009023AD80F249B00C9
:101950000168DBB29C4021EA04010160016802FADF
:1019600003F30B43036010BD986940EA02329A61A9
:101970001A6A42F01002CEE7D86940EA0212DA6130
:101980001A6A42F48072C6E7D86940EA0232DA6124
:101990001A6A42F48052BEE7124CA04203D1946905
:1019A00044F00804C7E7104CA04203D1946944F006
:1019B0001004C0E70D4CA042BED1946944F020044D
:1019C000B9E70F24083B9B004168DBB29C4021EA49
:1019D00004014160416802FA03F30B434360C2E72C
:1019E00000080140000C01400010014000140140BB
:1019F000074B01385A6922F080025A6110F8012F12
:101A000022B119680906FCD55A60F7E7704700BF94
:101A10000038014008B50248FFF7EAFF01BEFEE7C3
:101A20004031000808B5202383F31188094B1B6857
:101A300053B198470122084B5A61002383F3118860
:101A4000BDE8084001F092B90449054800F0DAFB0E
:101A5000F0E700BFF0090020000401404C3100080D
:101A60005531000808B5202383F31188094B5B68C2
:101A700053B198470222084B5A61002383F311881F
:101A8000BDE8084001F072B90449054800F0BAFB0E
:101A9000F0E700BFF00900200004014063310008B6
:101AA0005531000808B5202383F31188094B9B6842
:101AB00053B198470422084B5A61002383F31188DD
:101AC000BDE8084001F052B90449054800F09AFB0E
:101AD000F0E700BFF0090020000401406C3100086D
:101AE0005531000808B5202383F31188094BDB68C2
:101AF00053B198470822084B5A61002383F3118899
:101B0000BDE8084001F032B90449054800F07AFB0D
:101B1000F0E700BFF0090020000401407531000823
:101B20005531000808B5202383F31188094B1B6940
:101B300053B198471022084B5A61002383F3118850
:101B4000BDE8084001F012B90449054800F05AFB0D
:101B5000F0E700BFF0090020000401407E310008DA
:101B60005531000808B5202383F31188094B1B6801
:101B70005BB198474FF47872074B5A61002383F3A7
:101B80001188BDE8084001F0F1B80449044800F0AC
:101B900039FBEFE7080A0020000401408731000804
:101BA0005531000808B5202383F31188094B1B68C1
:101BB0005BB198474FF47C42074B5A61002383F393
:101BC0001188BDE8084001F0D1B80449044800F08C
:101BD00019FBEFE7040A00200004014090310008DF
:101BE000553100087047000045F25552084B1A6005
:101BF00006225A6028225043B0F5801F28BF40F6C5
:101C0000FF704AF6AA2238BF000A98601A6070472F
:101C10000030004008B5074B5A6A42F001025A6290
:101C20005A6A9207FCD5FFF7DFFF4CF6CC42024B15
:101C30001A6008BD0010024000300040274BF0B58C
:101C400004461F4687B002AD03F110062A46186805
:101C50005968083303C2B3421546F7D16B46386959
:101C600071681F4A03C35368C3F38103012B30D04B
:101C7000022B30D153685168C3F38343C80303F187
:101C800002031FD417494B435168C1F303111831A4
:101C9000694411F8101CCB40236051685268C1F3AD
:101CA0000221C2F3C2221831183269446A4411F881
:101CB000181C12F8182C23FA01F1D3406160A360BC
:101CC00007B0F0BD5168890301D50749DBE7074933
:101CD000D9E7064BD8E7064BD6E700BF0C30000823
:101CE0000010024000093D00808D5B00001BB70022
:101CF00000127A0006480749836805C8B3FBF1F370
:101D0000B2FBF1F2B0FBF1F1034800F063BA00BF9F
:101D1000E409002040420F009931000870B50068C6
:101D2000294D049CA84238D105F56045AE6946F4BA
:101D30008056AE61AD694FF441750129056002BF5F
:101D4000016841F080010160012A02BF026842F08F
:101D500002020260012B02BF036843F0010303602B
:101D6000194B9842194B0CBF9B685B68B3FBF4F3AB
:101D7000802B1DDC402B1DDC202B1DDC102B1DDCE3
:101D8000082B1DDC042B1DDC022BD4BF00230123F8
:101D9000026842EAC303036070BD0D4DA842CAD178
:101DA00005F5EC35EE6946F48046EE61ED69C2E773
:101DB0000723EDE70623EBE70523E9E70423E7E73D
:101DC0000323E5E70223E3E700300140E4090020B4
:101DD0000038004008B5202383F31188074B9B6827
:101DE000DB0703D5064B1B6803B19847002383F339
:101DF0001188BDE8084000F0B9BF00BF00300140C5
:101E00000C0A002008B5202383F31188074B9B6838
:101E1000DB0703D5064B1B6803B19847002383F308
:101E20001188BDE8084000F0A1BF00BF00380040A5
:101E3000100A0020884230B518D0421E12F8014F17
:101E400011F8010BA4F14103192B88BF2346A0F11F
:101E500041059CBF04F12003DBB2192D9CBF20304B
:101E6000C0B2181A01D1002CE8D130BD0020FCE727
:101E700070B508B9106868B103460E46184613F8E5
:101E8000014B16F8015B15B1AC42FAD1F5E72CB95C
:101E90002046146070BD23460CE015B90E4613F8B9
:101EA000014B16F8015BAC42F7D1002CF3D00021B6
:101EB00003F8011C1360EDE703461A46117801335D
:101EC0000029FAD1101A7047202804D00D288CBFA1
:101ED0000020012070470120704700F0DF004138EA
:101EE00019288CBF0020012070472DE9F74F81464B
:101EF0000446264614F8013B1846FFF7E5FF054661
:101F00000028F6D12D2B32D101252378B41C002ACC
:101F100059D0102A09D1302B07D1237803F0DF03E1
:101F2000582B4BD1102263780234002705F100486A
:101F300008F1FF38B8FBF2FB3E4602FB1B80019024
:101F4000A3F1300009285FFA83FA15D803469A42B4
:101F500022DD781C08D05E451BD802D1019883424F
:101F600017DC012706FB023614F8013BE8E72B2BB0
:101F700004BF2378B41CCAE75046FFF7AEFF58B140
:101F8000AAF1410ABAF1190F94BF372057201B1A42
:101F9000DDE74FF0FF37E7E77B1C0BD005B176425A
:101FA00021B10FB104F1FF39C1F80090304603B000
:101FB000BDE8F08F46460029F4D1F7E73023002A28
:101FC000B3D10822B1E7302BA7D00A22ADE72DE923
:101FD000F04385B0984601AB0646002508461F46EB
:101FE0009DF83090B0FBF2F4844602FB14012046C9
:101FF0000929CCB294BF30343734E4B2944505F1AA
:10200000010503F8014BEDD22C46336844451B68AB
:102010000BD249463046984718B10C2005B0BDE8B0
:10202000F0830134F1E7002DF8D03368013D3046EC
:102030001B68795D98470028F5D0EEE72DE9F04F51
:102040000B46054614464FF00A0B85B01E4616F89F
:10205000011B31B928462B685B6805B0BDE8F04F1D
:102060001847252902D02B681B6864E05F784FF081
:102070000008302F14BF20279E1C16F8011BA1F169
:102080003000C0B2092804D92A2905D154F8040B1C
:10209000C0B20BFB0808F0E72E2909D116F8011B86
:1020A000A1F13003092BF9D92A2901D10434F5E72C
:1020B00063293BD015D8412966D003D82529D2D031
:1020C0003346C3E7532939D05829F9D14346102262
:1020D0000097284654F8041BFFF779FF0028EFD03B
:1020E000B8E773292AD01BD8642901D06929E7D120
:1020F000A14659F8044B002C07DA2B682D212846FD
:102100001B6898470028A5D1644243460A2221460D
:1021100028460097FFF75BFF00289BD14C46CFE78E
:102120007529CDD143460A220097D2E72B6854F88F
:10213000041B1B68C9B228469847CFE7D4F8009023
:102140004846FFF7B9FE824609F1FF39B9F1FF3F72
:1021500009D019F8011F31B12B6828461B68984730
:102160000028F3D076E7A8EB0A08B8F1000F01DCED
:102170000434A5E72B68394628461B68984708F1C0
:10218000FF380028F1D065E70027D4E901982368DB
:102190005FFA88FA03934F4501DB0C3490E76FB97F
:1021A000039B1022D95D3023284600930223FFF7BA
:1021B0000EFF00287FF44EAF0137ECE7B8F1000FB7
:1021C000EED02B68514628461B6898470028E7D078
:1021D00040E700000FB407B504AB53F8041B0193AC
:1021E000202383F311880648019AFFF727FF002375
:1021F00083F3118803B05DF804EB04B0704700BFAF
:10220000000700200FB407B504AA52F8041B0448C5
:102210000192FFF713FF03B05DF804EB04B07047C1
:1022200000070020704701207047012070470120FF
:10223000704701207047000008B5064C40F2DE30C0
:1022400000F0DBFC20680028F8D003685B68984742
:10225000F4E700BF380B00200EB403B503AA52F810
:10226000041B00F580700192FFF7E8FE02B05DF8F4
:1022700004EB03B07047A0F58270EDE7104B984275
:1022800005D1104A936943F00403936170470E4BE4
:10229000984204D10B4A936943F00803F5E70B4BCE
:1022A000984204D1074A936943F01003EDE7084BC5
:1022B0009842EBD1034A936943F02003E5E700BF5E
:1022C0000008014000100240000C014000100140D5
:1022D00000140140034653F8902FD0F89C109B1A2D
:1022E0008B4228BF0B46C0F8A0307BB1002380F89A
:1022F000983043685B68DA60D0F8A0205A60C26802
:10230000126A1A601A6842F001021A607047436844
:1023100010B459680A6822F00F020A60597B1A68E3
:102320000E238B400146536051F8902FD0E927349B
:1023300022448A42A3EB040328BF00F11002C0F834
:102340009C30C0F8902033B9012380F8983003689E
:1023500010BC1B68184710BCFFF7BCBFFFF7D7BF06
:10236000D0F89C307F2B16D8D0F894305A1CC0F887
:1023700094201970D0F8942000F190039A4224BF61
:1023800000F11003C0F89430D0F89C300133C0F84D
:102390009C30002070470C207047FFF7E1BFA0F58C
:1023A0008070FAE790F898300BB1FFF793BF704751
:1023B000FFF7F8BFA0F58070FAE78368D0F8A42093
:1023C0005B685B68C3F154039B1A48BF543383B105
:1023D000531CC0F8A430024492F8A8300B70D0F817
:1023E000A430532B4FF0000301DDC0F8A430184691
:1023F00070470B20704700007FB590F8FC30044612
:10240000002B4ED00025384E20460DF10701FFF776
:10241000D4FF002845D194F850319DF8072043B9E6
:10242000B4F85211736A5B1A40F2DE319BB28B42F0
:1024300003D984F85051C4F84C51736A082AA4F89F
:102440005231D4F84C3105D1002BDDD0013BC4F81A
:102450004C31D9E70D2A01D00A2A24D1002BD3D040
:102460000025234483F80851204904F5A47204F59B
:102470008470FFF7FDFC0123C4F8540184F8503147
:102480008DF80D3084F8FC50202383F31188184B0D
:10249000D3F8AC20AA420FDC00F06AFA002383F3E1
:1024A000118804B070BD3E2BAED8591C2344C4F82B
:1024B0004C1183F80821A7E7013AC3F8AC20D3F800
:1024C0009420039802F1080104F58274C3F8941073
:1024D0001460506003F190029142064828BFC3F88F
:1024E000943000F071FAD7E7004001408B300008CB
:1024F00030050020C8050020C268D2E90013054A53
:102500009342054A0CBF92685268B2FBF1F29A609E
:10251000704700BF00380140E4090020C36837B5A8
:10252000044698689989FFF7A9FE584B07299A69CC
:1025300042F001029A6179D80F2589000268C9B278
:102540008D4022EA050202600922056802FA01F1C3
:1025500029430160E2684E4952688A4276D19A69FD
:1025600042F480429A619B692046FFF7C5FF002232
:10257000E0680921436880691A612346454A00F0F2
:10258000CDFCE36841685A686060101D8860186A75
:10259000012508600C2184F89850D160C021186989
:1025A0005161998AFFF76AFEC3688D401D43072970
:1025B000C5605BD80F2289000368C9B28A4023EA4C
:1025C000020303600823026803FA01F1114301606A
:1025D0000023E0681A460921C06900F09FFCE16809
:1025E00043684A68A060101D986004F1A800D86094
:1025F0005420496A58601960196841F00101196056
:10260000D36843F40053D360234B1A6802B91C60AB
:10261000224C236843B9009380224FF49071204BE1
:10262000204800F0B1FA206003B030BD0F25083912
:1026300089004268C9B28D4022EA0502426009223F
:10264000456802FA01F12943416083E716498A424D
:1026500005D1DA6942F40032DA61DB6984E71349B3
:102660008A4281D1DA6942F48022F5E70F220839E3
:1026700089004368C9B28A4023EA02034360082301
:10268000426803FA01F111434160A1E700100240E2
:10269000003801405D230008380B00203C0B00206F
:1026A00039220008180A0020004400400048004079
:1026B000202383F31188012380F8FC30002383F367
:1026C00011887047FFF7F4BFA0F58270FAE708B5EC
:1026D00000F0A2FBBDE8084000F000B800F02AB806
:1026E0000022034B58631A610222DA60704700BF70
:1026F000004001400022014BDA6070470040014079
:10270000014B5863704700BF00400140084B10B5B3
:102710001A69920708D500241C61202383F31188CD
:1027200000F0AAF984F31188BDE8104000F01EBB48
:1027300000400140114B02219A69182042F4803276
:102740009A610F4A9B69536843F4800353600D4BB1
:102750009A6842F21073B2FBF3F20B4B013A9A62A1
:102760004FF6FF72DA6200229A615A63DA605A60A9
:1027700001225A611A6000F009B800BF001002403F
:10278000002004E0E409002000400140012209018A
:1027900000F1604303F56143C9B283F8001300F010
:1027A0001F039A4043099B0003F1604303F5614313
:1027B000C3F880211A6070470022024BC3E900333E
:1027C0009A607047400B0020002382680375054B18
:1027D0001B6899689142FBD25A680360426010609E
:1027E00058607047400B002008B5202383F3118800
:1027F000027D0023052A06D8DFE802F00B05050359
:10280000120E826913604FF0FF338361FFF7DCFF24
:10281000002383F3118808BD8269936801339360B4
:10282000D0E9003213605A60EDE7000000238268AF
:102830000375054B1B6899689142FBD85A68036081
:102840004260106058607047400B002038B50C4C57
:102850002569236828751A68546022600122236163
:102860001A75EFF309832A69243B9A4202D9054875
:1028700000F0FCF829462069BDE83840FDF77CBC33
:10288000400B0020243200084FF6FF7330B5994208
:1028900004460B4D87B010D02B690A4A01A800F0FE
:1028A000DDF92046FFF7D2FF049B13B101A800F029
:1028B00019FA2B69986907B030BDFFF7C7FFF8E731
:1028C000400B0020E927000870B5114E8161336983
:1028D00081689A680446914203D8BDE87040FFF7CA
:1028E00073BF1846FFF7A2FF012305463461237525
:1028F000EFF309830269243B9A4202D9054800F0AC
:10290000B5F829462046BDE87040FDF735BC00BF4C
:10291000400B002024320008044B1A681B699068A1
:102920009B68984294BF002001207047400B002014
:1029300038B50D4C236820691A6854602260012262
:102940001A752361FFF772FF0546EFF309830269E9
:10295000243B9A4202D9054800F088F829462069AC
:10296000BDE83840FDF708BC400B002024320008C9
:1029700008B5FFF7D1FF18B1BDE80840FFF7D8BF91
:1029800008BDFFF7D5BFC0E90000816070470000B7
:10299000826810B4541E002C846011DA21B9826060
:1029A0004FF0FF3010BC7047064B42681B6910BCEB
:1029B000986118605A60136043600520FFF764BF98
:1029C0000020EFE7400B0020826803460132002A16
:1029D000826007DC006802681A605360002383612C
:1029E000FFF7F2BE7047FEE710B5194CFFF7E4FEA3
:1029F00000F028F980222046164900F087F8164B8F
:102A000044F8140C036101230375144B144AD9686C
:102A100021F4E0610904090C0A43DA60D3F8FC20D0
:102A2000104942F08072C3F8FC200A6842F00102AB
:102A30000A601022DA77202283F82220002383F311
:102A4000118862B6BDE81040074800F083B800BFA7
:102A5000640B0020333200080001002000ED00E08C
:102A60000003FA05001000E04032000872B6014B86
:102A70001862FEE7400B00202DE9F84F214D4FF082
:102A800000082F46DFF8809057F8144FD9F824003B
:102A9000EB8B80B22289C61AB6B2B2421DD84FF073
:102AA000200A2389EA8BF61A1A442368EA83BB4278
:102AB0005F60D4F80CB06B61B6B2C4F80C8001D181
:102AC000FFF718FE88F311882069D8478AF3118828
:102AD0006C692389B342E4D9D8E76A69BA420ED057
:102AE0001189E8830B441B1A13812389022B2CBF05
:102AF000C0180230BDE8F84F80B2FFF701BEBDE854
:102B0000F88F00BF400B002000400140826002228D
:102B100082827047D0E9012343F8102CA3F14402CC
:102B200043F8142C026943F8442C426943F8402CC2
:102B3000074A43F8242CC268A3F1200043F8182C5C
:102B4000022203F80C2C002203F80B2C704700BF64
:102B50008901000810B50446D4E901031A1A984205
:102B600088BF0022552100F048FA202383F3118802
:102B70002046FFF7CFFF00210446FFF7A5FE002304
:102B800083F31188204610BDC842F8B516460C469E
:102B900034BF0A46002255211F46054600F02DFA93
:102BA000202383F31188203C2C44A4F12403E36008
:102BB000069B002144F8203C084B204644F8043C86
:102BC00002232561A38244F8247CA660FFF77CFEE3
:102BD000002383F311882046F8BD00BF8901000857
:102BE000024B1B6998610F20FFF730BE400B00209D
:102BF000202383F31188FFF7F3BF08B50146202394
:102C000083F311880820FFF73FFE002383F3118828
:102C100008BD0000054B1B6921B1036098610320CA
:102C2000FFF732BE4FF0FF30704700BF400B00206F
:102C30000346006820B100221A608161FFF7C4BD1D
:102C400070470000044B03F11402C3E905224FF65C
:102C5000FF72DA61704700BF400B0020F8B5C0E991
:102C600003231E4F1E4B0646586A3B4653F8145F1B
:102C7000022938BF02219D4280B20BD1F88308445B
:102C8000C7E9056680B2C6E900553181BDE8F84064
:102C9000FFF726BDFB8B2A89C01A80B201448CB293
:102CA000844203D2A41A2D68A4B205E0A24203D93B
:102CB000181980B2FFF724FD2B89A3420CD36B684F
:102CC000356073601E606E6034812B891C1B4FF66B
:102CD000FF732C81BB83F8BDE41AE4E7400B0020AE
:102CE000004001401A4930B40A4652F8144F0025FA
:102CF000844203680BD0416893420B605960C56001
:102D000003D01A8901890A441A8130BC7047934262
:102D10004B615A60E56002D130BCFFF7EBBC18890B
:102D20002289C98B104480B218810A4B5B6A9BB21E
:102D30005A1A92B29042E8D930BCCB1A03449BB2E3
:102D4000012B9CBF023290B2084480B2FFF7D8BC7E
:102D5000400B002000400140EFF30983203383F350
:102D60000988002383F3118870470000202310B5E1
:102D700083F311880D4B5B6813F4006312D0EFF3FB
:102D800009844FF0807344F8043CA4F1200383F3DA
:102D90000988FFF7C1FD18B1054B44F8083C10BD88
:102DA000044BFAE783F31188F9E700BF00ED00E078
:102DB000990100089C010008704770477047FEE7C2
:102DC00070B50825134CD4E9010201462368043B81
:102DD0008A4219D8D31C1B1AC11E23F003038A424E
:102DE00038BF00231844E368C11EDA1C121A22F00F
:102DF0000302994288BF0022002100F0FEF8013D45
:102E000004F11004DFD170BD53F8046F41F8046B76
:102E1000DEE700BF583200084FF0FF3108B50E4B17
:102E20001A6919611A6900221A611869D868D9608B
:102E3000D968DA60DA68DA6942F08052DA61DA6910
:102E4000DA6942F00062DA61DB6900F007F8BDE898
:102E5000084000F0D1B800BF00100240002319461E
:102E6000094A10B5C2E90033084C04EB83004068FE
:102E7000016002EB430004331C2B8160F5D14FF05D
:102E8000FF32034B5A6010BD300C0020D8320008CE
:102E90000000024006282DE9F84336D801261C4CD4
:102EA00086402768374230D1DFF868804FEA001942
:102EB00008EB0015013044F8302004EBC0004360FB
:102EC0003743154B2760586940F0010058615B6932
:102ED0004AB16268AB681A4202D1E87BFFF756FC40
:102EE00063683343636008EB09014B68497B1A68E8
:102EF00058F8090022F00F021A600E228A40426040
:102F000000221A602846BDE8F8830025FAE700BFD2
:102F1000300C0020D83200080010024010B52024E8
:102F200084F31188FFF7B6FF002383F3118810BDE7
:102F300010B40468437B21684268D940126801F0EC
:102F40000E010A420ED0827B01FA03F36360064B46
:102F5000013253F832402CB103EBC20358682346C8
:102F600010BC184710BC7047300C002008B503484F
:102F7000FFF7DEFFBDE80840FFF7F8BED8320008D3
:102F800008B50348FFF7D4FFBDE80840FFF7EEBEE1
:102F9000E832000808B50348FFF7CAFFBDE808405B
:102FA000FFF7E4BEF832000808B50348FFF7C0FF9A
:102FB000BDE80840FFF7DABE0833000808B503484B
:102FC000FFF7B6FFBDE80840FFF7D0BE1833000892
:102FD00008B50348FFF7ACFFBDE80840FFF7C6BEE1
:102FE0002833000808B50348FFF7A2FFBDE80840F2
:102FF000FFF7BCBE383300087047034602449342D3
:0A30000000D1704703F8011BF9E747
:10300C00000000000000000001020304060708098C
:10301C000000000001020304456E746572696E675E
:10302C0020736C6565700D004F6B0D0A0042616476
:10303C00506172616D0D0A00564261743A2025751B
:10304C006D563B2050657263656E743A2025750D84
:10305C000050696E670056657273696F6E0032308E
:10306C003233303432325F3130323600466C6F7767
:10307C0065724F66664279526164696F004E00203A
:10308C002C004F6E004F666600436D64556E6B6E80
:10309C006F776E0D0A0052436D640D000D255320A1
:1030AC0025530D00E01064000E105000E20E3C00A1
:1030BC00B60D2800A80C1400E60A0A00434320525F
:1030CC007374204661696C0D0043432057204661A0
:1030DC00696C0D00434320522F57204661696C3BAD
:1030EC002072706C3D25750D0043432052204661C3
:1030FC00696C0D000000000000000000350E000897
:10310C00434320696E6974206F6B0D000B080C0033
:10311C00105B11E51213154621B62210191D1A1C4D
:10312C001BC71C001DB223EA242A2500261F2C8154
:10313C002D312E090D486172644661756C740D0059
:10314C00566563746F72353800556E68616E646CC9
:10315C0065642025530D00566563746F723543000A
:10316C00566563746F72363000566563746F7236D1
:10317C003400566563746F72363800566563746F2D
:10318C0072394300566563746F7245300041484292
:10319C00467265713D25754D487A3B204150423150
:1031AC00467265713D25754D487A3B20415042323F
:1031BC00467265713D25754D487A0D000000000082
:1031CC00000000009D170008000000000000000037
:1031DC0025220008F92300089B230008B1230008CE
:1031EC0059220008272200082F220008C5260008B3
:1031FC0000FFFFFF000000009F230008B52300081C
:10320C00FCFEFFFF00000000C92600087722000822
:10321C002B22000833220008737461636B206F76D5
:10322C006572666C6F77006D61696E0069646C65C0
:10323C000000000038320008800B0020300C002009
:10324C0001000000E72900080000000050330008CE
:10325C00700C0020700C0020700C00205033000803
:10326C0000000000000000000000000050330008C7
:10327C0000000000000000000000000050330008B7
:10328C0000000000000000000000000050330008A7
:10329C000000000000000000000000005033000897
:1032AC000000000000000000000000005033000887
:1032BC000000000000000000000000005033000877
:1032CC0000000000000000000000000000000240B0
:1032DC0008000240010000000000000B000002404A
:1032EC001C000240020000000004010C000002401F
:1032FC0030000240040000000008020D00000240F3
:10330C004400024008000000000C030E00000240C4
:10331C0058000240100000000010040F0000024092
:10332C006C00024020000000001405100000024058
:0C333C0080000240400000000018061154
:083348000100000058070020FD
:04000005080001717D
:00000001FF
