:020000040800F2
:10000000000200206D0100086F010008192000089F
:100010006F0100086F0100086F0100086F01000800
:100020006F0100086F0100086F01000889320008A5
:100030006F0100086F0100086F0100086F010008E0
:100040006F0100086F0100086F0100086F010008D0
:100050006F0100086F0100083921000879210008AC
:10006000B9210008F9210008392200088D34000860
:10007000A1340008B5340008C9340008DD34000894
:10008000F1340008053500086F0100086F01000811
:100090006F0100086F0100086F0100087922000855
:1000A000452C00086F0100086F0100086F0100086F
:1000B0006F0100086F0100086F0100086F01000860
:1000C0006F0100086F0100086F0100088D2400080F
:1000D000BD2400086F0100086F0100086F010008CF
:1000E000B92200086F0100086F0100086F010008C5
:1000F0006F0100086F0100086F0100086F01000820
:100100006F0100086F0100086F0100086F0100080F
:100110006F0100086F0100086F0100086F010008FF
:100120006F0100086F0100086F0100086F010008EF
:100130006F0100086F0100086F0100086F010008DF
:100140006F0100086F0100086F0100086F010008CF
:100150006F0100086F0100086F0100086F010008BF
:0C016000510A000825170008691B000860
:10016C0016E000F000F8FEE72DE9F04FC1F80CD0D6
:10017C00C3689D46BDE8F08F002383F311882846A1
:10018C00A047002002F0C2FF02F091FE00DFFEE764
:10019C0072B6274880F30888264880F309882648D9
:1001AC004EF60851CEF200010860022080F314884C
:1001BC00BFF36F8F03F092F803F091F84FF05530C6
:1001CC001E491B4A91423CBF41F8040BFAE71C49FB
:1001DC00184A91423CBF41F8040BFAE719491A4AF4
:1001EC001A4B9A423EBF51F8040B42F8040BF8E745
:1001FC0000201749174A91423CBF41F8040BFAE71B
:10020C0003F070F803F06CF8134C144DAC4203DAA5
:10021C0054F8041B8847F9E701F01CF9104C114DF8
:10022C00AC4203DA54F8041B8847F9E703F059B8D9
:10023C000002002000060020000000080000002042
:10024C0000020020C838000800060020000600202C
:10025C0000060020800F0020600100086C010008DF
:10026C006C0100086C010008034613F8012B002AEE
:10027C00FBD1181A01387047816A10B5044619B1C0
:10028C0088470023A36210BD2430BDE8104002F063
:10029C005DBF0000104B984205D1104A936943F0A2
:1002AC000403936170470E4B984204D10B4A936937
:1002BC0043F00803F5E70B4B984204D1074A9369C6
:1002CC0043F01003EDE7084B9842EBD1034A9369D6
:1002DC0043F02003E5E700BF000801400010024096
:1002EC00000C014000100140001401400368197318
:1002FC0003689A68D207FCD5187B704710B5FFF7D6
:10030C00C9FF134A0729936943F0010393610ED87F
:10031C000F2289000368C9B28A4023EA02030360F2
:10032C000923026803FA01F11143016010BD0F2289
:10033C00083989004368C9B28A4023EA0203436042
:10034C000923426803FA01F111434160EEE700BF53
:10035C000010024001238288012903FA02F30BD01A
:10036C00022911D039B90A4A916819439160D168B0
:10037C0021EA0303D3607047054A916821EA03011F
:10038C009160D1680B43F5E7014A91681943F7E78F
:10039C000004014070B50446A6790068A588FFF7F3
:1003AC0079FF002E3DD00123C268AB40022E0CBF5A
:1003BC0022EA030313430822C360072D33D8AB0092
:1003CC000F250668DBB29D4026EA05050560056829
:1003DC0002FA03F32B430360A08825682A4E00F031
:1003EC000302B542C0F387034FEA82022AD10125EA
:1003FC009B0003F1804303F580339E6805FA02F2FB
:10040C0032439A600126214D86402B6820463343A7
:10041C002B606B6823EA06036B60FFF79BFF6E6132
:10042C0070BD0422C9E70F26083DAD004368EDB24C
:10043C00AE4023EA06034360436802FA05F51D4308
:10044C004560C9E7124EB54207D19B0003F18043CA
:10045C0003F5803302259E68D0E70E4EB54207D1D6
:10046C009B0003F1804303F5803303259E68C5E7A9
:10047C00094EB542C6D19B0003F1804303F580338E
:10048C0004259E68BAE700BF000C0140000401403F
:10049C000010014000140140001801400123428A61
:1004AC0081689340034A8868184002D0013AFAD117
:1004BC0001207047B88201000123C18AC2688B40B9
:1004CC00136170470148FFF7D7BE00BF000600203C
:1004DC007F2908B2C4BFA1F5807108B200EBD070BF
:1004EC0040104A3840B270472DE9F0414FF00108F6
:1004FC00C38A1646C26808FA03F3536104460F46D2
:10050C00FFF7CCFF054630B12046FFF7D5FF454637
:10051C002846BDE8F08104F1040847F0800140460C
:10052C00FFF7E4FE294684F820004046FFF7DEFE84
:10053C0030702046FFF7C0FFEAE72DE9F0414FF09D
:10054C000108C38A1646C26808FA03F353610446CD
:10055C000F46FFF7A3FF054630B12046FFF7ACFF6F
:10056C0045462846BDE8F08104F10408394640466A
:10057C00FFF7BCFE31464046FFF7B8FE2046FFF7BA
:10058C009BFFEEE7F8B50127C38AC26807FA03F3AD
:10059C00536104460E46FFF781FF054628B12046FD
:1005AC00FFF78AFF3D462846F8BD3146201DFFF770
:1005BC009DFE84F820002046FFF77EFF94F8203043
:1005CC0003F0700384F82030EDE73A21FFF7DABF2F
:1005DC007FB50446C068E18AFFF75CFE072940D866
:1005EC000F2289000368C9B28A4023EA0203036020
:1005FC000123026803FA01F111430160218AA0680A
:10060C00FFF77CFE618AA068FFF778FEA18AA068DC
:10061C00FFF774FE012104F11800FFF7BBFE204622
:10062C00FFF74AFF0023524A1946CDE90023201D4B
:10063C001A4601F0C9FE626830211368204643F067
:10064C0040031360FFF79EFFD8B1626849481368F6
:10065C0023F04003136002F043F80125284604B050
:10066C0070BD0F22083989004368C9B28A4023EA59
:10067C00020343600123426803FA01F11143416014
:10068C00BCE7072206212046FFF757FF08B13A487E
:10069C00E1E78DF80F00062120460DF10F02FFF760
:1006AC0023FF054640B99DF80F60072E06D0314652
:1006BC00324802F015F8D0E73148CCE72046FFF776
:1006CC0084FF20220D212046FFF737FF25220E2123
:1006DC002046FFF732FFED220F212046FFF72DFFBA
:1006EC00A32213212046FFF728FFFF2214212046C6
:1006FC00FFF723FF082218212046FFF71EFF324682
:10070C0003212046FFF719FF3F2229462046FFF719
:10071C0014FF062202212046FFF70FFF0C22314660
:10072C002046FFF70AFF442208212046FFF705FF69
:10073C0050223E212046FFF700FF3246162120466C
:10074C00FFF7FBFE302217212046FFF7F6FEA08BA9
:10075C00092809D8042809D80630072102F0ACFA78
:10076C00084801F0BDFF79E72820F6E71720F4E7E9
:10077C00A02E6300503500085D3500086835000870
:10078C007D350008883500083621FFF7FBBE38B5EB
:10079C0004460D4694F820301BB12046FFF7F4FFB9
:1007AC00F8E72A462046BDE838400A21FFF7C5BEC7
:1007BC00F8B505460E4695F820401CB12846FFF7C3
:1007CC00E3FFF8E7771C17F8142016F814102846E6
:1007DC000134FFF7B2FE142CF5D1F8BD3421FFF72C
:1007EC00D1BE2DE9F7430E46904678210DF1070254
:1007FC0004461F46FFF778FE90B99DF90730002B91
:10080C000EDA4FF00109E38AE26809FA03F3204695
:10081C005361FFF743FE054620B12046FFF74CFE1F
:10082C00012527E004F10409FF214846FFF75EFD8E
:10083C003744BE424FF00001484606D0FFF756FD44
:10084C008DF8070006F8010BF3E7FFF74FFD0021C9
:10085C008DF807004846FFF749FD2046FFF72CFEB0
:10086C00B8F1000F06D020469DF80710FFF730FEB8
:10087C0088F80000284603B0BDE8F0832DE9F0416C
:10088C00DDF818801E4604460F461546FFF79DFE00
:10089C00202383F311882046FFF7A0FF394604F18B
:1008AC00240002F045FC002383F31188013007D0AB
:1008BC003346424629462046BDE8F041FFF791BF3A
:1008CC002046FFF761FF0220BDE8F08110B442F230
:1008DC00107461434FF47A7401F2E731B1FBF4F117
:1008EC0010BC89B2FFF7CABF344D04462E468FB5F3
:1008FC00DFF8DC8095F820309BB136213046FFF7CD
:10090C0041FE0028F6D02E4F082322461B212846F4
:10091C000097FFF7DBFF98B140F68C2002F0FBFB51
:10092C00E8E733212846FFF72DFE0028EBD13D21C7
:10093C003046FFF727FE96F82030002BF7D1E2E780
:10094C002368434530D102904FF4E060A3792179BC
:10095C0062798DF80A30ADF80C0020238DF8081060
:10096C008DF8092083F31188164BD3F8AC20002A9C
:10097C0015DD013AC3F8AC20D3F89420029802F1AB
:10098C000801C3F8941010600398506003F19002B2
:10099C0091420D4828BFC3F8943002F0ABFA02F034
:1009AC007DFA002383F3118897F900306279009364
:1009BC002179A379054801F093FEADE700060020EC
:1009CC003C0600208807002020080020A0350008E5
:1009DC00A15E11CA08B50148FFF786FF2C0600205E
:1009EC0013B51448FFF7F4FD044608BB0822062192
:1009FC001048FFF7A2FD302217210E48FFF79DFD8E
:100A0C0007210C48FFF7C3FE50223E210948FFF78F
:100A1C0094FD09490748FFF7CBFEFF224FF4907174
:100A2C00064B0748009402F041FB204602B010BD73
:100A3C000124FAE700060020B9350008E109000896
:100A4C00400600200D4B0E4A0E491A600E4A0F4804
:100A5C005A60A2F52052C3E902220D4AC3E90412DE
:100A6C000C4A0D499A6102229A8300228860C3E9DC
:100A7C0009229A7783F82020704700BF00060020D7
:100A8C009C3500080500060000300140D104000828
:100A9C0007000400000C0140000D00201D4B07B5A1
:100AAC001B6A59680A6822F00F020A60597B1A689F
:100ABC000E238B405360184A936823F00103936014
:100ACC00202383F3118805238DF80530134BD3F8BD
:100ADC00AC20002A18DD0021013AC3F8AC20D3F871
:100AEC00942002F10800C3F89400117051709170B9
:100AFC00D1700199516003F190029042084828BFCF
:100B0C00C3F8943002F0F6F9002383F3118803B094
:100B1C005DF804FB600700200024014088070020DA
:100B2C00200800201022036A5B68D8605A6040F2EB
:100B3C0082521A601A6842F001021A60044B9A68D9
:100B4C0042F001029A609A6842F480029A607047FF
:100B5C0000240140CA0010B502F10803541CA34242
:100B6C0034BF01230823134400EB011100EB4300B5
:100B7C00002331F8022B81421344FAD1D80810BD5E
:100B8C00054B0139DA6A22F47002DA62DA6A42EA57
:100B9C000152DA62704700BF00240140092901EBC1
:100BAC00410010B54FF007010B4B09D81C6981406F
:100BBC0024EA01011961196982400A431A6110BDC6
:100BCC00DC681E38814024EA0101D960D968824072
:100BDC000A43DA60F3E700BF00240140062910B590
:100BEC000FD81F24194B0139586B01EB81018C4034
:100BFC0020EA04005863586B02FA01F1014359636F
:100C0C0010BD0C290FD81F24104B0739186B01EBA2
:100C1C0081018C4020EA04001863186B02FA01F180
:100C2C0001431963ECE71029EAD81F24074B0D394F
:100C3C00D86A01EB81018C4020EA0400D862D86AA2
:100C4C0002FA01F10143D962DAE700BF0024014046
:100C5C000F4B82B09A6842F001029A600022019216
:100C6C00019A072A02D8019A0132F8E79A6842F0F1
:100C7C0008029A60064B19469A681207FCD49A68C7
:100C8C0042F004029A608B685B07FCD402B0704798
:100C9C000024014038B5274B10215A68054622F430
:100CAC0040425A609A69012442F400729A619B692D
:100CBC00214B9A6842F001029A609A6842F41E0233
:100CCC0042F480729A605A6842F480725A60FFF75C
:100CDC0057FF05220321FFF761FF21460134032250
:100CEC002846E4B2FFF77AFF092CF6D10522112130
:100CFC002846FFF753FF2146013411222846E4B25F
:100D0C00FFF76CFF112CF6D12846FFF7A1FF00234B
:100D1C000A4A18460F2102F08BFB094A43682862E5
:100D2C009A6040F282521A60034A936823F00103DE
:100D3C00936038BD0010024000240140A90A00084D
:100D4C004C240140074A136943F004031361022247
:100D5C00054B1A601A6842F004021A6000BF00BF0B
:100D6C0030BF704700ED00E000700040C3680BB16D
:100D7C0002F048BA7047F0B56FF0404700F12C0410
:100D8C0000F1B80C1C34644508D054F80C5C7E1986
:100D9C0054F81C5C05EB86056963F3E76FF040467D
:100DAC0000F19C0100F594771C31B94208D051F840
:100DBC000C4C351951F81C4C04EB85046263F3E7B9
:100DCC006FF0404500F5867200F5CC701C32824203
:100DDC0008D052F80C1C6C1852F81C1C01EB840146
:100DEC004B63F3E7F0BD002313B51A4619460446CE
:100DFC00FFF7C1FF0023C4F87C3102B010BD000026
:100E0C0070B50446068B051D2846FFF7AFFF234639
:100E1C0031462846BDE87040014A02F0ADB900BF2A
:100E2C00D51C000813B542F210737824C27881786F
:100E3C0000885143C1EB0121B1FBF3F1B0FBF4F39A
:100E4C0004FB13036424C2EB0222B2FBF4F23C2435
:100E5C009BB23C3B002BB8BF5B42C3F13C034B4302
:100E6C00B3FBF4F3521AD2B2114413443B28C9B267
:100E7C00DBB20DD977280FD9B32810D9EF2819D99F
:100E8C00B0F5967F104617D21A460B46014606E07F
:100E9C0010460A46194601E010461A460346002041
:100EAC0062F3070061F30F2063F3174020F07F40DB
:100EBC0002B010BD0846EDE70A46E7E713B5044655
:100ECC000846FFF7AFFF0190C0F30743C0F30722BA
:100EDC00C1B22046FFF74FFF019BC4F87C3102B032
:100EEC0010BD000070B513490446006D00F050FFB2
:100EFC0030B9236810495B682046BDE8704018473C
:100F0C000E49206D00F044FF48B9236820465D6807
:100F1C000B4AAC46BDE870400A4B0B4960470B4985
:100F2C00206D00F035FF18B1236809495B68E3E7D1
:100F3C0070BD00BFE1350008E6350008EB35000850
:100F4C0001360008F33500084F3600080936000852
:100F5C000D36000870B5061D044630460D46FFF7E9
:100F6C0005FF42F210724FF47A7302FB05F101F2A5
:100F7C00E731B1FBF3F130462346BDE87040024A3D
:100F8C0089B202F0F9B800BFD51C000870B5C5696C
:100F9C00D0F87C31D5F8052004469A4200F08780C1
:100FAC00D5F801606979AA79EB7956B9FFF7E3FEB8
:100FBC00E369D3F805200933C4F87C21E3610020F0
:100FCC0074E090F87C0181422BD9013084F87C01CB
:100FDC0094F87D11914227D2013184F87D1194F857
:100FEC007E219A4223D2013284F87E2194F87F31FB
:100FFC002A7A93421ED2013384F87F31204694F82A
:10100C007E3194F87D2194F87C11FFF7B4FEE069F1
:10101C00D4F87C21D0F805309A420ED10930E06129
:10102C00CDE7D5D20138D1E7D9D90139D5E7DDD90A
:10103C00013AD9E7E2D9013BDEE794F87C11437918
:10104C00D0F801208B421CBF0431B2FBF1F194F8B3
:10105C007D3118BF4D1C817908BF002599421BBFFB
:10106C000433B2FBF3F30021591CA94294F87E31EE
:10107C0038BF2946C579007A9D421BBF0433B2FBA9
:10108C00F3F300230133994238BF194694F87F31AA
:10109C0098421BBF0433B2FBF3F20022013291429F
:1010AC00204638BF1146FFF755FF012070BD0935AA
:1010BC00C56184E7202208B582F311884FF0FF3216
:1010CC000368C0E906111B6802629847002383F38A
:1010DC00118808BD836910B5044663B1202383F3DE
:1010EC001188036913B10430FFF740FE0023C4E9F3
:1010FC00063383F3118823682046BDE810405B68F3
:10110C001847000037B500213B48FFF723FD0121AC
:10111C0004463948FFF71EFD4FF496616143B1FB5D
:10112C00F0F149008BB2B3F5875F53D241F20D0257
:10113C00934251D840F6E16293424FD840F6B552F3
:10114C0093424DD840F6A74293424BD840F6E52245
:10115C00934249D90523294A02EB83039D78284CF5
:10116C002A46284801F0BCFA62782378264843EADC
:10117C000223ADF80030A3788DF80230E3788DF8B7
:10118C000330FFF7A7FF4FF4876001F0C4FF142D65
:10119C002CD81E4B23606278237801A943EA0223E2
:1011AC00ADF80430A37818488DF80630E3788DF844
:1011BC000730FFF783FE43F6C43001F0ACFF124852
:1011CC00FFF788FF009B12490F482360FFF772FF5F
:1011DC0003B030BD0023BEE70123BCE70223BAE70E
:1011EC000323B8E70423B6E70025B8E74F2D94BFD7
:1011FC00084B094BCEE700BF600700207C36000887
:10120C00780B00201A3600083C08002000006464AB
:10121C008E0B00201E00646478006464804D8FB5D2
:10122C00804F05F1980600238DF80D300293202392
:10123C0083F311884FF6FF71304601F03FFEA0B9E1
:10124C00D5F89020784802F10803C5F89030834215
:10125C0028BF2B461168143002915268C5F89030A3
:10126C00039201F047FE01F019FE002383F311886D
:10127C009DF80D30013B062BD5D801A252F823F076
:10128C00A9120008CB130008BB1200087B1300083E
:10129C002714000833120008B5130008029C2046DE
:1012AC00FFF720FE236820461B689847BBE79DF894
:1012BC0009809DF80840414622465C4801F010FA2E
:1012CC00B8F1000F18D1012C0CD1594A137883F0C6
:1012DC000103137023B157495748FFF7EBFEA2E700
:1012EC005649F9E7022C9ED1514B1B78002B9AD111
:1012FC005348FFF717FC96E708F1FF33012B92D800
:10130C00012C90D04F4CB8F1010F238828D1B3F5A4
:10131C00B47F21D2013323804A48FFF783FD474B2A
:10132C006278C3F805002378434843EA0223ADF8FA
:10133C000430A37801A98DF80630E3788DF80730D6
:10134C00FFF7BCFD202383F311883F48FFF758FDBE
:10135C00002383F3118866E7002323706370DBE7B7
:10136C000BB1013BD7E7682323700123F6E7354C1B
:10137C000421204600F01EFB2F48FFF7ABFE40F285
:10138C00FA5001F0C8FE237862782B4843EA022316
:10139C00ADF80430A37801A98DF80630E3788DF808
:1013AC000730FFF78BFD3EE724499DF809209DF897
:1013BC000A309DF808008A714871CB718CE71C4B80
:1013CC001B78002B3FF42FAF002301931A4BD3F85B
:1013DC007C21002A7FF427AF9A69002A7FF423AF7F
:1013EC00DB69002B7FF41FAFBC6814F001047FF4A1
:1013FC001AAF164801F074F94FF4E17001F08BFE4E
:10140C00202383F31188124A536843F4807353608A
:10141C00FFF798FC84F3118805E7FFF773FE02E7EA
:10142C008807002000080140180800203336000807
:10143C00380800207C0B00203C0800208E0B00207C
:10144C0060070020780B0020DC0900203E360008E5
:10145C0000700040F7B5614C6148E36943F080537C
:10146C00E361E3694368D9071FD5A3695D4943F07C
:10147C000403A361CA6822F00102CA600A6822F060
:10148C000F020A600A6842F008020A608A68D207F2
:10149C000BD5554D8B68DB0705D4436843F480733B
:1014AC004360FFF74FFC013DF4D1504800F01EFFA4
:1014BC0001F0A3FB01F02EFD01224D4D4D4B05F12A
:1014CC00A40012211A70C5E9245501F0F2FC002188
:1014DC0005F1980001F0EDFC474801F0B5FA474BD7
:1014EC00474A484D5A604849484A494801F0F8F87B
:1014FC003E4800F055FF2846042100F051FA298897
:10150C00444801F0EDF82B880026B3F5B47F81BF79
:10151C006FF078032B7000236B706423AB70EB704F
:10152C003D4D05F12C07B8191C3600F0D1FC702E7E
:10153C00F9D1002605F19C07B8191C3600F0C8FC3F
:10154C00702EF9D1002605F58675A8191C3600F009
:10155C00BFFC702EF9D100232F4819461A46FFF70D
:10156C000AFC2848FFF75EFC2C490190C1F80500E5
:10157C002948FFF79FFD1B4DAE6816F0010604D0FD
:10158C0040F2762001F0C7FDF6E700F08FFAA36970
:10159C00234843F00403A3612B6823F470432B60AE
:1015AC00A36943F00403A3612B6823F470632B60DD
:1015BC002B6843F480732B6004232B61FFF76AFBC9
:1015CC001848FFF70DFA202383F311881648FFF70C
:1015DC0017FC86F31188FFF721FE00BF00100240B4
:1015EC000070004000080140603D0800F40C002031
:1015FC0088070020BC090020F809002000000140E9
:10160C00040A0002780B002001360008F3350008AC
:10161C004E360008563600083C0800208E0B002081
:10162C00600700202C060020C009002008B5D0F867
:10163C00AC30002B19DD013BC0F8AC30D0F8943045
:10164C0003F10802C0F894200A681A604A685A60CC
:10165C00D0F8942000F190039A4228BFC0F894006F
:10166C00983001F047FC002008BD0220FCE7000088
:10167C0038B50369044613B10430FFF777FB4FF01C
:10168C00FF35E3691A78042AFDD8DFE802F0030A73
:10169C0014253100236820469B6898470128F0D117
:1016AC0038BDD3F801100933E3610029E9D0204695
:1016BC00FFF750FCF4E7D3F80130A26903EBC30346
:1016CC001344E36194F8293023B1124804F1240146
:1016DC00FFF7ACFF0121EAE794F8293023B10D485C
:1016EC0004F12401FFF7A2FF0023C4E90633D7E776
:1016FC00226A013204BFD3F801202262226A1AB98D
:10170C0009332562E361BCE7A369013AE361226214
:10171C00B7E700BF88070020002000214FF4E1321A
:10172C00884B2DE9F04FC3E90001C3E92433864906
:10173C00864B9224C1E9002306238B8107238B82DD
:10174C004FF4855303274FF00409002201258048EC
:10175C00C1E908437F4BC1E9067988600861D9600B
:10176C0003F11001C3E924117B49C3E9012219607B
:10177C0001F128043831C3F80041C3F80411774C47
:10178C00C3E92722764983F89850C3F8A42083F83C
:10179C00FC50C3F84821A3F85221C3F84C2183F81C
:1017AC005021C3F854216F4B4FF002081C60996113
:1017BC0058216D4B68265970FF211A7083F80280EE
:1017CC00DA701A715A719971DA711A72C3F80A20A7
:1017DC005F729A73DA731A745A74644B4FF0804CBC
:1017EC005E7078261A709D70DA701A715A719A713F
:1017FC00DA711A72C3F80A205F729A73DA731A7468
:10180C005A745B4B4FF0080A1E7064265A709E7017
:10181C00DE70584B4FF00A0B1C60574C574E9C61B6
:10182C004FF0FF34564BDFF864E1C3E90842554CE6
:10183C00C3E90B601C604FF00B04A3F85040524CF2
:10184C00C3E90E6706F5A036C3E92060C3E912C0F0
:10185C00C3E915C9C3E9194EC3E91C47A3F888A00D
:10186C0083F829209A86A3F840205964A3F85C20B9
:10187C001966A3F86CB0A3F87820D967C3E923657F
:10188C00A6F5A036C3E92760C3E92A69C3E938493C
:10189C004FF00B064FF00909A3F8C0A0DFF8F0A039
:1018AC00C3E92D14C3E93145C3E93414C3E93CA0A1
:1018BC00C3E93FA5C3E9421CA3F89420C3F89810D0
:1018CC00A3F8A450A3F8B020C3F8BCE0A3F8CC2034
:1018DC00C3F8D8E0A3F8DC60A3F8E820C3F8EC1058
:1018EC00A3F8F890A3F80421C3F810E1C3E950144D
:1018FC00C3E95448A4F59434C3E95840C3F82C0107
:10190C000520A3F82021A3F83C21A3F85821A3F823
:10191C007421C3E946C8C3E9491CC3E94DC7C3E9EF
:10192C005B48C3E95E12A3F81451A3F830B1C3F8B5
:10193C0048E1A3F84C91C3F85C11A3F86801BDE829
:10194C00F08F00BF88070020500B002000380140AA
:10195C00000C0140F80900205C3700084C370008E7
:10196C0006270201C00900208E0B00207C0B0020F2
:10197C00780B0020DC090020A08C0400000400403F
:10198C003C08002070360008002C01400008014083
:10199C00004801400A46014901F0B9BD003C00086D
:1019AC0008B5202383F31188FFF7F4FF002383F39A
:1019BC00118808BD014A00F081BB00BF003C000843
:1019CC004FF004092DE98848DFF8848000261F4C6D
:1019DC003146204601274FF0030AD8F808301C4D39
:1019EC002A68B5F804C0D2F808E007FA0CFC1CEA27
:1019FC000E0FA346227804F101041DD0012A01D058
:101A0C00042A15D104F801ACAA689A421CD003B17F
:101A1C00984758460021AB680136032E05F10C059A
:101A2C00DED103B198474FF4E17001F074FBCDE7C0
:101A3C00022204F8012CE7E7023A012A94BF04F8C9
:101A4C00019C04F8017CDFE70131E5E7E40C0020A0
:101A5C00C00C0020104B984205D1104A936943F0FA
:101A6C000403936170470E4B984204D10B4A93695F
:101A7C0043F00803F5E70B4B984204D1074A9369EE
:101A8C0043F01003EDE7084B9842EBD1034A9369FE
:101A9C0043F02003E5E700BF0008014000100240BE
:101AAC00000C014000100140001401402DE9F341ED
:101ABC0000250127254C264E94F806802068A18825
:101ACC00FFF7C8FFB8F1000F2CD0C36807FA01F27A
:101ADC00B8F1020F0CBF934313430822C3600729CC
:101AEC0022D88B000F21D0F800C0DBB299402CEA31
:101AFC0001010160016802FA03F30B430360002348
:101B0C000135032D06F8013B04F10C04D4D10093EC
:101B1C0080224FF490710F4B0F4801F0C7FA02B0BE
:101B2C00BDE8F0810422DAE74FF00F0C0839890088
:101B3C004368C9B20CFA01FC23EA0C034360436806
:101B4C0002FA01F119434160D9E700BFC00C002033
:101B5C00E40C0020CD190008A00B00200A4B0B4A06
:101B6C0010B51A6000220A489A800A4A02210C24F5
:101B7C00C3E90520D8600D2099719A601C82997474
:101B8C00988399771A6210BDC00C002000080140A0
:101B9C00000C01400D1C0008002307B50093032323
:101BAC008DF800008DF805308DF80110202383F39B
:101BBC001188114BD3F8AC20002A15DD013AC3F87B
:101BCC00AC20D3F89420009802F10801C3F89410CB
:101BDC0010600198506003F190029142074828BFB1
:101BEC00C3F8943001F086F901F058F9002383F31F
:101BFC00118803B05DF804FB880700202008002042
:101C0C002DE9F0478046894600272A4D2A4EDFF8F9
:101C1C00B4A0FCB2A1454AD918F80430032B0BD15F
:101C2C0000232B550AF80430244B254A596A5B6A69
:101C3C00118033800137ECE7042B07D12B5D002B8F
:101C4C00F8D121460220FFF7A7FFF3E7022BF1D1D1
:101C5C002B5D73B9194B1A4A5B6A12889B1A42F2B4
:101C6C0005729BB2934204D9012021462855FFF7F7
:101C7C0093FF1AF804303188104A73B9536A5B1A0F
:101C8C0041F293119BB28B42D4D9536A3380012316
:101C9C000AF8043021460320D5E7536A5B1A40F258
:101CAC0091419BB28B42C5D9536A3380F2E7BDE8B0
:101CBC00F08700BFE70C0020EE0C00200040014034
:101CCC00F00C0020EA0C0020202208B582F31188C9
:101CDC0003681B689847002383F3118808BD000034
:101CEC004FF4E1730A4AD168013BC8079BB203D594
:101CFC00002BF8D102207047D168490756BFD06835
:101D0C000120C0F30010002B08BF0220704700BF59
:101D1C000020024073B5837E04468DF80530194BC4
:101D2C00D3F8AC20002A18DD0021013AC3F8AC200E
:101D3C00D3F8942002F10800C3F89400117051708C
:101D4C009170D1700199516003F1900290420E484C
:101D5C0028BFC3F8943001F0CDF8E37E012B0FD1EE
:101D6C002369268B251D13B1284601F04BFA234617
:101D7C0031462846054A02B0BDE8704001F0FCB976
:101D8C0002B070BD8807002020080020D51C000878
:101D9C00884230B515D0431E13F8014F2046A4F1EC
:101DAC004102192A11F8012B98BF04F12000A2F16D
:101DBC004105192D98BF2032801A01D1002CEBD18E
:101DCC0030BD0020FCE770B508B9106868B1034657
:101DDC000E46184613F8014B16F8015B15B1AC42D0
:101DEC00FAD1F5E72CB92046146070BD23460CE0FF
:101DFC0015B90E4613F8014B16F8015BAC42F7D13E
:101E0C00002CF3D0002103F8011C1360EDE7000057
:101E1C000368264A934206D1254B9A6942F4006224
:101E2C009A619B697047B3F1804F07D103F5043376
:101E3C00DA6942F00102DA61DB6970471D4A9342AC
:101E4C0004D11B4BDA6942F00202F4E71A4A9342BE
:101E5C0004D1174BDA6942F00402ECE7174A9342BB
:101E6C0004D1134BDA6942F01002E4E7144A9342AE
:101E7C0004D10F4BDA6942F02002DCE7114A93429D
:101E8C0004D10B4B9A6942F48032C9E70E4A934253
:101E9C0004D1074B9A6942F40032C1E70B4A9342D2
:101EAC00C0D1034B9A6942F48022B9E7002C01405F
:101EBC0000100240000400400008004000100040E8
:101ECC000014004000400140004401400048014023
:101EDC0010B50146FFF79CFF4FF4404203685A646B
:101EEC008269DA62027D0069012A00F1FF300CBFC1
:101EFC000722062203280BD8DFE800F002323A4210
:101F0C00986940EA02129A611A6A42F001021A6256
:101F1C001A68486842F001021A602F4A0B899042F5
:101F2C00497D02F5843233D1946944F00404946100
:101F3C009469072B44F0010494614FEA810242F04A
:101F4C0009023AD80F249B000168DBB29C4021EABD
:101F5C0004010160016802FA03F30B43036010BD36
:101F6C00986940EA02329A611A6A42F01002CEE78E
:101F7C00D86940EA0212DA611A6A42F48072C6E742
:101F8C00D86940EA0232DA611A6A42F48052BEE73A
:101F9C00124CA04203D1946944F00804C7E7104CDA
:101FAC00A04203D1946944F01004C0E70D4CA04248
:101FBC00BED1946944F02004B9E70F24083B9B0080
:101FCC004168DBB29C4021EA04014160416802FA9D
:101FDC0003F30B434360C2E700080140000C0140CF
:101FEC000010014000140140074B01385A6922F0DF
:101FFC0080025A6110F8012F22B119680906FCD52C
:10200C005A60F7E7704700BF0038014008B5024836
:10201C00FFF7EAFF01BEFEE794360008034B044AC3
:10202C005A6002F188325A60704700BF00200240AB
:10203C002301674508B5FFF753FE034A136943F0C4
:10204C008003136108BD00BF0020024038B505466F
:10205C00FFF746FE88B9094C236943F0020323615C
:10206C006561236943F040032361FFF739FE23695F
:10207C0023F00203DB04DB0C236138BD002002409B
:10208C0070B506460D46FFF72BFE98B90A4C23692E
:10209C0043F001032361ABB23380FFF721FE18B983
:1020AC002D0C7580FFF71CFE236923F00103DB0464
:1020BC00DB0C236170BD00BF002002402DE9F04114
:1020CC00CD1C044690462023AD0883F31188FFF7FE
:1020DC00A5FF3422124B4046DA60FFF7B7FF0746E4
:1020EC0098B904EB8505A8EB0408AC4208EB040096
:1020FC000ED054F8041BFFF7C3FF06460028F4D09B
:10210C00084800F005FB374602E0074800F000FBEA
:10211C00FFF790FF002383F311883846BDE8F08168
:10212C0000200240B3360008A036000808B5202372
:10213C0083F31188094B1B6853B198470122084B54
:10214C005A61002383F31188BDE8084001F0A0B860
:10215C000449054800F0ECFAF0E700BF000D002040
:10216C0000040140C6360008CF36000808B520230D
:10217C0083F31188094B5B6853B198470222084BD3
:10218C005A61002383F31188BDE8084001F080B840
:10219C000449054800F0CCFAF0E700BF000D002020
:1021AC0000040140DD360008CF36000808B52023B6
:1021BC0083F31188094B9B6853B198470422084B51
:1021CC005A61002383F31188BDE8084001F060B820
:1021DC000449054800F0ACFAF0E700BF000D002000
:1021EC0000040140E6360008CF36000808B520236D
:1021FC0083F31188094BDB6853B198470822084BCD
:10220C005A61002383F31188BDE8084001F040B8FF
:10221C000449054800F08CFAF0E700BF000D0020DF
:10222C0000040140EF360008CF36000808B5202323
:10223C0083F31188094B1B6953B198471022084B43
:10224C005A61002383F31188BDE8084001F020B8DF
:10225C000449054800F06CFAF0E700BF000D0020BF
:10226C0000040140F8360008CF36000808B52023DA
:10227C0083F31188094B1B685BB198474FF4787254
:10228C00074B5A61002383F31188BDE8084000F026
:10229C00FFBF0449044800F04BFAEFE7180D00208B
:1022AC000004014001370008CF36000808B5202390
:1022BC0083F31188094B1B685BB198474FF47C4240
:1022CC00074B5A61002383F31188BDE8084000F0E6
:1022DC00DFBF0449044800F02BFAEFE7140D00208F
:1022EC00000401400A370008CF360008264BF0B531
:1022FC0003F1100704463E4687B002AD2A46186823
:10230C005968083303C2BB421546F7D16B46306897
:10231C0071681E4A03C35368C3F38103012B2ED08B
:10232C00022B2ED153685168C3F38343C80303F1C6
:10233C0002031DD416494B43516806A8C1F303117F
:10234C00014411F8101CCB40236051685268C1F352
:10235C000221C2F3C2220144024411F8181C12F8E3
:10236C00182C23FA01F1D3406160A36007B0F0BDD3
:10237C005168890301D50749DDE70749DBE7064BBF
:10238C00DAE7064BD8E700BF3835000800100240EA
:10239C0000093D00808D5B00001BB70000127A0025
:1023AC0006480749836805C8B3FBF1F3B2FBF1F2A9
:1023BC00B0FBF1F1034800F093B900BFF40C00201E
:1023CC0040420F001337000870B50068294D049C7B
:1023DC00A84238D105F56045AE6946F48056AE6129
:1023EC00AD694FF441750129056002BF016841F0E8
:1023FC0080010160012A02BF026842F00202026001
:10240C00012B02BF036843F001030360194B984290
:10241C00194B0CBF9B685B68B3FBF4F3802B1DDC82
:10242C00402B1DDC202B1DDC102B1DDC082B1DDC98
:10243C00042B1DDC022BD4BF00230123026842EACB
:10244C00C303036070BD0D4DA842CAD105F5EC3530
:10245C00EE6946F48046EE61ED69C2E70723EDE7CD
:10246C000623EBE70523E9E70423E7E70323E5E786
:10247C000223E3E700300140F40C00200038004058
:10248C0008B5202383F31188074B9B68DB0703D522
:10249C00064B1B6803B19847002383F31188BDE8F2
:1024AC00084000F0F5BE00BF003001401C0D0020BC
:1024BC0008B5202383F31188074B9B68DB0703D5F2
:1024CC00064B1B6803B19847002383F31188BDE8C2
:1024DC00084000F0DDBE00BF00380040200D002099
:1024EC002DE9F04385B0984601AB06460025084619
:1024FC001F469DF83090B0FBF2F4844602FB1401A9
:10250C0020460929CCB294BF30343734E4B2944518
:10251C0005F1010503F8014BEDD22C463368444517
:10252C001B680BD249463046984718B10C2005B0B1
:10253C00BDE8F0830134F1E7002DF8D03368013D9C
:10254C0030461B68795D98470028F5D0EEE72DE9F9
:10255C00F04F0B46054614464FF00A0B85B01E464D
:10256C0016F8011B31B928462B685B6805B0BDE82D
:10257C00F04F1847252902D02B681B6864E05F7860
:10258C004FF00009302F14BF20279E1C16F8011B9A
:10259C00A1F13000C0B2092804D92A2905D154F878
:1025AC00040BC0B20BFB0909F0E72E2909D116F870
:1025BC00011BA1F13003092BF9D92A2901D10434CB
:1025CC00F5E763293BD015D8412963D003D82529D9
:1025DC00D2D03346C3E7532939D05829F9D14B46C9
:1025EC0010220097284654F8041BFFF779FF0028A7
:1025FC00EFD0B8E773292AD01BD8642901D06929F8
:10260C00E7D1A04658F8044B002C07DA2B682D2193
:10261C0028461B6898470028A5D164424B460A22DD
:10262C00214628460097FFF75BFF00289BD14446C4
:10263C00CFE77529CDD14B460A220097D2E72B68FC
:10264C0054F8041B1B68C9B228469847CFE7D4F846
:10265C0000A05046FDF708FE80460AF1FF3A1AF832
:10266C00011F31B12B6828461B6898470028F6D00B
:10267C0079E7A9EB0808B8F1000F01DC0434A8E7EE
:10268C002B68394628461B68984708F1FF38002804
:10269C00F1D068E70027D4E9019823685FFA88FA3B
:1026AC0003934F4501DB0C3493E76FB9039B102266
:1026BC00D95D3023284600930223FFF711FF002831
:1026CC007FF451AF0137ECE7B8F1000FEED02B6877
:1026DC00514628461B6898470028E7D043E700007E
:1026EC000FB407B504AB53F8041B0193202383F3F9
:1026FC0011880648019AFFF72AFF002383F31188FB
:10270C0003B05DF804EB04B0704700BFF80A00207A
:10271C000FB407B504AA52F8041B04480192FFF742
:10272C0016FF03B05DF804EB04B07047F80A002004
:10273C000FB407B504AA52F8041B04480192FFF722
:10274C0006FF03B05DF804EB04B07047F80A0020F4
:10275C00704701207047012070470120704701200D
:10276C007047000008B5064C40F2DE3000F0D3FC98
:10277C0020680028F8D003685B689847F4E700BF2E
:10278C00480E00200EB403B503AA52F8041B00F542
:10279C0080700192FFF7DBFE02B05DF804EB03B032
:1027AC007047A0F58270EDE7104B984205D1104AA6
:1027BC00936943F00403936170470E4B984204D124
:1027CC000B4A936943F00803F5E70B4B984204D18D
:1027DC00074A936943F01003EDE7084B9842EBD19D
:1027EC00034A936943F02003E5E700BF000801406A
:1027FC0000100240000C0140001001400014014088
:10280C00034653F8902FD0F89C109B1A8B4228BF8C
:10281C000B46C0F8A0307BB1002380F89830436899
:10282C005B68DA60D0F8A0205A60C268126A1A603D
:10283C001A6842F001021A607047436810B4596874
:10284C000A6822F00F020A60597B1A680E238B402B
:10285C000146536051F8902FD0E9273422448A4224
:10286C00A3EB040328BF00F11002C0F89C30C0F8A1
:10287C00902033B9012380F89830036810BC1B6892
:10288C00184710BCFFF7BCBFFFF7D7BFD0F89C3080
:10289C007F2B16D8D0F894305A1CC0F8942019709D
:1028AC00D0F8942000F190039A4224BF00F1100359
:1028BC00C0F89430D0F89C300133C0F89C30002024
:1028CC0070470C207047FFF7E1BFA0F58070FAE766
:1028DC0090F898300BB1FFF793BF7047FFF7F8BF34
:1028EC00A0F58070FAE78368D0F8A4205B685B6879
:1028FC00C3F154039B1A48BF543383B1531CC0F823
:10290C00A430024492F8A8300B70D0F8A430532BAA
:10291C004FF0000301DDC0F8A430184670470B20BF
:10292C00704700007FB590F8FC300446002B4ED069
:10293C000025384E20460DF10701FFF7D4FF002883
:10294C0045D194F850319DF8072043B9B4F8521191
:10295C00736A5B1A40F2DE319BB28B4203D984F866
:10296C005051C4F84C51736A082AA4F85231D4F867
:10297C004C3105D1002BDDD0013BC4F84C31D9E7EB
:10298C000D2A01D00A2A24D1002BD3D000252344B0
:10299C0083F80851204904F5A47204F58470FFF7FC
:1029AC0012FA0123C4F8540184F850318DF80D301B
:1029BC0084F8FC50202383F31188184BD3F8AC20F7
:1029CC00AA420FDC00F06AFA002383F3118804B0EA
:1029DC0070BD3E2BAED8591C2344C4F84C1183F85F
:1029EC000821A7E7013AC3F8AC20D3F89420039848
:1029FC0002F1080104F58274C3F89410146050605D
:102A0C0003F190029142064828BFC3F8943000F0BD
:102A1C0071FAD7E7004001405037000888070020C2
:102A2C0020080020C268D2E90013054A9342054AE7
:102A3C000CBF92685268B2FBF1F29A60704700BF0B
:102A4C0000380140F40C0020C36837B50446986880
:102A5C009989FFF7A9FE584B07299A6942F00102A0
:102A6C009A6179D80F2589000268C9B28D4022EA93
:102A7C00050202600922056802FA01F1294301608E
:102A8C00E2684E4952688A4276D19A6942F4804291
:102A9C009A619B692046FFF7C5FF0022E068092177
:102AAC00436880691A612346454A00F0C1FCE3681B
:102ABC0041685A686060101D8860186A01250860BA
:102ACC000C2184F89850D160C02118695161998A01
:102ADC00FFF76AFEC3688D401D430729C5605BD8AC
:102AEC000F2289000368C9B28A4023EA02030360FB
:102AFC000823026803FA01F1114301600023E06826
:102B0C001A460921C06900F093FCE16843684A68E1
:102B1C00A060101D986004F1A800D8605420496A88
:102B2C0058601960196841F001011960D36843F4C9
:102B3C000053D360234B1A6802B91C60224C2368E3
:102B4C0043B9009380224FF49071204B204800F041
:102B5C00ADFA206003B030BD0F25083989004268FA
:102B6C00C9B28D4022EA050242600922456802FA88
:102B7C0001F12943416083E716498A4205D1DA699C
:102B8C0042F40032DA61DB6984E713498A4281D16D
:102B9C00DA6942F48022F5E70F220839890043688C
:102BAC00C9B28A4023EA020343600823426803FA4D
:102BBC0001F111434160A1E70010024000380140CF
:102BCC0095280008480E00204C0E002071270008A4
:102BDC00280D00200044004000480040202383F3CF
:102BEC001188012380F8FC30002383F3118870478F
:102BFC00FFF7F4BFA0F58270FAE708B500F098FB78
:102C0C00BDE8084000F000B800F02AB80022034BE1
:102C1C0058631A610222DA60704700BF004001401D
:102C2C000022014BDA60704700400140014B5863B1
:102C3C00704700BF00400140084B10B51A6992075D
:102C4C0008D500241C61202383F3118800F0AAF915
:102C5C0084F31188BDE8104000F01ABB004001401D
:102C6C00114B02219A69182042F480329A610F4A62
:102C7C009B69536843F4800353600D4B9A6842F28E
:102C8C001073B2FBF3F20B4B013A9A624FF6FF72E0
:102C9C00DA6200229A615A63DA605A6001225A6140
:102CAC001A6000F009B800BF00100240002004E0D8
:102CBC00F40C0020004001400122090100F16043A6
:102CCC0003F56143C9B283F8001300F01F039A4067
:102CDC0043099B0003F1604303F56143C3F8802172
:102CEC001A6070470022024BC3E900339A607047A8
:102CFC00900E0020002382680375054B1B689968B1
:102D0C009142FBD25A680360426010605860704771
:102D1C00900E002008B5202383F31188027D002338
:102D2C00052A06D8DFE802F00B050503120E8269AE
:102D3C0013604FF0FF338361FFF7DCFF002383F355
:102D4C00118808BD8269936801339360D0E9003221
:102D5C0013605A60EDE70000002382680375054B91
:102D6C001B6899689142FBD85A68036042601060F6
:102D7C0058607047900E002038B50C4C25692268BD
:102D8C00287511684C602160012122611175EFF3E7
:102D9C0009822969243A914202D9054800F0FCF8CD
:102DAC0029462069BDE83840FDF7DEB9900E0020B9
:102DBC00A43700084FF6FF7330B5994204460B4D0B
:102DCC0087B010D02B690A4A01A800F0D5F920462B
:102DDC00FFF7D2FF049B13B101A800F013FA2B6983
:102DEC00986907B030BDFFF7C7FFF8E7900E0020D9
:102DFC00212D000870B5114E8161336981689A6884
:102E0C000446914203D8BDE87040FFF773BF1846E3
:102E1C00FFF7A2FF0123054634612375EFF3098305
:102E2C000269243B9A4202D9054800F0B5F82946BC
:102E3C002046BDE87040FDF797B900BF900E00200A
:102E4C00A4370008044B1A681B6990689B68984269
:102E5C0094BF002001207047900E002038B50D4C17
:102E6C00236820691A685460226001221A75236154
:102E7C00FFF772FF0546EFF309830269243B9A4280
:102E8C0002D9054800F088F829462069BDE8384089
:102E9C00FDF76AB9900E0020A437000808B5FFF7BB
:102EAC00D1FF18B1BDE80840FFF7D8BF08BDFFF748
:102EBC00D5BFC0E90000816070470000826810B483
:102ECC00541E002C846011DA21B982604FF0FF305F
:102EDC0010BC7047064B42681B6910BC98611860A7
:102EEC005A60136043600520FFF764BF0020EFE7D2
:102EFC00900E0020826803460132002A826007DCB3
:102F0C00006802681A60536000238361FFF7F2BE09
:102F1C007047FEE710B5184CFFF7E4FE00F020F9FF
:102F2C0080222046154900F085F8154B44F8140C06
:102F3C00036101230375134B134AD96821F4E06133
:102F4C000904090C0A431149DA60CA6842F080721C
:102F5C00CA600F490A6842F001020A601022DA774F
:102F6C00202283F82220002383F3118862B6BDE867
:102F7C001040084800F082B8B40E0020B3370008A7
:102F8C000002002000ED00E00003FA05F0ED00E087
:102F9C00001000E0C037000872B6014B1862FEE763
:102FAC00900E00202DE9F84F0027204CDFF8808090
:102FBC00656904F1140AD8F82400E38B80B22A89DD
:102FCC00C61AB6B2B2421DD84FF020092B89E28B3B
:102FDC00F61A1A442B68E2835345C3F804A0D5F8BB
:102FEC000CB06361B6B2EF6001D1FFF719FE87F345
:102FFC0011882869D84789F3118865692B89B342F0
:10300C00E4D9D8E7626952450ED01189E0830B44AC
:10301C001B1A13812B89022B2CBFC0180230BDE860
:10302C00F84F80B2FFF702BEBDE8F88F900E00207B
:10303C00004001408260022282827047D0E9012365
:10304C0043F8102CA3F1440243F8142C026943F802
:10305C00442C426943F8402C074A43F8242CC2689C
:10306C00A3F1200043F8182C022203F80C2C0022A8
:10307C0003F80B2C704700BF850100085521D0E9DF
:10308C00013210B59A420DD8202383F31188FFF733
:10309C00D5FF00210446FFF7ADFE002383F3118812
:1030AC00204610BD03F8011BECE7000070B5044688
:1030BC0055264518A5421CD8202484F311882039A4
:1030CC00441844F8243C049BA4F1240144F8203C0B
:1030DC00094B206144F8043C0223E160A3820021E7
:1030EC002046A260FFF786FE002383F3118820465A
:1030FC0070BD04F8016BDDE785010008024B1B690C
:10310C0098610F20FFF738BE900E0020202383F328
:10311C001188FFF7F3BF08B50146202383F311880C
:10312C000820FFF747FE002383F3118808BD000039
:10313C00054B1B6921B1036098610320FFF73ABE70
:10314C004FF0FF30704700BF900E00200346006820
:10315C0020B100221A608161FFF7CCBD70470000DE
:10316C00044B03F11402C3E905224FF6FF72DA6136
:10317C00704700BF900E0020F8B5C0E903231F4B29
:10318C000646586A1E4B02291A4652F8145F38BF7D
:10319C00022195421F4680B20BD1D8830844C3E963
:1031AC00056680B2C6E900553181BDE8F840FFF7ED
:1031BC002DBDDB8B2A89C01A80B201448CB28442AB
:1031CC0003D2A41A2D68A4B205E0A24203D918199F
:1031DC0080B2FFF72BFD2B89A3420CD36B683560B3
:1031EC0073601E606E6034812B891C1B4FF6FF735D
:1031FC002C81BB83F8BDE41AE4E700BF004001401A
:10320C00900E00201B4910B40A4652F8144F036864
:10321C0084420DD041680B600368596000219342D1
:10322C00C16003D01A8901890A441A8110BC704705
:10323C00002093424B615A60E06002D110BCFFF752
:10324C00EFBC18892289C98B104480B218810A4BB3
:10325C005B6A9BB25A1A92B29042E7D9CB1A0344DA
:10326C009BB2012B9CBF023290B2084410BC80B2BE
:10327C00FFF7DCBC900E002000400140EFF3098307
:10328C00203383F30988002383F3118870470000EF
:10329C00202310B583F311880D4B5B6813F4006386
:1032AC0012D0EFF309844FF0807344F8043CA4F17E
:1032BC00200383F30988FFF7C5FD18B1054B44F8CB
:1032CC00083C10BD044BFAE783F31188F9E700BF03
:1032DC0000ED00E095010008980100087047704768
:1032EC007047FEE7F0B5082000261049D1E90134FB
:1032FC001D460A68043AAC4210D8E21CD21ADD1EF4
:10330C0022F00302AC4238BF00221344CA689A422E
:10331C0009D8013801F11001E8D1F0BD52F8047F51
:10332C0045F8047BE7E743F8046BF0E7D83700086F
:10333C004FF0FF3108B50E4B1A6919611A6900225A
:10334C001A611869D868D960D968DA60DA68DA69FC
:10335C0042F08052DA61DA69DA6942F00062DA61CD
:10336C00DB6900F007F8BDE8084000F0CFB800BFFB
:10337C000010024000230121084A10B5C2E90033B5
:10338C00074844681030236042F831300131082975
:10339C00F7D14FF0FF32034B5A6010BD500E002096
:1033AC00583800080000024006289C462DE9F041E0
:1033BC0036D801271B4C874023681F4230D11A4E48
:1033CC003B4323604FEA0018184B06EB0015013005
:1033DC0044F8302004EBC000C0F804C0586940F039
:1033EC00010058615B694AB16268AB681A4202D14C
:1033FC00E87BFFF761FC63681F43676006EB08011D
:10340C004B68497B1A6856F8080022F00F021A60C4
:10341C000E228A40426000221A602846BDE8F081E4
:10342C000025FAE7500E0020583800080010024022
:10343C0010B5202484F31188FFF7B6FF002383F323
:10344C00118810BD10B40468437B21684268D940D0
:10345C00126801F00E010A420ED0827B01FA03F3CE
:10346C006360064B013253F832402CB103EBC203BC
:10347C005868234610BC184710BC7047500E0020EB
:10348C0008B50348FFF7DEFFBDE80840FFF700BFB3
:10349C005838000808B50348FFF7D4FFBDE80840CA
:1034AC00FFF7F6BE6838000808B50348FFF7CAFFF7
:1034BC00BDE80840FFF7ECBE7838000808B50348B3
:1034CC00FFF7C0FFBDE80840FFF7E2BE88380008F0
:1034DC0008B50348FFF7B6FFBDE80840FFF7D8BEB4
:1034EC009838000808B50348FFF7ACFFBDE8084062
:1034FC00FFF7CEBEA838000808B50348FFF7A2FFB7
:10350C00BDE80840FFF7C4BEB838000870470A444D
:10351C00914200F1FF3300D1704710B511F8014B07
:0A352C00914203F8014FF9D110BDE0
:10353800000000000000000001020304060708095B
:103548000000000001020304434320527374204624
:1035580061696C0D0043432057204661696C0D007A
:10356800434320522F57204661696C3B2072706C90
:103578003D25750D0043432052204661696C0D00BE
:10358800434320696E6974206F6B0D0000000000D2
:103598000000000085020008436C723A202575205F
:1035A80025752025753B20527373693A2025640DD3
:1035B800000B080C00105B11E51213154621B6220A
:1035C80010191D1A1C1BC71C001DB223EA242A252A
:1035D80000261F2C812D312E0950696E67004F6B14
:1035E8000D0A0056657273696F6E003230323230E0
:1035F8003231305F31303332004372797374616C29
:1036080000436C7200436D64556E6B6E6F776E0D80
:103618000A00564261743A2025756D563B20506564
:103628007263656E743A2025750D0042746E20250C
:10363800752025750D00456E746572696E67207377
:103648006C6565700D000D25532025530D005361E1
:1036580076656420636C723A2025750D00000000C1
:1036680000000000000000007D160008F30D0008AF
:10367800990F0008E01064000E105000E20E3C00A4
:10368800B60D2800A80C1400E60A0A000D4861725D
:10369800644661756C740D00466C617368206572D0
:1036A800617365206572726F720D00466C61736894
:1036B800207772697465206572726F720D005665A5
:1036C80063746F72353800556E68616E646C65643A
:1036D8002025530D00566563746F72354300566597
:1036E80063746F72363000566563746F72363400D7
:1036F800566563746F72363800566563746F723935
:103708004300566563746F72453000414842467203
:1037180065713D25754D487A3B20415042314672CE
:1037280065713D25754D487A3B20415042324672BD
:1037380065713D25754D487A0D00000000000000B8
:1037480000000000211D0008202C000000000000DF
:10375800000000005D27000831290008D328000870
:10376800E9280008912700085F2700086727000854
:10377800FD2B000800FFFFFF00000000D72800080D
:10378800ED280008FCFEFFFF00000000012C0008E7
:10379800AF270008632700086B270008737461636C
:1037A8006B206F766572666C6F77006D61696E006D
:1037B80069646C6500000000B8370008D00E00206E
:1037C800800F0020010000001F2F000800000000EB
:1037D800C8380008800F0020800F0020800F0020CC
:1037E800C8380008000000000000000000000000C9
:1037F800C8380008000000000000000000000000B9
:10380800C8380008000000000000000000000000A8
:10381800C838000800000000000000000000000098
:10382800C838000800000000000000000000000088
:10383800C838000800000000000000000000000078
:10384800C838000800000000000000000000000068
:103858000000024008000240010000000000000BC8
:10386800000002401C000240020000000004010C9D
:103878000000024030000240040000000008020D71
:10388800000002404400024008000000000C030E43
:103898000000024058000240100000000010040F11
:1038A800000002406C0002402000000000140510D7
:1038B800000002408000024040000000001806118D
:103C0000A15E11CA000000000000000000000000DA
:103C100000000000000000000000000000000000A4
:103C20000000000000000000000000000000000094
:103C30000000000000000000000000000000000084
:103C40000000000000000000000000000000000074
:040000050800016D81
:00000001FF
