:020000040800F2
:10000000000100206502000867020008F9180008D6
:10001000670200086702000867020008670200081C
:10002000670200086702000867020008E51300087D
:1000300067020008670200086702000867020008FC
:1000400067020008670200086702000867020008EC
:1000500067020008670200082119000861190008FA
:10006000A1190008E1190008211A00084D14000820
:100070006114000875140008891400089D14000814
:10008000B1140008C51400086702000867020008E0
:10009000670200086702000867020008611A00088A
:1000A0005918000867020008670200086702000884
:1000B000670200086702000867020008670200087C
:1000C000670200086702000867020008E11A0008DA
:1000D000F91A0008670200086702000867020008B2
:1000E000A11A0008670200086702000867020008FA
:1000F000670200086702000867020008670200083C
:10010000670200086702000867020008670200082B
:10011000670200086702000867020008670200081B
:10012000670200086702000867020008670200080B
:1001300067020008670200086702000867020008FB
:1001400067020008670200086702000867020008EB
:1001500067020008670200086702000867020008DB
:040160005D25000811
:100164002DE9F04FC1F80CD0C3689D46BDE8F08F6F
:10017400002383F311882846A047002001F05EFB8A
:1001840001F0A8F900DFFEE772B6274880F308887B
:10019400264880F3098826484EF60851CEF200011D
:1001A4000860022080F31488BFF36F8F01F021F9F7
:1001B40001F020F94FF055301E491B4A91423CBFD3
:1001C40041F8040BFAE71C49184A91423CBF41F834
:1001D400040BFAE719491A4A1A4B9A423EBF51F8DE
:1001E400040B42F8040BF8E700201749174A914220
:1001F4003CBF41F8040BFAE701F000F901F0FBF809
:10020400134C144DAC4203DA54F8041B8847F9E745
:1002140001F07CFC104C114DAC4203DA54F8041B81
:100224008847F9E701F0E8B8000100200002002047
:1002340000000008000000200001002090290008B0
:10024400000200200002002000020020F00A00202A
:1002540060010008640100086401000864010008EA
:1002640092E700F000F8FEE7202383F311880F4B98
:100274005B6813F4006315D0EFF309834FF08072C9
:1002840043F8042CA3F1200282F30988084A116878
:1002940012698968926891428CBF064A064A43F8FB
:1002A400082C704783F31188704700BF00ED00E00D
:1002B400C0090020850100088801000810B4046802
:1002C400437B2168827B4068D940006801F00E01BD
:1002D40008420DD001FA03F36360064B013253F870
:1002E40032402CB103EBC2035868234610BC1847B4
:1002F40010BC7047B00A0020FEE70000F0B51F4CA8
:100304001F4D2646C0E9032356F8143F02296A6AA2
:1003140038BF0221B34292B20DD1E283C4E9050091
:10032400C0E9003300230A4492B201816A632B615D
:100334000223EB60F0BDE68B1F89921B92B211443D
:1003440089B2914203D2C91B1B6889B204E08F426F
:1003540002D90E44B6B26E631A898A420CD35A6823
:10036400036042601060586001811A89521A1A8130
:100374004FF6FF73A383DDE7891AE5E7C009002080
:1003840000400140194930B50A4652F8144F00257F
:10039400844203680AD0416893420B605960C56087
:1003A40003D01A8901890A441A8130BD93424B61F2
:1003B4000F485A60E56001D1C560F6E71A892489BF
:1003C400C98B224492B21A81436A9BB2581A80B2F2
:1003D4008242EAD9CB1A13449BB2012B9CBF023050
:1003E40082B2034B114489B25963DEE7C00900208D
:1003F40000400140104B984205D1104A936943F0E4
:100404000403936170470E4B984204D10B4A9369DD
:1004140043F00803F5E70B4B984204D1074A93696C
:1004240043F01003EDE7084B9842EBD1034A93697C
:1004340043F02003E5E700BF00080140001002403C
:10044400000C01400010014000140140C3680BB1CE
:10045400FFF798BF70470000604B026830B59A42BE
:1004640003F5644305D1996941F40061996199697F
:1004740007E0B2F1804F16D1D96941F00101D96189
:10048400D9694FF44041516481690469D162017DA5
:10049400013C01290CBF07210621032C3CD8DFE8CD
:1004A40004F0336169714E498A4203D1D96941F03C
:1004B4000201E4E74B498A4203D1D96941F00401BE
:1004C400DDE749498A4203D1D96941F01001D6E7F1
:1004D40046498A4203D1D96941F02001CFE7444912
:1004E4008A4203D1996941F48031BFE741498A4284
:1004F40003D1996941F40031B8E73F498A42C0D138
:10050400996941F48021B1E7946944EA0111916148
:10051400116A41F0010111621168384C41F0010186
:10052400116041680289A142407D33D19C6944F045
:1005340004049C619C69072A44F001049C614FEA0D
:10054400800343F009033AD80F2492000868D2B21A
:10055400944020EA04000860086803FA02F20243A7
:100564000A6030BD946944EA01319161116A41F035
:100574001001D0E7D46944EA0111D161116A41F450
:100584008071C8E7D46944EA0131D161116A41F448
:100594008051C0E71A4CA14203D19C6944F008047D
:1005A400C7E7184CA14203D19C6944F01004C0E78A
:1005B400154CA142BED19C6944F02004B9E70F2434
:1005C400083A92004868D2B2944020EA0400486095
:1005D4004868934003434B60C3E700BF002C0140CD
:1005E40000040040000800400010004000140040D7
:1005F400004001400044014000480140000801401F
:10060400000C01400010014000140140202208B5F4
:1006140082F3118803681B689847002383F31188C9
:1006240008BD30B5441E14F8015F11F8010BA5F1A3
:100634004102192A6BB242B2A0F1410098BF2033A3
:10064400192898BF2032981A01D1002DEBD130BD62
:10065400D0F89C307F2B16D8D0F894305A1CC0F8B0
:1006640094201970D0F8942000F190039A4224BF8A
:1006740000F11003C0F89430D0F89C300133C0F876
:100684009C30002070470C207047A0F58070FFF765
:10069400DFBF70472DE9F04385B0984601AB0646AD
:1006A400002508461F469DF93090B0FBF2F48446BD
:1006B40002FB140120460929CCB294BF30343734EC
:1006C40064B2944505F1010503F8014BEDD22C46C3
:1006D400336844451B6809D33368013D30461B68C1
:1006E4007957984730B9002DF6D104E04946304691
:1006F400984718B10C2005B0BDE8F0830134E7E752
:100704002DE9F04F0B460546144685B01E4616F9F2
:10071400011B31B928462B685B6805B0BDE8F04F72
:100724001847252902D02B681B6865E093F90180DE
:100734004FF00009B8F1300F14BF4FF020089E1C91
:1007440016F9011BA1F13002D2B2092A04D852B21F
:100754000A2303FB0929F3E72A2902D114F9042BFC
:10076400F6E72E290AD116F9011BA1F13003DBB2F9
:10077400092BF8D92A2901D10434F4E7632937D0A5
:1007840016DC412964D003DC2529CCD03346BDE7EF
:10079400532934D05829F9D14B461022CDF8008082
:1007A40054F8041B2846FFF775FF0028EED0B1E784
:1007B400732924D015DC642901D06929E6D154F8C1
:1007C400047B002F07DA2B682D2128461B689847E5
:1007D40000289FD17F424B460A223946CDF800803B
:1007E400E0E77529D2D14B460A22CDF80080D7E73D
:1007F4002B6814F9041B1B6828469847D5E7D4F8DE
:1008040000A053461F4613F9012B002AFAD10AF11E
:10081400FF3BBBF1FF3F02D01BF9011F21B9A7EB3E
:100824000A07A9EB07070FE02B6828461B689847BF
:100834000028EED06EE72B68414628461B6898478F
:10084400013F00287FF466AF002FF4DC04349DE7F9
:100854000027D4E900934FF0300BD4F808800393B9
:100864004FFA88FA039B9F4201DB0C348EE76FB981
:1008740019F80710022310222846CDF800B0FFF71C
:1008840009FF00287FF446AF0137EBE7B8F1000F0A
:10089400EED02B68514628461B6898470028E7D0BD
:1008A40038E701207047012070470120704720235A
:1008B40083F31188012380F8FC30002383F311882B
:1008C4007047A0F58270FFF7F2BF034653F8902FEC
:1008D400D0F89C109B1A8B4228BF0B46C0F8A0305E
:1008E4007BB1002380F8983043685B68DA60D0F805
:1008F400A0205A60C268126A1A601A6842F00102A3
:100904001A60704790F898300BB1FFF7DEBF70475C
:10091400A0F58070FFF7F6BF436810B459680A6801
:1009240022F00F020A60597B1A680E238B4001469D
:10093400536051F8902FD0E9273422448A42A3EB24
:10094400040328BF00F11002C0F89C30C0F89020C6
:1009540033B9012380F89830036810BC1B6818472A
:1009640010BCFFF7B2BFF0B542F210747827C67816
:1009740085787543C5EB0525B5FBF4F50488C6EB0E
:100984000626B4FBF7F007FB10406427B6FBF7F626
:100994003C2780B23C380028B8BF4042C0F13C003C
:1009A4006843B0FBF7F0751BEDB228443B2CF6B25C
:1009B400C0B210D9772C0BD9B32C10D9EF2C11D984
:1009C400B4F5967F2C4610D235460646204602E002
:1009D4000446304626460E7010701D70F0BD2C463D
:1009E4000546F6E72C463546F4E70546EEE70000F3
:1009F40070B50446202686F311880E48FFF726FDBD
:100A0400002585F311880C4B22681A600B4B226871
:100A14001B689A420DD086F311880648FFF716FD2D
:100A24002B464FF48771064A0248FFF767FC85F3AB
:100A3400118870BD78090020DC050020BC09002065
:100A4400F90E0008034BD98ADA6801238B4013613D
:100A5400704700BF00020020064B5A8A99680123A0
:100A64009340054A8868184002D0013AFAD101201F
:100A7400704700BF00020020B8820100034B5B688E
:100A840018739A68D207FCD5187B704700020020BF
:100A9400F8B501270D4D0646EB8AEA6807FA03F319
:100AA4005361FFF7D9FF044620B1FFF7CBFF3C4663
:100AB4002046F8BD3046FFF7E1FF85F82000FFF738
:100AC400C1FF00F0700385F82030F1E70002002038
:100AD4003620FFF7DDBF0000F8B501270C4B0646B2
:100AE400DA68DB8A0D4607FA03F35361FFF7B4FFB4
:100AF400044620B1FFF7A6FF3C462046F8BD304629
:100B0400FFF7BCFF2846FFF7B9FFFFF79BFFF4E7A9
:100B1400000200202DE9F0414FF001080F4E074676
:100B2400F38AF26808FA03F353610D46FFF794FF62
:100B3400044628B1FFF786FF44462046BDE8F0810D
:100B440047F08000FFF79AFF86F820002046FFF761
:100B540095FF2870FFF776FFEFE700BF0002002043
:100B640010B5FFF747FC124A0729936943F00103C4
:100B740093610DD80F2289000368C9B28A4023EA21
:100B840002030360092302688B401343036010BD12
:100B94000F22083989004368C9B28A4023EA020354
:100BA4004360092342688B4013434360EFE700BF6F
:100BB4000010024038B515460446FFF71BFCCDB1C2
:100BC4000123C2688B40022D0CBF22EA03031343A6
:100BD400C360082307290FD80F2089002268C9B2EF
:100BE400884022EA00022260226803FA01F11143DC
:100BF400216038BD0423EDE70F20083989006268BD
:100C0400C9B2884022EA0002626062688B401343E2
:100C14006360EEE7F0B503469646202282F311881E
:100C2400062848D84FF0010C244C0CFA00F5226831
:100C3400154240D1634444F8331004EBC3032A4300
:100C4400C3F804E01E4B22605A691E4E42EA0C02AD
:100C54005A6107015B6906EB0010D9B161688368CA
:100C6400194215D14FF0900EC37B03F1604202F597
:100C7400614282F800E303F01F025B099B0003F169
:100C840060430CFA02F203F56143C3F880211A6051
:100C94000D436560F1194B68497B1A68F45922F0D9
:100CA4000F021A600E228A40626000221A6000233A
:100CB40083F31188F0BD0020F9E700BFB00A0020DB
:100CC40000100240A028000830B505460C468B6889
:100CD40045F8043B0FCC0FC594E8030085E80300F6
:100CE40030BD00002DE9F04F642200246E4B93B018
:100CF4001C705C709A70DA706C4BFF269A70DA7014
:100D040003221C705C706A4B4FF00108CDE90E326F
:100D14004FF0040B4FF080424FF0020A654D664FCE
:100D2400DFF8989128460CA9CDE9022A0893CDF85A
:100D340000900C97ADF83440ADF8404011960697FA
:100D4400ADF81C80CDF824B0ADF828400B96ADF872
:100D54000480ADF810400596FFF7B6FF06A905F12B
:100D64001C00FFF7B1FF694605F13800FFF7ACFF3F
:100D74004FF080424FF00B014FF00A000823CDE9F9
:100D84000E2B02920322DFF838A10DF1300CADF8DE
:100D94003410ADF80400614605F15400ADF81C3080
:100DA4000392CDE908A8CDF818900C97ADF840400F
:100DB4001196ADF828400B960097ADF810400596B3
:100DC400FFF782FF0DF1180C614605F17000FFF783
:100DD4007BFF694605F18C00FFF776FF4FF00A00B0
:100DE4004FF00B010322CDE908ABCDF83090CDF8DC
:100DF40038A0CDF81890CDF80090CDF808A04FF0A9
:100E040009094FF0020AADF83400ADF81C1005F1E1
:100E1400A8000CA90F92ADF840401196ADF82840F7
:100E24000B96ADF80490CDF80CA0ADF810400596E3
:100E3400FFF74AFF06A905F1C400FFF745FF69461D
:100E440005F1E000FFF740FF0823ADF834301D4BF7
:100E54000CA9CDE90E3803F58063CDE908380523E4
:100E6400ADF80430124B05F1FC00CDE9023A0C97C1
:100E7400ADF8404011960697ADF81C90ADF82840A7
:100E84000B960097ADF810400596FFF71DFF06A9D5
:100E940005F58C70FFF718FF694605F59A70FFF7A2
:100EA40013FF13B0BDE8F08FBC090020DC0500205F
:100EB4000004004004030020000C0140000801402D
:100EC400002C01400044014070B56FF040440569B6
:100ED4006619056805EB86056963C16A6518C16909
:100EE40001EB85014A63826C1444826B02EB840239
:100EF400536370BDF7B5304C304E2388328893422B
:100F04008CBF991AD11AB42940DC934201D201331F
:100F140001E001D9013B2380A378B278934245D202
:100F24000133A370E378F278934242D20133E37041
:100F3400002521480DF106030DF1050201A90195D3
:100F4400FFF711FD1E4F78199DF806309DF8052016
:100F54009DF804105435FFF7B7FFB5F5A87FF2D11B
:100F6400226833689A420FD0202383F311881548EE
:100F7400FFF76CFA00234FF48771134A1148FFF707
:100F8400BDF9002383F3118803B0F0BD934206D268
:100F9400002BBFD16823237001236370BCE7BBD946
:100FA400B3F5B47FB3D300232370F6E7BAD9013B7A
:100FB400B7E7BDD9013BBAE7BC090020DC05002036
:100FC4000403002078090020F90E0008F7B5202357
:100FD400054683F311881848FFF738FA002484F390
:100FE40011882646154F6A782B78684643EA02230F
:100FF400ADF80030AB780DF105028DF80230EB78D6
:1010040001A98DF803300DF106030196FFF7ABFC3F
:101014009DF806309DF805209DF804103819FFF757
:1010240053FF86F311885434B4F5A87FDBD12A68C2
:10103400034B1A6003B0F0BD7809002004030020BC
:10104400BC090020002382680375054B1B6899685E
:101054009142FBD25A680360426010605860704746
:10106400C009002008B5202383F31188027D0023E2
:10107400052A06D8DFE802F00B050503120E826983
:1010840013604FF0FF338361FFF7DCFF002383F32A
:10109400118808BD8269936801339360D0E90032F6
:1010A40013605A60EDE7836A10B504461BB1984794
:1010B4000023A36210BD406A0028FBD063628361F1
:1010C400BDE81040FFF7BEBF0148FFF7ECBF00BF0B
:1010D40000020020184B10B5D3F8AC20002A29DDFB
:1010E400013AC3F8AC20D3F89420046802F1080153
:1010F400C3F8941014604068506003F19002914268
:101104002CBF1A46D3F89420C3F89420D3F8A02017
:101114000132002AC3F8A0200ADC0024D3F8980086
:101124000268C3F89820054B53608461FFF78AFF77
:10113400002000E0022010BD38020020D002002070
:1011440073B500220446837E68468DF8053000920C
:10115400FFF7C0FFE37E012B0DD1268B251D28460A
:10116400FFF774F9234631462846044A02B0BDE825
:101174007040FFF7C3B802B070BD00BF110600088D
:101184000B4B10B4196908751868026853601A602B
:10119400012218610275EFF309820C69243A944222
:1011A40003D972B6034A1A62FEE710BCFEF7D8BF31
:1011B400C0090020CC2600084FF6FF7330B59942D1
:1011C40004460B4D87B010D02B690A4A01A8FFF7DB
:1011D40095F82046FFF7D4FF049B13B101A8FFF74D
:1011E400D1F82B69986907B030BDFFF7C9FFF8E75C
:1011F400C00900206910000808B50146202383F3C4
:1012040011880820FFF7D8FF002383F3118808BD55
:1012140080B501271C4E1D4C00212046B3681A4D91
:1012240004F103082A68B5F804C0D2F808E007FA04
:101234000CFC1CEA0E0FA14614F8012B1AD0012A4B
:101244001ED0042A0CBF0322022204F8012CAA682F
:101254009A4217D003B1984748460021AB684445E9
:1012640005F10C05DED103B198474FF4E170FFF7A7
:10127400C3FFD0E7023A012A8CBF01220422E4E72B
:101284000322E2E70131EAE790090020B4090020D3
:1012940008B5064C40F2DE30FFF7AEFF20680028A8
:1012A400F8D003685B689847F4E700BF8C09002016
:1012B400002270B4134C8668216903468D688261EC
:1012C400AE4202D870BCFFF7BDBE0A752246126852
:1012D40090688542FBD350680A60486001605160A1
:1012E400012223611A75EFF309820869243A9042B6
:1012F40003D972B6044B2362FEE7184670BCFEF7AE
:101304002FBF00BFC0090020CC26000838B5034613
:10131400552500F5907484421ED1202080F3118855
:10132400C3F8DC200E4A0025C3F8FC20022203F196
:10133400DC0003F58074C3F80C01C3F810312046B7
:10134400C3F8E050C3F80811A3F81421FFF7B0FF65
:1013540085F31188204638BD00F8015BDBE700BF48
:10136400750100080FB407B504AB53F8041B0193CF
:10137400202383F311880648019AFFF7C1F900235B
:1013840083F3118803B05DF804EB04B0704700BF29
:10139400840500200EB403B503AA52F8041B00F51B
:1013A40080700192FFF7ACF902B05DF804EB03B072
:1013B4007047A0F58270FFF7EDBF00000FB407B5CA
:1013C400054905AA05480192FFF79AF903B05DF8AB
:1013D40004EB04B0704700BFDB260008840500203E
:1013E400EFF30983203383F30988002383F31188FF
:1013F4007047704770477047FEE70000F0B508205B
:1014040000261049D1E901341D460A68043AAC4269
:1014140010D8E21CD21ADD1E22F00302AC4238BFFF
:1014240000221344CA689A4209D8013801F1100114
:10143400E8D1F0BD52F8047F45F8047BE7E743F8B0
:10144400046BF0E71029000808B50348FEF736FFDF
:10145400BDE80840FEF708BFA028000808B5034807
:10146400FEF72CFFBDE80840FEF7FEBEB0280008DA
:1014740008B50348FEF722FFBDE80840FEF7F4BEB6
:10148400C028000808B50348FEF718FFBDE8084067
:10149400FEF7EABED028000808B50348FEF70EFFA1
:1014A400BDE80840FEF7E0BEE028000808B50348A0
:1014B400FEF704FFBDE80840FEF7D6BEF02800089A
:1014C40008B50348FEF7FAFEBDE80840FEF7CCBEB7
:1014D40000290008114B30B41868196902681C46C9
:1014E40053601A600122027500220A758A68186125
:1014F4001B689D689542FBD85A680B604A6011606E
:101504005960EFF309830A69243B9A4203D972B6FE
:10151400034B2362FEE730BCFEF722BEC009002065
:10152400CC260008044B1A681B6992689B689A428F
:1015340001D9FFF7CFBF7047C009002008B52023A9
:1015440083F31188FFF7C6FDFFF7ECFF002383F355
:10155400118808BD07B54FF440730022CDE900237C
:101564008DF8000068468DF80110FFF7E7FF03B01F
:101574005DF804FB2DE9F84380460E4600271B4D19
:10158400DFF86C901B4CF9B2B14201D3BDE8F8838B
:1015940018F80130032B08D1002009F80100FFF7E7
:1015A400D9FF636A2B800137EDE7022BFBD119F8D1
:1015B40001302A887BB9636A9B1A41F293129BB269
:1015C4009342F0D9636A2B80012309F80130032088
:1015D400FFF7C0FFE7E7636A9B1A40F291429BB2B0
:1015E4009342E0D9636A2B80F1E700BFE405002051
:1015F400E00500200040014090F8FC30F7B5002BD6
:1016040067D0002140F2DE3685683D4C6B68D0F827
:10161400A4205B68C3F154039B1A48BF5433002BC6
:1016240057D0531C542BC0F8A430A8BF0B46024417
:1016340092F8A820C0F8A43090F8503152B233B9CF
:10164400636AB0F85271DB1B9BB2B34203D980F8D2
:101654005011C0F84C11636A082AA0F85231D0F82E
:101664004C3105D1002BD1D0013BC0F84C31CDE732
:101674000D2A01D00A2A39D1002BC7D000210344F6
:1016840000F5847283F8081111461E4D12F9013BCE
:1016940015F9014BFCB933B312F9013B194D15F996
:1016A400014BA3421CD1CBB1002302F8013CC0F88A
:1016B400482101230022C0F8541180F8503180F8E9
:1016C400FC2000F58270009068468DF80530FFF725
:1016D40035FF03B0F0BDA342DAD1D5E71A46E6E7F9
:1016E400002CDCD1D8E71A461946E0E73E2B9FBF11
:1016F4005F1C1B18C0F84C7183F8082186E700BFF3
:1017040000400140E926000883B5454C454E94F855
:1017140020305BB93320FFF7BBF958B93D20FFF700
:10172400B7F994F82030002BF8D103E0FFF7D0F993
:101734000028ECD03A20FFF7ABF9202383F311887B
:101744003420FFF7A5F9384B384A1B694FF4B471BC
:10175400636203209A61FFF72FFD002383F311884E
:10176400013002D1FFF7B4F913E069467820FFF79E
:10177400D1F970B99DF90030002B0ADA0123E18A0E
:10178400E2688B405361FFF767F9014668B1FFF7E0
:1017940059F994F82030002BE4D13920FFF778F977
:1017A4004FF46160FFF728FDB1E7214FFF20FFF7F9
:1017B40065F93D460020FFF761F90131C9B20829F6
:1017C4008DF8000007F8010FF4D10020FFF756F957
:1017D40007460020FFF752F9FFF734F93BB27F2B9D
:1017E400C4BFA7F580773BB203EBD373114F5B10F3
:1017F4004A3B3B70D5F80130B34208D1D5F80530E7
:101804006846009307238DF80530FFF797FE97F994
:101814000020D5F805100848FFF7A4FDB9E700BF7C
:1018240000020020EA0F11CAC0090020240200208F
:101834005404002065040020EC260008202383F3D0
:101844001188034B1B6998610F20FFF799BC00BFF7
:10185400C00900202DE9F843244E33699B0741D584
:1018640000233361202383F31188214C274657F842
:10187400142F736AE18B9BB210895D1AADB2A84232
:101884001ED84FF00008C1461389E18B1944EB1AA6
:101894009DB21368E183BB425F60D1686361C2F8A3
:1018A4000C8008BFC6F80C8089F31188106988473A
:1018B400202383F3118862691389AB42E4D9D8E702
:1018C4006069B8420BD0E38304892144C91A0181B9
:1018D4001289022A2CBF9B1802339BB27363002324
:1018E40083F31188BDE8F843FEF7BEBC0040014015
:1018F400C0090020074B08495A6922F080025A6146
:1019040011F9012B0AB901BEFEE718680006FCD5DF
:101914005A60F5E700380140FD26000808B5202389
:1019240083F31188094B1B6853B198470122084B74
:101934005A61002383F31188BDE80840FEF794BC84
:1019440004490548FFF73AFDF0E700BFE80200202C
:101954000004014009270008DB26000808B52023FD
:1019640083F31188094B5B6853B198470222084BF3
:101974005A61002383F31188BDE80840FEF774BC64
:1019840004490548FFF71AFDF0E700BFE80200200C
:101994000004014012270008DB26000808B52023B4
:1019A40083F31188094B9B6853B198470422084B71
:1019B4005A61002383F31188BDE80840FEF754BC44
:1019C40004490548FFF7FAFCF0E700BFE8020020ED
:1019D400000401401B270008DB26000808B520236B
:1019E40083F31188094BDB6853B198470822084BED
:1019F4005A61002383F31188BDE80840FEF734BC24
:101A040004490548FFF7DAFCF0E700BFE8020020CC
:101A14000004014024270008DB26000808B5202321
:101A240083F31188094B1B6953B198471022084B63
:101A34005A61002383F31188BDE80840FEF714BC03
:101A440004490548FFF7BAFCF0E700BFE8020020AC
:101A5400000401402D270008DB26000808B52023D8
:101A640083F31188094B1B685BB198474FF4787274
:101A7400074B5A61002383F31188BDE80840FEF741
:101A8400F3BB04490448FFF799FCEFE70003002087
:101A94000004014036270008DB26000808B520238F
:101AA40083F31188094B1B685BB198474FF47C4260
:101AB400074B5A61002383F31188BDE80840FEF701
:101AC400D3BB04490448FFF779FCEFE7FC0200208C
:101AD400000401403F270008DB260008202383F38D
:101AE4001188034B9B68002383F31188FEF7BCBB6A
:101AF40000300140202383F31188034B9B680023AB
:101B040083F31188FEF7B0BB003800402DE980480C
:101B1400B74C89B0636A43F001036362636A980750
:101B2400FCD545F25552B34B1A6006225A6040F276
:101B3400BF229A604AF6AA221A604CF6CC421A6076
:101B4400AD4B04AA1F4603F11006154618685968E0
:101B5400083303C5B3422A46F7D13869716802AB2A
:101B640003C36368C3F38103012B00F07C82022B5F
:101B740040F07B8263686268C3F38343D10303F15B
:101B8400020300F16A829D4A53436268DFF870825F
:101B9400C2F3031220326A4412F8102C994ED34037
:101BA400C8F8003061686268C1F3022120316944D9
:101BB40011F8181CC2F3C22223FA01F1C8F8041068
:101BC4004FF0FF3120326A4412F8182CD340C8F881
:101BD4000830226921612269002222612069E068BB
:101BE400E160E168E260E168E169874841F08051C1
:101BF400E161E169E16941F00061E161E169114696
:101C0400C0E9002206EB82056D68296000EB4205FD
:101C140004321C2AA960F5D14FF0FF307B4A2025FD
:101C24005060A2697A4842F48032A261A269426893
:101C34004FF0807642F48002426042F21072B3FBAD
:101C4400F2F3744A013B93624FF6FF700123D062B2
:101C540091615163D1605160536113606E4A82F89F
:101C64001853C2F8806116606C4E06F11402C6E97E
:101C74000522802233876A4BF262B160F06106F17B
:101C84002402D8683261674A20F4E0607263000479
:101C9400654A000C0243C6E90066DA60D3F8FC200A
:101CA400624842F08072C3F8FC20026842F00102EC
:101CB40002601022DA7783F8225081F3118862B629
:101CC4005B4AB02713465521013F02F8011BFBD1A3
:101CD400202282F31188574A5748C3E91B27574AE1
:101CE400C3F89C00C3F88C200122C3F89820022278
:101CF400C3F8A030A3F8A4202430FFF7D9FA87F35F
:101D040011884F4D05F1A403C5E929331223C5F801
:101D1400A0704C4FC5F8AC30D7F80C9005F198037F
:101D2400C5E92633B9F80C10D9F80800C5E92455DB
:101D3400FEF716FFD9F80430434A934240F09781E6
:101D4400A26942F48042A261A269D8F80820D9F8B5
:101D540000104FF0000AB2FBF1F29A603B49394A95
:101D6400D9F81800C3F810A0FEF754FFD7F80C9068
:101D74004268D9F804307860191D9160D9F82010B0
:101D8400D9F81000116001220C2187F89820D9603D
:101D9400C0215961B9F81410FEF70CFF52465146A0
:101DA400D9F81C00FEF736FFF96843684A68B86042
:101DB400101D98602648496AD860542058601960FC
:101DC400196841F001011960D36843F40053D360EA
:101DD400204B1A6802B91F601F4F3B68002B41D18A
:101DE40080211E4A1E48FFF791FA38603AE000BF8E
:101DF4000010024000300040B426000800093D00F5
:101E04002C020020A0280008B00A00200000024094
:101E1400002004E00040014000E100E0C00900208F
:101E240000ED00E0000100200003FA05001000E0CE
:101E3400000A0020FD0200086C0A00207501000859
:101E44003802002084040020003801401D090008E5
:101E54002C0500208C090020B809002095120008E8
:101E640058080020B44BB54AB5495A60B548B64A3B
:101E7400FFF778FAD8E90002B449D8F80830B2FB81
:101E8400F1F2B3FBF1F3B0FBF1F1B148FFF76AFAF9
:101E94004FF0040AAF4F3846FEF7DEFA07F11C0094
:101EA400FEF7DAFA07F13800FEF7D6FA00233846CF
:101EB4001A461946FFF708F8BAF1010A07F1540760
:101EC400E9D14FF0030BA44F04A83B787A78DFF8EC
:101ED4008C9243EA0223ADF81030BB788DF81230AF
:101EE400FB788DF81330FEF783FD9D4B99F806209F
:101EF400B9F8041059F80C0B0193FEF75BFE019B33
:101F0400BBF1010B03F801ABF0D1DFF858A280213B
:101F1400954A9648FFF7FAF99AF80030002B40F0FA
:101F24001B82DFF84C92B9F81610D9F80C00FEF7B2
:101F340061FA072900F2AD800F2389000268C9B253
:101F44008B4022EA03030360012302688B4013439E
:101F54000360D9F80800B9F81010FEF701FEB9F8CB
:101F64001210FEF7FDFDB9F81410FEF7F9FDD9F8CB
:101F740018B0B9F81C10584699F81E200191FEF7C4
:101F840019FE01997B4801F003028345C1F38703DD
:101F94004FEA820240F08E8001209B0003F18043CF
:101FA40003F58033D3F808C000FA02F242EA0C02C7
:101FB4009A600122704B8A401968DFF8B49111438A
:101FC4001960596821EA02015960996821EA0201FD
:101FD4009960D9681143D9605A61FEF733FDD9F885
:101FE400042066498A4240F08A80A36943F48053FE
:101FF400A361A3694FF441738A420CBFD8F8081057
:10200400D8F8041013605E4BB1FBF3F3802B7FDC34
:10201400402B7FDC202B7FDC102B7FDC082B7FDC2C
:10202400042B7FDC022BD4BF002301231168302052
:1020340041EAC3031360136843F040031360FEF7DF
:1020440027FD002870D0D9F804204E48136823F0E7
:1020540040031360FFF786F9BBE0626892034CBF4C
:10206400494A4A4A90E5494B8FE5494B8DE5494A2F
:10207400934207D1E26942F40032E261E269D8F89E
:10208400042064E6444A9342F9D1E26942F480228E
:10209400F3E7A1F108030F219B004268DBB29940EA
:1020A40022EA010242600122416802FA03F30B436F
:1020B40043604EE73948834508D19B0003F18043D0
:1020C40003F580330220D3F808C06DE73448834514
:1020D40008D19B0003F1804303F580330320D3F838
:1020E40008C061E72F4883457FF463AF9B0003F189
:1020F400804303F580330420D3F808C054E72A4B07
:102104009A4201BFE36943F48043E361E36971E701
:1021140007238BE7062389E7052387E7042385E75D
:10212400032383E7022381E707210620FEF7D4FC7B
:1021340000283DD01D488DE700000140040A00023C
:1021440056270008652700084827000840420F006A
:102154006D27000804030020EA05002090090020F0
:10216400B409002054040020151200083807002088
:1021740000020020000C0140000401400030014036
:10218400A02E63009C270008808D5B00001BB70015
:1021940000127A0000440040004800400010014052
:1021A400001401400018014000380040A92700082D
:1021B4008DF8100004A90620FEF7ACFC8046002828
:1021C4004ED19DF81040072C4CD02146C248FFF751
:1021D400C9F8202383F31188C04CB4F81880201D5B
:1021E400FEF734F941462346BD4A201DFEF786F822
:1021F4004FF0000888F31188DFF8E8922023CDE936
:10220400048883F31188D5F8A030013B002BC5F86E
:10221400A030C0F2B480D5F89020134653F8081BC0
:10222400049152680592B04AA2F19001934228BFEA
:102234000B46C5F89030D5F8AC300133002BC5F807
:10224400AC300ADCD5F8A400A84A0368C5F8A43069
:102254005A60C0F81880FEF7F5FEFFF763F9A0E0B6
:10226400A348F7E63A20FEF713FC20210D20FEF7E1
:1022740033FC25210E20FEF72FFCED210F20FEF765
:102284002BFCA3211320FEF727FCFF211420FEF7CB
:1022940023FC08211820FEF71FFC21460320FEF72B
:1022A4001BFC3F214046FEF717FC06210220FEF7E7
:1022B40013FC0C212046FEF70FFC44210820FEF7F6
:1022C4000BFC50213E20FEF707FC21461620FEF7AA
:1022D40003FC30211720FEF7FFFBB9F81C30092B53
:1022E40043D8042B43D806339BB2702103F16042D8
:1022F40002F5614282F80013012203F01F015B0919
:102304009B0003F160438A4003F561430821C3F84D
:10231400802106201A60FEF7DFFB30211720FEF72C
:10232400DBFB99F8201021BB0A20FEF7D5FB5021D6
:102334003E20FEF7D1FB99F82040ECB9DFF8B481D8
:1023440098F80110013418F8020BFEF7C5FB142CA1
:10235400F6D101238AF800306748FFF703F8FF211C
:10236400664A6748FEF7D2FF33E72823BDE7172301
:10237400BBE7FEF7ADFBD4E7FEF7AAFBDBE7336967
:10238400604A05209A611A60D5F89C205A6013604F
:10239400C5F89C30FEF7F4FE33699B69002B3FF4CB
:1023A4003AAF002383F311889DF81530013B062BC7
:1023B4003FF624AF01A252F823F000BFDD2300084A
:1023C4004B2500082F2400080122000801220008E0
:1023D400012200082D250008049C4B49D4F850A084
:1023E400D4F800B08A4503D05046FEF71AF928B94C
:1023F400DBF804304549204698470DE044498A45B6
:1024040003D05046FEF70DF958B92046DBF804A076
:10241400404B414A4149D047236820461B689847AE
:10242400ECE6DBF804303E49E5E79DF811A09DF8A1
:102434001040514622463B48FEF794FFBAF1000F84
:1024440017D114B1032C7FF4D9AE3B8801339BB26E
:10245400B3F5B47F28BF00233B80ADF80830BB78C8
:1024640002A88DF80A30FB788DF80B30FEF7AEFD2C
:10247400C4E6BAF1010F0BD114B1032C7FF4BEAE44
:102484003B8813B1013B9BB2E6E74FF4B473E3E737
:10249400BAF1020F7FF4B2AE002C7FF4AFAEB9F8FC
:1024A4000030B3B1782B14BF0023F023A9F8003017
:1024B400D9F80030C3F307423B60ADF808308DF81B
:1024C4000A20C3F3076302A88DF80B30FEF790FAD5
:1024D40094E67823EAE700BFB427000868040020E4
:1024E40011060008E6050020C8020020DC020020D6
:1024F400C927000810280008D42700080D17000871
:1025040018060020D0020020E0270008E527000874
:10251400EA2700084827000856270008662700080D
:10252400F2270008FF2700080948FEF71BFFBDF843
:102534001030A9F800303B80ADF80830BB788DF836
:102544000A30FB78BFE74AF6AA22024B1A6055E626
:102554000A280008003000400020002138B53E4B16
:102564003E4AC3E900014FF4E131C3E924333C4B53
:102574003C4DC2E9001306230720C2E9025303239A
:102584000424C2E905039223C2E907434FF48553A7
:102594005362354B1561DA6003F11002C3E924225A
:1025A400324A0024012102F10800186002F13000CF
:1025B4004032C3F804212C22C3F8000183F8981098
:1025C40083F8FC10C3E90144C3E92744C3E9524436
:1025D400C3E95444C3F8A440254B1A7064225970CB
:1025E4006FF00F019A70DA70224B19709A70DA70DA
:1025F4005C70214A214B1A60214A9A61FEF772FBF2
:10260400204B2149DFF884C0214AC3E904C10221D7
:102614001A60204A99835A60A2F52052C3E9022223
:102624009D619C7783F82040C3E909441A4B1B49F8
:102634001C701B4B1B481A604FF4003288605A60B0
:1026440019491A4A9D61C3E904120131C3E9071209
:10265400C3E9022538BD00BF38020020F005002080
:1026640000380140000C0140840400205028000878
:10267400EA050020E6050020402800086804002040
:1026840006270201000200200700040005000600DE
:102694004C2800080030014054040020E8020020C7
:1026A40090090020CD1000080C00020079150008E4
:1026B40000000000000000000102030406070809EE
:1026C4000000000001020304737461636B206F76E1
:1026D4006572666C6F7700556E68616E646C6564D4
:1026E4002025530D00202C00483A2025753B20520C
:1026F4007373693A2025640D000D48617264466164
:10270400756C740D00566563746F723538005665C8
:1027140063746F72354300566563746F72363000AC
:10272400566563746F72363400566563746F72361F
:102734003800566563746F72394300566563746F6D
:102744007245300032303234303532355F31333116
:10275400300057616E646572696E6747686F7374A1
:10276400000D25532025530D0041484246726571E2
:102774003D25754D487A3B20415042314672657182
:102784003D25754D487A3B20415042324672657171
:102794003D25754D487A0D004343205273742046FD
:1027A40061696C0D0043432057204661696C0D003C
:1027B400434320522F57204661696C3B2072706C52
:1027C4003D25750D0043432052204661696C0D0080
:1027D400434320696E6974206F6B0D0050696E6706
:1027E400004F6B0D0A0056657273696F6E00436D7E
:1027F40064556E6B6E6F776E0D0A0042746E202501
:10280400752025750D0052436D640D000B080C00F6
:10281400105B11E51213154621B62210191D1A1C5E
:102824001BC71C001DB223EA242A2500261F2C8165
:102834002D312E09000000000000000045110008A1
:102844000000000000000000AB10000800000000C1
:102854000000000097060008FD1500085506000852
:102864000909000899130008A7080008A708000828
:10287400B308000800FFFFFF000000008F060008F7
:1028840015090008FCFEFFFF00000000C70800084F
:10289400B7130008AB080008AF08000800000240A6
:1028A40008000240010000000000000B000002408C
:1028B4001C000240020000000004010C0000024061
:1028C40030000240040000000008020D0000024035
:1028D4004400024008000000000C030E0000024007
:1028E40058000240100000000010040F00000240D5
:1028F4006C0002402000000000140510000002409B
:1029040080000240400000000018061190290008D1
:10291400F00A0020F00A0020F00A002090290008A4
:1029240000000000000000000000000090290008E2
:1029340000000000000000000000000090290008D2
:1029440000000000000000000000000090290008C2
:1029540000000000000000000000000090290008B2
:1029640000000000000000000000000090290008A2
:102974000000000000000000000000009029000892
:0C29840000000000000000000000000047
:040000050800026588
:00000001FF
