:020000040800F2
:10000000000200206D0100086F010008ED100008DB
:100010006F0100086F0100086F0100086F01000800
:100020006F0100086F0100086F01000855210008EA
:100030006F0100086F0100086F0100086F010008E0
:100040006F0100086F0100086F0100086F010008D0
:100050006F0100086F010008FD1000083D11000845
:100060007D110008BD110008FD110008592300088A
:100070006D2300088123000895230008A9230008A8
:10008000BD230008D12300086F0100086F0100089C
:100090006F0100086F0100086F0100083D120008A1
:1000A000311B00086F0100086F0100086F01000894
:1000B0006F0100086F0100086F0100086F01000860
:1000C0006F0100086F0100086F0100089913000814
:1000D000C91300086F0100086F0100086F010008D4
:1000E0007D1200086F0100086F0100086F01000811
:1000F0006F0100086F0100086F0100086F01000820
:100100006F0100086F0100086F0100086F0100080F
:100110006F0100086F0100086F0100086F010008FF
:100120006F0100086F0100086F0100086F010008EF
:100130006F0100086F0100086F0100086F010008DF
:100140006F0100086F0100086F0100086F010008CF
:100150006F0100086F0100086F0100086F010008BF
:0C016000AD02000811090008250D000880
:10016C0016E000F000F8FEE72DE9F04FC1F80CD0D6
:10017C00C3689D46BDE8F08F002383F311882846A1
:10018C00A047002001F038FF01F007FE00DFFEE77A
:10019C0072B6274880F30888264880F309882648D9
:1001AC004EF60851CEF200010860022080F314884C
:1001BC00BFF36F8F01F0F8FF01F0F7FF4FF05530F0
:1001CC001E491B4A91423CBF41F8040BFAE71C49FB
:1001DC00184A91423CBF41F8040BFAE719491A4AF4
:1001EC001A4B9A423EBF51F8040B42F8040BF8E745
:1001FC0000201749174A91423CBF41F8040BFAE71B
:10020C0001F0D6FF01F0D2FF134C144DAC4203DACF
:10021C0054F8041B8847F9E700F090FA104C114D84
:10022C00AC4203DA54F8041B8847F9E701F0BFBF6E
:10023C000002002000060020000000080000002042
:10024C00000200207826000800060020040600208A
:10025C0008060020100E0020600100086C01000848
:10026C006C0100086C010008034613F8012B002AEE
:10027C00FBD1181A01387047816A10B5044619B1C0
:10028C0088470023A36210BD2430BDE8104001F064
:10029C00C4BE00000148FFF7EFBF00BF08060020F6
:1002AC000D4B0E4A0E491A600E4A0F485A60A2F5C1
:1002BC002052C3E902220D4AC3E904120C4A0D492B
:1002CC009A6102229A8300228860C3E909229A77F4
:1002DC0083F82020704700BF08060020082400087F
:1002EC000500060000300140A102000807000400D0
:1002FC00000C0140940B0020F0B56FF0404700F16A
:10030C002C0400F1B80C1C34644508D054F80C5C77
:10031C007E1954F81C5C05EB86056963F3E76FF0F6
:10032C00404600F19C0100F594771C31B94208D08D
:10033C0051F80C4C351951F81C4C04EB85046263D4
:10034C00F3E76FF0404500F5867200F5CC701C3277
:10035C00824208D052F80C1C6C1852F81C1C01EB91
:10036C0084014B63F3E7F0BD002313B51A4619461D
:10037C000446FFF7C1FF0023C4F87C3102B010BD66
:10038C0070B513490446006D00F06CFD30B923685C
:10039C0010495B682046BDE8704018470E49206D37
:1003AC0000F060FD48B9236820465D680B4AAC46F6
:1003BC00BDE870400A4B0B4960470B49206D00F0BB
:1003CC0051FD18B1236809495B68E3E770BD00BFB4
:1003DC000C24000811240008162400082C24000802
:1003EC001E24000851240008342400083824000876
:1003FC0070B542F210744C434FF47A7104F2E73446
:10040C00B4FBF1F403690546061DA4B213B13046E2
:10041C0001F05EFE2B4621463046BDE87040014A95
:10042C0001F010BEDD0D000870B5C569D0F87C3147
:10043C00D5F8052004469A4200F08780D5F8016073
:10044C006979AA79EB7956B9FFF756FFE369D3F8C6
:10045C0005200933C4F87C21E361002074E090F896
:10046C007C0181422BD9013084F87C0194F87D11F8
:10047C00914227D2013184F87D1194F87E219A4261
:10048C0023D2013284F87E2194F87F312A7A934268
:10049C001ED2013384F87F31204694F87E3194F8D3
:1004AC007D2194F87C11FFF727FFE069D4F87C21BB
:1004BC00D0F805309A420ED10930E061CDE7D5D2A3
:1004CC000138D1E7D9D90139D5E7DDD9013AD9E7D6
:1004DC00E2D9013BDEE794F87C114379D0F8012096
:1004EC008B421CBF0431B2FBF1F194F87D3118BF83
:1004FC004D1C817908BF002599421BBF0433B2FB08
:10050C00F3F30021591CA94294F87E3138BF2946D7
:10051C00C579007A9D421BBF0433B2FBF3F3002371
:10052C000133994238BF194694F87F3198421BBF6A
:10053C000433B2FBF3F2002201329142204638BF61
:10054C001146FFF755FF012070BD0935C56184E7E1
:10055C00202208B582F311884FF0FF320368C0E9FE
:10056C0006111B6802629847002383F3118808BDAB
:10057C0000248FB5684D20238DF80D40029483F331
:10058C001188664E4FF6FF7106F1980001F00CFCD5
:10059C00A8B93246D6F8901001F1080342F8903F02
:1005AC00934228BF334608680290496806F1A400BC
:1005BC000391C6F8903001F013FC01F0E5FB84F3D5
:1005CC0011889DF80D30032B0CD0072B30D0012B4C
:1005DC00D1D1029E3046FFF7D3FE336830461B68FC
:1005EC009847C8E79DF808209DF809104C4800F082
:1005FC00FDFF4C4B4C4A196851B9FF21C2F805104C
:10060C00012200911A6048494848FFF7A1FFB2E760
:10061C00012906D14FF47F41C2F805100091022246
:10062C00F0E74FF47F011C600091C2F80510EAE777
:10063C0043F23903DFF800C14FF0780EDCF800000C
:10064C0005FB003040F2691320F00042B2FBF3F6D8
:10065C0003FB1626364AB7B2D3789178168042F24D
:10066C0010725943C1EB0121B1FBF2F1B7FBFEF261
:10067C000EFB12724FF0640EC3EB0323B3FBFEF3BD
:10068C004FF03C0E92B23C3A002AB8BF5242C2F133
:10069C003C024A43B2FBFEF25B1ADBB219441A4429
:1006AC003B2EC9B2D2B20DD9772E0FD9B32F10D998
:1006BC00EF2F2CD9B7F5967F1E462AD213460A4641
:1006CC00314606E01E460B46114601E01E46134617
:1006DC0032468DF805108DF806208DF804308DF813
:1006EC0007401449019B4FF49E72C1F8053043F248
:1006FC00390305FB0030CCF8000020F00040B0FBC3
:10070C00F2F302FB13008730C1F801007CE70E46C0
:10071C00DAE70B46D4E700BF6D4EC6413806002021
:10072C00452400086C080020100A0020E806002070
:10073C000C0A00202B0A00200006002083B52B4851
:10074C0000F0B6FD01F0CFF901F05AFB0122284C64
:10075C00284B04F1A40012211A70C4E9244401F0BE
:10076C001EFB002104F1980001F019FB224801F056
:10077C00E1F8224B224A23495A602348234A244C4D
:10078C0000F034FF194800F0EDFD0025264604F179
:10079C002C0778191C3500F005FC702DF9D10025BB
:1007AC0004F19C0778191C3500F0FCFB702DF9D175
:1007BC00002504F5867460191C3500F0F3FB702DD0
:1007CC00F9D1002312481A461946FFF795FD072365
:1007DC008DF8053000237362019B0E490C48B362FF
:1007EC00FFF7B6FE00F040FAFFF7C2FE880B0020C0
:1007FC0038060020680800208C080020000001400A
:10080C00040A00022C240008502400081E240008AE
:10081C00E80600202B0A002008B5D0F8AC30002BDD
:10082C0019DD013BC0F8AC30D0F8943003F108026C
:10083C00C0F894200A681A604A685A60D0F894206C
:10084C0000F190039A4228BFC0F89400983001F050
:10085C00C7FA002008BD0220FCE7000038B5036988
:10086C00044613B1043001F033FC4FF0FF35E3695B
:10087C001A78042AFDD8DFE802F0030A14253100A7
:10088C00236820469B6898470128F0D138BDD3F8DF
:10089C0001100933E3610029E9D02046FFF7A8FDD8
:1008AC00F4E7D3F80130A26903EBC3031344E3610B
:1008BC0094F8293023B1124804F12401FFF7ACFF5E
:1008CC000121EAE794F8293023B10D4804F1240101
:1008DC00FFF7A2FF0023C4E90633D7E7226A0132EF
:1008EC0004BFD3F801202262226A1AB909332562A7
:1008FC00E361BCE7A369013AE3612262B7E700BF99
:10090C0038060020002000214FF4E132894B2DE9FC
:10091C00F04FC3E90001C3E924338749874B922484
:10092C00C1E9002306238B8107238B824FF4855367
:10093C0003274FF004088248C1E90843814BC1E901
:10094C00067888600861D96003F11001C3E92411AD
:10095C007D4900220124196001F128053831C3F8C2
:10096C000411682183F8984083F8FC40C3F80051C7
:10097C00C3E90122C3E92722C3F8A420C3F8482104
:10098C00A3F85221C3F84C2183F85021C3F8542109
:10099C006E4B6FF06B051A705970FF21C3F80A206B
:1009AC009C70DA701A715A719971DA711A725F72DD
:1009BC009A73DA731A745A74654B4FF0804C9D72AB
:1009CC001125DD7278255C721A705A709A70DA7083
:1009DC001A7159719A71DA711A721A735A739A736D
:1009EC00DA731A745A74C3F813201A765A769A76F4
:1009FC009F74DA75574B4FF00B091D7064255A70B4
:100A0C009D70DD70544B554D4FF00A0B1D60544DCD
:100A1C004FF0080A9D614FF0FF35524BDFF854E15F
:100A2C00C3E90852504D514E1D60514DC3E90B6046
:100A3C00C3E90E67C3E912C006F5A036C3E915C8B1
:100A4C00A3F85090C3E9195E83F829209A86A3F87D
:100A5C0040205964A3F85C201966A3F86CB0C3E974
:100A6C001C57A3F8DC90DFF81091C3E92060C3E9B0
:100A7C002364A6F5A036C3E92760C3E92A68C3E955
:100A8C003154C3E93858A3F8A4404FF00908C3E91E
:100A9C002D15C3E93415A3F87820D967A3F888A0DD
:100AAC00A3F89420C3F89810A3F8B020C3F8BCE0C6
:100ABC00A3F8C0A0A3F8CC20C3F8D8E0A3F8E82092
:100ACC00C3F8EC10C3E93C90C3E93F94A3F814417C
:100ADC00C3F82C010224C3F864010520C3E9421CAD
:100AEC00C3E9491CC3E94DC7C3E95015C3E95454C4
:100AFC00C3E95716C3E95B64A3F8F880A3F8042193
:100B0C00C3F810E1C3F818C1C3F81C41A3F82021A5
:100B1C00A3F830B1A3F83C21C3F848E1A3F84C8109
:100B2C00A3F85821A3F86801A3F87421C3E95E1255
:100B3C00BDE8F08F38060020E409002000380140A1
:100B4C00000C01408C0800200C2500082B0A00200A
:100B5C00100A00200C0A002070080020FC24000859
:100B6C00A08C0400E806002060240008000400406B
:100B7C00002C014000080140004801404FF00409DE
:100B8C002DE98848DFF8848000261F4C314620462A
:100B9C0001274FF0030AD8F808301C4D2A68B5F825
:100BAC0004C0D2F808E007FA0CFC1CEA0E0FA346AE
:100BBC00227804F101041DD0012A01D0042A15D198
:100BCC0004F801ACAA689A421CD003B19847584665
:100BDC000021AB680136032E05F10C05DED103B103
:100BEC0098474FF4E17001F00CFACDE7022204F8BB
:100BFC00012CE7E7023A012A94BF04F8019C04F89F
:100C0C00017CDFE70131E5E7840B0020600B00205D
:100C1C00104B984205D1104A936943F00403936139
:100C2C0070470E4B984204D10B4A936943F008036A
:100C3C00F5E70B4B984204D1074A936943F0100334
:100C4C00EDE7084B9842EBD1034A936943F020033C
:100C5C00E5E700BF0008014000100240000C014015
:100C6C0000100140001401402DE9F341002501273B
:100C7C00254C264E94F806802068A188FFF7C8FF03
:100C8C00B8F1000F2CD0C36807FA01F2B8F1020FCB
:100C9C000CBF934313430822C360072922D88B004F
:100CAC000F21D0F800C0DBB299402CEA01010160A1
:100CBC00016802FA03F30B43036000230135032D93
:100CCC0006F8013B04F10C04D4D1009380224FF4BC
:100CDC0090710F4B0F4801F05FF902B0BDE8F08145
:100CEC000422DAE74FF00F0C083989004368C9B2C7
:100CFC000CFA01FC23EA0C034360436802FA01F18D
:100D0C0019434160D9E700BF600B0020840B002021
:100D1C00890B0008400A00200A4B0B4A10B51A60D8
:100D2C0000220A489A800A4A02210C24C3E90520B1
:100D3C00D8600D2099719A601C8299749883997768
:100D4C001A6210BD600B002000080140000C01402D
:100D5C00610D00082DE9F74306460F4600251B4C94
:100D6C0004F1900804F19809EBB29F422AD9F25C85
:100D7C00032A25D18DF80520002200928DF8013030
:100D8C00202383F31188D4F8AC30934213DD013B5C
:100D9C00C4F8AC30D4F89430009A03F10801C4F8CC
:100DAC0094101A60019A41455A60484628BFC4F80D
:100DBC00944001F015F800F0E7FF002383F311884D
:100DCC000135D1E703B0BDE8F08300BF3806002041
:100DDC00202208B582F3118803681B68984700230A
:100DEC0083F3118808BD000073B5837E04468DF82B
:100DFC000530194BD3F8AC20002A18DD0021013A3C
:100E0C00C3F8AC20D3F8942002F10800C3F8940086
:100E1C00117051709170D1700199516003F1900271
:100E2C0090420E4828BFC3F8943000F0D9FFE37EFF
:100E3C00012B0FD12369268B251D13B1284601F0F8
:100E4C0047F9234631462846054A02B0BDE87040B2
:100E5C0001F0F8B802B070BD38060020D0060020B2
:100E6C00DD0D0008884230B515D0431E13F8014F34
:100E7C002046A4F14102192A11F8012B98BF04F164
:100E8C002000A2F14105192D98BF2032801A01D102
:100E9C00002CEBD130BD0020FCE770B508B9106810
:100EAC0068B103460E46184613F8014B16F8015B61
:100EBC0015B1AC42FAD1F5E72CB92046146070BDDF
:100ECC0023460CE015B90E4613F8014B16F8015BDE
:100EDC00AC42F7D1002CF3D0002103F8011C1360B5
:100EEC00EDE700000368264A934206D1254B9A6928
:100EFC0042F400629A619B697047B3F1804F07D14D
:100F0C0003F50433DA6942F00102DA61DB697047F8
:100F1C001D4A934204D11B4BDA6942F00202F4E7FA
:100F2C001A4A934204D1174BDA6942F00402ECE7F7
:100F3C00174A934204D1134BDA6942F01002E4E7EA
:100F4C00144A934204D10F4BDA6942F02002DCE7D9
:100F5C00114A934204D10B4B9A6942F48032C9E78F
:100F6C000E4A934204D1074B9A6942F40032C1E70E
:100F7C000B4A9342C0D1034B9A6942F48022B9E7E1
:100F8C00002C01400010024000040040000800400A
:100F9C00001000400014004000400140004401409B
:100FAC000048014010B50146FFF79CFF4FF440424A
:100FBC0003685A648269DA62027D0069012A00F1D1
:100FCC00FF300CBF0722062203280BD8DFE800F005
:100FDC0002323A42986940EA02129A611A6A42F065
:100FEC0001021A621A68486842F001021A602F4A1C
:100FFC000B899042497D02F5843233D1946944F0D7
:10100C00040494619469072B44F0010494614FEA41
:10101C00810242F009023AD80F249B000168DBB22E
:10102C009C4021EA04010160016802FA03F30B43BE
:10103C00036010BD986940EA02329A611A6A42F064
:10104C001002CEE7D86940EA0212DA611A6A42F459
:10105C008072C6E7D86940EA0232DA611A6A42F451
:10106C008052BEE7124CA04203D1946944F00804AC
:10107C00C7E7104CA04203D1946944F01004C0E7B8
:10108C000D4CA042BED1946944F02004B9E70F2462
:10109C00083B9B004168DBB29C4021EA04014160A3
:1010AC00416802FA03F30B434360C2E700080140B6
:1010BC00000C01400010014000140140074B0138A6
:1010CC005A6922F080025A6110F8012F22B1196876
:1010DC000906FCD55A60F7E7704700BF003801409D
:1010EC0008B50248FFF7EAFF01BEFEE76C240008D2
:1010FC0008B5202383F31188094B1B6853B198471B
:10110C000122084B5A61002383F31188BDE8084083
:10111C0001F024B80449054800F080FAF0E700BF5C
:10112C00940B00200004014078240008812400085E
:10113C0008B5202383F31188094B5B6853B198479A
:10114C000222084B5A61002383F31188BDE8084042
:10115C0001F004B80449054800F060FAF0E700BF5C
:10116C00940B0020000401408F2400088124000807
:10117C0008B5202383F31188094B9B6853B198471A
:10118C000422084B5A61002383F31188BDE8084000
:10119C0000F0E4BF0449054800F040FAF0E700BF56
:1011AC00940B0020000401409824000881240008BE
:1011BC0008B5202383F31188094BDB6853B198479A
:1011CC000822084B5A61002383F31188BDE80840BC
:1011DC0000F0C4BF0449054800F020FAF0E700BF56
:1011EC00940B002000040140A12400088124000875
:1011FC0008B5202383F31188094B1B6953B1984719
:10120C001022084B5A61002383F31188BDE8084073
:10121C0000F0A4BF0449054800F000FAF0E700BF55
:10122C00940B002000040140AA240008812400082B
:10123C0008B5202383F31188094B1B685BB19847D1
:10124C004FF47872074B5A61002383F31188BDE881
:10125C00084000F083BF0449044800F0DFF9EFE7D1
:10126C00AC0B002000040140B324000881240008CA
:10127C0008B5202383F31188094B1B685BB1984791
:10128C004FF47C42074B5A61002383F31188BDE86D
:10129C00084000F063BF0449044800F0BFF9EFE7D1
:1012AC00A80B002000040140BC2400088124000885
:1012BC00264BF0B503F1100704463E4687B002AD4D
:1012CC002A4618685968083303C2BB421546F7D141
:1012DC006B46306871681E4A03C35368C3F38103BD
:1012EC00012B2ED0022B2ED153685168C3F38343AC
:1012FC00C80303F102031DD416494B43516806A8D9
:10130C00C1F30311014411F8101CCB402360516848
:10131C005268C1F30221C2F3C2220144024411F803
:10132C00181C12F8182C23FA01F1D3406160A36049
:10133C0007B0F0BD5168890301D50749DDE70749BE
:10134C00DBE7064BDAE7064BD8E700BFE8230008DB
:10135C000010024000093D00808D5B00001BB700AF
:10136C0000127A0006480749836805C8B3FBF1F3FD
:10137C00B2FBF1F2B0FBF1F1034800F037B900BF5A
:10138C00880B002040420F00C524000808B520231C
:10139C0083F31188074B9B68DB0703D5064B1B684F
:1013AC0003B19847002383F31188BDE8084000F08F
:1013BC00D5BE00BF00300140B00B002008B5202383
:1013CC0083F31188074B9B68DB0703D5064B1B681F
:1013DC0003B19847002383F31188BDE8084000F05F
:1013EC00BDBE00BF00380040B40B00202DE9F04317
:1013FC0085B0984601AB0646002508461F469DF869
:10140C003090B0FBF2F4844602FB1401204609290B
:10141C00CCB294BF30343734E4B2944505F10105B5
:10142C0003F8014BEDD22C46336844451B680BD2B4
:10143C0049463046984718B10C2005B0BDE8F083FA
:10144C000134F1E7002DF8D03368013D30461B68BC
:10145C00795D98470028F5D0EEE72DE9F04F0B4663
:10146C00054614464FF00A0B85B01E4616F8011BB4
:10147C0031B928462B685B6805B0BDE8F04F1847BA
:10148C00252902D02B681B6864E05F784FF00009B7
:10149C00302F14BF20279E1C16F8011BA1F1300021
:1014AC00C0B2092804D92A2905D154F8040BC0B2BA
:1014BC000BFB0909F0E72E2909D116F8011BA1F144
:1014CC003003092BF9D92A2901D10434F5E7632912
:1014DC003BD015D8412963D003D82529D2D0334627
:1014EC00C3E7532939D05829F9D14B46102200971C
:1014FC00284654F8041BFFF779FF0028EFD0B8E713
:10150C0073292AD01BD8642901D06929E7D1A046B8
:10151C0058F8044B002C07DA2B682D2128461B6841
:10152C0098470028A5D164424B460A2221462846FA
:10153C000097FFF75BFF00289BD14446CFE7752946
:10154C00CDD14B460A220097D2E72B6854F8041BE6
:10155C001B68C9B228469847CFE7D4F800A050467C
:10156C00FEF782FE80460AF1FF3A1AF8011F31B1EC
:10157C002B6828461B6898470028F6D079E7A9EB1A
:10158C000808B8F1000F01DC0434A8E72B683946D1
:10159C0028461B68984708F1FF380028F1D068E707
:1015AC000027D4E9019823685FFA88FA03934F4522
:1015BC0001DB0C3493E76FB9039B1022D95D302308
:1015CC00284600930223FFF711FF00287FF451AF48
:1015DC000137ECE7B8F1000FEED02B6851462846E6
:1015EC001B6898470028E7D043E700000FB407B505
:1015FC0004AB53F8041B0193202383F31188064892
:10160C00019AFFF72AFF002383F3118803B05DF8DA
:10161C0004EB04B0704700BF8C0900200FB407B571
:10162C0004AA52F8041B04480192FFF716FF03B0FA
:10163C005DF804EB04B070478C0900207047012062
:10164C00704701207047012070470120704700004F
:10165C0008B5064C40F2DE3000F0D3FC20680028C0
:10166C00F8D003685B689847F4E700BFD80C0020FB
:10167C000EB403B503AA52F8041B00F58070019256
:10168C00FFF7EBFE02B05DF804EB03B07047A0F57A
:10169C008270EDE7104B984205D1104A936943F0E4
:1016AC000403936170470E4B984204D10B4A936923
:1016BC0043F00803F5E70B4B984204D1074A9369B2
:1016CC0043F01003EDE7084B9842EBD1034A9369C2
:1016DC0043F02003E5E700BF000801400010024082
:1016EC00000C01400010014000140140034653F867
:1016FC00902FD0F89C109B1A8B4228BF0B46C0F839
:10170C00A0307BB1002380F8983043685B68DA60C6
:10171C00D0F8A0205A60C268126A1A601A6842F0A7
:10172C0001021A607047436810B459680A6822F0C5
:10173C000F020A60597B1A680E238B4001465360D6
:10174C0051F8902FD0E9273422448A42A3EB0403AA
:10175C0028BF00F11002C0F89C30C0F8902033B9BB
:10176C00012380F89830036810BC1B68184710BC24
:10177C00FFF7BCBFFFF7D7BFD0F89C307F2B16D834
:10178C00D0F894305A1CC0F894201970D0F89420DA
:10179C0000F190039A4224BF00F11003C0F894307A
:1017AC00D0F89C300133C0F89C30002070470C20DE
:1017BC007047FFF7E1BFA0F58070FAE790F898301A
:1017CC000BB1FFF793BF7047FFF7F8BFA0F5807020
:1017DC00FAE78368D0F8A4205B685B68C3F1540314
:1017EC009B1A48BF543383B1531CC0F8A430024435
:1017FC0092F8A8300B70D0F8A430532B4FF00003A4
:10180C0001DDC0F8A430184670470B20704700006B
:10181C007FB590F8FC300446002B4ED00025384E96
:10182C0020460DF10701FFF7D4FF002845D194F8AD
:10183C0050319DF8072043B9B4F85211736A5B1A02
:10184C0040F2DE319BB28B4203D984F85051C4F87C
:10185C004C51736A082AA4F85231D4F84C3105D192
:10186C00002BDDD0013BC4F84C31D9E70D2A01D057
:10187C000A2A24D1002BD3D00025234483F8085105
:10188C00204904F5A47204F58470FFF706FB0123CC
:10189C00C4F8540184F850318DF80D3084F8FC50A4
:1018AC00202383F31188184BD3F8AC20AA420FDC09
:1018BC0000F06AFA002383F3118804B070BD3E2B4C
:1018CC00AED8591C2344C4F84C1183F80821A7E75F
:1018DC00013AC3F8AC20D3F89420039802F1080124
:1018EC0004F58274C3F894101460506003F19002F4
:1018FC009142064828BFC3F8943000F071FAD7E73C
:10190C00004001400025000838060020D0060020C9
:10191C00C268D2E90013054A9342054A0CBF92688B
:10192C005268B2FBF1F29A60704700BF0038014078
:10193C00880B0020C36837B5044698689989FFF76F
:10194C00A9FE584B07299A6942F001029A6179D88D
:10195C000F2589000268C9B28D4022EA0502026097
:10196C000922056802FA01F129430160E2684E4937
:10197C0052688A4276D19A6942F480429A619B6994
:10198C002046FFF7C5FF0022E06809214368806903
:10199C001A612346454A00F0B1FCE36841685A6875
:1019AC006060101D8860186A012508600C2184F89D
:1019BC009850D160C02118695161998AFFF76AFE6D
:1019CC00C3688D401D430729C5605BD80F22890071
:1019DC000368C9B28A4023EA020303600823026841
:1019EC0003FA01F1114301600023E0681A46092152
:1019FC00C06900F083FCE16843684A68A060101D70
:101A0C00986004F1A800D8605420496A58601960A5
:101A1C00196841F001011960D36843F40053D36095
:101A2C00234B1A6802B91C60224C236843B90093FB
:101A3C0080224FF49071204B204800F0ADFA2060CA
:101A4C0003B030BD0F25083989004268C9B28D40FA
:101A5C0022EA050242600922456802FA01F1294393
:101A6C00416083E716498A4205D1DA6942F40032B3
:101A7C00DA61DB6984E713498A4281D1DA6942F47D
:101A8C008022F5E70F22083989004368C9B28A40E1
:101A9C0023EA020343600823426803FA01F111436D
:101AAC004160A1E700100240003801408117000896
:101ABC00D80C0020DC0C00205D160008B80B0020B0
:101ACC000044004000480040202383F31188012388
:101ADC0080F8FC30002383F311887047FFF7F4BFC4
:101AEC00A0F58270FAE708B500F088FBBDE8084065
:101AFC0000F000B800F02AB80022034B58631A61BA
:101B0C000222DA60704700BF004001400022014B06
:101B1C00DA60704700400140014B5863704700BFCA
:101B2C0000400140084B10B51A69920708D50024F3
:101B3C001C61202383F3118800F0AAF984F3118827
:101B4C00BDE8104000F00ABB00400140114B0221DF
:101B5C009A69182042F480329A610F4A9B69536843
:101B6C0043F4800353600D4B9A6842F21073B2FB3E
:101B7C00F3F20B4B013A9A624FF6FF72DA620022D3
:101B8C009A615A63DA605A6001225A611A6000F055
:101B9C0009B800BF00100240002004E0880B0020B0
:101BAC00004001400122090100F1604303F561434B
:101BBC00C9B283F8001300F01F039A4043099B003D
:101BCC0003F1604303F56143C3F880211A60704749
:101BDC000022024BC3E900339A607047200D0020AD
:101BEC00002382680375054B1B6899689142FBD2F0
:101BFC005A6803604260106058607047200D0020E6
:101C0C0008B5202383F31188027D0023052A06D80A
:101C1C00DFE802F00B050503120E826913604FF02A
:101C2C00FF338361FFF7DCFF002383F3118808BDCA
:101C3C008269936801339360D0E9003213605A6073
:101C4C00EDE70000002382680375054B1B6899685B
:101C5C009142FBD85A68036042601060586070472C
:101C6C00200D002038B50C4C2569226828751168A8
:101C7C004C602160012122611175EFF30982296901
:101C8C00243A914202D9054800F0FCF82946206913
:101C9C00BDE83840FEF768BA200D00205425000836
:101CAC004FF6FF7330B5994204460B4D87B010D0F8
:101CBC002B690A4A01A800F0C5F92046FFF7D2FFAC
:101CCC00049B13B101A800F003FA2B69986907B0C3
:101CDC0030BDFFF7C7FFF8E7200D00200D1C0008F2
:101CEC0070B5114E8161336981689A6804469142DE
:101CFC0003D8BDE87040FFF773BF1846FFF7A2FF8B
:101D0C000123054634612375EFF309830269243BF3
:101D1C009A4202D9054800F0B5F829462046BDE89C
:101D2C007040FEF721BA00BF200D0020542500089A
:101D3C00044B1A681B6990689B68984294BF0020FA
:101D4C0001207047200D002038B50D4C2368206908
:101D5C001A685460226001221A752361FFF772FF22
:101D6C000546EFF309830269243B9A4202D90548E0
:101D7C0000F088F829462069BDE83840FEF7F4B930
:101D8C00200D00205425000808B5FFF7D1FF18B12D
:101D9C00BDE80840FFF7D8BF08BDFFF7D5BFC0E9C5
:101DAC000000816070470000826810B4541E002C43
:101DBC00846011DA21B982604FF0FF3010BC70479B
:101DCC00064B42681B6910BC986118605A6013601E
:101DDC0043600520FFF764BF0020EFE7200D0020D3
:101DEC00826803460132002A826007DC00680268C0
:101DFC001A60536000238361FFF7F2BE7047FEE761
:101E0C0010B5184CFFF7E4FE00F010F980222046C4
:101E1C00154900F085F8154B44F8140C03610123A7
:101E2C000375134B134AD96821F4E0610904090CBA
:101E3C000A431149DA60CA6842F08072CA600F49DD
:101E4C000A6842F001020A601022DA77202283F835
:101E5C002220002383F3118862B6BDE810400848A5
:101E6C0000F082B8440D0020632500080002002019
:101E7C0000ED00E00003FA05F0ED00E0001000E0DA
:101E8C007025000872B6014B1862FEE7200D002089
:101E9C002DE9F84F0027204CDFF88080656904F1AC
:101EAC00140AD8F82400E38B80B22A89C61AB6B279
:101EBC00B2421DD84FF020092B89E28BF61A1A4436
:101ECC002B68E2835345C3F804A0D5F80CB06361CA
:101EDC00B6B2EF6001D1FFF719FE87F311882869BC
:101EEC00D84789F3118865692B89B342E4D9D8E7BF
:101EFC00626952450ED01189E0830B441B1A138181
:101F0C002B89022B2CBFC0180230BDE8F84F80B2D1
:101F1C00FFF702BEBDE8F88F200D00200040014005
:101F2C008260022282827047D0E9012343F8102C90
:101F3C00A3F1440243F8142C026943F8442C42697F
:101F4C0043F8402C074A43F8242CC268A3F1200024
:101F5C0043F8182C022203F80C2C002203F80B2C4B
:101F6C00704700BF850100085521D0E9013210B53A
:101F7C009A420DD8202383F31188FFF7D5FF002157
:101F8C000446FFF7ADFE002383F31188204610BDF5
:101F9C0003F8011BECE7000070B504465526451804
:101FAC00A5421CD8202484F311882039441844F805
:101FBC00243C049BA4F1240144F8203C094B2061EF
:101FCC0044F8043C0223E160A38200212046A26075
:101FDC00FFF786FE002383F31188204670BD04F8BA
:101FEC00016BDDE785010008024B1B6998610F202E
:101FFC00FFF738BE200D0020202383F31188FFF754
:10200C00F3BF08B50146202383F311880820FFF79E
:10201C0047FE002383F3118808BD0346006820B1F6
:10202C0000221A608161FFF7DBBD7047044B03F19E
:10203C001402C3E905224FF6FF72DA61704700BF44
:10204C00200D0020F8B5C0E903231F4B0646586A43
:10205C001E4B02291A4652F8145F38BF02219542D2
:10206C001F4680B20BD1D8830844C3E9056680B201
:10207C00C6E900553181BDE8F840FFF73DBDDB8B6B
:10208C002A89C01A80B201448CB2844203D2A41AA9
:10209C002D68A4B205E0A24203D9181980B2FFF74B
:1020AC003BFD2B89A3420CD36B68356073601E60BB
:1020BC006E6034812B891C1B4FF6FF732C81BB8304
:1020CC00F8BDE41AE4E700BF00400140200D0020F9
:1020DC001B4910B40A4652F8144F036884420DD0C1
:1020EC0041680B600368596000219342C16003D0C2
:1020FC001A8901890A441A8110BC70470020934246
:10210C004B615A60E06002D110BCFFF7FFBC18892C
:10211C002289C98B104480B218810A4B5B6A9BB22E
:10212C005A1A92B29042E7D9CB1A03449BB2012BB4
:10213C009CBF023290B2084410BC80B2FFF7ECBCDA
:10214C00200D002000400140EFF30983203383F37E
:10215C000988002383F3118870470000202310B5F1
:10216C0083F311880D4B5B6813F4006312D0EFF30B
:10217C0009844FF0807344F8043CA4F1200383F3EA
:10218C000988FFF7D5FD18B1054B44F8083C10BD84
:10219C00044BFAE783F31188F9E700BF00ED00E088
:1021AC009501000898010008704770477047FEE7DA
:1021BC00F0B5082000261049D1E901341D460A6803
:1021CC00043AAC4210D8E21CD21ADD1E22F00302F3
:1021DC00AC4238BF00221344CA689A4209D801386D
:1021EC0001F11001E8D1F0BD52F8047F45F8047BF1
:1021FC00E7E743F8046BF0E7882500084FF0FF3160
:10220C0008B50E4B1A6919611A6900221A6118690E
:10221C00D868D960D968DA60DA68DA6942F0805235
:10222C00DA61DA69DA6942F00062DA61DB6900F0DE
:10223C0007F8BDE8084000F0CFB800BF001002401E
:10224C0000230121084A10B5C2E90033074844684D
:10225C001030236042F8313001310829F7D14FF0AA
:10226C00FF32034B5A6010BDE00C0020082600081A
:10227C000000024006289C462DE9F04136D8012783
:10228C001B4C874023681F4230D11A4E3B432360BE
:10229C004FEA0018184B06EB0015013044F83020BB
:1022AC0004EBC000C0F804C0586940F0010058614C
:1022BC005B694AB16268AB681A4202D1E87BFFF7EE
:1022CC0071FC63681F43676006EB08014B68497B30
:1022DC001A6856F8080022F00F021A600E228A4083
:1022EC00426000221A602846BDE8F0810025FAE71A
:1022FC00E00C0020082600080010024010B5202435
:10230C0084F31188FFF7B6FF002383F3118810BD07
:10231C0010B40468437B21684268D940126801F00C
:10232C000E010A420ED0827B01FA03F36360064B66
:10233C00013253F832402CB103EBC20358682346E8
:10234C0010BC184710BC7047E00C002008B50348BF
:10235C00FFF7DEFFBDE80840FFF700BF08260008C6
:10236C0008B50348FFF7D4FFBDE80840FFF7F6BEF9
:10237C001826000808B50348FFF7CAFFBDE8084057
:10238C00FFF7ECBE2826000808B50348FFF7C0FF8E
:10239C00BDE80840FFF7E2BE3826000808B5034840
:1023AC00FFF7B6FFBDE80840FFF7D8BE4826000887
:1023BC0008B50348FFF7ACFFBDE80840FFF7CEBEF9
:1023CC005826000808B50348FFF7A2FFBDE80840EF
:0A23DC00FFF7C4BE68260008704732
:1023E80000000000000000000102030406070809BD
:1023F80000000000010203040000000000000000CB
:102408008502000850696E67004F6B0D0A0056651B
:102418007273696F6E0032303232313231315F326D
:10242800323036004372797374616C00436C720009
:10243800436D64556E6B6E6F776E0D0A0042746E55
:102448002025752025750D000D25532025530D00D9
:10245800000000000000000069080008750300087B
:10246800350400080D486172644661756C740D008E
:10247800566563746F72353800556E68616E646CAA
:1024880065642025530D00566563746F72354300EB
:10249800566563746F72363000566563746F7236B2
:1024A8003400566563746F72363800566563746F0E
:1024B80072394300566563746F7245300041484273
:1024C800467265713D25754D487A3B204150423131
:1024D800467265713D25754D487A3B204150423220
:1024E800467265713D25754D487A0D000000000063
:1024F80000000000F50D0008202C0000000000007E
:1025080000000000491600081D180008BF17000841
:10251800D51700087D1600084B160008531600084A
:10252800E91A000800FFFFFF00000000C3170008B9
:10253800D9170008FCFEFFFF00000000ED1A000894
:102548009B1600084F16000857160008737461633D
:102558006B206F766572666C6F77006D61696E00CF
:1025680069646C650000000068250008600D0020A3
:10257800100E0020010000000B1E000800000000E3
:102588007C260008100E0020100E0020100E0020DF
:102598007C26000800000000000000000000000089
:1025A8007C26000800000000000000000000000079
:1025B8007C26000800000000000000000000000069
:1025C8007C26000800000000000000000000000059
:1025D8007C26000800000000000000000000000049
:1025E8007C26000800000000000000000000000039
:1025F8007C26000800000000000000000000000029
:102608000000024008000240010000000000000B2A
:10261800000002401C000240020000000004010CFF
:102628000000024030000240040000000008020DD3
:10263800000002404400024008000000000C030EA5
:102648000000024058000240100000000010040F73
:10265800000002406C000240200000000014051039
:1026680000000240800002404000000000180611EF
:04267800010000005D
:040000050800016D81
:00000001FF
